{"contracts/OrderNFTCollection.sol":{"OrderNFTCollection":{"abi":[{"inputs":[{"internalType":"string","name":"_name","type":"string"},{"internalType":"string","name":"_symbol","type":"string"},{"internalType":"string","name":"_baseTokenURI","type":"string"},{"internalType":"uint256","name":"_maxSupply","type":"uint256"},{"internalType":"address","name":"_mintToken","type":"address"},{"internalType":"uint256","name":"_mintPrice","type":"uint256"},{"internalType":"uint256","name":"_marketplaceFeePercent","type":"uint256"},{"internalType":"address","name":"_creator","type":"address"},{"internalType":"address","name":"_factory","type":"address"}],"stateMutability":"nonpayable","type":"constructor"},{"anonymous":false,"inputs":[{"indexed":true,"internalType":"address","name":"owner","type":"address"},{"indexed":true,"internalType":"address","name":"approved","type":"address"},{"indexed":true,"internalType":"uint256","name":"tokenId","type":"uint256"}],"name":"Approval","type":"event"},{"anonymous":false,"inputs":[{"indexed":true,"internalType":"address","name":"owner","type":"address"},{"indexed":true,"internalType":"address","name":"operator","type":"address"},{"indexed":false,"internalType":"bool","name":"approved","type":"bool"}],"name":"ApprovalForAll","type":"event"},{"anonymous":false,"inputs":[{"indexed":true,"internalType":"address","name":"token","type":"address"},{"indexed":true,"internalType":"address","name":"to","type":"address"},{"indexed":false,"internalType":"uint256","name":"amount","type":"uint256"}],"name":"ERC20Recovered","type":"event"},{"anonymous":false,"inputs":[{"indexed":false,"internalType":"uint256","name":"oldFee","type":"uint256"},{"indexed":false,"internalType":"uint256","name":"newFee","type":"uint256"}],"name":"MarketplaceFeeUpdated","type":"event"},{"anonymous":false,"inputs":[{"indexed":true,"internalType":"address","name":"creator","type":"address"},{"indexed":false,"internalType":"uint256","name":"amount","type":"uint256"},{"indexed":false,"internalType":"address","name":"token","type":"address"}],"name":"MarketplaceFeeWithdrawn","type":"event"},{"anonymous":false,"inputs":[{"indexed":false,"internalType":"uint256","name":"oldPrice","type":"uint256"},{"indexed":false,"internalType":"uint256","name":"newPrice","type":"uint256"}],"name":"MintPriceUpdated","type":"event"},{"anonymous":false,"inputs":[{"indexed":false,"internalType":"address","name":"account","type":"address"}],"name":"Paused","type":"event"},{"anonymous":false,"inputs":[{"indexed":true,"internalType":"uint256","name":"tokenId","type":"uint256"},{"indexed":false,"internalType":"uint256","name":"oldPrice","type":"uint256"},{"indexed":false,"internalType":"uint256","name":"newPrice","type":"uint256"}],"name":"PriceUpdated","type":"event"},{"anonymous":false,"inputs":[{"indexed":true,"internalType":"address","name":"creator","type":"address"},{"indexed":false,"internalType":"uint256","name":"amount","type":"uint256"},{"indexed":false,"internalType":"address","name":"token","type":"address"}],"name":"RevenueWithdrawn","type":"event"},{"anonymous":false,"inputs":[{"indexed":true,"internalType":"uint256","name":"tokenId","type":"uint256"},{"indexed":true,"internalType":"address","name":"seller","type":"address"},{"indexed":false,"internalType":"uint256","name":"price","type":"uint256"},{"indexed":false,"internalType":"address","name":"paymentToken","type":"address"}],"name":"TokenListed","type":"event"},{"anonymous":false,"inputs":[{"indexed":true,"internalType":"address","name":"to","type":"address"},{"indexed":true,"internalType":"uint256","name":"tokenId","type":"uint256"},{"indexed":false,"internalType":"uint256","name":"price","type":"uint256"},{"indexed":false,"internalType":"address","name":"paymentToken","type":"address"}],"name":"TokenMinted","type":"event"},{"anonymous":false,"inputs":[{"indexed":true,"internalType":"uint256","name":"tokenId","type":"uint256"},{"indexed":true,"internalType":"address","name":"seller","type":"address"},{"indexed":true,"internalType":"address","name":"buyer","type":"address"},{"indexed":false,"internalType":"uint256","name":"price","type":"uint256"},{"indexed":false,"internalType":"address","name":"paymentToken","type":"address"},{"indexed":false,"internalType":"uint256","name":"marketplaceFee","type":"uint256"}],"name":"TokenSold","type":"event"},{"anonymous":false,"inputs":[{"indexed":true,"internalType":"uint256","name":"tokenId","type":"uint256"},{"indexed":true,"internalType":"address","name":"seller","type":"address"}],"name":"TokenUnlisted","type":"event"},{"anonymous":false,"inputs":[{"indexed":true,"internalType":"address","name":"from","type":"address"},{"indexed":true,"internalType":"address","name":"to","type":"address"},{"indexed":true,"internalType":"uint256","name":"tokenId","type":"uint256"}],"name":"Transfer","type":"event"},{"anonymous":false,"inputs":[{"indexed":false,"internalType":"address","name":"account","type":"address"}],"name":"Unpaused","type":"event"},{"inputs":[{"internalType":"uint256","name":"","type":"uint256"}],"name":"activeListings","outputs":[{"internalType":"uint256","name":"","type":"uint256"}],"stateMutability":"view","type":"function"},{"inputs":[{"internalType":"address","name":"to","type":"address"},{"internalType":"uint256","name":"tokenId","type":"uint256"}],"name":"approve","outputs":[],"stateMutability":"nonpayable","type":"function"},{"inputs":[{"internalType":"address","name":"owner","type":"address"}],"name":"balanceOf","outputs":[{"internalType":"uint256","name":"","type":"uint256"}],"stateMutability":"view","type":"function"},{"inputs":[{"internalType":"uint256","name":"_tokenId","type":"uint256"}],"name":"buyToken","outputs":[],"stateMutability":"nonpayable","type":"function"},{"inputs":[],"name":"collectionImageUrl","outputs":[{"internalType":"string","name":"","type":"string"}],"stateMutability":"view","type":"function"},{"inputs":[],"name":"creator","outputs":[{"internalType":"address","name":"","type":"address"}],"stateMutability":"view","type":"function"},{"inputs":[],"name":"description","outputs":[{"internalType":"string","name":"","type":"string"}],"stateMutability":"view","type":"function"},{"inputs":[],"name":"factory","outputs":[{"internalType":"address","name":"","type":"address"}],"stateMutability":"view","type":"function"},{"inputs":[{"internalType":"uint256","name":"_offset","type":"uint256"},{"internalType":"uint256","name":"_limit","type":"uint256"}],"name":"getActiveListings","outputs":[{"components":[{"internalType":"uint256","name":"tokenId","type":"uint256"},{"internalType":"address","name":"seller","type":"address"},{"internalType":"uint256","name":"price","type":"uint256"},{"internalType":"address","name":"paymentToken","type":"address"},{"internalType":"uint256","name":"listedAt","type":"uint256"},{"internalType":"bool","name":"active","type":"bool"}],"internalType":"struct OrderNFTCollection.Listing[]","name":"","type":"tuple[]"}],"stateMutability":"view","type":"function"},{"inputs":[{"internalType":"uint256","name":"tokenId","type":"uint256"}],"name":"getApproved","outputs":[{"internalType":"address","name":"","type":"address"}],"stateMutability":"view","type":"function"},{"inputs":[],"name":"getCollectionStats","outputs":[{"internalType":"uint256","name":"_totalSupply","type":"uint256"},{"internalType":"uint256","name":"_maxSupply","type":"uint256"},{"internalType":"uint256","name":"_totalRevenue","type":"uint256"},{"internalType":"uint256","name":"_totalMarketplaceFees","type":"uint256"},{"internalType":"uint256","name":"_activeListingsCount","type":"uint256"},{"internalType":"uint256","name":"_mintPrice","type":"uint256"},{"internalType":"uint256","name":"_marketplaceFeePercent","type":"uint256"}],"stateMutability":"view","type":"function"},{"inputs":[{"internalType":"address","name":"_seller","type":"address"}],"name":"getListingsBySeller","outputs":[{"internalType":"uint256[]","name":"","type":"uint256[]"}],"stateMutability":"view","type":"function"},{"inputs":[{"internalType":"address","name":"owner","type":"address"},{"internalType":"address","name":"operator","type":"address"}],"name":"isApprovedForAll","outputs":[{"internalType":"bool","name":"","type":"bool"}],"stateMutability":"view","type":"function"},{"inputs":[{"internalType":"uint256","name":"","type":"uint256"}],"name":"isListed","outputs":[{"internalType":"bool","name":"","type":"bool"}],"stateMutability":"view","type":"function"},{"inputs":[{"internalType":"uint256","name":"_tokenId","type":"uint256"},{"internalType":"uint256","name":"_price","type":"uint256"},{"internalType":"address","name":"_paymentToken","type":"address"}],"name":"listToken","outputs":[],"stateMutability":"nonpayable","type":"function"},{"inputs":[{"internalType":"uint256","name":"","type":"uint256"}],"name":"listings","outputs":[{"internalType":"uint256","name":"tokenId","type":"uint256"},{"internalType":"address","name":"seller","type":"address"},{"internalType":"uint256","name":"price","type":"uint256"},{"internalType":"address","name":"paymentToken","type":"address"},{"internalType":"uint256","name":"listedAt","type":"uint256"},{"internalType":"bool","name":"active","type":"bool"}],"stateMutability":"view","type":"function"},{"inputs":[],"name":"marketplaceFeePercent","outputs":[{"internalType":"uint256","name":"","type":"uint256"}],"stateMutability":"view","type":"function"},{"inputs":[{"internalType":"address","name":"","type":"address"}],"name":"marketplaceFeesByToken","outputs":[{"internalType":"uint256","name":"","type":"uint256"}],"stateMutability":"view","type":"function"},{"inputs":[],"name":"maxSupply","outputs":[{"internalType":"uint256","name":"","type":"uint256"}],"stateMutability":"view","type":"function"},{"inputs":[{"internalType":"address","name":"_to","type":"address"}],"name":"mint","outputs":[{"internalType":"uint256","name":"","type":"uint256"}],"stateMutability":"nonpayable","type":"function"},{"inputs":[],"name":"mintPrice","outputs":[{"internalType":"uint256","name":"","type":"uint256"}],"stateMutability":"view","type":"function"},{"inputs":[],"name":"mintToken","outputs":[{"internalType":"address","name":"","type":"address"}],"stateMutability":"view","type":"function"},{"inputs":[],"name":"name","outputs":[{"internalType":"string","name":"","type":"string"}],"stateMutability":"view","type":"function"},{"inputs":[{"internalType":"uint256","name":"tokenId","type":"uint256"}],"name":"ownerOf","outputs":[{"internalType":"address","name":"","type":"address"}],"stateMutability":"view","type":"function"},{"inputs":[],"name":"pause","outputs":[],"stateMutability":"nonpayable","type":"function"},{"inputs":[],"name":"paused","outputs":[{"internalType":"bool","name":"","type":"bool"}],"stateMutability":"view","type":"function"},{"inputs":[{"internalType":"address","name":"_token","type":"address"},{"internalType":"address","name":"_to","type":"address"},{"internalType":"uint256","name":"_amount","type":"uint256"}],"name":"recoverERC20","outputs":[],"stateMutability":"nonpayable","type":"function"},{"inputs":[{"internalType":"address","name":"","type":"address"}],"name":"revenueByToken","outputs":[{"internalType":"uint256","name":"","type":"uint256"}],"stateMutability":"view","type":"function"},{"inputs":[{"internalType":"address","name":"from","type":"address"},{"internalType":"address","name":"to","type":"address"},{"internalType":"uint256","name":"tokenId","type":"uint256"}],"name":"safeTransferFrom","outputs":[],"stateMutability":"nonpayable","type":"function"},{"inputs":[{"internalType":"address","name":"from","type":"address"},{"internalType":"address","name":"to","type":"address"},{"internalType":"uint256","name":"tokenId","type":"uint256"},{"internalType":"bytes","name":"data","type":"bytes"}],"name":"safeTransferFrom","outputs":[],"stateMutability":"nonpayable","type":"function"},{"inputs":[{"internalType":"address","name":"operator","type":"address"},{"internalType":"bool","name":"approved","type":"bool"}],"name":"setApprovalForAll","outputs":[],"stateMutability":"nonpayable","type":"function"},{"inputs":[{"internalType":"uint256","name":"_newFeePercent","type":"uint256"}],"name":"setMarketplaceFee","outputs":[],"stateMutability":"nonpayable","type":"function"},{"inputs":[{"internalType":"string","name":"_description","type":"string"},{"internalType":"string","name":"_collectionImageUrl","type":"string"}],"name":"setMetadata","outputs":[],"stateMutability":"nonpayable","type":"function"},{"inputs":[{"internalType":"uint256","name":"_newPrice","type":"uint256"}],"name":"setMintPrice","outputs":[],"stateMutability":"nonpayable","type":"function"},{"inputs":[{"internalType":"bytes4","name":"interfaceId","type":"bytes4"}],"name":"supportsInterface","outputs":[{"internalType":"bool","name":"","type":"bool"}],"stateMutability":"view","type":"function"},{"inputs":[],"name":"symbol","outputs":[{"internalType":"string","name":"","type":"string"}],"stateMutability":"view","type":"function"},{"inputs":[{"internalType":"uint256","name":"tokenId","type":"uint256"}],"name":"tokenURI","outputs":[{"internalType":"string","name":"","type":"string"}],"stateMutability":"view","type":"function"},{"inputs":[{"internalType":"address","name":"_owner","type":"address"}],"name":"tokensOfOwner","outputs":[{"internalType":"uint256[]","name":"","type":"uint256[]"}],"stateMutability":"view","type":"function"},{"inputs":[],"name":"totalMarketplaceFees","outputs":[{"internalType":"uint256","name":"","type":"uint256"}],"stateMutability":"view","type":"function"},{"inputs":[],"name":"totalRevenue","outputs":[{"internalType":"uint256","name":"","type":"uint256"}],"stateMutability":"view","type":"function"},{"inputs":[],"name":"totalSupply","outputs":[{"internalType":"uint256","name":"","type":"uint256"}],"stateMutability":"view","type":"function"},{"inputs":[{"internalType":"address","name":"from","type":"address"},{"internalType":"address","name":"to","type":"address"},{"internalType":"uint256","name":"tokenId","type":"uint256"}],"name":"transferFrom","outputs":[],"stateMutability":"nonpayable","type":"function"},{"inputs":[{"internalType":"uint256","name":"_tokenId","type":"uint256"}],"name":"unlistToken","outputs":[],"stateMutability":"nonpayable","type":"function"},{"inputs":[],"name":"unpause","outputs":[],"stateMutability":"nonpayable","type":"function"},{"inputs":[{"internalType":"uint256","name":"_tokenId","type":"uint256"},{"internalType":"uint256","name":"_newPrice","type":"uint256"}],"name":"updatePrice","outputs":[],"stateMutability":"nonpayable","type":"function"},{"inputs":[{"internalType":"address","name":"_token","type":"address"},{"internalType":"uint256","name":"_amount","type":"uint256"}],"name":"withdrawMarketplaceFees","outputs":[],"stateMutability":"nonpayable","type":"function"},{"inputs":[{"internalType":"address","name":"_token","type":"address"},{"internalType":"uint256","name":"_amount","type":"uint256"}],"name":"withdrawRevenue","outputs":[],"stateMutability":"nonpayable","type":"function"}],"evm":{"bytecode":{"linkReferences":{},"object":"60406080815234620007985762004146803803806200001e816200079d565b92833981019061012081830312620007985780516001600160401b0381116200079857826200004f918301620007c3565b60208201516001600160401b03811162000798578362000071918401620007c3565b8285015190936001600160401b038211620007985762000093918401620007c3565b926060830151620000a76080850162000835565b9060a08501519160c086015193620000d1610100620000c960e08a0162000835565b980162000835565b86519096906001600160401b038111620003b957600054600181811c911680156200078d575b60208210146200039857601f811162000739575b50806020601f8211600114620006c257600091620006b6575b508160011b916000199060031b1c1916176000555b81516001600160401b038111620003b957600154600181811c91168015620006ab575b60208210146200039857601f811162000656575b50806020601f8211600114620005dd57600091620005d1575b508160011b916000199060031b1c1916176001555b600160065560ff196007541660075551156200059d57511562000567578651156200052f578115620004eb576001600160a01b03908116958615620004b25783156200046e576103e885116200043b578116948515620004055716958615620003cf578051906001600160401b038211620003b95760085490600182811c92168015620003ae575b6020831014620003985781601f84931162000334575b50602090601f8311600114620002ba57600092620002ae575b50508160011b916000199060031b1c1916176008555b60095560018060a01b03199384600a541617600a55600b55600c5581600d541617600d55600e541617600e556001600f5401600f555161389b90816200084b8239f35b01519050388062000255565b60086000908152600080516020620041068339815191529350601f198516905b8181106200031b575090846001959493921062000301575b505050811b016008556200026b565b015160001960f88460031b161c19169055388080620002f2565b92936020600181928786015181550195019301620002da565b600860005290915060008051602062004106833981519152601f840160051c810191602085106200038d575b90601f859493920160051c01905b8181106200037d57506200023c565b600081558493506001016200036e565b909150819062000360565b634e487b7160e01b600052602260045260246000fd5b91607f169162000226565b634e487b7160e01b600052604160045260246000fd5b875162461bcd60e51b815260206004820152600f60248201526e496e76616c696420666163746f727960881b6044820152606490fd5b885162461bcd60e51b815260206004820152600f60248201526e24b73b30b634b21031b932b0ba37b960891b6044820152606490fd5b885162461bcd60e51b815260206004820152600c60248201526b08ccaca40e8dede40d0d2ced60a31b6044820152606490fd5b885162461bcd60e51b815260206004820152601b60248201527f4d696e74207072696365206d75737420626520706f73697469766500000000006044820152606490fd5b885162461bcd60e51b815260206004820152601260248201527124b73b30b634b21036b4b73a103a37b5b2b760711b6044820152606490fd5b875162461bcd60e51b815260206004820152601b60248201527f4d617820737570706c79206d75737420626520706f73697469766500000000006044820152606490fd5b875162461bcd60e51b815260206004820152601160248201527010985cd948155492481c995c5d5a5c9959607a1b6044820152606490fd5b875162461bcd60e51b815260206004820152600f60248201526e14de5b589bdb081c995c5d5a5c9959608a1b6044820152606490fd5b885162461bcd60e51b815260206004820152600d60248201526c13985b59481c995c5d5a5c9959609a1b6044820152606490fd5b90508301513862000189565b60016000908152925060008051602062004126833981519152905b601f19831684106200063d576001935082601f1981161062000623575b5050811b016001556200019e565b85015160001960f88460031b161c19169055388062000615565b85810151825560209384019360019092019101620005f8565b600160005260008051602062004126833981519152601f830160051c810160208410620006a3575b601f830160051c820181106200069657505062000170565b600081556001016200067e565b50806200067e565b90607f16906200015c565b90508201513862000124565b60008080529250600080516020620040e6833981519152905b601f198316841062000720576001935082601f1981161062000706575b5050811b0160005562000139565b84015160001960f88460031b161c191690553880620006f8565b84810151825560209384019360019092019101620006db565b60008052600080516020620040e6833981519152601f830160051c81016020841062000785575b601f830160051c82018110620007785750506200010b565b6000815560010162000760565b508062000760565b90607f1690620000f7565b600080fd5b6040519190601f01601f191682016001600160401b03811183821017620003b957604052565b919080601f84011215620007985782516001600160401b038111620003b957602090620007f9601f8201601f191683016200079d565b92818452828287010111620007985760005b8181106200082157508260009394955001015290565b85810183015184820184015282016200080b565b51906001600160a01b0382168203620007985756fe6080604081815260048036101561001557600080fd5b600092833560e01c90816301ffc9a7146125865750806302d05d3f1461255e57806306fdde03146124b6578063081812fc1461248e578063095ea7b3146122fa5780631171bda91461215857806318160ddd1461212b5780632004ffd91461210357806323b872dd146120de5780632c3c7f3d14611fd25780632d296bf114611cc8578063312e13dc14611c9157806338d73b0d14611c725780633f4ba83a14611bc657806342842e0e14611b9257806351335b50146118975780635894bd51146118245780635c975abb1461180057806361cf4863146117c85780636352211e146117985780636817c76c146117795780636a6278421461139e57806370a08231146113715780637284e416146112c75780637819666214610f9857806382367b2d14610ef25780638424d70b14610ebb5780638456cb5914610e525780638462151c14610e2057806384b75f9514610e015780638b63c26714610cc55780639407ea9814610c1457806395d89b4114610b6c578063a22cb46514610a94578063ad3a358c146109f3578063b2d1eb801461090e578063b88d4fde1461085b578063bf2d9e0b1461083c578063c128b231146107a7578063c45a01551461077f578063c87b56dd146104a1578063d5abeb0114610482578063d8cba25114610383578063de74e57b14610316578063e985e9c5146102c4578063f4a0a528146102575763fcce48831461022857600080fd5b34610253576020366003190112610253578160209360ff923581526011855220541690519015158152f35b8280fd5b509034610253576020366003190112610253577f2e1c9e000c6e8dda4d03536adb13b7cb6034ccff90d17f01de381e4d5097b52591356102a36001600160a01b03600d54163314612f29565b6102ae811515612fc4565b600b549080600b5582519182526020820152a180f35b50503461031257806003193601126103125760ff816020936102e461269e565b6102ec6126b9565b6001600160a01b0391821683526005875283832091168252855220549151911615158152f35b5080fd5b509034610253576020366003190112610253578060c093833581526010602052208054926001600160a01b03806001840154169360ff60056002860154936003870154169486015495015416948151968752602087015285015260608401526080830152151560a0820152f35b82843461047f5760209182600319360112610312576103a061269e565b601254936001600160a01b039391841682805b87811061043657506103c490613684565b9483805b8881106103e0578651806103dc8a8261283f565b0390f35b6103e981612732565b90549060031b1c80835260108652848460018a862001541614610416575b50610411906134f9565b6103c8565b8661042f9161042961041194998c613508565b526134f9565b9590610407565b61043f81612732565b90549060031b1c855260108452828760018888200154161461046a575b610465906134f9565b6103b3565b90610477610465916134f9565b91905061045c565b80fd5b5050346103125781600319360112610312576020906009549051908152f35b50829034610312576020918260031936011261047f5782908483356104e46104df8260005260026020526001600160a01b0360406000205416151590565b612920565b8151948391600854876104f68261277f565b94858252888201956001938a8582169182600014610762575050600114610709575b5090610525910389612807565b8751156106ea5781809387917a184f03e93ff9f4daa797ed6e38ed64bf6a1f01000000000000000090818110156106dd575b5050886d04ee2d6d415b85acef8100000000808710156106ce575b5050662386f26fc10000808610156106bf575b506305f5e100808610156106b0575b50612710808610156106a4575b50506064841015610696575b60219082600a8096101561068f575b939291906105e38382016105db6105d28261287a565b9a519a8b612807565b808a5261287a565b888b019990601f1901368b3750870101905b61064c575b505050509361063b92610620949261062f6103dc978a5197889551809288880190612656565b84019151809386840190612656565b01038084520182612807565b925b51928284938452830190612679565b600019019083907f30313233343536373839616263646566000000000000000000000000000000008282061a83530491821561068a579190826105f5565b6105fa565b01826105bc565b6064909304926002016105ad565b90940493018b806105a1565b6008919295049401908c610594565b6010919295049401908c610585565b9091929504940190888d610572565b0494508691508c80610557565b505050509091506103dc92505190610701826127eb565b81529261063d565b600889528891507ff3f7a9fe364faab93b216da50a3214154f22a0a2b415b23a84c8169e8b636ee35b81831061074757505081018801610525610518565b8054838d018c01528c9a8e99508c9450909201918401610732565b60ff1916895291151560051b840190910191506105259050610518565b5050346103125781600319360112610312576020906001600160a01b03600e54169051908152f35b82843461047f576107c06107ba36612829565b9061351c565b8251916020808401908085528351809252808686019401925b8281106107e65785850386f35b835180518652808301516001600160a01b03908116878501528882015189880152606080830151909116908701526080808201519087015260a09081015115159086015260c090940193928101926001016107d9565b5050346103125781600319360112610312576020906014549051908152f35b5090346102535760803660031901126102535761087661269e565b9061087f6126b9565b604435906064359467ffffffffffffffff861161090a573660238701121561090a57850135936108ba6108b18661287a565b94519485612807565b84845286366024878901011161047f576020866109029760246109079a0183890137860101526108f26108ed8433612ab4565b6129cd565b6108fd838383612b93565b612ec8565b612a3e565b80f35b8680fd5b505034610312578160031936011261031257805190826019546109308161277f565b808552916001918083169081156109cb575060011461096e575b50505061095c826103dc940383612807565b51918291602083526020830190612679565b9450601985527f944998273e477b495144fb8794c914197f3ccb46be2900f4698fd0ef743c96955b8286106109b35750505061095c8260206103dc958201019461094a565b80546020878701810191909152909501948101610996565b6103dc97508693506020925061095c94915060ff191682840152151560051b8201019461094a565b50346102535760203660031901126102535760ff610a62913592610a35610a308560005260026020526001600160a01b0360406000205416151590565b613304565b610a51610a418561296b565b6001600160a01b0316331461334f565b83855260116020528420541661339a565b610a6b81613772565b33907fbe50bf6d5ebc58e29a68dddccdef1c087a9e6dd728a5c3247051d7fdad14219b8380a380f35b509034610253578060031936011261025357610aae61269e565b9060243580151592838203610b68576001600160a01b031693843314610b255750610af89033865260056020528286208587526020528286209060ff801983541691151516179055565b519081527f17307eab39ab6107e8899845ad3d59bd9653f200f220920489ca2b5937696c3160203392a380f35b606490602084519162461bcd60e51b8352820152601960248201527f4552433732313a20617070726f766520746f2063616c6c6572000000000000006044820152fd5b8580fd5b505034610312578160031936011261031257805190826001805491610b908361277f565b808652928281169081156109cb5750600114610bb85750505061095c826103dc940383612807565b94508085527fb10e2d527612073b26eecdfd717e6a320cf44b4afac2b0732d9fcbe2b7fa0cf65b828610610bfc5750505061095c8260206103dc958201019461094a565b80546020878701810191909152909501948101610bdf565b503461025357602036600319011261025357803590610c3f6001600160a01b03600d54163314612f29565b6103e88211610c825750907f936008f1e981d6f48d4a529714c27d74d644750a1d215451212ce0f2476f2fbc91600c549080600c5582519182526020820152a180f35b606490602084519162461bcd60e51b8352820152600c60248201527f46656520746f6f206869676800000000000000000000000000000000000000006044820152fd5b50919034610312578060031936011261031257610ce061269e565b6024356001600160a01b0394610cfb86600d54163314612f29565b610d0361303f565b85831690610d1282151561344b565b610d1d831515613496565b8186526016602052828587205410610dbe57508495610d8e8383610db3947f0121b283ed79f0646a25775a9eb3c86aa23bea96a49ef2fad07d17686dfd2c609899526016602052888a20610d7283825461300f565b9055610d808260145461300f565b60145583600d5416906133e5565b600d54169451928392839092916001600160a01b036020916040840195845216910152565b0390a2600160065580f35b606490602086519162461bcd60e51b8352820152601460248201527f496e73756666696369656e7420726576656e75650000000000000000000000006044820152fd5b5050346103125781600319360112610312576020906015549051908152f35b505034610312576020366003190112610312576103dc90610e47610e4261269e565b6136b6565b90519182918261283f565b50503461031257816003193601126103125760207f62e78cea01bee320cd4e420270b5ea74000d11b0c9f74754ebdbfc544b05a25891610e9e6001600160a01b03600d54163314612f29565b610ea6612f74565b600160ff19600754161760075551338152a180f35b50503461031257602036600319011261031257806020926001600160a01b03610ee261269e565b1681526017845220549051908152f35b505034610312577f15819dd2fd9f6418b142e798d08a18d0bf06ea368f4480b7b0d3f75bd966bc48610f2336612829565b610f48610a3083959360005260026020526001600160a01b0360406000205416151590565b610f54610a418561296b565b8385526011602052610f6b60ff838720541661339a565b610f76811515612fc4565b838552601060205260028286200190808254925582519182526020820152a280f35b5090346102535760603660031901126102535781359060243593604435946001600160a01b0393848716968781036112c357610fd261303f565b610fda612f74565b610ffd610a308360005260026020526001600160a01b0360406000205416151590565b6110126110098361296b565b8716331461334f565b8184526020956011875260ff868620541661128157611032841515612fc4565b881561123f5785517f18160ddd0000000000000000000000000000000000000000000000000000000081528780828b818e5afa9182611216575b50506110b4576064888888519162461bcd60e51b8352820152601b60248201527f496e76616c6964204552433230207061796d656e7420746f6b656e00000000006044820152fd5b868861115788936005878a8f8851946110cc866127b9565b838652888601903382528d8b8801908152606088019384528b608089019542875260a08a019760018952815260108d52209751885581600189019351169273ffffffffffffffffffffffffffffffffffffffff1993848254161790555160028801556003870192511690825416179055518584015551151591019060ff801983541691151516179055565b60118252828720600160ff19825416179055601360125492528183882055680100000000000000008210156112035750916111f8916111da856111c18660017fad9bd239ed4e99994741303afbd6dd4c6e9e20ffd17a1241c5f2014145d3a5589801601255612732565b90919082549060031b91821b91600019901b1916179055565b519485526001600160a01b0316602085015233939081906040820190565b0390a3600160065580f35b866041602492634e487b7160e01b835252fd5b813d8311611238575b6112298183612807565b81010312610b6857873861106c565b503d61121f565b6064888888519162461bcd60e51b8352820152601560248201527f496e76616c6964207061796d656e7420746f6b656e00000000000000000000006044820152fd5b6064888888519162461bcd60e51b8352820152600f60248201527f546f6b656e206973206c697374656400000000000000000000000000000000006044820152fd5b8380fd5b505034610312578160031936011261031257805190826018546112e98161277f565b808552916001918083169081156109cb57506001146113145750505061095c826103dc940383612807565b9450601885527fb13d2d76d1f4b7be834882e410b3e3a8afaf69f83600ae24db354391d2378d2e5b8286106113595750505061095c8260206103dc958201019461094a565b8054602087870181019190915290950194810161133c565b5050346103125760203660031901126103125760209061139761139261269e565b612896565b9051908152f35b50913461047f5760209182600319360112610312576113bb61269e565b6113c361303f565b6113cb612f74565b6001600160a01b039081811691821561173757600f549460095486116116f55781600a54168551906370a0823160e01b90818352308b8401528983602481845afa9283156116eb5784936116ba575b50600b5461142b9130903390613094565b888a602486600a5416938a519485938492835230908301525afa9081156116b0578391611681575b50611464611525926109029261300f565b9488885191611472836127eb565b85835261149e6114988360005260026020526001600160a01b0360406000205416151590565b15613221565b6114c16114988360005260026020526001600160a01b0360406000205416151590565b88865260038c528986206001815401905581865260028c528986208973ffffffffffffffffffffffffffffffffffffffff198254161790558189877fddf252ad1be2c89b69c2b068fc378daa952ba7f163c4a11628f55a4df523b3ef8180a4612d52565b6001600f5401600f5561153a83601454613032565b60145581600a5416815260168752848120611556848254613032565b905581600e541690600f54600019810190811161166e57823b1561031257819060248b838a5196879485937fabf1c2040000000000000000000000000000000000000000000000000000000085528401525af198891561166257879899979697611609575b5050600a548651938452919091166001600160a01b03166020830152507f6a1a369ef3c3eebe428c993f6eb79fb1438544741070bc7a4388c801fa08463d90604090a3600160065551908152f35b9091929394955067ffffffffffffffff831161164f5750508452849291907f6a1a369ef3c3eebe428c993f6eb79fb1438544741070bc7a4388c801fa08463d38806115bb565b906041602492634e487b7160e01b835252fd5b508551903d90823e3d90fd5b60248260118c634e487b7160e01b835252fd5b90508881813d83116116a9575b6116988183612807565b810103126102535751611464611453565b503d61168e565b87513d85823e3d90fd5b9092508981813d83116116e4575b6116d28183612807565b810103126112c357519161142b61141a565b503d6116c8565b88513d86823e3d90fd5b6064888887519162461bcd60e51b8352820152601260248201527f4d617820737570706c79207265616368656400000000000000000000000000006044820152fd5b6064878786519162461bcd60e51b8352820152601160248201527f496e76616c696420726563697069656e740000000000000000000000000000006044820152fd5b505034610312578160031936011261031257602090600b549051908152f35b50913461047f57602036600319011261047f57506001600160a01b036117c06020933561296b565b915191168152f35b503461025357602036600319011261025357359160125483101561047f57506117f2602092612732565b91905490519160031b1c8152f35b50503461031257816003193601126103125760209060ff6007541690519015158152f35b50919034610312578160031936011261031257600f546000198101929083116118845760e083836009549060145460155460125491600b5493600c5495815197885260208801528601526060850152608084015260a083015260c0820152f35b80601185634e487b7160e01b6024945252fd5b509190346103125736600319011261047f5767ffffffffffffffff8235818111610253576118c89036908501612704565b93602435838111611b8e576118e09036908301612704565b9390956118f96001600160a01b03600d54163314612f29565b818111611b7b578061190c60185461277f565b94601f95868111611b0f575b508790868311600114611a8a578892611a7f575b50508160011b916000199060031b1c1916176018555b8311611a6c575061195460195461277f565b818111611a10575b508290821160011461199557829382939261198a575b50508160011b916000199060031b1c19161760195580f35b013590503880611972565b601f198216937f944998273e477b495144fb8794c914197f3ccb46be2900f4698fd0ef743c969591845b8681106119f857508360019596106119de575b505050811b0160195580f35b0135600019600384901b60f8161c191690553880806119d2565b909260206001819286860135815501940191016119bf565b7f944998273e477b495144fb8794c914197f3ccb46be2900f4698fd0ef743c96958280850160051c82019260208610611a63575b0160051c01905b818110611a58575061195c565b848155600101611a4b565b92508192611a44565b836041602492634e487b7160e01b835252fd5b01359050388061192c565b601889527fb13d2d76d1f4b7be834882e410b3e3a8afaf69f83600ae24db354391d2378d2e925090601f198416895b818110611af75750908460019594939210611add575b505050811b01601855611942565b0135600019600384901b60f8161c19169055388080611acf565b91936020600181928787013581550195019201611ab9565b909150601888527fb13d2d76d1f4b7be834882e410b3e3a8afaf69f83600ae24db354391d2378d2e8680850160051c82019260208610611b72575b9085949392910160051c01905b818110611b645750611918565b898155849350600101611b57565b92508192611b4a565b602486604185634e487b7160e01b835252fd5b8480fd5b5050346103125761090261090791611ba9366126cf565b91925192611bb6846127eb565b8684526108f26108ed8433612ab4565b5034610253578260031936011261025357611bed6001600160a01b03600d54163314612f29565b6007549060ff821615611c2f575060ff1916600755513381527f5db9ee0a495bf2e6ff9c91a7834c1ba4fdd244a5e8aa4e537bd38aeae4b073aa90602090a180f35b606490602084519162461bcd60e51b8352820152601460248201527f5061757361626c653a206e6f74207061757365640000000000000000000000006044820152fd5b505034610312578160031936011261031257602090600c549051908152f35b50503461031257602036600319011261031257806020926001600160a01b03611cb861269e565b1681526016845220549051908152f35b509034610253576020806003193601126112c357823590611ce761303f565b611cef612f74565b611d12610a308360005260026020526001600160a01b0360406000205416151590565b81855260118152611d2860ff848720541661339a565b8185526010815282852092805193611d3f856127b9565b805485526001600160a01b038060018301541684870190815260028301549684810197885260ff60058460038701541695606084019687528b8101546080850152015416159060a08215910152611f9057818151163314611f4e5781905116955191511690611dad85613772565b82516370a0823160e01b9182825230898301528582602481875afa918215611f44578a92611f0f575b50611de390303386613094565b835191825230888301528482602481865afa8015611f05578990611ed2575b611e0c925061300f565b95600c5490818802918883041488151715611ebf5750612710900492611e32848861300f565b80611eae575b5083611e83575b611e4a853388612b93565b82519687528601528401527f695c2b5c229b2e096e844e7dfb1515d51431aad217561e67062e3e0ae7582ce960603394a4600160065580f35b611e8f84601554613032565b60155581885260178152828820611ea7858254613032565b9055611e3f565b611eb99087846133e5565b38611e38565b886011602492634e487b7160e01b835252fd5b508482813d8311611efe575b611ee88183612807565b81010312611efa57611e0c9151611e02565b8880fd5b503d611ede565b84513d8b823e3d90fd5b9091508581813d8311611f3d575b611f278183612807565b81010312611f39575190611de3611dd6565b8980fd5b503d611f1d565b85513d8c823e3d90fd5b6064888686519162461bcd60e51b8352820152601460248201527f43616e6e6f7420627579206f776e20746f6b656e0000000000000000000000006044820152fd5b6064888686519162461bcd60e51b8352820152601260248201527f4c697374696e67206e6f742061637469766500000000000000000000000000006044820152fd5b50919034610312578060031936011261031257611fed61269e565b6024356001600160a01b039461200886600d54163314612f29565b61201061303f565b8583169061201f82151561344b565b61202a831515613496565b818652601760205282858720541061209b57508495610d8e8383610db3947f9bb58b6694ef0e8a4f1486ce0ced951b4969751ce6137ffe5e5e8ed4896e9a329899526017602052888a2061207f83825461300f565b905561208d8260155461300f565b60155583600d5416906133e5565b606490602086519162461bcd60e51b8352820152601160248201527f496e73756666696369656e7420666565730000000000000000000000000000006044820152fd5b833461047f576109076120f0366126cf565b916120fe6108ed8433612ab4565b612b93565b5050346103125781600319360112610312576020906001600160a01b03600a54169051908152f35b50919034610312578160031936011261031257600f54600019810192908311611884576020838351908152f35b50903461025357612168366126cf565b909391926001600160a01b03809461218582600d54163314612f29565b61218d61303f565b169361219a85151561344b565b85169485156122b7576121ae831515613496565b848752602093601685526121cd8389205460178752848a205490613032565b83516370a0823160e01b8152308382015286816024818b5afa908115611f445786908b92612285575b506122019192613032565b11612243575090612236837faca8fb252cde442184e5f10e0f2e6e4029e8cd7717cae63559079610702436aa959493876133e5565b51908152a3600160065580f35b6064908584519162461bcd60e51b8352820152601e60248201527f43616e6e6f74207265636f7665722070726f7465637465642066756e647300006044820152fd5b809250888092503d83116122b0575b61229e8183612807565b81010312611f395751856122016121f6565b503d612294565b606484602084519162461bcd60e51b8352820152601960248201527f496e76616c696420726563697069656e742061646472657373000000000000006044820152fd5b503461025357816003193601126102535761231361269e565b90602435926001600160a01b0391828061232c8761296b565b1694169380851461242557803314908115612406575b501561239e5784865260205284208273ffffffffffffffffffffffffffffffffffffffff198254161790556123768361296b565b167f8c5be1e5ebec7d5bd14f71427d1e84f3dd0314c0f7b2291e5b200ac8c7c3b9258480a480f35b6020608492519162461bcd60e51b8352820152603d60248201527f4552433732313a20617070726f76652063616c6c6572206973206e6f7420746f60448201527f6b656e206f776e6572206f7220617070726f76656420666f7220616c6c0000006064820152fd5b90508652600560205281862033875260205260ff828720541638612342565b506020608492519162461bcd60e51b8352820152602160248201527f4552433732313a20617070726f76616c20746f2063757272656e74206f776e6560448201527f72000000000000000000000000000000000000000000000000000000000000006064820152fd5b50913461047f57602036600319011261047f57506001600160a01b036117c060209335612990565b5050346103125781600319360112610312578051908280546124d78161277f565b808552916001918083169081156109cb57506001146125025750505061095c826103dc940383612807565b80809650527f290decd9548b62a8d60345a988386fc84ba6bc95484008f6362f93160ef3e5635b8286106125465750505061095c8260206103dc958201019461094a565b80546020878701810191909152909501948101612529565b5050346103125781600319360112610312576020906001600160a01b03600d54169051908152f35b9250503461025357602036600319011261025357357fffffffff00000000000000000000000000000000000000000000000000000000811680910361025357602092507f80ac58cd00000000000000000000000000000000000000000000000000000000811490811561262c575b8115612602575b5015158152f35b7f01ffc9a700000000000000000000000000000000000000000000000000000000915014386125fb565b7f5b5e139f00000000000000000000000000000000000000000000000000000000811491506125f4565b60005b8381106126695750506000910152565b8181015183820152602001612659565b9060209161269281518092818552858086019101612656565b601f01601f1916010190565b600435906001600160a01b03821682036126b457565b600080fd5b602435906001600160a01b03821682036126b457565b60609060031901126126b4576001600160a01b039060043582811681036126b4579160243590811681036126b4579060443590565b9181601f840112156126b45782359167ffffffffffffffff83116126b457602083818601950101116126b457565b6012548110156127695760126000527fbb8a6a4669ba250d26cd7a459eca9d215f8307e33aebe50379bc5a3617ec34440190600090565b634e487b7160e01b600052603260045260246000fd5b90600182811c921680156127af575b602083101461279957565b634e487b7160e01b600052602260045260246000fd5b91607f169161278e565b60c0810190811067ffffffffffffffff8211176127d557604052565b634e487b7160e01b600052604160045260246000fd5b6020810190811067ffffffffffffffff8211176127d557604052565b90601f8019910116810190811067ffffffffffffffff8211176127d557604052565b60409060031901126126b4576004359060243590565b6020908160408183019282815285518094520193019160005b828110612866575050505090565b835185529381019392810192600101612858565b67ffffffffffffffff81116127d557601f01601f191660200190565b6001600160a01b031680156128b657600052600360205260406000205490565b608460405162461bcd60e51b815260206004820152602960248201527f4552433732313a2061646472657373207a65726f206973206e6f74206120766160448201527f6c6964206f776e657200000000000000000000000000000000000000000000006064820152fd5b1561292757565b606460405162461bcd60e51b815260206004820152601860248201527f4552433732313a20696e76616c696420746f6b656e20494400000000000000006044820152fd5b60005260026020526001600160a01b036040600020541661298d811515612920565b90565b6129b36104df8260005260026020526001600160a01b0360406000205416151590565b60005260046020526001600160a01b036040600020541690565b156129d457565b608460405162461bcd60e51b815260206004820152602d60248201527f4552433732313a2063616c6c6572206973206e6f7420746f6b656e206f776e6560448201527f72206f7220617070726f766564000000000000000000000000000000000000006064820152fd5b15612a4557565b60405162461bcd60e51b815260206004820152603260248201527f4552433732313a207472616e7366657220746f206e6f6e20455243373231526560448201527f63656976657220696d706c656d656e74657200000000000000000000000000006064820152608490fd5b0390fd5b906001600160a01b038080612ac88461296b565b16931691838314938415612afb575b508315612ae5575b50505090565b612af191929350612990565b1614388080612adf565b909350600052600560205260406000208260005260205260ff604060002054169238612ad7565b15612b2957565b608460405162461bcd60e51b815260206004820152602560248201527f4552433732313a207472616e736665722066726f6d20696e636f72726563742060448201527f6f776e65720000000000000000000000000000000000000000000000000000006064820152fd5b90612bbb91612ba18461296b565b916001600160a01b03938493848094169485911614612b22565b16918215612cb95781612be69181151580612ca1575b612c6c575b612bdf8661296b565b1614612b22565b7fddf252ad1be2c89b69c2b068fc378daa952ba7f163c4a11628f55a4df523b3ef600084815260046020526040812073ffffffffffffffffffffffffffffffffffffffff199081815416905583825260036020526040822060001981540190558482526040822060018154019055858252600260205284604083209182541617905580a4565b612c7586613772565b81867fbe50bf6d5ebc58e29a68dddccdef1c087a9e6dd728a5c3247051d7fdad14219b600080a3612bd6565b5085600052601160205260ff60406000205416612bd1565b608460405162461bcd60e51b8152602060048201526024808201527f4552433732313a207472616e7366657220746f20746865207a65726f2061646460448201527f72657373000000000000000000000000000000000000000000000000000000006064820152fd5b3d15612d4d573d90612d338261287a565b91612d416040519384612807565b82523d6000602084013e565b606090565b9091600091803b15612ebf57612da56020916001600160a01b039385604051958680958194630a85bd0160e11b9b8c84523360048501528560248501526044840152608060648401526084830190612679565b0393165af190829082612e5f575b5050612e3957612dc1612d22565b80519081612e345760405162461bcd60e51b815260206004820152603260248201527f4552433732313a207472616e7366657220746f206e6f6e20455243373231526560448201527f63656976657220696d706c656d656e74657200000000000000000000000000006064820152608490fd5b602001fd5b7fffffffff00000000000000000000000000000000000000000000000000000000161490565b909192506020813d8211612eb7575b81612e7b60209383612807565b810103126103125751907fffffffff000000000000000000000000000000000000000000000000000000008216820361047f5750903880612db3565b3d9150612e6e565b50505050600190565b91926000929190813b15612f1f57602091612da59185604051958680958194630a85bd0160e11b9b8c84523360048501526001600160a01b0380951660248501526044840152608060648401526084830190612679565b5050505050600190565b15612f3057565b606460405162461bcd60e51b815260206004820152600c60248201527f4f6e6c792063726561746f7200000000000000000000000000000000000000006044820152fd5b60ff60075416612f8057565b606460405162461bcd60e51b815260206004820152601060248201527f5061757361626c653a20706175736564000000000000000000000000000000006044820152fd5b15612fcb57565b606460405162461bcd60e51b815260206004820152601660248201527f5072696365206d75737420626520706f736974697665000000000000000000006044820152fd5b9190820391821161301c57565b634e487b7160e01b600052601160045260246000fd5b9190820180921161301c57565b600260065414613050576002600655565b606460405162461bcd60e51b815260206004820152601f60248201527f5265656e7472616e637947756172643a207265656e7472616e742063616c6c006044820152fd5b9290604051927f23b872dd0000000000000000000000000000000000000000000000000000000060208501526001600160a01b03809216602485015216604483015260648201526064815260a081019181831067ffffffffffffffff8411176127d55761310392604052613105565b565b6001600160a01b031690604051604081019080821067ffffffffffffffff8311176127d557613178916040526020938482527f5361666545524332303a206c6f772d6c6576656c2063616c6c206661696c6564858301526000808587829751910182855af1613172612d22565b9161326c565b8051918215918483156131fd575b5050509050156131935750565b6084906040519062461bcd60e51b82526004820152602a60248201527f5361666545524332303a204552433230206f7065726174696f6e20646964206e60448201527f6f742073756363656564000000000000000000000000000000000000000000006064820152fd5b9193818094500103126103125782015190811515820361047f575080388084613186565b1561322857565b606460405162461bcd60e51b815260206004820152601c60248201527f4552433732313a20746f6b656e20616c7265616479206d696e746564000000006044820152fd5b919290156132cd5750815115613280575090565b3b156132895790565b606460405162461bcd60e51b815260206004820152601d60248201527f416464726573733a2063616c6c20746f206e6f6e2d636f6e74726163740000006044820152fd5b8251909150156132e05750805190602001fd5b612ab09060405191829162461bcd60e51b8352602060048401526024830190612679565b1561330b57565b606460405162461bcd60e51b815260206004820152601460248201527f546f6b656e20646f6573206e6f742065786973740000000000000000000000006044820152fd5b1561335657565b606460405162461bcd60e51b815260206004820152600f60248201527f4e6f7420746f6b656e206f776e657200000000000000000000000000000000006044820152fd5b156133a157565b606460405162461bcd60e51b815260206004820152601060248201527f546f6b656e206e6f74206c6973746564000000000000000000000000000000006044820152fd5b916001600160a01b03604051927fa9059cbb000000000000000000000000000000000000000000000000000000006020850152166024830152604482015260448152608081019181831067ffffffffffffffff8411176127d55761310392604052613105565b1561345257565b606460405162461bcd60e51b815260206004820152601560248201527f496e76616c696420746f6b656e206164647265737300000000000000000000006044820152fd5b1561349d57565b606460405162461bcd60e51b815260206004820152601760248201527f416d6f756e74206d75737420626520706f7369746976650000000000000000006044820152fd5b67ffffffffffffffff81116127d55760051b60200190565b600019811461301c5760010190565b80518210156127695760209160051b010190565b90601254908183101561366e5761354791613538849283613032565b90808211613666575b5061300f565b613550816134e1565b9160409061356082519485612807565b828452601f1961356f846134e1565b0160005b81811061362757505060005b83811061358d575050505090565b806135a361359e6136229385613032565b612732565b9054600391821b1c60005260ff600560206010815287600020908851946135c9866127b9565b825486526001600160a01b0391826001850154169087015260028301548a87015282015416606085015260048101546080850152015416151560a08201526136118288613508565b5261361c8187613508565b506134f9565b61357f565b6020908451613635816127b9565b60008152826000818301526000878301526000606083015260006080830152600060a0830152828901015201613573565b905038613541565b50505060405161367d816127eb565b6000815290565b9061368e826134e1565b61369b6040519182612807565b82815280926136ac601f19916134e1565b0190602036910137565b6136bf81612896565b8015613758576136ce90613684565b906000600191600f54925b8381106136e7575050505090565b6137078160005260026020526001600160a01b0360406000205416151590565b8061373b575b613720575b61371b906134f9565b6136d9565b91613733818461042961371b9489613508565b929050613712565b506137458161296b565b6001600160a01b0380841691161461370d565b5050604051613766816127eb565b60008152600036813790565b60009080825260206011815260409161379060ff848620541661339a565b80845260138252828420546012546000199190828101908111613851576137b690612732565b90549060031b1c6137ca816111c184612732565b86526013845284862055601254801561383d579080601394939201906137ef82612732565b909182549160031b1b1916905560125584526010815283600584822082815582600182015582600282015582600382015582600482015501556011815282842060ff19815416905552812055565b602486634e487b7160e01b81526031600452fd5b602487634e487b7160e01b81526011600452fdfea2646970667358221220138c53356dfe465565beae8bd2c88ed039927b43d6bec18fe89390bd93514d0964736f6c63430008130033290decd9548b62a8d60345a988386fc84ba6bc95484008f6362f93160ef3e563f3f7a9fe364faab93b216da50a3214154f22a0a2b415b23a84c8169e8b636ee3b10e2d527612073b26eecdfd717e6a320cf44b4afac2b0732d9fcbe2b7fa0cf6","opcodes":"PUSH1 0x40 PUSH1 0x80 DUP2 MSTORE CALLVALUE PUSH3 0x798 JUMPI PUSH3 0x4146 DUP1 CODESIZE SUB DUP1 PUSH3 0x1E DUP2 PUSH3 0x79D JUMP JUMPDEST SWAP3 DUP4 CODECOPY DUP2 ADD SWAP1 PUSH2 0x120 DUP2 DUP4 SUB SLT PUSH3 0x798 JUMPI DUP1 MLOAD PUSH1 0x1 PUSH1 0x1 PUSH1 0x40 SHL SUB DUP2 GT PUSH3 0x798 JUMPI DUP3 PUSH3 0x4F SWAP2 DUP4 ADD PUSH3 0x7C3 JUMP JUMPDEST PUSH1 0x20 DUP3 ADD MLOAD PUSH1 0x1 PUSH1 0x1 PUSH1 0x40 SHL SUB DUP2 GT PUSH3 0x798 JUMPI DUP4 PUSH3 0x71 SWAP2 DUP5 ADD PUSH3 0x7C3 JUMP JUMPDEST DUP3 DUP6 ADD MLOAD SWAP1 SWAP4 PUSH1 0x1 PUSH1 0x1 PUSH1 0x40 SHL SUB DUP3 GT PUSH3 0x798 JUMPI PUSH3 0x93 SWAP2 DUP5 ADD PUSH3 0x7C3 JUMP JUMPDEST SWAP3 PUSH1 0x60 DUP4 ADD MLOAD PUSH3 0xA7 PUSH1 0x80 DUP6 ADD PUSH3 0x835 JUMP JUMPDEST SWAP1 PUSH1 0xA0 DUP6 ADD MLOAD SWAP2 PUSH1 0xC0 DUP7 ADD MLOAD SWAP4 PUSH3 0xD1 PUSH2 0x100 PUSH3 0xC9 PUSH1 0xE0 DUP11 ADD PUSH3 0x835 JUMP JUMPDEST SWAP9 ADD PUSH3 0x835 JUMP JUMPDEST DUP7 MLOAD SWAP1 SWAP7 SWAP1 PUSH1 0x1 PUSH1 0x1 PUSH1 0x40 SHL SUB DUP2 GT PUSH3 0x3B9 JUMPI PUSH1 0x0 SLOAD PUSH1 0x1 DUP2 DUP2 SHR SWAP2 AND DUP1 ISZERO PUSH3 0x78D JUMPI JUMPDEST PUSH1 0x20 DUP3 LT EQ PUSH3 0x398 JUMPI PUSH1 0x1F DUP2 GT PUSH3 0x739 JUMPI JUMPDEST POP DUP1 PUSH1 0x20 PUSH1 0x1F DUP3 GT PUSH1 0x1 EQ PUSH3 0x6C2 JUMPI PUSH1 0x0 SWAP2 PUSH3 0x6B6 JUMPI JUMPDEST POP DUP2 PUSH1 0x1 SHL SWAP2 PUSH1 0x0 NOT SWAP1 PUSH1 0x3 SHL SHR NOT AND OR PUSH1 0x0 SSTORE JUMPDEST DUP2 MLOAD PUSH1 0x1 PUSH1 0x1 PUSH1 0x40 SHL SUB DUP2 GT PUSH3 0x3B9 JUMPI PUSH1 0x1 SLOAD PUSH1 0x1 DUP2 DUP2 SHR SWAP2 AND DUP1 ISZERO PUSH3 0x6AB JUMPI JUMPDEST PUSH1 0x20 DUP3 LT EQ PUSH3 0x398 JUMPI PUSH1 0x1F DUP2 GT PUSH3 0x656 JUMPI JUMPDEST POP DUP1 PUSH1 0x20 PUSH1 0x1F DUP3 GT PUSH1 0x1 EQ PUSH3 0x5DD JUMPI PUSH1 0x0 SWAP2 PUSH3 0x5D1 JUMPI JUMPDEST POP DUP2 PUSH1 0x1 SHL SWAP2 PUSH1 0x0 NOT SWAP1 PUSH1 0x3 SHL SHR NOT AND OR PUSH1 0x1 SSTORE JUMPDEST PUSH1 0x1 PUSH1 0x6 SSTORE PUSH1 0xFF NOT PUSH1 0x7 SLOAD AND PUSH1 0x7 SSTORE MLOAD ISZERO PUSH3 0x59D JUMPI MLOAD ISZERO PUSH3 0x567 JUMPI DUP7 MLOAD ISZERO PUSH3 0x52F JUMPI DUP2 ISZERO PUSH3 0x4EB JUMPI PUSH1 0x1 PUSH1 0x1 PUSH1 0xA0 SHL SUB SWAP1 DUP2 AND SWAP6 DUP7 ISZERO PUSH3 0x4B2 JUMPI DUP4 ISZERO PUSH3 0x46E JUMPI PUSH2 0x3E8 DUP6 GT PUSH3 0x43B JUMPI DUP2 AND SWAP5 DUP6 ISZERO PUSH3 0x405 JUMPI AND SWAP6 DUP7 ISZERO PUSH3 0x3CF JUMPI DUP1 MLOAD SWAP1 PUSH1 0x1 PUSH1 0x1 PUSH1 0x40 SHL SUB DUP3 GT PUSH3 0x3B9 JUMPI PUSH1 0x8 SLOAD SWAP1 PUSH1 0x1 DUP3 DUP2 SHR SWAP3 AND DUP1 ISZERO PUSH3 0x3AE JUMPI JUMPDEST PUSH1 0x20 DUP4 LT EQ PUSH3 0x398 JUMPI DUP2 PUSH1 0x1F DUP5 SWAP4 GT PUSH3 0x334 JUMPI JUMPDEST POP PUSH1 0x20 SWAP1 PUSH1 0x1F DUP4 GT PUSH1 0x1 EQ PUSH3 0x2BA JUMPI PUSH1 0x0 SWAP3 PUSH3 0x2AE JUMPI JUMPDEST POP POP DUP2 PUSH1 0x1 SHL SWAP2 PUSH1 0x0 NOT SWAP1 PUSH1 0x3 SHL SHR NOT AND OR PUSH1 0x8 SSTORE JUMPDEST PUSH1 0x9 SSTORE PUSH1 0x1 DUP1 PUSH1 0xA0 SHL SUB NOT SWAP4 DUP5 PUSH1 0xA SLOAD AND OR PUSH1 0xA SSTORE PUSH1 0xB SSTORE PUSH1 0xC SSTORE DUP2 PUSH1 0xD SLOAD AND OR PUSH1 0xD SSTORE PUSH1 0xE SLOAD AND OR PUSH1 0xE SSTORE PUSH1 0x1 PUSH1 0xF SLOAD ADD PUSH1 0xF SSTORE MLOAD PUSH2 0x389B SWAP1 DUP2 PUSH3 0x84B DUP3 CODECOPY RETURN JUMPDEST ADD MLOAD SWAP1 POP CODESIZE DUP1 PUSH3 0x255 JUMP JUMPDEST PUSH1 0x8 PUSH1 0x0 SWAP1 DUP2 MSTORE PUSH1 0x0 DUP1 MLOAD PUSH1 0x20 PUSH3 0x4106 DUP4 CODECOPY DUP2 MLOAD SWAP2 MSTORE SWAP4 POP PUSH1 0x1F NOT DUP6 AND SWAP1 JUMPDEST DUP2 DUP2 LT PUSH3 0x31B JUMPI POP SWAP1 DUP5 PUSH1 0x1 SWAP6 SWAP5 SWAP4 SWAP3 LT PUSH3 0x301 JUMPI JUMPDEST POP POP POP DUP2 SHL ADD PUSH1 0x8 SSTORE PUSH3 0x26B JUMP JUMPDEST ADD MLOAD PUSH1 0x0 NOT PUSH1 0xF8 DUP5 PUSH1 0x3 SHL AND SHR NOT AND SWAP1 SSTORE CODESIZE DUP1 DUP1 PUSH3 0x2F2 JUMP JUMPDEST SWAP3 SWAP4 PUSH1 0x20 PUSH1 0x1 DUP2 SWAP3 DUP8 DUP7 ADD MLOAD DUP2 SSTORE ADD SWAP6 ADD SWAP4 ADD PUSH3 0x2DA JUMP JUMPDEST PUSH1 0x8 PUSH1 0x0 MSTORE SWAP1 SWAP2 POP PUSH1 0x0 DUP1 MLOAD PUSH1 0x20 PUSH3 0x4106 DUP4 CODECOPY DUP2 MLOAD SWAP2 MSTORE PUSH1 0x1F DUP5 ADD PUSH1 0x5 SHR DUP2 ADD SWAP2 PUSH1 0x20 DUP6 LT PUSH3 0x38D JUMPI JUMPDEST SWAP1 PUSH1 0x1F DUP6 SWAP5 SWAP4 SWAP3 ADD PUSH1 0x5 SHR ADD SWAP1 JUMPDEST DUP2 DUP2 LT PUSH3 0x37D JUMPI POP PUSH3 0x23C JUMP JUMPDEST PUSH1 0x0 DUP2 SSTORE DUP5 SWAP4 POP PUSH1 0x1 ADD PUSH3 0x36E JUMP JUMPDEST SWAP1 SWAP2 POP DUP2 SWAP1 PUSH3 0x360 JUMP JUMPDEST PUSH4 0x4E487B71 PUSH1 0xE0 SHL PUSH1 0x0 MSTORE PUSH1 0x22 PUSH1 0x4 MSTORE PUSH1 0x24 PUSH1 0x0 REVERT JUMPDEST SWAP2 PUSH1 0x7F AND SWAP2 PUSH3 0x226 JUMP JUMPDEST PUSH4 0x4E487B71 PUSH1 0xE0 SHL PUSH1 0x0 MSTORE PUSH1 0x41 PUSH1 0x4 MSTORE PUSH1 0x24 PUSH1 0x0 REVERT JUMPDEST DUP8 MLOAD PUSH3 0x461BCD PUSH1 0xE5 SHL DUP2 MSTORE PUSH1 0x20 PUSH1 0x4 DUP3 ADD MSTORE PUSH1 0xF PUSH1 0x24 DUP3 ADD MSTORE PUSH15 0x496E76616C696420666163746F7279 PUSH1 0x88 SHL PUSH1 0x44 DUP3 ADD MSTORE PUSH1 0x64 SWAP1 REVERT JUMPDEST DUP9 MLOAD PUSH3 0x461BCD PUSH1 0xE5 SHL DUP2 MSTORE PUSH1 0x20 PUSH1 0x4 DUP3 ADD MSTORE PUSH1 0xF PUSH1 0x24 DUP3 ADD MSTORE PUSH15 0x24B73B30B634B21031B932B0BA37B9 PUSH1 0x89 SHL PUSH1 0x44 DUP3 ADD MSTORE PUSH1 0x64 SWAP1 REVERT JUMPDEST DUP9 MLOAD PUSH3 0x461BCD PUSH1 0xE5 SHL DUP2 MSTORE PUSH1 0x20 PUSH1 0x4 DUP3 ADD MSTORE PUSH1 0xC PUSH1 0x24 DUP3 ADD MSTORE PUSH12 0x8CCACA40E8DEDE40D0D2CED PUSH1 0xA3 SHL PUSH1 0x44 DUP3 ADD MSTORE PUSH1 0x64 SWAP1 REVERT JUMPDEST DUP9 MLOAD PUSH3 0x461BCD PUSH1 0xE5 SHL DUP2 MSTORE PUSH1 0x20 PUSH1 0x4 DUP3 ADD MSTORE PUSH1 0x1B PUSH1 0x24 DUP3 ADD MSTORE PUSH32 0x4D696E74207072696365206D75737420626520706F7369746976650000000000 PUSH1 0x44 DUP3 ADD MSTORE PUSH1 0x64 SWAP1 REVERT JUMPDEST DUP9 MLOAD PUSH3 0x461BCD PUSH1 0xE5 SHL DUP2 MSTORE PUSH1 0x20 PUSH1 0x4 DUP3 ADD MSTORE PUSH1 0x12 PUSH1 0x24 DUP3 ADD MSTORE PUSH18 0x24B73B30B634B21036B4B73A103A37B5B2B7 PUSH1 0x71 SHL PUSH1 0x44 DUP3 ADD MSTORE PUSH1 0x64 SWAP1 REVERT JUMPDEST DUP8 MLOAD PUSH3 0x461BCD PUSH1 0xE5 SHL DUP2 MSTORE PUSH1 0x20 PUSH1 0x4 DUP3 ADD MSTORE PUSH1 0x1B PUSH1 0x24 DUP3 ADD MSTORE PUSH32 0x4D617820737570706C79206D75737420626520706F7369746976650000000000 PUSH1 0x44 DUP3 ADD MSTORE PUSH1 0x64 SWAP1 REVERT JUMPDEST DUP8 MLOAD PUSH3 0x461BCD PUSH1 0xE5 SHL DUP2 MSTORE PUSH1 0x20 PUSH1 0x4 DUP3 ADD MSTORE PUSH1 0x11 PUSH1 0x24 DUP3 ADD MSTORE PUSH17 0x10985CD948155492481C995C5D5A5C9959 PUSH1 0x7A SHL PUSH1 0x44 DUP3 ADD MSTORE PUSH1 0x64 SWAP1 REVERT JUMPDEST DUP8 MLOAD PUSH3 0x461BCD PUSH1 0xE5 SHL DUP2 MSTORE PUSH1 0x20 PUSH1 0x4 DUP3 ADD MSTORE PUSH1 0xF PUSH1 0x24 DUP3 ADD MSTORE PUSH15 0x14DE5B589BDB081C995C5D5A5C9959 PUSH1 0x8A SHL PUSH1 0x44 DUP3 ADD MSTORE PUSH1 0x64 SWAP1 REVERT JUMPDEST DUP9 MLOAD PUSH3 0x461BCD PUSH1 0xE5 SHL DUP2 MSTORE PUSH1 0x20 PUSH1 0x4 DUP3 ADD MSTORE PUSH1 0xD PUSH1 0x24 DUP3 ADD MSTORE PUSH13 0x13985B59481C995C5D5A5C9959 PUSH1 0x9A SHL PUSH1 0x44 DUP3 ADD MSTORE PUSH1 0x64 SWAP1 REVERT JUMPDEST SWAP1 POP DUP4 ADD MLOAD CODESIZE PUSH3 0x189 JUMP JUMPDEST PUSH1 0x1 PUSH1 0x0 SWAP1 DUP2 MSTORE SWAP3 POP PUSH1 0x0 DUP1 MLOAD PUSH1 0x20 PUSH3 0x4126 DUP4 CODECOPY DUP2 MLOAD SWAP2 MSTORE SWAP1 JUMPDEST PUSH1 0x1F NOT DUP4 AND DUP5 LT PUSH3 0x63D JUMPI PUSH1 0x1 SWAP4 POP DUP3 PUSH1 0x1F NOT DUP2 AND LT PUSH3 0x623 JUMPI JUMPDEST POP POP DUP2 SHL ADD PUSH1 0x1 SSTORE PUSH3 0x19E JUMP JUMPDEST DUP6 ADD MLOAD PUSH1 0x0 NOT PUSH1 0xF8 DUP5 PUSH1 0x3 SHL AND SHR NOT AND SWAP1 SSTORE CODESIZE DUP1 PUSH3 0x615 JUMP JUMPDEST DUP6 DUP2 ADD MLOAD DUP3 SSTORE PUSH1 0x20 SWAP4 DUP5 ADD SWAP4 PUSH1 0x1 SWAP1 SWAP3 ADD SWAP2 ADD PUSH3 0x5F8 JUMP JUMPDEST PUSH1 0x1 PUSH1 0x0 MSTORE PUSH1 0x0 DUP1 MLOAD PUSH1 0x20 PUSH3 0x4126 DUP4 CODECOPY DUP2 MLOAD SWAP2 MSTORE PUSH1 0x1F DUP4 ADD PUSH1 0x5 SHR DUP2 ADD PUSH1 0x20 DUP5 LT PUSH3 0x6A3 JUMPI JUMPDEST PUSH1 0x1F DUP4 ADD PUSH1 0x5 SHR DUP3 ADD DUP2 LT PUSH3 0x696 JUMPI POP POP PUSH3 0x170 JUMP JUMPDEST PUSH1 0x0 DUP2 SSTORE PUSH1 0x1 ADD PUSH3 0x67E JUMP JUMPDEST POP DUP1 PUSH3 0x67E JUMP JUMPDEST SWAP1 PUSH1 0x7F AND SWAP1 PUSH3 0x15C JUMP JUMPDEST SWAP1 POP DUP3 ADD MLOAD CODESIZE PUSH3 0x124 JUMP JUMPDEST PUSH1 0x0 DUP1 DUP1 MSTORE SWAP3 POP PUSH1 0x0 DUP1 MLOAD PUSH1 0x20 PUSH3 0x40E6 DUP4 CODECOPY DUP2 MLOAD SWAP2 MSTORE SWAP1 JUMPDEST PUSH1 0x1F NOT DUP4 AND DUP5 LT PUSH3 0x720 JUMPI PUSH1 0x1 SWAP4 POP DUP3 PUSH1 0x1F NOT DUP2 AND LT PUSH3 0x706 JUMPI JUMPDEST POP POP DUP2 SHL ADD PUSH1 0x0 SSTORE PUSH3 0x139 JUMP JUMPDEST DUP5 ADD MLOAD PUSH1 0x0 NOT PUSH1 0xF8 DUP5 PUSH1 0x3 SHL AND SHR NOT AND SWAP1 SSTORE CODESIZE DUP1 PUSH3 0x6F8 JUMP JUMPDEST DUP5 DUP2 ADD MLOAD DUP3 SSTORE PUSH1 0x20 SWAP4 DUP5 ADD SWAP4 PUSH1 0x1 SWAP1 SWAP3 ADD SWAP2 ADD PUSH3 0x6DB JUMP JUMPDEST PUSH1 0x0 DUP1 MSTORE PUSH1 0x0 DUP1 MLOAD PUSH1 0x20 PUSH3 0x40E6 DUP4 CODECOPY DUP2 MLOAD SWAP2 MSTORE PUSH1 0x1F DUP4 ADD PUSH1 0x5 SHR DUP2 ADD PUSH1 0x20 DUP5 LT PUSH3 0x785 JUMPI JUMPDEST PUSH1 0x1F DUP4 ADD PUSH1 0x5 SHR DUP3 ADD DUP2 LT PUSH3 0x778 JUMPI POP POP PUSH3 0x10B JUMP JUMPDEST PUSH1 0x0 DUP2 SSTORE PUSH1 0x1 ADD PUSH3 0x760 JUMP JUMPDEST POP DUP1 PUSH3 0x760 JUMP JUMPDEST SWAP1 PUSH1 0x7F AND SWAP1 PUSH3 0xF7 JUMP JUMPDEST PUSH1 0x0 DUP1 REVERT JUMPDEST PUSH1 0x40 MLOAD SWAP2 SWAP1 PUSH1 0x1F ADD PUSH1 0x1F NOT AND DUP3 ADD PUSH1 0x1 PUSH1 0x1 PUSH1 0x40 SHL SUB DUP2 GT DUP4 DUP3 LT OR PUSH3 0x3B9 JUMPI PUSH1 0x40 MSTORE JUMP JUMPDEST SWAP2 SWAP1 DUP1 PUSH1 0x1F DUP5 ADD SLT ISZERO PUSH3 0x798 JUMPI DUP3 MLOAD PUSH1 0x1 PUSH1 0x1 PUSH1 0x40 SHL SUB DUP2 GT PUSH3 0x3B9 JUMPI PUSH1 0x20 SWAP1 PUSH3 0x7F9 PUSH1 0x1F DUP3 ADD PUSH1 0x1F NOT AND DUP4 ADD PUSH3 0x79D JUMP JUMPDEST SWAP3 DUP2 DUP5 MSTORE DUP3 DUP3 DUP8 ADD ADD GT PUSH3 0x798 JUMPI PUSH1 0x0 JUMPDEST DUP2 DUP2 LT PUSH3 0x821 JUMPI POP DUP3 PUSH1 0x0 SWAP4 SWAP5 SWAP6 POP ADD ADD MSTORE SWAP1 JUMP JUMPDEST DUP6 DUP2 ADD DUP4 ADD MLOAD DUP5 DUP3 ADD DUP5 ADD MSTORE DUP3 ADD PUSH3 0x80B JUMP JUMPDEST MLOAD SWAP1 PUSH1 0x1 PUSH1 0x1 PUSH1 0xA0 SHL SUB DUP3 AND DUP3 SUB PUSH3 0x798 JUMPI JUMP INVALID PUSH1 0x80 PUSH1 0x40 DUP2 DUP2 MSTORE PUSH1 0x4 DUP1 CALLDATASIZE LT ISZERO PUSH2 0x15 JUMPI PUSH1 0x0 DUP1 REVERT JUMPDEST PUSH1 0x0 SWAP3 DUP4 CALLDATALOAD PUSH1 0xE0 SHR SWAP1 DUP2 PUSH4 0x1FFC9A7 EQ PUSH2 0x2586 JUMPI POP DUP1 PUSH4 0x2D05D3F EQ PUSH2 0x255E JUMPI DUP1 PUSH4 0x6FDDE03 EQ PUSH2 0x24B6 JUMPI DUP1 PUSH4 0x81812FC EQ PUSH2 0x248E JUMPI DUP1 PUSH4 0x95EA7B3 EQ PUSH2 0x22FA JUMPI DUP1 PUSH4 0x1171BDA9 EQ PUSH2 0x2158 JUMPI DUP1 PUSH4 0x18160DDD EQ PUSH2 0x212B JUMPI DUP1 PUSH4 0x2004FFD9 EQ PUSH2 0x2103 JUMPI DUP1 PUSH4 0x23B872DD EQ PUSH2 0x20DE JUMPI DUP1 PUSH4 0x2C3C7F3D EQ PUSH2 0x1FD2 JUMPI DUP1 PUSH4 0x2D296BF1 EQ PUSH2 0x1CC8 JUMPI DUP1 PUSH4 0x312E13DC EQ PUSH2 0x1C91 JUMPI DUP1 PUSH4 0x38D73B0D EQ PUSH2 0x1C72 JUMPI DUP1 PUSH4 0x3F4BA83A EQ PUSH2 0x1BC6 JUMPI DUP1 PUSH4 0x42842E0E EQ PUSH2 0x1B92 JUMPI DUP1 PUSH4 0x51335B50 EQ PUSH2 0x1897 JUMPI DUP1 PUSH4 0x5894BD51 EQ PUSH2 0x1824 JUMPI DUP1 PUSH4 0x5C975ABB EQ PUSH2 0x1800 JUMPI DUP1 PUSH4 0x61CF4863 EQ PUSH2 0x17C8 JUMPI DUP1 PUSH4 0x6352211E EQ PUSH2 0x1798 JUMPI DUP1 PUSH4 0x6817C76C EQ PUSH2 0x1779 JUMPI DUP1 PUSH4 0x6A627842 EQ PUSH2 0x139E JUMPI DUP1 PUSH4 0x70A08231 EQ PUSH2 0x1371 JUMPI DUP1 PUSH4 0x7284E416 EQ PUSH2 0x12C7 JUMPI DUP1 PUSH4 0x78196662 EQ PUSH2 0xF98 JUMPI DUP1 PUSH4 0x82367B2D EQ PUSH2 0xEF2 JUMPI DUP1 PUSH4 0x8424D70B EQ PUSH2 0xEBB JUMPI DUP1 PUSH4 0x8456CB59 EQ PUSH2 0xE52 JUMPI DUP1 PUSH4 0x8462151C EQ PUSH2 0xE20 JUMPI DUP1 PUSH4 0x84B75F95 EQ PUSH2 0xE01 JUMPI DUP1 PUSH4 0x8B63C267 EQ PUSH2 0xCC5 JUMPI DUP1 PUSH4 0x9407EA98 EQ PUSH2 0xC14 JUMPI DUP1 PUSH4 0x95D89B41 EQ PUSH2 0xB6C JUMPI DUP1 PUSH4 0xA22CB465 EQ PUSH2 0xA94 JUMPI DUP1 PUSH4 0xAD3A358C EQ PUSH2 0x9F3 JUMPI DUP1 PUSH4 0xB2D1EB80 EQ PUSH2 0x90E JUMPI DUP1 PUSH4 0xB88D4FDE EQ PUSH2 0x85B JUMPI DUP1 PUSH4 0xBF2D9E0B EQ PUSH2 0x83C JUMPI DUP1 PUSH4 0xC128B231 EQ PUSH2 0x7A7 JUMPI DUP1 PUSH4 0xC45A0155 EQ PUSH2 0x77F JUMPI DUP1 PUSH4 0xC87B56DD EQ PUSH2 0x4A1 JUMPI DUP1 PUSH4 0xD5ABEB01 EQ PUSH2 0x482 JUMPI DUP1 PUSH4 0xD8CBA251 EQ PUSH2 0x383 JUMPI DUP1 PUSH4 0xDE74E57B EQ PUSH2 0x316 JUMPI DUP1 PUSH4 0xE985E9C5 EQ PUSH2 0x2C4 JUMPI DUP1 PUSH4 0xF4A0A528 EQ PUSH2 0x257 JUMPI PUSH4 0xFCCE4883 EQ PUSH2 0x228 JUMPI PUSH1 0x0 DUP1 REVERT JUMPDEST CALLVALUE PUSH2 0x253 JUMPI PUSH1 0x20 CALLDATASIZE PUSH1 0x3 NOT ADD SLT PUSH2 0x253 JUMPI DUP2 PUSH1 0x20 SWAP4 PUSH1 0xFF SWAP3 CALLDATALOAD DUP2 MSTORE PUSH1 0x11 DUP6 MSTORE KECCAK256 SLOAD AND SWAP1 MLOAD SWAP1 ISZERO ISZERO DUP2 MSTORE RETURN JUMPDEST DUP3 DUP1 REVERT JUMPDEST POP SWAP1 CALLVALUE PUSH2 0x253 JUMPI PUSH1 0x20 CALLDATASIZE PUSH1 0x3 NOT ADD SLT PUSH2 0x253 JUMPI PUSH32 0x2E1C9E000C6E8DDA4D03536ADB13B7CB6034CCFF90D17F01DE381E4D5097B525 SWAP2 CALLDATALOAD PUSH2 0x2A3 PUSH1 0x1 PUSH1 0x1 PUSH1 0xA0 SHL SUB PUSH1 0xD SLOAD AND CALLER EQ PUSH2 0x2F29 JUMP JUMPDEST PUSH2 0x2AE DUP2 ISZERO ISZERO PUSH2 0x2FC4 JUMP JUMPDEST PUSH1 0xB SLOAD SWAP1 DUP1 PUSH1 0xB SSTORE DUP3 MLOAD SWAP2 DUP3 MSTORE PUSH1 0x20 DUP3 ADD MSTORE LOG1 DUP1 RETURN JUMPDEST POP POP CALLVALUE PUSH2 0x312 JUMPI DUP1 PUSH1 0x3 NOT CALLDATASIZE ADD SLT PUSH2 0x312 JUMPI PUSH1 0xFF DUP2 PUSH1 0x20 SWAP4 PUSH2 0x2E4 PUSH2 0x269E JUMP JUMPDEST PUSH2 0x2EC PUSH2 0x26B9 JUMP JUMPDEST PUSH1 0x1 PUSH1 0x1 PUSH1 0xA0 SHL SUB SWAP2 DUP3 AND DUP4 MSTORE PUSH1 0x5 DUP8 MSTORE DUP4 DUP4 KECCAK256 SWAP2 AND DUP3 MSTORE DUP6 MSTORE KECCAK256 SLOAD SWAP2 MLOAD SWAP2 AND ISZERO ISZERO DUP2 MSTORE RETURN JUMPDEST POP DUP1 REVERT JUMPDEST POP SWAP1 CALLVALUE PUSH2 0x253 JUMPI PUSH1 0x20 CALLDATASIZE PUSH1 0x3 NOT ADD SLT PUSH2 0x253 JUMPI DUP1 PUSH1 0xC0 SWAP4 DUP4 CALLDATALOAD DUP2 MSTORE PUSH1 0x10 PUSH1 0x20 MSTORE KECCAK256 DUP1 SLOAD SWAP3 PUSH1 0x1 PUSH1 0x1 PUSH1 0xA0 SHL SUB DUP1 PUSH1 0x1 DUP5 ADD SLOAD AND SWAP4 PUSH1 0xFF PUSH1 0x5 PUSH1 0x2 DUP7 ADD SLOAD SWAP4 PUSH1 0x3 DUP8 ADD SLOAD AND SWAP5 DUP7 ADD SLOAD SWAP6 ADD SLOAD AND SWAP5 DUP2 MLOAD SWAP7 DUP8 MSTORE PUSH1 0x20 DUP8 ADD MSTORE DUP6 ADD MSTORE PUSH1 0x60 DUP5 ADD MSTORE PUSH1 0x80 DUP4 ADD MSTORE ISZERO ISZERO PUSH1 0xA0 DUP3 ADD MSTORE RETURN JUMPDEST DUP3 DUP5 CALLVALUE PUSH2 0x47F JUMPI PUSH1 0x20 SWAP2 DUP3 PUSH1 0x3 NOT CALLDATASIZE ADD SLT PUSH2 0x312 JUMPI PUSH2 0x3A0 PUSH2 0x269E JUMP JUMPDEST PUSH1 0x12 SLOAD SWAP4 PUSH1 0x1 PUSH1 0x1 PUSH1 0xA0 SHL SUB SWAP4 SWAP2 DUP5 AND DUP3 DUP1 JUMPDEST DUP8 DUP2 LT PUSH2 0x436 JUMPI POP PUSH2 0x3C4 SWAP1 PUSH2 0x3684 JUMP JUMPDEST SWAP5 DUP4 DUP1 JUMPDEST DUP9 DUP2 LT PUSH2 0x3E0 JUMPI DUP7 MLOAD DUP1 PUSH2 0x3DC DUP11 DUP3 PUSH2 0x283F JUMP JUMPDEST SUB SWAP1 RETURN JUMPDEST PUSH2 0x3E9 DUP2 PUSH2 0x2732 JUMP JUMPDEST SWAP1 SLOAD SWAP1 PUSH1 0x3 SHL SHR DUP1 DUP4 MSTORE PUSH1 0x10 DUP7 MSTORE DUP5 DUP5 PUSH1 0x1 DUP11 DUP7 KECCAK256 ADD SLOAD AND EQ PUSH2 0x416 JUMPI JUMPDEST POP PUSH2 0x411 SWAP1 PUSH2 0x34F9 JUMP JUMPDEST PUSH2 0x3C8 JUMP JUMPDEST DUP7 PUSH2 0x42F SWAP2 PUSH2 0x429 PUSH2 0x411 SWAP5 SWAP10 DUP13 PUSH2 0x3508 JUMP JUMPDEST MSTORE PUSH2 0x34F9 JUMP JUMPDEST SWAP6 SWAP1 PUSH2 0x407 JUMP JUMPDEST PUSH2 0x43F DUP2 PUSH2 0x2732 JUMP JUMPDEST SWAP1 SLOAD SWAP1 PUSH1 0x3 SHL SHR DUP6 MSTORE PUSH1 0x10 DUP5 MSTORE DUP3 DUP8 PUSH1 0x1 DUP9 DUP9 KECCAK256 ADD SLOAD AND EQ PUSH2 0x46A JUMPI JUMPDEST PUSH2 0x465 SWAP1 PUSH2 0x34F9 JUMP JUMPDEST PUSH2 0x3B3 JUMP JUMPDEST SWAP1 PUSH2 0x477 PUSH2 0x465 SWAP2 PUSH2 0x34F9 JUMP JUMPDEST SWAP2 SWAP1 POP PUSH2 0x45C JUMP JUMPDEST DUP1 REVERT JUMPDEST POP POP CALLVALUE PUSH2 0x312 JUMPI DUP2 PUSH1 0x3 NOT CALLDATASIZE ADD SLT PUSH2 0x312 JUMPI PUSH1 0x20 SWAP1 PUSH1 0x9 SLOAD SWAP1 MLOAD SWAP1 DUP2 MSTORE RETURN JUMPDEST POP DUP3 SWAP1 CALLVALUE PUSH2 0x312 JUMPI PUSH1 0x20 SWAP2 DUP3 PUSH1 0x3 NOT CALLDATASIZE ADD SLT PUSH2 0x47F JUMPI DUP3 SWAP1 DUP5 DUP4 CALLDATALOAD PUSH2 0x4E4 PUSH2 0x4DF DUP3 PUSH1 0x0 MSTORE PUSH1 0x2 PUSH1 0x20 MSTORE PUSH1 0x1 PUSH1 0x1 PUSH1 0xA0 SHL SUB PUSH1 0x40 PUSH1 0x0 KECCAK256 SLOAD AND ISZERO ISZERO SWAP1 JUMP JUMPDEST PUSH2 0x2920 JUMP JUMPDEST DUP2 MLOAD SWAP5 DUP4 SWAP2 PUSH1 0x8 SLOAD DUP8 PUSH2 0x4F6 DUP3 PUSH2 0x277F JUMP JUMPDEST SWAP5 DUP6 DUP3 MSTORE DUP9 DUP3 ADD SWAP6 PUSH1 0x1 SWAP4 DUP11 DUP6 DUP3 AND SWAP2 DUP3 PUSH1 0x0 EQ PUSH2 0x762 JUMPI POP POP PUSH1 0x1 EQ PUSH2 0x709 JUMPI JUMPDEST POP SWAP1 PUSH2 0x525 SWAP2 SUB DUP10 PUSH2 0x2807 JUMP JUMPDEST DUP8 MLOAD ISZERO PUSH2 0x6EA JUMPI DUP2 DUP1 SWAP4 DUP8 SWAP2 PUSH27 0x184F03E93FF9F4DAA797ED6E38ED64BF6A1F010000000000000000 SWAP1 DUP2 DUP2 LT ISZERO PUSH2 0x6DD JUMPI JUMPDEST POP POP DUP9 PUSH14 0x4EE2D6D415B85ACEF8100000000 DUP1 DUP8 LT ISZERO PUSH2 0x6CE JUMPI JUMPDEST POP POP PUSH7 0x2386F26FC10000 DUP1 DUP7 LT ISZERO PUSH2 0x6BF JUMPI JUMPDEST POP PUSH4 0x5F5E100 DUP1 DUP7 LT ISZERO PUSH2 0x6B0 JUMPI JUMPDEST POP PUSH2 0x2710 DUP1 DUP7 LT ISZERO PUSH2 0x6A4 JUMPI JUMPDEST POP POP PUSH1 0x64 DUP5 LT ISZERO PUSH2 0x696 JUMPI JUMPDEST PUSH1 0x21 SWAP1 DUP3 PUSH1 0xA DUP1 SWAP7 LT ISZERO PUSH2 0x68F JUMPI JUMPDEST SWAP4 SWAP3 SWAP2 SWAP1 PUSH2 0x5E3 DUP4 DUP3 ADD PUSH2 0x5DB PUSH2 0x5D2 DUP3 PUSH2 0x287A JUMP JUMPDEST SWAP11 MLOAD SWAP11 DUP12 PUSH2 0x2807 JUMP JUMPDEST DUP1 DUP11 MSTORE PUSH2 0x287A JUMP JUMPDEST DUP9 DUP12 ADD SWAP10 SWAP1 PUSH1 0x1F NOT ADD CALLDATASIZE DUP12 CALLDATACOPY POP DUP8 ADD ADD SWAP1 JUMPDEST PUSH2 0x64C JUMPI JUMPDEST POP POP POP POP SWAP4 PUSH2 0x63B SWAP3 PUSH2 0x620 SWAP5 SWAP3 PUSH2 0x62F PUSH2 0x3DC SWAP8 DUP11 MLOAD SWAP8 DUP9 SWAP6 MLOAD DUP1 SWAP3 DUP9 DUP9 ADD SWAP1 PUSH2 0x2656 JUMP JUMPDEST DUP5 ADD SWAP2 MLOAD DUP1 SWAP4 DUP7 DUP5 ADD SWAP1 PUSH2 0x2656 JUMP JUMPDEST ADD SUB DUP1 DUP5 MSTORE ADD DUP3 PUSH2 0x2807 JUMP JUMPDEST SWAP3 JUMPDEST MLOAD SWAP3 DUP3 DUP5 SWAP4 DUP5 MSTORE DUP4 ADD SWAP1 PUSH2 0x2679 JUMP JUMPDEST PUSH1 0x0 NOT ADD SWAP1 DUP4 SWAP1 PUSH32 0x3031323334353637383961626364656600000000000000000000000000000000 DUP3 DUP3 MOD BYTE DUP4 MSTORE8 DIV SWAP2 DUP3 ISZERO PUSH2 0x68A JUMPI SWAP2 SWAP1 DUP3 PUSH2 0x5F5 JUMP JUMPDEST PUSH2 0x5FA JUMP JUMPDEST ADD DUP3 PUSH2 0x5BC JUMP JUMPDEST PUSH1 0x64 SWAP1 SWAP4 DIV SWAP3 PUSH1 0x2 ADD PUSH2 0x5AD JUMP JUMPDEST SWAP1 SWAP5 DIV SWAP4 ADD DUP12 DUP1 PUSH2 0x5A1 JUMP JUMPDEST PUSH1 0x8 SWAP2 SWAP3 SWAP6 DIV SWAP5 ADD SWAP1 DUP13 PUSH2 0x594 JUMP JUMPDEST PUSH1 0x10 SWAP2 SWAP3 SWAP6 DIV SWAP5 ADD SWAP1 DUP13 PUSH2 0x585 JUMP JUMPDEST SWAP1 SWAP2 SWAP3 SWAP6 DIV SWAP5 ADD SWAP1 DUP9 DUP14 PUSH2 0x572 JUMP JUMPDEST DIV SWAP5 POP DUP7 SWAP2 POP DUP13 DUP1 PUSH2 0x557 JUMP JUMPDEST POP POP POP POP SWAP1 SWAP2 POP PUSH2 0x3DC SWAP3 POP MLOAD SWAP1 PUSH2 0x701 DUP3 PUSH2 0x27EB JUMP JUMPDEST DUP2 MSTORE SWAP3 PUSH2 0x63D JUMP JUMPDEST PUSH1 0x8 DUP10 MSTORE DUP9 SWAP2 POP PUSH32 0xF3F7A9FE364FAAB93B216DA50A3214154F22A0A2B415B23A84C8169E8B636EE3 JUMPDEST DUP2 DUP4 LT PUSH2 0x747 JUMPI POP POP DUP2 ADD DUP9 ADD PUSH2 0x525 PUSH2 0x518 JUMP JUMPDEST DUP1 SLOAD DUP4 DUP14 ADD DUP13 ADD MSTORE DUP13 SWAP11 DUP15 SWAP10 POP DUP13 SWAP5 POP SWAP1 SWAP3 ADD SWAP2 DUP5 ADD PUSH2 0x732 JUMP JUMPDEST PUSH1 0xFF NOT AND DUP10 MSTORE SWAP2 ISZERO ISZERO PUSH1 0x5 SHL DUP5 ADD SWAP1 SWAP2 ADD SWAP2 POP PUSH2 0x525 SWAP1 POP PUSH2 0x518 JUMP JUMPDEST POP POP CALLVALUE PUSH2 0x312 JUMPI DUP2 PUSH1 0x3 NOT CALLDATASIZE ADD SLT PUSH2 0x312 JUMPI PUSH1 0x20 SWAP1 PUSH1 0x1 PUSH1 0x1 PUSH1 0xA0 SHL SUB PUSH1 0xE SLOAD AND SWAP1 MLOAD SWAP1 DUP2 MSTORE RETURN JUMPDEST DUP3 DUP5 CALLVALUE PUSH2 0x47F JUMPI PUSH2 0x7C0 PUSH2 0x7BA CALLDATASIZE PUSH2 0x2829 JUMP JUMPDEST SWAP1 PUSH2 0x351C JUMP JUMPDEST DUP3 MLOAD SWAP2 PUSH1 0x20 DUP1 DUP5 ADD SWAP1 DUP1 DUP6 MSTORE DUP4 MLOAD DUP1 SWAP3 MSTORE DUP1 DUP7 DUP7 ADD SWAP5 ADD SWAP3 JUMPDEST DUP3 DUP2 LT PUSH2 0x7E6 JUMPI DUP6 DUP6 SUB DUP7 RETURN JUMPDEST DUP4 MLOAD DUP1 MLOAD DUP7 MSTORE DUP1 DUP4 ADD MLOAD PUSH1 0x1 PUSH1 0x1 PUSH1 0xA0 SHL SUB SWAP1 DUP2 AND DUP8 DUP6 ADD MSTORE DUP9 DUP3 ADD MLOAD DUP10 DUP9 ADD MSTORE PUSH1 0x60 DUP1 DUP4 ADD MLOAD SWAP1 SWAP2 AND SWAP1 DUP8 ADD MSTORE PUSH1 0x80 DUP1 DUP3 ADD MLOAD SWAP1 DUP8 ADD MSTORE PUSH1 0xA0 SWAP1 DUP2 ADD MLOAD ISZERO ISZERO SWAP1 DUP7 ADD MSTORE PUSH1 0xC0 SWAP1 SWAP5 ADD SWAP4 SWAP3 DUP2 ADD SWAP3 PUSH1 0x1 ADD PUSH2 0x7D9 JUMP JUMPDEST POP POP CALLVALUE PUSH2 0x312 JUMPI DUP2 PUSH1 0x3 NOT CALLDATASIZE ADD SLT PUSH2 0x312 JUMPI PUSH1 0x20 SWAP1 PUSH1 0x14 SLOAD SWAP1 MLOAD SWAP1 DUP2 MSTORE RETURN JUMPDEST POP SWAP1 CALLVALUE PUSH2 0x253 JUMPI PUSH1 0x80 CALLDATASIZE PUSH1 0x3 NOT ADD SLT PUSH2 0x253 JUMPI PUSH2 0x876 PUSH2 0x269E JUMP JUMPDEST SWAP1 PUSH2 0x87F PUSH2 0x26B9 JUMP JUMPDEST PUSH1 0x44 CALLDATALOAD SWAP1 PUSH1 0x64 CALLDATALOAD SWAP5 PUSH8 0xFFFFFFFFFFFFFFFF DUP7 GT PUSH2 0x90A JUMPI CALLDATASIZE PUSH1 0x23 DUP8 ADD SLT ISZERO PUSH2 0x90A JUMPI DUP6 ADD CALLDATALOAD SWAP4 PUSH2 0x8BA PUSH2 0x8B1 DUP7 PUSH2 0x287A JUMP JUMPDEST SWAP5 MLOAD SWAP5 DUP6 PUSH2 0x2807 JUMP JUMPDEST DUP5 DUP5 MSTORE DUP7 CALLDATASIZE PUSH1 0x24 DUP8 DUP10 ADD ADD GT PUSH2 0x47F JUMPI PUSH1 0x20 DUP7 PUSH2 0x902 SWAP8 PUSH1 0x24 PUSH2 0x907 SWAP11 ADD DUP4 DUP10 ADD CALLDATACOPY DUP7 ADD ADD MSTORE PUSH2 0x8F2 PUSH2 0x8ED DUP5 CALLER PUSH2 0x2AB4 JUMP JUMPDEST PUSH2 0x29CD JUMP JUMPDEST PUSH2 0x8FD DUP4 DUP4 DUP4 PUSH2 0x2B93 JUMP JUMPDEST PUSH2 0x2EC8 JUMP JUMPDEST PUSH2 0x2A3E JUMP JUMPDEST DUP1 RETURN JUMPDEST DUP7 DUP1 REVERT JUMPDEST POP POP CALLVALUE PUSH2 0x312 JUMPI DUP2 PUSH1 0x3 NOT CALLDATASIZE ADD SLT PUSH2 0x312 JUMPI DUP1 MLOAD SWAP1 DUP3 PUSH1 0x19 SLOAD PUSH2 0x930 DUP2 PUSH2 0x277F JUMP JUMPDEST DUP1 DUP6 MSTORE SWAP2 PUSH1 0x1 SWAP2 DUP1 DUP4 AND SWAP1 DUP2 ISZERO PUSH2 0x9CB JUMPI POP PUSH1 0x1 EQ PUSH2 0x96E JUMPI JUMPDEST POP POP POP PUSH2 0x95C DUP3 PUSH2 0x3DC SWAP5 SUB DUP4 PUSH2 0x2807 JUMP JUMPDEST MLOAD SWAP2 DUP3 SWAP2 PUSH1 0x20 DUP4 MSTORE PUSH1 0x20 DUP4 ADD SWAP1 PUSH2 0x2679 JUMP JUMPDEST SWAP5 POP PUSH1 0x19 DUP6 MSTORE PUSH32 0x944998273E477B495144FB8794C914197F3CCB46BE2900F4698FD0EF743C9695 JUMPDEST DUP3 DUP7 LT PUSH2 0x9B3 JUMPI POP POP POP PUSH2 0x95C DUP3 PUSH1 0x20 PUSH2 0x3DC SWAP6 DUP3 ADD ADD SWAP5 PUSH2 0x94A JUMP JUMPDEST DUP1 SLOAD PUSH1 0x20 DUP8 DUP8 ADD DUP2 ADD SWAP2 SWAP1 SWAP2 MSTORE SWAP1 SWAP6 ADD SWAP5 DUP2 ADD PUSH2 0x996 JUMP JUMPDEST PUSH2 0x3DC SWAP8 POP DUP7 SWAP4 POP PUSH1 0x20 SWAP3 POP PUSH2 0x95C SWAP5 SWAP2 POP PUSH1 0xFF NOT AND DUP3 DUP5 ADD MSTORE ISZERO ISZERO PUSH1 0x5 SHL DUP3 ADD ADD SWAP5 PUSH2 0x94A JUMP JUMPDEST POP CALLVALUE PUSH2 0x253 JUMPI PUSH1 0x20 CALLDATASIZE PUSH1 0x3 NOT ADD SLT PUSH2 0x253 JUMPI PUSH1 0xFF PUSH2 0xA62 SWAP2 CALLDATALOAD SWAP3 PUSH2 0xA35 PUSH2 0xA30 DUP6 PUSH1 0x0 MSTORE PUSH1 0x2 PUSH1 0x20 MSTORE PUSH1 0x1 PUSH1 0x1 PUSH1 0xA0 SHL SUB PUSH1 0x40 PUSH1 0x0 KECCAK256 SLOAD AND ISZERO ISZERO SWAP1 JUMP JUMPDEST PUSH2 0x3304 JUMP JUMPDEST PUSH2 0xA51 PUSH2 0xA41 DUP6 PUSH2 0x296B JUMP JUMPDEST PUSH1 0x1 PUSH1 0x1 PUSH1 0xA0 SHL SUB AND CALLER EQ PUSH2 0x334F JUMP JUMPDEST DUP4 DUP6 MSTORE PUSH1 0x11 PUSH1 0x20 MSTORE DUP5 KECCAK256 SLOAD AND PUSH2 0x339A JUMP JUMPDEST PUSH2 0xA6B DUP2 PUSH2 0x3772 JUMP JUMPDEST CALLER SWAP1 PUSH32 0xBE50BF6D5EBC58E29A68DDDCCDEF1C087A9E6DD728A5C3247051D7FDAD14219B DUP4 DUP1 LOG3 DUP1 RETURN JUMPDEST POP SWAP1 CALLVALUE PUSH2 0x253 JUMPI DUP1 PUSH1 0x3 NOT CALLDATASIZE ADD SLT PUSH2 0x253 JUMPI PUSH2 0xAAE PUSH2 0x269E JUMP JUMPDEST SWAP1 PUSH1 0x24 CALLDATALOAD DUP1 ISZERO ISZERO SWAP3 DUP4 DUP3 SUB PUSH2 0xB68 JUMPI PUSH1 0x1 PUSH1 0x1 PUSH1 0xA0 SHL SUB AND SWAP4 DUP5 CALLER EQ PUSH2 0xB25 JUMPI POP PUSH2 0xAF8 SWAP1 CALLER DUP7 MSTORE PUSH1 0x5 PUSH1 0x20 MSTORE DUP3 DUP7 KECCAK256 DUP6 DUP8 MSTORE PUSH1 0x20 MSTORE DUP3 DUP7 KECCAK256 SWAP1 PUSH1 0xFF DUP1 NOT DUP4 SLOAD AND SWAP2 ISZERO ISZERO AND OR SWAP1 SSTORE JUMP JUMPDEST MLOAD SWAP1 DUP2 MSTORE PUSH32 0x17307EAB39AB6107E8899845AD3D59BD9653F200F220920489CA2B5937696C31 PUSH1 0x20 CALLER SWAP3 LOG3 DUP1 RETURN JUMPDEST PUSH1 0x64 SWAP1 PUSH1 0x20 DUP5 MLOAD SWAP2 PUSH3 0x461BCD PUSH1 0xE5 SHL DUP4 MSTORE DUP3 ADD MSTORE PUSH1 0x19 PUSH1 0x24 DUP3 ADD MSTORE PUSH32 0x4552433732313A20617070726F766520746F2063616C6C657200000000000000 PUSH1 0x44 DUP3 ADD MSTORE REVERT JUMPDEST DUP6 DUP1 REVERT JUMPDEST POP POP CALLVALUE PUSH2 0x312 JUMPI DUP2 PUSH1 0x3 NOT CALLDATASIZE ADD SLT PUSH2 0x312 JUMPI DUP1 MLOAD SWAP1 DUP3 PUSH1 0x1 DUP1 SLOAD SWAP2 PUSH2 0xB90 DUP4 PUSH2 0x277F JUMP JUMPDEST DUP1 DUP7 MSTORE SWAP3 DUP3 DUP2 AND SWAP1 DUP2 ISZERO PUSH2 0x9CB JUMPI POP PUSH1 0x1 EQ PUSH2 0xBB8 JUMPI POP POP POP PUSH2 0x95C DUP3 PUSH2 0x3DC SWAP5 SUB DUP4 PUSH2 0x2807 JUMP JUMPDEST SWAP5 POP DUP1 DUP6 MSTORE PUSH32 0xB10E2D527612073B26EECDFD717E6A320CF44B4AFAC2B0732D9FCBE2B7FA0CF6 JUMPDEST DUP3 DUP7 LT PUSH2 0xBFC JUMPI POP POP POP PUSH2 0x95C DUP3 PUSH1 0x20 PUSH2 0x3DC SWAP6 DUP3 ADD ADD SWAP5 PUSH2 0x94A JUMP JUMPDEST DUP1 SLOAD PUSH1 0x20 DUP8 DUP8 ADD DUP2 ADD SWAP2 SWAP1 SWAP2 MSTORE SWAP1 SWAP6 ADD SWAP5 DUP2 ADD PUSH2 0xBDF JUMP JUMPDEST POP CALLVALUE PUSH2 0x253 JUMPI PUSH1 0x20 CALLDATASIZE PUSH1 0x3 NOT ADD SLT PUSH2 0x253 JUMPI DUP1 CALLDATALOAD SWAP1 PUSH2 0xC3F PUSH1 0x1 PUSH1 0x1 PUSH1 0xA0 SHL SUB PUSH1 0xD SLOAD AND CALLER EQ PUSH2 0x2F29 JUMP JUMPDEST PUSH2 0x3E8 DUP3 GT PUSH2 0xC82 JUMPI POP SWAP1 PUSH32 0x936008F1E981D6F48D4A529714C27D74D644750A1D215451212CE0F2476F2FBC SWAP2 PUSH1 0xC SLOAD SWAP1 DUP1 PUSH1 0xC SSTORE DUP3 MLOAD SWAP2 DUP3 MSTORE PUSH1 0x20 DUP3 ADD MSTORE LOG1 DUP1 RETURN JUMPDEST PUSH1 0x64 SWAP1 PUSH1 0x20 DUP5 MLOAD SWAP2 PUSH3 0x461BCD PUSH1 0xE5 SHL DUP4 MSTORE DUP3 ADD MSTORE PUSH1 0xC PUSH1 0x24 DUP3 ADD MSTORE PUSH32 0x46656520746F6F20686967680000000000000000000000000000000000000000 PUSH1 0x44 DUP3 ADD MSTORE REVERT JUMPDEST POP SWAP2 SWAP1 CALLVALUE PUSH2 0x312 JUMPI DUP1 PUSH1 0x3 NOT CALLDATASIZE ADD SLT PUSH2 0x312 JUMPI PUSH2 0xCE0 PUSH2 0x269E JUMP JUMPDEST PUSH1 0x24 CALLDATALOAD PUSH1 0x1 PUSH1 0x1 PUSH1 0xA0 SHL SUB SWAP5 PUSH2 0xCFB DUP7 PUSH1 0xD SLOAD AND CALLER EQ PUSH2 0x2F29 JUMP JUMPDEST PUSH2 0xD03 PUSH2 0x303F JUMP JUMPDEST DUP6 DUP4 AND SWAP1 PUSH2 0xD12 DUP3 ISZERO ISZERO PUSH2 0x344B JUMP JUMPDEST PUSH2 0xD1D DUP4 ISZERO ISZERO PUSH2 0x3496 JUMP JUMPDEST DUP2 DUP7 MSTORE PUSH1 0x16 PUSH1 0x20 MSTORE DUP3 DUP6 DUP8 KECCAK256 SLOAD LT PUSH2 0xDBE JUMPI POP DUP5 SWAP6 PUSH2 0xD8E DUP4 DUP4 PUSH2 0xDB3 SWAP5 PUSH32 0x121B283ED79F0646A25775A9EB3C86AA23BEA96A49EF2FAD07D17686DFD2C60 SWAP9 SWAP10 MSTORE PUSH1 0x16 PUSH1 0x20 MSTORE DUP9 DUP11 KECCAK256 PUSH2 0xD72 DUP4 DUP3 SLOAD PUSH2 0x300F JUMP JUMPDEST SWAP1 SSTORE PUSH2 0xD80 DUP3 PUSH1 0x14 SLOAD PUSH2 0x300F JUMP JUMPDEST PUSH1 0x14 SSTORE DUP4 PUSH1 0xD SLOAD AND SWAP1 PUSH2 0x33E5 JUMP JUMPDEST PUSH1 0xD SLOAD AND SWAP5 MLOAD SWAP3 DUP4 SWAP3 DUP4 SWAP1 SWAP3 SWAP2 PUSH1 0x1 PUSH1 0x1 PUSH1 0xA0 SHL SUB PUSH1 0x20 SWAP2 PUSH1 0x40 DUP5 ADD SWAP6 DUP5 MSTORE AND SWAP2 ADD MSTORE JUMP JUMPDEST SUB SWAP1 LOG2 PUSH1 0x1 PUSH1 0x6 SSTORE DUP1 RETURN JUMPDEST PUSH1 0x64 SWAP1 PUSH1 0x20 DUP7 MLOAD SWAP2 PUSH3 0x461BCD PUSH1 0xE5 SHL DUP4 MSTORE DUP3 ADD MSTORE PUSH1 0x14 PUSH1 0x24 DUP3 ADD MSTORE PUSH32 0x496E73756666696369656E7420726576656E7565000000000000000000000000 PUSH1 0x44 DUP3 ADD MSTORE REVERT JUMPDEST POP POP CALLVALUE PUSH2 0x312 JUMPI DUP2 PUSH1 0x3 NOT CALLDATASIZE ADD SLT PUSH2 0x312 JUMPI PUSH1 0x20 SWAP1 PUSH1 0x15 SLOAD SWAP1 MLOAD SWAP1 DUP2 MSTORE RETURN JUMPDEST POP POP CALLVALUE PUSH2 0x312 JUMPI PUSH1 0x20 CALLDATASIZE PUSH1 0x3 NOT ADD SLT PUSH2 0x312 JUMPI PUSH2 0x3DC SWAP1 PUSH2 0xE47 PUSH2 0xE42 PUSH2 0x269E JUMP JUMPDEST PUSH2 0x36B6 JUMP JUMPDEST SWAP1 MLOAD SWAP2 DUP3 SWAP2 DUP3 PUSH2 0x283F JUMP JUMPDEST POP POP CALLVALUE PUSH2 0x312 JUMPI DUP2 PUSH1 0x3 NOT CALLDATASIZE ADD SLT PUSH2 0x312 JUMPI PUSH1 0x20 PUSH32 0x62E78CEA01BEE320CD4E420270B5EA74000D11B0C9F74754EBDBFC544B05A258 SWAP2 PUSH2 0xE9E PUSH1 0x1 PUSH1 0x1 PUSH1 0xA0 SHL SUB PUSH1 0xD SLOAD AND CALLER EQ PUSH2 0x2F29 JUMP JUMPDEST PUSH2 0xEA6 PUSH2 0x2F74 JUMP JUMPDEST PUSH1 0x1 PUSH1 0xFF NOT PUSH1 0x7 SLOAD AND OR PUSH1 0x7 SSTORE MLOAD CALLER DUP2 MSTORE LOG1 DUP1 RETURN JUMPDEST POP POP CALLVALUE PUSH2 0x312 JUMPI PUSH1 0x20 CALLDATASIZE PUSH1 0x3 NOT ADD SLT PUSH2 0x312 JUMPI DUP1 PUSH1 0x20 SWAP3 PUSH1 0x1 PUSH1 0x1 PUSH1 0xA0 SHL SUB PUSH2 0xEE2 PUSH2 0x269E JUMP JUMPDEST AND DUP2 MSTORE PUSH1 0x17 DUP5 MSTORE KECCAK256 SLOAD SWAP1 MLOAD SWAP1 DUP2 MSTORE RETURN JUMPDEST POP POP CALLVALUE PUSH2 0x312 JUMPI PUSH32 0x15819DD2FD9F6418B142E798D08A18D0BF06EA368F4480B7B0D3F75BD966BC48 PUSH2 0xF23 CALLDATASIZE PUSH2 0x2829 JUMP JUMPDEST PUSH2 0xF48 PUSH2 0xA30 DUP4 SWAP6 SWAP4 PUSH1 0x0 MSTORE PUSH1 0x2 PUSH1 0x20 MSTORE PUSH1 0x1 PUSH1 0x1 PUSH1 0xA0 SHL SUB PUSH1 0x40 PUSH1 0x0 KECCAK256 SLOAD AND ISZERO ISZERO SWAP1 JUMP JUMPDEST PUSH2 0xF54 PUSH2 0xA41 DUP6 PUSH2 0x296B JUMP JUMPDEST DUP4 DUP6 MSTORE PUSH1 0x11 PUSH1 0x20 MSTORE PUSH2 0xF6B PUSH1 0xFF DUP4 DUP8 KECCAK256 SLOAD AND PUSH2 0x339A JUMP JUMPDEST PUSH2 0xF76 DUP2 ISZERO ISZERO PUSH2 0x2FC4 JUMP JUMPDEST DUP4 DUP6 MSTORE PUSH1 0x10 PUSH1 0x20 MSTORE PUSH1 0x2 DUP3 DUP7 KECCAK256 ADD SWAP1 DUP1 DUP3 SLOAD SWAP3 SSTORE DUP3 MLOAD SWAP2 DUP3 MSTORE PUSH1 0x20 DUP3 ADD MSTORE LOG2 DUP1 RETURN JUMPDEST POP SWAP1 CALLVALUE PUSH2 0x253 JUMPI PUSH1 0x60 CALLDATASIZE PUSH1 0x3 NOT ADD SLT PUSH2 0x253 JUMPI DUP2 CALLDATALOAD SWAP1 PUSH1 0x24 CALLDATALOAD SWAP4 PUSH1 0x44 CALLDATALOAD SWAP5 PUSH1 0x1 PUSH1 0x1 PUSH1 0xA0 SHL SUB SWAP4 DUP5 DUP8 AND SWAP7 DUP8 DUP2 SUB PUSH2 0x12C3 JUMPI PUSH2 0xFD2 PUSH2 0x303F JUMP JUMPDEST PUSH2 0xFDA PUSH2 0x2F74 JUMP JUMPDEST PUSH2 0xFFD PUSH2 0xA30 DUP4 PUSH1 0x0 MSTORE PUSH1 0x2 PUSH1 0x20 MSTORE PUSH1 0x1 PUSH1 0x1 PUSH1 0xA0 SHL SUB PUSH1 0x40 PUSH1 0x0 KECCAK256 SLOAD AND ISZERO ISZERO SWAP1 JUMP JUMPDEST PUSH2 0x1012 PUSH2 0x1009 DUP4 PUSH2 0x296B JUMP JUMPDEST DUP8 AND CALLER EQ PUSH2 0x334F JUMP JUMPDEST DUP2 DUP5 MSTORE PUSH1 0x20 SWAP6 PUSH1 0x11 DUP8 MSTORE PUSH1 0xFF DUP7 DUP7 KECCAK256 SLOAD AND PUSH2 0x1281 JUMPI PUSH2 0x1032 DUP5 ISZERO ISZERO PUSH2 0x2FC4 JUMP JUMPDEST DUP9 ISZERO PUSH2 0x123F JUMPI DUP6 MLOAD PUSH32 0x18160DDD00000000000000000000000000000000000000000000000000000000 DUP2 MSTORE DUP8 DUP1 DUP3 DUP12 DUP2 DUP15 GAS STATICCALL SWAP2 DUP3 PUSH2 0x1216 JUMPI JUMPDEST POP POP PUSH2 0x10B4 JUMPI PUSH1 0x64 DUP9 DUP9 DUP9 MLOAD SWAP2 PUSH3 0x461BCD PUSH1 0xE5 SHL DUP4 MSTORE DUP3 ADD MSTORE PUSH1 0x1B PUSH1 0x24 DUP3 ADD MSTORE PUSH32 0x496E76616C6964204552433230207061796D656E7420746F6B656E0000000000 PUSH1 0x44 DUP3 ADD MSTORE REVERT JUMPDEST DUP7 DUP9 PUSH2 0x1157 DUP9 SWAP4 PUSH1 0x5 DUP8 DUP11 DUP16 DUP9 MLOAD SWAP5 PUSH2 0x10CC DUP7 PUSH2 0x27B9 JUMP JUMPDEST DUP4 DUP7 MSTORE DUP9 DUP7 ADD SWAP1 CALLER DUP3 MSTORE DUP14 DUP12 DUP9 ADD SWAP1 DUP2 MSTORE PUSH1 0x60 DUP9 ADD SWAP4 DUP5 MSTORE DUP12 PUSH1 0x80 DUP10 ADD SWAP6 TIMESTAMP DUP8 MSTORE PUSH1 0xA0 DUP11 ADD SWAP8 PUSH1 0x1 DUP10 MSTORE DUP2 MSTORE PUSH1 0x10 DUP14 MSTORE KECCAK256 SWAP8 MLOAD DUP9 SSTORE DUP2 PUSH1 0x1 DUP10 ADD SWAP4 MLOAD AND SWAP3 PUSH20 0xFFFFFFFFFFFFFFFFFFFFFFFFFFFFFFFFFFFFFFFF NOT SWAP4 DUP5 DUP3 SLOAD AND OR SWAP1 SSTORE MLOAD PUSH1 0x2 DUP9 ADD SSTORE PUSH1 0x3 DUP8 ADD SWAP3 MLOAD AND SWAP1 DUP3 SLOAD AND OR SWAP1 SSTORE MLOAD DUP6 DUP5 ADD SSTORE MLOAD ISZERO ISZERO SWAP2 ADD SWAP1 PUSH1 0xFF DUP1 NOT DUP4 SLOAD AND SWAP2 ISZERO ISZERO AND OR SWAP1 SSTORE JUMP JUMPDEST PUSH1 0x11 DUP3 MSTORE DUP3 DUP8 KECCAK256 PUSH1 0x1 PUSH1 0xFF NOT DUP3 SLOAD AND OR SWAP1 SSTORE PUSH1 0x13 PUSH1 0x12 SLOAD SWAP3 MSTORE DUP2 DUP4 DUP9 KECCAK256 SSTORE PUSH9 0x10000000000000000 DUP3 LT ISZERO PUSH2 0x1203 JUMPI POP SWAP2 PUSH2 0x11F8 SWAP2 PUSH2 0x11DA DUP6 PUSH2 0x11C1 DUP7 PUSH1 0x1 PUSH32 0xAD9BD239ED4E99994741303AFBD6DD4C6E9E20FFD17A1241C5F2014145D3A558 SWAP9 ADD PUSH1 0x12 SSTORE PUSH2 0x2732 JUMP JUMPDEST SWAP1 SWAP2 SWAP1 DUP3 SLOAD SWAP1 PUSH1 0x3 SHL SWAP2 DUP3 SHL SWAP2 PUSH1 0x0 NOT SWAP1 SHL NOT AND OR SWAP1 SSTORE JUMP JUMPDEST MLOAD SWAP5 DUP6 MSTORE PUSH1 0x1 PUSH1 0x1 PUSH1 0xA0 SHL SUB AND PUSH1 0x20 DUP6 ADD MSTORE CALLER SWAP4 SWAP1 DUP2 SWAP1 PUSH1 0x40 DUP3 ADD SWAP1 JUMP JUMPDEST SUB SWAP1 LOG3 PUSH1 0x1 PUSH1 0x6 SSTORE DUP1 RETURN JUMPDEST DUP7 PUSH1 0x41 PUSH1 0x24 SWAP3 PUSH4 0x4E487B71 PUSH1 0xE0 SHL DUP4 MSTORE MSTORE REVERT JUMPDEST DUP2 RETURNDATASIZE DUP4 GT PUSH2 0x1238 JUMPI JUMPDEST PUSH2 0x1229 DUP2 DUP4 PUSH2 0x2807 JUMP JUMPDEST DUP2 ADD SUB SLT PUSH2 0xB68 JUMPI DUP8 CODESIZE PUSH2 0x106C JUMP JUMPDEST POP RETURNDATASIZE PUSH2 0x121F JUMP JUMPDEST PUSH1 0x64 DUP9 DUP9 DUP9 MLOAD SWAP2 PUSH3 0x461BCD PUSH1 0xE5 SHL DUP4 MSTORE DUP3 ADD MSTORE PUSH1 0x15 PUSH1 0x24 DUP3 ADD MSTORE PUSH32 0x496E76616C6964207061796D656E7420746F6B656E0000000000000000000000 PUSH1 0x44 DUP3 ADD MSTORE REVERT JUMPDEST PUSH1 0x64 DUP9 DUP9 DUP9 MLOAD SWAP2 PUSH3 0x461BCD PUSH1 0xE5 SHL DUP4 MSTORE DUP3 ADD MSTORE PUSH1 0xF PUSH1 0x24 DUP3 ADD MSTORE PUSH32 0x546F6B656E206973206C69737465640000000000000000000000000000000000 PUSH1 0x44 DUP3 ADD MSTORE REVERT JUMPDEST DUP4 DUP1 REVERT JUMPDEST POP POP CALLVALUE PUSH2 0x312 JUMPI DUP2 PUSH1 0x3 NOT CALLDATASIZE ADD SLT PUSH2 0x312 JUMPI DUP1 MLOAD SWAP1 DUP3 PUSH1 0x18 SLOAD PUSH2 0x12E9 DUP2 PUSH2 0x277F JUMP JUMPDEST DUP1 DUP6 MSTORE SWAP2 PUSH1 0x1 SWAP2 DUP1 DUP4 AND SWAP1 DUP2 ISZERO PUSH2 0x9CB JUMPI POP PUSH1 0x1 EQ PUSH2 0x1314 JUMPI POP POP POP PUSH2 0x95C DUP3 PUSH2 0x3DC SWAP5 SUB DUP4 PUSH2 0x2807 JUMP JUMPDEST SWAP5 POP PUSH1 0x18 DUP6 MSTORE PUSH32 0xB13D2D76D1F4B7BE834882E410B3E3A8AFAF69F83600AE24DB354391D2378D2E JUMPDEST DUP3 DUP7 LT PUSH2 0x1359 JUMPI POP POP POP PUSH2 0x95C DUP3 PUSH1 0x20 PUSH2 0x3DC SWAP6 DUP3 ADD ADD SWAP5 PUSH2 0x94A JUMP JUMPDEST DUP1 SLOAD PUSH1 0x20 DUP8 DUP8 ADD DUP2 ADD SWAP2 SWAP1 SWAP2 MSTORE SWAP1 SWAP6 ADD SWAP5 DUP2 ADD PUSH2 0x133C JUMP JUMPDEST POP POP CALLVALUE PUSH2 0x312 JUMPI PUSH1 0x20 CALLDATASIZE PUSH1 0x3 NOT ADD SLT PUSH2 0x312 JUMPI PUSH1 0x20 SWAP1 PUSH2 0x1397 PUSH2 0x1392 PUSH2 0x269E JUMP JUMPDEST PUSH2 0x2896 JUMP JUMPDEST SWAP1 MLOAD SWAP1 DUP2 MSTORE RETURN JUMPDEST POP SWAP2 CALLVALUE PUSH2 0x47F JUMPI PUSH1 0x20 SWAP2 DUP3 PUSH1 0x3 NOT CALLDATASIZE ADD SLT PUSH2 0x312 JUMPI PUSH2 0x13BB PUSH2 0x269E JUMP JUMPDEST PUSH2 0x13C3 PUSH2 0x303F JUMP JUMPDEST PUSH2 0x13CB PUSH2 0x2F74 JUMP JUMPDEST PUSH1 0x1 PUSH1 0x1 PUSH1 0xA0 SHL SUB SWAP1 DUP2 DUP2 AND SWAP2 DUP3 ISZERO PUSH2 0x1737 JUMPI PUSH1 0xF SLOAD SWAP5 PUSH1 0x9 SLOAD DUP7 GT PUSH2 0x16F5 JUMPI DUP2 PUSH1 0xA SLOAD AND DUP6 MLOAD SWAP1 PUSH4 0x70A08231 PUSH1 0xE0 SHL SWAP1 DUP2 DUP4 MSTORE ADDRESS DUP12 DUP5 ADD MSTORE DUP10 DUP4 PUSH1 0x24 DUP2 DUP5 GAS STATICCALL SWAP3 DUP4 ISZERO PUSH2 0x16EB JUMPI DUP5 SWAP4 PUSH2 0x16BA JUMPI JUMPDEST POP PUSH1 0xB SLOAD PUSH2 0x142B SWAP2 ADDRESS SWAP1 CALLER SWAP1 PUSH2 0x3094 JUMP JUMPDEST DUP9 DUP11 PUSH1 0x24 DUP7 PUSH1 0xA SLOAD AND SWAP4 DUP11 MLOAD SWAP5 DUP6 SWAP4 DUP5 SWAP3 DUP4 MSTORE ADDRESS SWAP1 DUP4 ADD MSTORE GAS STATICCALL SWAP1 DUP2 ISZERO PUSH2 0x16B0 JUMPI DUP4 SWAP2 PUSH2 0x1681 JUMPI JUMPDEST POP PUSH2 0x1464 PUSH2 0x1525 SWAP3 PUSH2 0x902 SWAP3 PUSH2 0x300F JUMP JUMPDEST SWAP5 DUP9 DUP9 MLOAD SWAP2 PUSH2 0x1472 DUP4 PUSH2 0x27EB JUMP JUMPDEST DUP6 DUP4 MSTORE PUSH2 0x149E PUSH2 0x1498 DUP4 PUSH1 0x0 MSTORE PUSH1 0x2 PUSH1 0x20 MSTORE PUSH1 0x1 PUSH1 0x1 PUSH1 0xA0 SHL SUB PUSH1 0x40 PUSH1 0x0 KECCAK256 SLOAD AND ISZERO ISZERO SWAP1 JUMP JUMPDEST ISZERO PUSH2 0x3221 JUMP JUMPDEST PUSH2 0x14C1 PUSH2 0x1498 DUP4 PUSH1 0x0 MSTORE PUSH1 0x2 PUSH1 0x20 MSTORE PUSH1 0x1 PUSH1 0x1 PUSH1 0xA0 SHL SUB PUSH1 0x40 PUSH1 0x0 KECCAK256 SLOAD AND ISZERO ISZERO SWAP1 JUMP JUMPDEST DUP9 DUP7 MSTORE PUSH1 0x3 DUP13 MSTORE DUP10 DUP7 KECCAK256 PUSH1 0x1 DUP2 SLOAD ADD SWAP1 SSTORE DUP2 DUP7 MSTORE PUSH1 0x2 DUP13 MSTORE DUP10 DUP7 KECCAK256 DUP10 PUSH20 0xFFFFFFFFFFFFFFFFFFFFFFFFFFFFFFFFFFFFFFFF NOT DUP3 SLOAD AND OR SWAP1 SSTORE DUP2 DUP10 DUP8 PUSH32 0xDDF252AD1BE2C89B69C2B068FC378DAA952BA7F163C4A11628F55A4DF523B3EF DUP2 DUP1 LOG4 PUSH2 0x2D52 JUMP JUMPDEST PUSH1 0x1 PUSH1 0xF SLOAD ADD PUSH1 0xF SSTORE PUSH2 0x153A DUP4 PUSH1 0x14 SLOAD PUSH2 0x3032 JUMP JUMPDEST PUSH1 0x14 SSTORE DUP2 PUSH1 0xA SLOAD AND DUP2 MSTORE PUSH1 0x16 DUP8 MSTORE DUP5 DUP2 KECCAK256 PUSH2 0x1556 DUP5 DUP3 SLOAD PUSH2 0x3032 JUMP JUMPDEST SWAP1 SSTORE DUP2 PUSH1 0xE SLOAD AND SWAP1 PUSH1 0xF SLOAD PUSH1 0x0 NOT DUP2 ADD SWAP1 DUP2 GT PUSH2 0x166E JUMPI DUP3 EXTCODESIZE ISZERO PUSH2 0x312 JUMPI DUP2 SWAP1 PUSH1 0x24 DUP12 DUP4 DUP11 MLOAD SWAP7 DUP8 SWAP5 DUP6 SWAP4 PUSH32 0xABF1C20400000000000000000000000000000000000000000000000000000000 DUP6 MSTORE DUP5 ADD MSTORE GAS CALL SWAP9 DUP10 ISZERO PUSH2 0x1662 JUMPI DUP8 SWAP9 SWAP10 SWAP8 SWAP7 SWAP8 PUSH2 0x1609 JUMPI JUMPDEST POP POP PUSH1 0xA SLOAD DUP7 MLOAD SWAP4 DUP5 MSTORE SWAP2 SWAP1 SWAP2 AND PUSH1 0x1 PUSH1 0x1 PUSH1 0xA0 SHL SUB AND PUSH1 0x20 DUP4 ADD MSTORE POP PUSH32 0x6A1A369EF3C3EEBE428C993F6EB79FB1438544741070BC7A4388C801FA08463D SWAP1 PUSH1 0x40 SWAP1 LOG3 PUSH1 0x1 PUSH1 0x6 SSTORE MLOAD SWAP1 DUP2 MSTORE RETURN JUMPDEST SWAP1 SWAP2 SWAP3 SWAP4 SWAP5 SWAP6 POP PUSH8 0xFFFFFFFFFFFFFFFF DUP4 GT PUSH2 0x164F JUMPI POP POP DUP5 MSTORE DUP5 SWAP3 SWAP2 SWAP1 PUSH32 0x6A1A369EF3C3EEBE428C993F6EB79FB1438544741070BC7A4388C801FA08463D CODESIZE DUP1 PUSH2 0x15BB JUMP JUMPDEST SWAP1 PUSH1 0x41 PUSH1 0x24 SWAP3 PUSH4 0x4E487B71 PUSH1 0xE0 SHL DUP4 MSTORE MSTORE REVERT JUMPDEST POP DUP6 MLOAD SWAP1 RETURNDATASIZE SWAP1 DUP3 RETURNDATACOPY RETURNDATASIZE SWAP1 REVERT JUMPDEST PUSH1 0x24 DUP3 PUSH1 0x11 DUP13 PUSH4 0x4E487B71 PUSH1 0xE0 SHL DUP4 MSTORE MSTORE REVERT JUMPDEST SWAP1 POP DUP9 DUP2 DUP2 RETURNDATASIZE DUP4 GT PUSH2 0x16A9 JUMPI JUMPDEST PUSH2 0x1698 DUP2 DUP4 PUSH2 0x2807 JUMP JUMPDEST DUP2 ADD SUB SLT PUSH2 0x253 JUMPI MLOAD PUSH2 0x1464 PUSH2 0x1453 JUMP JUMPDEST POP RETURNDATASIZE PUSH2 0x168E JUMP JUMPDEST DUP8 MLOAD RETURNDATASIZE DUP6 DUP3 RETURNDATACOPY RETURNDATASIZE SWAP1 REVERT JUMPDEST SWAP1 SWAP3 POP DUP10 DUP2 DUP2 RETURNDATASIZE DUP4 GT PUSH2 0x16E4 JUMPI JUMPDEST PUSH2 0x16D2 DUP2 DUP4 PUSH2 0x2807 JUMP JUMPDEST DUP2 ADD SUB SLT PUSH2 0x12C3 JUMPI MLOAD SWAP2 PUSH2 0x142B PUSH2 0x141A JUMP JUMPDEST POP RETURNDATASIZE PUSH2 0x16C8 JUMP JUMPDEST DUP9 MLOAD RETURNDATASIZE DUP7 DUP3 RETURNDATACOPY RETURNDATASIZE SWAP1 REVERT JUMPDEST PUSH1 0x64 DUP9 DUP9 DUP8 MLOAD SWAP2 PUSH3 0x461BCD PUSH1 0xE5 SHL DUP4 MSTORE DUP3 ADD MSTORE PUSH1 0x12 PUSH1 0x24 DUP3 ADD MSTORE PUSH32 0x4D617820737570706C7920726561636865640000000000000000000000000000 PUSH1 0x44 DUP3 ADD MSTORE REVERT JUMPDEST PUSH1 0x64 DUP8 DUP8 DUP7 MLOAD SWAP2 PUSH3 0x461BCD PUSH1 0xE5 SHL DUP4 MSTORE DUP3 ADD MSTORE PUSH1 0x11 PUSH1 0x24 DUP3 ADD MSTORE PUSH32 0x496E76616C696420726563697069656E74000000000000000000000000000000 PUSH1 0x44 DUP3 ADD MSTORE REVERT JUMPDEST POP POP CALLVALUE PUSH2 0x312 JUMPI DUP2 PUSH1 0x3 NOT CALLDATASIZE ADD SLT PUSH2 0x312 JUMPI PUSH1 0x20 SWAP1 PUSH1 0xB SLOAD SWAP1 MLOAD SWAP1 DUP2 MSTORE RETURN JUMPDEST POP SWAP2 CALLVALUE PUSH2 0x47F JUMPI PUSH1 0x20 CALLDATASIZE PUSH1 0x3 NOT ADD SLT PUSH2 0x47F JUMPI POP PUSH1 0x1 PUSH1 0x1 PUSH1 0xA0 SHL SUB PUSH2 0x17C0 PUSH1 0x20 SWAP4 CALLDATALOAD PUSH2 0x296B JUMP JUMPDEST SWAP2 MLOAD SWAP2 AND DUP2 MSTORE RETURN JUMPDEST POP CALLVALUE PUSH2 0x253 JUMPI PUSH1 0x20 CALLDATASIZE PUSH1 0x3 NOT ADD SLT PUSH2 0x253 JUMPI CALLDATALOAD SWAP2 PUSH1 0x12 SLOAD DUP4 LT ISZERO PUSH2 0x47F JUMPI POP PUSH2 0x17F2 PUSH1 0x20 SWAP3 PUSH2 0x2732 JUMP JUMPDEST SWAP2 SWAP1 SLOAD SWAP1 MLOAD SWAP2 PUSH1 0x3 SHL SHR DUP2 MSTORE RETURN JUMPDEST POP POP CALLVALUE PUSH2 0x312 JUMPI DUP2 PUSH1 0x3 NOT CALLDATASIZE ADD SLT PUSH2 0x312 JUMPI PUSH1 0x20 SWAP1 PUSH1 0xFF PUSH1 0x7 SLOAD AND SWAP1 MLOAD SWAP1 ISZERO ISZERO DUP2 MSTORE RETURN JUMPDEST POP SWAP2 SWAP1 CALLVALUE PUSH2 0x312 JUMPI DUP2 PUSH1 0x3 NOT CALLDATASIZE ADD SLT PUSH2 0x312 JUMPI PUSH1 0xF SLOAD PUSH1 0x0 NOT DUP2 ADD SWAP3 SWAP1 DUP4 GT PUSH2 0x1884 JUMPI PUSH1 0xE0 DUP4 DUP4 PUSH1 0x9 SLOAD SWAP1 PUSH1 0x14 SLOAD PUSH1 0x15 SLOAD PUSH1 0x12 SLOAD SWAP2 PUSH1 0xB SLOAD SWAP4 PUSH1 0xC SLOAD SWAP6 DUP2 MLOAD SWAP8 DUP9 MSTORE PUSH1 0x20 DUP9 ADD MSTORE DUP7 ADD MSTORE PUSH1 0x60 DUP6 ADD MSTORE PUSH1 0x80 DUP5 ADD MSTORE PUSH1 0xA0 DUP4 ADD MSTORE PUSH1 0xC0 DUP3 ADD MSTORE RETURN JUMPDEST DUP1 PUSH1 0x11 DUP6 PUSH4 0x4E487B71 PUSH1 0xE0 SHL PUSH1 0x24 SWAP5 MSTORE MSTORE REVERT JUMPDEST POP SWAP2 SWAP1 CALLVALUE PUSH2 0x312 JUMPI CALLDATASIZE PUSH1 0x3 NOT ADD SLT PUSH2 0x47F JUMPI PUSH8 0xFFFFFFFFFFFFFFFF DUP3 CALLDATALOAD DUP2 DUP2 GT PUSH2 0x253 JUMPI PUSH2 0x18C8 SWAP1 CALLDATASIZE SWAP1 DUP6 ADD PUSH2 0x2704 JUMP JUMPDEST SWAP4 PUSH1 0x24 CALLDATALOAD DUP4 DUP2 GT PUSH2 0x1B8E JUMPI PUSH2 0x18E0 SWAP1 CALLDATASIZE SWAP1 DUP4 ADD PUSH2 0x2704 JUMP JUMPDEST SWAP4 SWAP1 SWAP6 PUSH2 0x18F9 PUSH1 0x1 PUSH1 0x1 PUSH1 0xA0 SHL SUB PUSH1 0xD SLOAD AND CALLER EQ PUSH2 0x2F29 JUMP JUMPDEST DUP2 DUP2 GT PUSH2 0x1B7B JUMPI DUP1 PUSH2 0x190C PUSH1 0x18 SLOAD PUSH2 0x277F JUMP JUMPDEST SWAP5 PUSH1 0x1F SWAP6 DUP7 DUP2 GT PUSH2 0x1B0F JUMPI JUMPDEST POP DUP8 SWAP1 DUP7 DUP4 GT PUSH1 0x1 EQ PUSH2 0x1A8A JUMPI DUP9 SWAP3 PUSH2 0x1A7F JUMPI JUMPDEST POP POP DUP2 PUSH1 0x1 SHL SWAP2 PUSH1 0x0 NOT SWAP1 PUSH1 0x3 SHL SHR NOT AND OR PUSH1 0x18 SSTORE JUMPDEST DUP4 GT PUSH2 0x1A6C JUMPI POP PUSH2 0x1954 PUSH1 0x19 SLOAD PUSH2 0x277F JUMP JUMPDEST DUP2 DUP2 GT PUSH2 0x1A10 JUMPI JUMPDEST POP DUP3 SWAP1 DUP3 GT PUSH1 0x1 EQ PUSH2 0x1995 JUMPI DUP3 SWAP4 DUP3 SWAP4 SWAP3 PUSH2 0x198A JUMPI JUMPDEST POP POP DUP2 PUSH1 0x1 SHL SWAP2 PUSH1 0x0 NOT SWAP1 PUSH1 0x3 SHL SHR NOT AND OR PUSH1 0x19 SSTORE DUP1 RETURN JUMPDEST ADD CALLDATALOAD SWAP1 POP CODESIZE DUP1 PUSH2 0x1972 JUMP JUMPDEST PUSH1 0x1F NOT DUP3 AND SWAP4 PUSH32 0x944998273E477B495144FB8794C914197F3CCB46BE2900F4698FD0EF743C9695 SWAP2 DUP5 JUMPDEST DUP7 DUP2 LT PUSH2 0x19F8 JUMPI POP DUP4 PUSH1 0x1 SWAP6 SWAP7 LT PUSH2 0x19DE JUMPI JUMPDEST POP POP POP DUP2 SHL ADD PUSH1 0x19 SSTORE DUP1 RETURN JUMPDEST ADD CALLDATALOAD PUSH1 0x0 NOT PUSH1 0x3 DUP5 SWAP1 SHL PUSH1 0xF8 AND SHR NOT AND SWAP1 SSTORE CODESIZE DUP1 DUP1 PUSH2 0x19D2 JUMP JUMPDEST SWAP1 SWAP3 PUSH1 0x20 PUSH1 0x1 DUP2 SWAP3 DUP7 DUP7 ADD CALLDATALOAD DUP2 SSTORE ADD SWAP5 ADD SWAP2 ADD PUSH2 0x19BF JUMP JUMPDEST PUSH32 0x944998273E477B495144FB8794C914197F3CCB46BE2900F4698FD0EF743C9695 DUP3 DUP1 DUP6 ADD PUSH1 0x5 SHR DUP3 ADD SWAP3 PUSH1 0x20 DUP7 LT PUSH2 0x1A63 JUMPI JUMPDEST ADD PUSH1 0x5 SHR ADD SWAP1 JUMPDEST DUP2 DUP2 LT PUSH2 0x1A58 JUMPI POP PUSH2 0x195C JUMP JUMPDEST DUP5 DUP2 SSTORE PUSH1 0x1 ADD PUSH2 0x1A4B JUMP JUMPDEST SWAP3 POP DUP2 SWAP3 PUSH2 0x1A44 JUMP JUMPDEST DUP4 PUSH1 0x41 PUSH1 0x24 SWAP3 PUSH4 0x4E487B71 PUSH1 0xE0 SHL DUP4 MSTORE MSTORE REVERT JUMPDEST ADD CALLDATALOAD SWAP1 POP CODESIZE DUP1 PUSH2 0x192C JUMP JUMPDEST PUSH1 0x18 DUP10 MSTORE PUSH32 0xB13D2D76D1F4B7BE834882E410B3E3A8AFAF69F83600AE24DB354391D2378D2E SWAP3 POP SWAP1 PUSH1 0x1F NOT DUP5 AND DUP10 JUMPDEST DUP2 DUP2 LT PUSH2 0x1AF7 JUMPI POP SWAP1 DUP5 PUSH1 0x1 SWAP6 SWAP5 SWAP4 SWAP3 LT PUSH2 0x1ADD JUMPI JUMPDEST POP POP POP DUP2 SHL ADD PUSH1 0x18 SSTORE PUSH2 0x1942 JUMP JUMPDEST ADD CALLDATALOAD PUSH1 0x0 NOT PUSH1 0x3 DUP5 SWAP1 SHL PUSH1 0xF8 AND SHR NOT AND SWAP1 SSTORE CODESIZE DUP1 DUP1 PUSH2 0x1ACF JUMP JUMPDEST SWAP2 SWAP4 PUSH1 0x20 PUSH1 0x1 DUP2 SWAP3 DUP8 DUP8 ADD CALLDATALOAD DUP2 SSTORE ADD SWAP6 ADD SWAP3 ADD PUSH2 0x1AB9 JUMP JUMPDEST SWAP1 SWAP2 POP PUSH1 0x18 DUP9 MSTORE PUSH32 0xB13D2D76D1F4B7BE834882E410B3E3A8AFAF69F83600AE24DB354391D2378D2E DUP7 DUP1 DUP6 ADD PUSH1 0x5 SHR DUP3 ADD SWAP3 PUSH1 0x20 DUP7 LT PUSH2 0x1B72 JUMPI JUMPDEST SWAP1 DUP6 SWAP5 SWAP4 SWAP3 SWAP2 ADD PUSH1 0x5 SHR ADD SWAP1 JUMPDEST DUP2 DUP2 LT PUSH2 0x1B64 JUMPI POP PUSH2 0x1918 JUMP JUMPDEST DUP10 DUP2 SSTORE DUP5 SWAP4 POP PUSH1 0x1 ADD PUSH2 0x1B57 JUMP JUMPDEST SWAP3 POP DUP2 SWAP3 PUSH2 0x1B4A JUMP JUMPDEST PUSH1 0x24 DUP7 PUSH1 0x41 DUP6 PUSH4 0x4E487B71 PUSH1 0xE0 SHL DUP4 MSTORE MSTORE REVERT JUMPDEST DUP5 DUP1 REVERT JUMPDEST POP POP CALLVALUE PUSH2 0x312 JUMPI PUSH2 0x902 PUSH2 0x907 SWAP2 PUSH2 0x1BA9 CALLDATASIZE PUSH2 0x26CF JUMP JUMPDEST SWAP2 SWAP3 MLOAD SWAP3 PUSH2 0x1BB6 DUP5 PUSH2 0x27EB JUMP JUMPDEST DUP7 DUP5 MSTORE PUSH2 0x8F2 PUSH2 0x8ED DUP5 CALLER PUSH2 0x2AB4 JUMP JUMPDEST POP CALLVALUE PUSH2 0x253 JUMPI DUP3 PUSH1 0x3 NOT CALLDATASIZE ADD SLT PUSH2 0x253 JUMPI PUSH2 0x1BED PUSH1 0x1 PUSH1 0x1 PUSH1 0xA0 SHL SUB PUSH1 0xD SLOAD AND CALLER EQ PUSH2 0x2F29 JUMP JUMPDEST PUSH1 0x7 SLOAD SWAP1 PUSH1 0xFF DUP3 AND ISZERO PUSH2 0x1C2F JUMPI POP PUSH1 0xFF NOT AND PUSH1 0x7 SSTORE MLOAD CALLER DUP2 MSTORE PUSH32 0x5DB9EE0A495BF2E6FF9C91A7834C1BA4FDD244A5E8AA4E537BD38AEAE4B073AA SWAP1 PUSH1 0x20 SWAP1 LOG1 DUP1 RETURN JUMPDEST PUSH1 0x64 SWAP1 PUSH1 0x20 DUP5 MLOAD SWAP2 PUSH3 0x461BCD PUSH1 0xE5 SHL DUP4 MSTORE DUP3 ADD MSTORE PUSH1 0x14 PUSH1 0x24 DUP3 ADD MSTORE PUSH32 0x5061757361626C653A206E6F7420706175736564000000000000000000000000 PUSH1 0x44 DUP3 ADD MSTORE REVERT JUMPDEST POP POP CALLVALUE PUSH2 0x312 JUMPI DUP2 PUSH1 0x3 NOT CALLDATASIZE ADD SLT PUSH2 0x312 JUMPI PUSH1 0x20 SWAP1 PUSH1 0xC SLOAD SWAP1 MLOAD SWAP1 DUP2 MSTORE RETURN JUMPDEST POP POP CALLVALUE PUSH2 0x312 JUMPI PUSH1 0x20 CALLDATASIZE PUSH1 0x3 NOT ADD SLT PUSH2 0x312 JUMPI DUP1 PUSH1 0x20 SWAP3 PUSH1 0x1 PUSH1 0x1 PUSH1 0xA0 SHL SUB PUSH2 0x1CB8 PUSH2 0x269E JUMP JUMPDEST AND DUP2 MSTORE PUSH1 0x16 DUP5 MSTORE KECCAK256 SLOAD SWAP1 MLOAD SWAP1 DUP2 MSTORE RETURN JUMPDEST POP SWAP1 CALLVALUE PUSH2 0x253 JUMPI PUSH1 0x20 DUP1 PUSH1 0x3 NOT CALLDATASIZE ADD SLT PUSH2 0x12C3 JUMPI DUP3 CALLDATALOAD SWAP1 PUSH2 0x1CE7 PUSH2 0x303F JUMP JUMPDEST PUSH2 0x1CEF PUSH2 0x2F74 JUMP JUMPDEST PUSH2 0x1D12 PUSH2 0xA30 DUP4 PUSH1 0x0 MSTORE PUSH1 0x2 PUSH1 0x20 MSTORE PUSH1 0x1 PUSH1 0x1 PUSH1 0xA0 SHL SUB PUSH1 0x40 PUSH1 0x0 KECCAK256 SLOAD AND ISZERO ISZERO SWAP1 JUMP JUMPDEST DUP2 DUP6 MSTORE PUSH1 0x11 DUP2 MSTORE PUSH2 0x1D28 PUSH1 0xFF DUP5 DUP8 KECCAK256 SLOAD AND PUSH2 0x339A JUMP JUMPDEST DUP2 DUP6 MSTORE PUSH1 0x10 DUP2 MSTORE DUP3 DUP6 KECCAK256 SWAP3 DUP1 MLOAD SWAP4 PUSH2 0x1D3F DUP6 PUSH2 0x27B9 JUMP JUMPDEST DUP1 SLOAD DUP6 MSTORE PUSH1 0x1 PUSH1 0x1 PUSH1 0xA0 SHL SUB DUP1 PUSH1 0x1 DUP4 ADD SLOAD AND DUP5 DUP8 ADD SWAP1 DUP2 MSTORE PUSH1 0x2 DUP4 ADD SLOAD SWAP7 DUP5 DUP2 ADD SWAP8 DUP9 MSTORE PUSH1 0xFF PUSH1 0x5 DUP5 PUSH1 0x3 DUP8 ADD SLOAD AND SWAP6 PUSH1 0x60 DUP5 ADD SWAP7 DUP8 MSTORE DUP12 DUP2 ADD SLOAD PUSH1 0x80 DUP6 ADD MSTORE ADD SLOAD AND ISZERO SWAP1 PUSH1 0xA0 DUP3 ISZERO SWAP2 ADD MSTORE PUSH2 0x1F90 JUMPI DUP2 DUP2 MLOAD AND CALLER EQ PUSH2 0x1F4E JUMPI DUP2 SWAP1 MLOAD AND SWAP6 MLOAD SWAP2 MLOAD AND SWAP1 PUSH2 0x1DAD DUP6 PUSH2 0x3772 JUMP JUMPDEST DUP3 MLOAD PUSH4 0x70A08231 PUSH1 0xE0 SHL SWAP2 DUP3 DUP3 MSTORE ADDRESS DUP10 DUP4 ADD MSTORE DUP6 DUP3 PUSH1 0x24 DUP2 DUP8 GAS STATICCALL SWAP2 DUP3 ISZERO PUSH2 0x1F44 JUMPI DUP11 SWAP3 PUSH2 0x1F0F JUMPI JUMPDEST POP PUSH2 0x1DE3 SWAP1 ADDRESS CALLER DUP7 PUSH2 0x3094 JUMP JUMPDEST DUP4 MLOAD SWAP2 DUP3 MSTORE ADDRESS DUP9 DUP4 ADD MSTORE DUP5 DUP3 PUSH1 0x24 DUP2 DUP7 GAS STATICCALL DUP1 ISZERO PUSH2 0x1F05 JUMPI DUP10 SWAP1 PUSH2 0x1ED2 JUMPI JUMPDEST PUSH2 0x1E0C SWAP3 POP PUSH2 0x300F JUMP JUMPDEST SWAP6 PUSH1 0xC SLOAD SWAP1 DUP2 DUP9 MUL SWAP2 DUP9 DUP4 DIV EQ DUP9 ISZERO OR ISZERO PUSH2 0x1EBF JUMPI POP PUSH2 0x2710 SWAP1 DIV SWAP3 PUSH2 0x1E32 DUP5 DUP9 PUSH2 0x300F JUMP JUMPDEST DUP1 PUSH2 0x1EAE JUMPI JUMPDEST POP DUP4 PUSH2 0x1E83 JUMPI JUMPDEST PUSH2 0x1E4A DUP6 CALLER DUP9 PUSH2 0x2B93 JUMP JUMPDEST DUP3 MLOAD SWAP7 DUP8 MSTORE DUP7 ADD MSTORE DUP5 ADD MSTORE PUSH32 0x695C2B5C229B2E096E844E7DFB1515D51431AAD217561E67062E3E0AE7582CE9 PUSH1 0x60 CALLER SWAP5 LOG4 PUSH1 0x1 PUSH1 0x6 SSTORE DUP1 RETURN JUMPDEST PUSH2 0x1E8F DUP5 PUSH1 0x15 SLOAD PUSH2 0x3032 JUMP JUMPDEST PUSH1 0x15 SSTORE DUP2 DUP9 MSTORE PUSH1 0x17 DUP2 MSTORE DUP3 DUP9 KECCAK256 PUSH2 0x1EA7 DUP6 DUP3 SLOAD PUSH2 0x3032 JUMP JUMPDEST SWAP1 SSTORE PUSH2 0x1E3F JUMP JUMPDEST PUSH2 0x1EB9 SWAP1 DUP8 DUP5 PUSH2 0x33E5 JUMP JUMPDEST CODESIZE PUSH2 0x1E38 JUMP JUMPDEST DUP9 PUSH1 0x11 PUSH1 0x24 SWAP3 PUSH4 0x4E487B71 PUSH1 0xE0 SHL DUP4 MSTORE MSTORE REVERT JUMPDEST POP DUP5 DUP3 DUP2 RETURNDATASIZE DUP4 GT PUSH2 0x1EFE JUMPI JUMPDEST PUSH2 0x1EE8 DUP2 DUP4 PUSH2 0x2807 JUMP JUMPDEST DUP2 ADD SUB SLT PUSH2 0x1EFA JUMPI PUSH2 0x1E0C SWAP2 MLOAD PUSH2 0x1E02 JUMP JUMPDEST DUP9 DUP1 REVERT JUMPDEST POP RETURNDATASIZE PUSH2 0x1EDE JUMP JUMPDEST DUP5 MLOAD RETURNDATASIZE DUP12 DUP3 RETURNDATACOPY RETURNDATASIZE SWAP1 REVERT JUMPDEST SWAP1 SWAP2 POP DUP6 DUP2 DUP2 RETURNDATASIZE DUP4 GT PUSH2 0x1F3D JUMPI JUMPDEST PUSH2 0x1F27 DUP2 DUP4 PUSH2 0x2807 JUMP JUMPDEST DUP2 ADD SUB SLT PUSH2 0x1F39 JUMPI MLOAD SWAP1 PUSH2 0x1DE3 PUSH2 0x1DD6 JUMP JUMPDEST DUP10 DUP1 REVERT JUMPDEST POP RETURNDATASIZE PUSH2 0x1F1D JUMP JUMPDEST DUP6 MLOAD RETURNDATASIZE DUP13 DUP3 RETURNDATACOPY RETURNDATASIZE SWAP1 REVERT JUMPDEST PUSH1 0x64 DUP9 DUP7 DUP7 MLOAD SWAP2 PUSH3 0x461BCD PUSH1 0xE5 SHL DUP4 MSTORE DUP3 ADD MSTORE PUSH1 0x14 PUSH1 0x24 DUP3 ADD MSTORE PUSH32 0x43616E6E6F7420627579206F776E20746F6B656E000000000000000000000000 PUSH1 0x44 DUP3 ADD MSTORE REVERT JUMPDEST PUSH1 0x64 DUP9 DUP7 DUP7 MLOAD SWAP2 PUSH3 0x461BCD PUSH1 0xE5 SHL DUP4 MSTORE DUP3 ADD MSTORE PUSH1 0x12 PUSH1 0x24 DUP3 ADD MSTORE PUSH32 0x4C697374696E67206E6F74206163746976650000000000000000000000000000 PUSH1 0x44 DUP3 ADD MSTORE REVERT JUMPDEST POP SWAP2 SWAP1 CALLVALUE PUSH2 0x312 JUMPI DUP1 PUSH1 0x3 NOT CALLDATASIZE ADD SLT PUSH2 0x312 JUMPI PUSH2 0x1FED PUSH2 0x269E JUMP JUMPDEST PUSH1 0x24 CALLDATALOAD PUSH1 0x1 PUSH1 0x1 PUSH1 0xA0 SHL SUB SWAP5 PUSH2 0x2008 DUP7 PUSH1 0xD SLOAD AND CALLER EQ PUSH2 0x2F29 JUMP JUMPDEST PUSH2 0x2010 PUSH2 0x303F JUMP JUMPDEST DUP6 DUP4 AND SWAP1 PUSH2 0x201F DUP3 ISZERO ISZERO PUSH2 0x344B JUMP JUMPDEST PUSH2 0x202A DUP4 ISZERO ISZERO PUSH2 0x3496 JUMP JUMPDEST DUP2 DUP7 MSTORE PUSH1 0x17 PUSH1 0x20 MSTORE DUP3 DUP6 DUP8 KECCAK256 SLOAD LT PUSH2 0x209B JUMPI POP DUP5 SWAP6 PUSH2 0xD8E DUP4 DUP4 PUSH2 0xDB3 SWAP5 PUSH32 0x9BB58B6694EF0E8A4F1486CE0CED951B4969751CE6137FFE5E5E8ED4896E9A32 SWAP9 SWAP10 MSTORE PUSH1 0x17 PUSH1 0x20 MSTORE DUP9 DUP11 KECCAK256 PUSH2 0x207F DUP4 DUP3 SLOAD PUSH2 0x300F JUMP JUMPDEST SWAP1 SSTORE PUSH2 0x208D DUP3 PUSH1 0x15 SLOAD PUSH2 0x300F JUMP JUMPDEST PUSH1 0x15 SSTORE DUP4 PUSH1 0xD SLOAD AND SWAP1 PUSH2 0x33E5 JUMP JUMPDEST PUSH1 0x64 SWAP1 PUSH1 0x20 DUP7 MLOAD SWAP2 PUSH3 0x461BCD PUSH1 0xE5 SHL DUP4 MSTORE DUP3 ADD MSTORE PUSH1 0x11 PUSH1 0x24 DUP3 ADD MSTORE PUSH32 0x496E73756666696369656E742066656573000000000000000000000000000000 PUSH1 0x44 DUP3 ADD MSTORE REVERT JUMPDEST DUP4 CALLVALUE PUSH2 0x47F JUMPI PUSH2 0x907 PUSH2 0x20F0 CALLDATASIZE PUSH2 0x26CF JUMP JUMPDEST SWAP2 PUSH2 0x20FE PUSH2 0x8ED DUP5 CALLER PUSH2 0x2AB4 JUMP JUMPDEST PUSH2 0x2B93 JUMP JUMPDEST POP POP CALLVALUE PUSH2 0x312 JUMPI DUP2 PUSH1 0x3 NOT CALLDATASIZE ADD SLT PUSH2 0x312 JUMPI PUSH1 0x20 SWAP1 PUSH1 0x1 PUSH1 0x1 PUSH1 0xA0 SHL SUB PUSH1 0xA SLOAD AND SWAP1 MLOAD SWAP1 DUP2 MSTORE RETURN JUMPDEST POP SWAP2 SWAP1 CALLVALUE PUSH2 0x312 JUMPI DUP2 PUSH1 0x3 NOT CALLDATASIZE ADD SLT PUSH2 0x312 JUMPI PUSH1 0xF SLOAD PUSH1 0x0 NOT DUP2 ADD SWAP3 SWAP1 DUP4 GT PUSH2 0x1884 JUMPI PUSH1 0x20 DUP4 DUP4 MLOAD SWAP1 DUP2 MSTORE RETURN JUMPDEST POP SWAP1 CALLVALUE PUSH2 0x253 JUMPI PUSH2 0x2168 CALLDATASIZE PUSH2 0x26CF JUMP JUMPDEST SWAP1 SWAP4 SWAP2 SWAP3 PUSH1 0x1 PUSH1 0x1 PUSH1 0xA0 SHL SUB DUP1 SWAP5 PUSH2 0x2185 DUP3 PUSH1 0xD SLOAD AND CALLER EQ PUSH2 0x2F29 JUMP JUMPDEST PUSH2 0x218D PUSH2 0x303F JUMP JUMPDEST AND SWAP4 PUSH2 0x219A DUP6 ISZERO ISZERO PUSH2 0x344B JUMP JUMPDEST DUP6 AND SWAP5 DUP6 ISZERO PUSH2 0x22B7 JUMPI PUSH2 0x21AE DUP4 ISZERO ISZERO PUSH2 0x3496 JUMP JUMPDEST DUP5 DUP8 MSTORE PUSH1 0x20 SWAP4 PUSH1 0x16 DUP6 MSTORE PUSH2 0x21CD DUP4 DUP10 KECCAK256 SLOAD PUSH1 0x17 DUP8 MSTORE DUP5 DUP11 KECCAK256 SLOAD SWAP1 PUSH2 0x3032 JUMP JUMPDEST DUP4 MLOAD PUSH4 0x70A08231 PUSH1 0xE0 SHL DUP2 MSTORE ADDRESS DUP4 DUP3 ADD MSTORE DUP7 DUP2 PUSH1 0x24 DUP2 DUP12 GAS STATICCALL SWAP1 DUP2 ISZERO PUSH2 0x1F44 JUMPI DUP7 SWAP1 DUP12 SWAP3 PUSH2 0x2285 JUMPI JUMPDEST POP PUSH2 0x2201 SWAP2 SWAP3 PUSH2 0x3032 JUMP JUMPDEST GT PUSH2 0x2243 JUMPI POP SWAP1 PUSH2 0x2236 DUP4 PUSH32 0xACA8FB252CDE442184E5F10E0F2E6E4029E8CD7717CAE63559079610702436AA SWAP6 SWAP5 SWAP4 DUP8 PUSH2 0x33E5 JUMP JUMPDEST MLOAD SWAP1 DUP2 MSTORE LOG3 PUSH1 0x1 PUSH1 0x6 SSTORE DUP1 RETURN JUMPDEST PUSH1 0x64 SWAP1 DUP6 DUP5 MLOAD SWAP2 PUSH3 0x461BCD PUSH1 0xE5 SHL DUP4 MSTORE DUP3 ADD MSTORE PUSH1 0x1E PUSH1 0x24 DUP3 ADD MSTORE PUSH32 0x43616E6E6F74207265636F7665722070726F7465637465642066756E64730000 PUSH1 0x44 DUP3 ADD MSTORE REVERT JUMPDEST DUP1 SWAP3 POP DUP9 DUP1 SWAP3 POP RETURNDATASIZE DUP4 GT PUSH2 0x22B0 JUMPI JUMPDEST PUSH2 0x229E DUP2 DUP4 PUSH2 0x2807 JUMP JUMPDEST DUP2 ADD SUB SLT PUSH2 0x1F39 JUMPI MLOAD DUP6 PUSH2 0x2201 PUSH2 0x21F6 JUMP JUMPDEST POP RETURNDATASIZE PUSH2 0x2294 JUMP JUMPDEST PUSH1 0x64 DUP5 PUSH1 0x20 DUP5 MLOAD SWAP2 PUSH3 0x461BCD PUSH1 0xE5 SHL DUP4 MSTORE DUP3 ADD MSTORE PUSH1 0x19 PUSH1 0x24 DUP3 ADD MSTORE PUSH32 0x496E76616C696420726563697069656E74206164647265737300000000000000 PUSH1 0x44 DUP3 ADD MSTORE REVERT JUMPDEST POP CALLVALUE PUSH2 0x253 JUMPI DUP2 PUSH1 0x3 NOT CALLDATASIZE ADD SLT PUSH2 0x253 JUMPI PUSH2 0x2313 PUSH2 0x269E JUMP JUMPDEST SWAP1 PUSH1 0x24 CALLDATALOAD SWAP3 PUSH1 0x1 PUSH1 0x1 PUSH1 0xA0 SHL SUB SWAP2 DUP3 DUP1 PUSH2 0x232C DUP8 PUSH2 0x296B JUMP JUMPDEST AND SWAP5 AND SWAP4 DUP1 DUP6 EQ PUSH2 0x2425 JUMPI DUP1 CALLER EQ SWAP1 DUP2 ISZERO PUSH2 0x2406 JUMPI JUMPDEST POP ISZERO PUSH2 0x239E JUMPI DUP5 DUP7 MSTORE PUSH1 0x20 MSTORE DUP5 KECCAK256 DUP3 PUSH20 0xFFFFFFFFFFFFFFFFFFFFFFFFFFFFFFFFFFFFFFFF NOT DUP3 SLOAD AND OR SWAP1 SSTORE PUSH2 0x2376 DUP4 PUSH2 0x296B JUMP JUMPDEST AND PUSH32 0x8C5BE1E5EBEC7D5BD14F71427D1E84F3DD0314C0F7B2291E5B200AC8C7C3B925 DUP5 DUP1 LOG4 DUP1 RETURN JUMPDEST PUSH1 0x20 PUSH1 0x84 SWAP3 MLOAD SWAP2 PUSH3 0x461BCD PUSH1 0xE5 SHL DUP4 MSTORE DUP3 ADD MSTORE PUSH1 0x3D PUSH1 0x24 DUP3 ADD MSTORE PUSH32 0x4552433732313A20617070726F76652063616C6C6572206973206E6F7420746F PUSH1 0x44 DUP3 ADD MSTORE PUSH32 0x6B656E206F776E6572206F7220617070726F76656420666F7220616C6C000000 PUSH1 0x64 DUP3 ADD MSTORE REVERT JUMPDEST SWAP1 POP DUP7 MSTORE PUSH1 0x5 PUSH1 0x20 MSTORE DUP2 DUP7 KECCAK256 CALLER DUP8 MSTORE PUSH1 0x20 MSTORE PUSH1 0xFF DUP3 DUP8 KECCAK256 SLOAD AND CODESIZE PUSH2 0x2342 JUMP JUMPDEST POP PUSH1 0x20 PUSH1 0x84 SWAP3 MLOAD SWAP2 PUSH3 0x461BCD PUSH1 0xE5 SHL DUP4 MSTORE DUP3 ADD MSTORE PUSH1 0x21 PUSH1 0x24 DUP3 ADD MSTORE PUSH32 0x4552433732313A20617070726F76616C20746F2063757272656E74206F776E65 PUSH1 0x44 DUP3 ADD MSTORE PUSH32 0x7200000000000000000000000000000000000000000000000000000000000000 PUSH1 0x64 DUP3 ADD MSTORE REVERT JUMPDEST POP SWAP2 CALLVALUE PUSH2 0x47F JUMPI PUSH1 0x20 CALLDATASIZE PUSH1 0x3 NOT ADD SLT PUSH2 0x47F JUMPI POP PUSH1 0x1 PUSH1 0x1 PUSH1 0xA0 SHL SUB PUSH2 0x17C0 PUSH1 0x20 SWAP4 CALLDATALOAD PUSH2 0x2990 JUMP JUMPDEST POP POP CALLVALUE PUSH2 0x312 JUMPI DUP2 PUSH1 0x3 NOT CALLDATASIZE ADD SLT PUSH2 0x312 JUMPI DUP1 MLOAD SWAP1 DUP3 DUP1 SLOAD PUSH2 0x24D7 DUP2 PUSH2 0x277F JUMP JUMPDEST DUP1 DUP6 MSTORE SWAP2 PUSH1 0x1 SWAP2 DUP1 DUP4 AND SWAP1 DUP2 ISZERO PUSH2 0x9CB JUMPI POP PUSH1 0x1 EQ PUSH2 0x2502 JUMPI POP POP POP PUSH2 0x95C DUP3 PUSH2 0x3DC SWAP5 SUB DUP4 PUSH2 0x2807 JUMP JUMPDEST DUP1 DUP1 SWAP7 POP MSTORE PUSH32 0x290DECD9548B62A8D60345A988386FC84BA6BC95484008F6362F93160EF3E563 JUMPDEST DUP3 DUP7 LT PUSH2 0x2546 JUMPI POP POP POP PUSH2 0x95C DUP3 PUSH1 0x20 PUSH2 0x3DC SWAP6 DUP3 ADD ADD SWAP5 PUSH2 0x94A JUMP JUMPDEST DUP1 SLOAD PUSH1 0x20 DUP8 DUP8 ADD DUP2 ADD SWAP2 SWAP1 SWAP2 MSTORE SWAP1 SWAP6 ADD SWAP5 DUP2 ADD PUSH2 0x2529 JUMP JUMPDEST POP POP CALLVALUE PUSH2 0x312 JUMPI DUP2 PUSH1 0x3 NOT CALLDATASIZE ADD SLT PUSH2 0x312 JUMPI PUSH1 0x20 SWAP1 PUSH1 0x1 PUSH1 0x1 PUSH1 0xA0 SHL SUB PUSH1 0xD SLOAD AND SWAP1 MLOAD SWAP1 DUP2 MSTORE RETURN JUMPDEST SWAP3 POP POP CALLVALUE PUSH2 0x253 JUMPI PUSH1 0x20 CALLDATASIZE PUSH1 0x3 NOT ADD SLT PUSH2 0x253 JUMPI CALLDATALOAD PUSH32 0xFFFFFFFF00000000000000000000000000000000000000000000000000000000 DUP2 AND DUP1 SWAP2 SUB PUSH2 0x253 JUMPI PUSH1 0x20 SWAP3 POP PUSH32 0x80AC58CD00000000000000000000000000000000000000000000000000000000 DUP2 EQ SWAP1 DUP2 ISZERO PUSH2 0x262C JUMPI JUMPDEST DUP2 ISZERO PUSH2 0x2602 JUMPI JUMPDEST POP ISZERO ISZERO DUP2 MSTORE RETURN JUMPDEST PUSH32 0x1FFC9A700000000000000000000000000000000000000000000000000000000 SWAP2 POP EQ CODESIZE PUSH2 0x25FB JUMP JUMPDEST PUSH32 0x5B5E139F00000000000000000000000000000000000000000000000000000000 DUP2 EQ SWAP2 POP PUSH2 0x25F4 JUMP JUMPDEST PUSH1 0x0 JUMPDEST DUP4 DUP2 LT PUSH2 0x2669 JUMPI POP POP PUSH1 0x0 SWAP2 ADD MSTORE JUMP JUMPDEST DUP2 DUP2 ADD MLOAD DUP4 DUP3 ADD MSTORE PUSH1 0x20 ADD PUSH2 0x2659 JUMP JUMPDEST SWAP1 PUSH1 0x20 SWAP2 PUSH2 0x2692 DUP2 MLOAD DUP1 SWAP3 DUP2 DUP6 MSTORE DUP6 DUP1 DUP7 ADD SWAP2 ADD PUSH2 0x2656 JUMP JUMPDEST PUSH1 0x1F ADD PUSH1 0x1F NOT AND ADD ADD SWAP1 JUMP JUMPDEST PUSH1 0x4 CALLDATALOAD SWAP1 PUSH1 0x1 PUSH1 0x1 PUSH1 0xA0 SHL SUB DUP3 AND DUP3 SUB PUSH2 0x26B4 JUMPI JUMP JUMPDEST PUSH1 0x0 DUP1 REVERT JUMPDEST PUSH1 0x24 CALLDATALOAD SWAP1 PUSH1 0x1 PUSH1 0x1 PUSH1 0xA0 SHL SUB DUP3 AND DUP3 SUB PUSH2 0x26B4 JUMPI JUMP JUMPDEST PUSH1 0x60 SWAP1 PUSH1 0x3 NOT ADD SLT PUSH2 0x26B4 JUMPI PUSH1 0x1 PUSH1 0x1 PUSH1 0xA0 SHL SUB SWAP1 PUSH1 0x4 CALLDATALOAD DUP3 DUP2 AND DUP2 SUB PUSH2 0x26B4 JUMPI SWAP2 PUSH1 0x24 CALLDATALOAD SWAP1 DUP2 AND DUP2 SUB PUSH2 0x26B4 JUMPI SWAP1 PUSH1 0x44 CALLDATALOAD SWAP1 JUMP JUMPDEST SWAP2 DUP2 PUSH1 0x1F DUP5 ADD SLT ISZERO PUSH2 0x26B4 JUMPI DUP3 CALLDATALOAD SWAP2 PUSH8 0xFFFFFFFFFFFFFFFF DUP4 GT PUSH2 0x26B4 JUMPI PUSH1 0x20 DUP4 DUP2 DUP7 ADD SWAP6 ADD ADD GT PUSH2 0x26B4 JUMPI JUMP JUMPDEST PUSH1 0x12 SLOAD DUP2 LT ISZERO PUSH2 0x2769 JUMPI PUSH1 0x12 PUSH1 0x0 MSTORE PUSH32 0xBB8A6A4669BA250D26CD7A459ECA9D215F8307E33AEBE50379BC5A3617EC3444 ADD SWAP1 PUSH1 0x0 SWAP1 JUMP JUMPDEST PUSH4 0x4E487B71 PUSH1 0xE0 SHL PUSH1 0x0 MSTORE PUSH1 0x32 PUSH1 0x4 MSTORE PUSH1 0x24 PUSH1 0x0 REVERT JUMPDEST SWAP1 PUSH1 0x1 DUP3 DUP2 SHR SWAP3 AND DUP1 ISZERO PUSH2 0x27AF JUMPI JUMPDEST PUSH1 0x20 DUP4 LT EQ PUSH2 0x2799 JUMPI JUMP JUMPDEST PUSH4 0x4E487B71 PUSH1 0xE0 SHL PUSH1 0x0 MSTORE PUSH1 0x22 PUSH1 0x4 MSTORE PUSH1 0x24 PUSH1 0x0 REVERT JUMPDEST SWAP2 PUSH1 0x7F AND SWAP2 PUSH2 0x278E JUMP JUMPDEST PUSH1 0xC0 DUP2 ADD SWAP1 DUP2 LT PUSH8 0xFFFFFFFFFFFFFFFF DUP3 GT OR PUSH2 0x27D5 JUMPI PUSH1 0x40 MSTORE JUMP JUMPDEST PUSH4 0x4E487B71 PUSH1 0xE0 SHL PUSH1 0x0 MSTORE PUSH1 0x41 PUSH1 0x4 MSTORE PUSH1 0x24 PUSH1 0x0 REVERT JUMPDEST PUSH1 0x20 DUP2 ADD SWAP1 DUP2 LT PUSH8 0xFFFFFFFFFFFFFFFF DUP3 GT OR PUSH2 0x27D5 JUMPI PUSH1 0x40 MSTORE JUMP JUMPDEST SWAP1 PUSH1 0x1F DUP1 NOT SWAP2 ADD AND DUP2 ADD SWAP1 DUP2 LT PUSH8 0xFFFFFFFFFFFFFFFF DUP3 GT OR PUSH2 0x27D5 JUMPI PUSH1 0x40 MSTORE JUMP JUMPDEST PUSH1 0x40 SWAP1 PUSH1 0x3 NOT ADD SLT PUSH2 0x26B4 JUMPI PUSH1 0x4 CALLDATALOAD SWAP1 PUSH1 0x24 CALLDATALOAD SWAP1 JUMP JUMPDEST PUSH1 0x20 SWAP1 DUP2 PUSH1 0x40 DUP2 DUP4 ADD SWAP3 DUP3 DUP2 MSTORE DUP6 MLOAD DUP1 SWAP5 MSTORE ADD SWAP4 ADD SWAP2 PUSH1 0x0 JUMPDEST DUP3 DUP2 LT PUSH2 0x2866 JUMPI POP POP POP POP SWAP1 JUMP JUMPDEST DUP4 MLOAD DUP6 MSTORE SWAP4 DUP2 ADD SWAP4 SWAP3 DUP2 ADD SWAP3 PUSH1 0x1 ADD PUSH2 0x2858 JUMP JUMPDEST PUSH8 0xFFFFFFFFFFFFFFFF DUP2 GT PUSH2 0x27D5 JUMPI PUSH1 0x1F ADD PUSH1 0x1F NOT AND PUSH1 0x20 ADD SWAP1 JUMP JUMPDEST PUSH1 0x1 PUSH1 0x1 PUSH1 0xA0 SHL SUB AND DUP1 ISZERO PUSH2 0x28B6 JUMPI PUSH1 0x0 MSTORE PUSH1 0x3 PUSH1 0x20 MSTORE PUSH1 0x40 PUSH1 0x0 KECCAK256 SLOAD SWAP1 JUMP JUMPDEST PUSH1 0x84 PUSH1 0x40 MLOAD PUSH3 0x461BCD PUSH1 0xE5 SHL DUP2 MSTORE PUSH1 0x20 PUSH1 0x4 DUP3 ADD MSTORE PUSH1 0x29 PUSH1 0x24 DUP3 ADD MSTORE PUSH32 0x4552433732313A2061646472657373207A65726F206973206E6F742061207661 PUSH1 0x44 DUP3 ADD MSTORE PUSH32 0x6C6964206F776E65720000000000000000000000000000000000000000000000 PUSH1 0x64 DUP3 ADD MSTORE REVERT JUMPDEST ISZERO PUSH2 0x2927 JUMPI JUMP JUMPDEST PUSH1 0x64 PUSH1 0x40 MLOAD PUSH3 0x461BCD PUSH1 0xE5 SHL DUP2 MSTORE PUSH1 0x20 PUSH1 0x4 DUP3 ADD MSTORE PUSH1 0x18 PUSH1 0x24 DUP3 ADD MSTORE PUSH32 0x4552433732313A20696E76616C696420746F6B656E2049440000000000000000 PUSH1 0x44 DUP3 ADD MSTORE REVERT JUMPDEST PUSH1 0x0 MSTORE PUSH1 0x2 PUSH1 0x20 MSTORE PUSH1 0x1 PUSH1 0x1 PUSH1 0xA0 SHL SUB PUSH1 0x40 PUSH1 0x0 KECCAK256 SLOAD AND PUSH2 0x298D DUP2 ISZERO ISZERO PUSH2 0x2920 JUMP JUMPDEST SWAP1 JUMP JUMPDEST PUSH2 0x29B3 PUSH2 0x4DF DUP3 PUSH1 0x0 MSTORE PUSH1 0x2 PUSH1 0x20 MSTORE PUSH1 0x1 PUSH1 0x1 PUSH1 0xA0 SHL SUB PUSH1 0x40 PUSH1 0x0 KECCAK256 SLOAD AND ISZERO ISZERO SWAP1 JUMP JUMPDEST PUSH1 0x0 MSTORE PUSH1 0x4 PUSH1 0x20 MSTORE PUSH1 0x1 PUSH1 0x1 PUSH1 0xA0 SHL SUB PUSH1 0x40 PUSH1 0x0 KECCAK256 SLOAD AND SWAP1 JUMP JUMPDEST ISZERO PUSH2 0x29D4 JUMPI JUMP JUMPDEST PUSH1 0x84 PUSH1 0x40 MLOAD PUSH3 0x461BCD PUSH1 0xE5 SHL DUP2 MSTORE PUSH1 0x20 PUSH1 0x4 DUP3 ADD MSTORE PUSH1 0x2D PUSH1 0x24 DUP3 ADD MSTORE PUSH32 0x4552433732313A2063616C6C6572206973206E6F7420746F6B656E206F776E65 PUSH1 0x44 DUP3 ADD MSTORE PUSH32 0x72206F7220617070726F76656400000000000000000000000000000000000000 PUSH1 0x64 DUP3 ADD MSTORE REVERT JUMPDEST ISZERO PUSH2 0x2A45 JUMPI JUMP JUMPDEST PUSH1 0x40 MLOAD PUSH3 0x461BCD PUSH1 0xE5 SHL DUP2 MSTORE PUSH1 0x20 PUSH1 0x4 DUP3 ADD MSTORE PUSH1 0x32 PUSH1 0x24 DUP3 ADD MSTORE PUSH32 0x4552433732313A207472616E7366657220746F206E6F6E204552433732315265 PUSH1 0x44 DUP3 ADD MSTORE PUSH32 0x63656976657220696D706C656D656E7465720000000000000000000000000000 PUSH1 0x64 DUP3 ADD MSTORE PUSH1 0x84 SWAP1 REVERT JUMPDEST SUB SWAP1 REVERT JUMPDEST SWAP1 PUSH1 0x1 PUSH1 0x1 PUSH1 0xA0 SHL SUB DUP1 DUP1 PUSH2 0x2AC8 DUP5 PUSH2 0x296B JUMP JUMPDEST AND SWAP4 AND SWAP2 DUP4 DUP4 EQ SWAP4 DUP5 ISZERO PUSH2 0x2AFB JUMPI JUMPDEST POP DUP4 ISZERO PUSH2 0x2AE5 JUMPI JUMPDEST POP POP POP SWAP1 JUMP JUMPDEST PUSH2 0x2AF1 SWAP2 SWAP3 SWAP4 POP PUSH2 0x2990 JUMP JUMPDEST AND EQ CODESIZE DUP1 DUP1 PUSH2 0x2ADF JUMP JUMPDEST SWAP1 SWAP4 POP PUSH1 0x0 MSTORE PUSH1 0x5 PUSH1 0x20 MSTORE PUSH1 0x40 PUSH1 0x0 KECCAK256 DUP3 PUSH1 0x0 MSTORE PUSH1 0x20 MSTORE PUSH1 0xFF PUSH1 0x40 PUSH1 0x0 KECCAK256 SLOAD AND SWAP3 CODESIZE PUSH2 0x2AD7 JUMP JUMPDEST ISZERO PUSH2 0x2B29 JUMPI JUMP JUMPDEST PUSH1 0x84 PUSH1 0x40 MLOAD PUSH3 0x461BCD PUSH1 0xE5 SHL DUP2 MSTORE PUSH1 0x20 PUSH1 0x4 DUP3 ADD MSTORE PUSH1 0x25 PUSH1 0x24 DUP3 ADD MSTORE PUSH32 0x4552433732313A207472616E736665722066726F6D20696E636F727265637420 PUSH1 0x44 DUP3 ADD MSTORE PUSH32 0x6F776E6572000000000000000000000000000000000000000000000000000000 PUSH1 0x64 DUP3 ADD MSTORE REVERT JUMPDEST SWAP1 PUSH2 0x2BBB SWAP2 PUSH2 0x2BA1 DUP5 PUSH2 0x296B JUMP JUMPDEST SWAP2 PUSH1 0x1 PUSH1 0x1 PUSH1 0xA0 SHL SUB SWAP4 DUP5 SWAP4 DUP5 DUP1 SWAP5 AND SWAP5 DUP6 SWAP2 AND EQ PUSH2 0x2B22 JUMP JUMPDEST AND SWAP2 DUP3 ISZERO PUSH2 0x2CB9 JUMPI DUP2 PUSH2 0x2BE6 SWAP2 DUP2 ISZERO ISZERO DUP1 PUSH2 0x2CA1 JUMPI JUMPDEST PUSH2 0x2C6C JUMPI JUMPDEST PUSH2 0x2BDF DUP7 PUSH2 0x296B JUMP JUMPDEST AND EQ PUSH2 0x2B22 JUMP JUMPDEST PUSH32 0xDDF252AD1BE2C89B69C2B068FC378DAA952BA7F163C4A11628F55A4DF523B3EF PUSH1 0x0 DUP5 DUP2 MSTORE PUSH1 0x4 PUSH1 0x20 MSTORE PUSH1 0x40 DUP2 KECCAK256 PUSH20 0xFFFFFFFFFFFFFFFFFFFFFFFFFFFFFFFFFFFFFFFF NOT SWAP1 DUP2 DUP2 SLOAD AND SWAP1 SSTORE DUP4 DUP3 MSTORE PUSH1 0x3 PUSH1 0x20 MSTORE PUSH1 0x40 DUP3 KECCAK256 PUSH1 0x0 NOT DUP2 SLOAD ADD SWAP1 SSTORE DUP5 DUP3 MSTORE PUSH1 0x40 DUP3 KECCAK256 PUSH1 0x1 DUP2 SLOAD ADD SWAP1 SSTORE DUP6 DUP3 MSTORE PUSH1 0x2 PUSH1 0x20 MSTORE DUP5 PUSH1 0x40 DUP4 KECCAK256 SWAP2 DUP3 SLOAD AND OR SWAP1 SSTORE DUP1 LOG4 JUMP JUMPDEST PUSH2 0x2C75 DUP7 PUSH2 0x3772 JUMP JUMPDEST DUP2 DUP7 PUSH32 0xBE50BF6D5EBC58E29A68DDDCCDEF1C087A9E6DD728A5C3247051D7FDAD14219B PUSH1 0x0 DUP1 LOG3 PUSH2 0x2BD6 JUMP JUMPDEST POP DUP6 PUSH1 0x0 MSTORE PUSH1 0x11 PUSH1 0x20 MSTORE PUSH1 0xFF PUSH1 0x40 PUSH1 0x0 KECCAK256 SLOAD AND PUSH2 0x2BD1 JUMP JUMPDEST PUSH1 0x84 PUSH1 0x40 MLOAD PUSH3 0x461BCD PUSH1 0xE5 SHL DUP2 MSTORE PUSH1 0x20 PUSH1 0x4 DUP3 ADD MSTORE PUSH1 0x24 DUP1 DUP3 ADD MSTORE PUSH32 0x4552433732313A207472616E7366657220746F20746865207A65726F20616464 PUSH1 0x44 DUP3 ADD MSTORE PUSH32 0x7265737300000000000000000000000000000000000000000000000000000000 PUSH1 0x64 DUP3 ADD MSTORE REVERT JUMPDEST RETURNDATASIZE ISZERO PUSH2 0x2D4D JUMPI RETURNDATASIZE SWAP1 PUSH2 0x2D33 DUP3 PUSH2 0x287A JUMP JUMPDEST SWAP2 PUSH2 0x2D41 PUSH1 0x40 MLOAD SWAP4 DUP5 PUSH2 0x2807 JUMP JUMPDEST DUP3 MSTORE RETURNDATASIZE PUSH1 0x0 PUSH1 0x20 DUP5 ADD RETURNDATACOPY JUMP JUMPDEST PUSH1 0x60 SWAP1 JUMP JUMPDEST SWAP1 SWAP2 PUSH1 0x0 SWAP2 DUP1 EXTCODESIZE ISZERO PUSH2 0x2EBF JUMPI PUSH2 0x2DA5 PUSH1 0x20 SWAP2 PUSH1 0x1 PUSH1 0x1 PUSH1 0xA0 SHL SUB SWAP4 DUP6 PUSH1 0x40 MLOAD SWAP6 DUP7 DUP1 SWAP6 DUP2 SWAP5 PUSH4 0xA85BD01 PUSH1 0xE1 SHL SWAP12 DUP13 DUP5 MSTORE CALLER PUSH1 0x4 DUP6 ADD MSTORE DUP6 PUSH1 0x24 DUP6 ADD MSTORE PUSH1 0x44 DUP5 ADD MSTORE PUSH1 0x80 PUSH1 0x64 DUP5 ADD MSTORE PUSH1 0x84 DUP4 ADD SWAP1 PUSH2 0x2679 JUMP JUMPDEST SUB SWAP4 AND GAS CALL SWAP1 DUP3 SWAP1 DUP3 PUSH2 0x2E5F JUMPI JUMPDEST POP POP PUSH2 0x2E39 JUMPI PUSH2 0x2DC1 PUSH2 0x2D22 JUMP JUMPDEST DUP1 MLOAD SWAP1 DUP2 PUSH2 0x2E34 JUMPI PUSH1 0x40 MLOAD PUSH3 0x461BCD PUSH1 0xE5 SHL DUP2 MSTORE PUSH1 0x20 PUSH1 0x4 DUP3 ADD MSTORE PUSH1 0x32 PUSH1 0x24 DUP3 ADD MSTORE PUSH32 0x4552433732313A207472616E7366657220746F206E6F6E204552433732315265 PUSH1 0x44 DUP3 ADD MSTORE PUSH32 0x63656976657220696D706C656D656E7465720000000000000000000000000000 PUSH1 0x64 DUP3 ADD MSTORE PUSH1 0x84 SWAP1 REVERT JUMPDEST PUSH1 0x20 ADD REVERT JUMPDEST PUSH32 0xFFFFFFFF00000000000000000000000000000000000000000000000000000000 AND EQ SWAP1 JUMP JUMPDEST SWAP1 SWAP2 SWAP3 POP PUSH1 0x20 DUP2 RETURNDATASIZE DUP3 GT PUSH2 0x2EB7 JUMPI JUMPDEST DUP2 PUSH2 0x2E7B PUSH1 0x20 SWAP4 DUP4 PUSH2 0x2807 JUMP JUMPDEST DUP2 ADD SUB SLT PUSH2 0x312 JUMPI MLOAD SWAP1 PUSH32 0xFFFFFFFF00000000000000000000000000000000000000000000000000000000 DUP3 AND DUP3 SUB PUSH2 0x47F JUMPI POP SWAP1 CODESIZE DUP1 PUSH2 0x2DB3 JUMP JUMPDEST RETURNDATASIZE SWAP2 POP PUSH2 0x2E6E JUMP JUMPDEST POP POP POP POP PUSH1 0x1 SWAP1 JUMP JUMPDEST SWAP2 SWAP3 PUSH1 0x0 SWAP3 SWAP2 SWAP1 DUP2 EXTCODESIZE ISZERO PUSH2 0x2F1F JUMPI PUSH1 0x20 SWAP2 PUSH2 0x2DA5 SWAP2 DUP6 PUSH1 0x40 MLOAD SWAP6 DUP7 DUP1 SWAP6 DUP2 SWAP5 PUSH4 0xA85BD01 PUSH1 0xE1 SHL SWAP12 DUP13 DUP5 MSTORE CALLER PUSH1 0x4 DUP6 ADD MSTORE PUSH1 0x1 PUSH1 0x1 PUSH1 0xA0 SHL SUB DUP1 SWAP6 AND PUSH1 0x24 DUP6 ADD MSTORE PUSH1 0x44 DUP5 ADD MSTORE PUSH1 0x80 PUSH1 0x64 DUP5 ADD MSTORE PUSH1 0x84 DUP4 ADD SWAP1 PUSH2 0x2679 JUMP JUMPDEST POP POP POP POP POP PUSH1 0x1 SWAP1 JUMP JUMPDEST ISZERO PUSH2 0x2F30 JUMPI JUMP JUMPDEST PUSH1 0x64 PUSH1 0x40 MLOAD PUSH3 0x461BCD PUSH1 0xE5 SHL DUP2 MSTORE PUSH1 0x20 PUSH1 0x4 DUP3 ADD MSTORE PUSH1 0xC PUSH1 0x24 DUP3 ADD MSTORE PUSH32 0x4F6E6C792063726561746F720000000000000000000000000000000000000000 PUSH1 0x44 DUP3 ADD MSTORE REVERT JUMPDEST PUSH1 0xFF PUSH1 0x7 SLOAD AND PUSH2 0x2F80 JUMPI JUMP JUMPDEST PUSH1 0x64 PUSH1 0x40 MLOAD PUSH3 0x461BCD PUSH1 0xE5 SHL DUP2 MSTORE PUSH1 0x20 PUSH1 0x4 DUP3 ADD MSTORE PUSH1 0x10 PUSH1 0x24 DUP3 ADD MSTORE PUSH32 0x5061757361626C653A2070617573656400000000000000000000000000000000 PUSH1 0x44 DUP3 ADD MSTORE REVERT JUMPDEST ISZERO PUSH2 0x2FCB JUMPI JUMP JUMPDEST PUSH1 0x64 PUSH1 0x40 MLOAD PUSH3 0x461BCD PUSH1 0xE5 SHL DUP2 MSTORE PUSH1 0x20 PUSH1 0x4 DUP3 ADD MSTORE PUSH1 0x16 PUSH1 0x24 DUP3 ADD MSTORE PUSH32 0x5072696365206D75737420626520706F73697469766500000000000000000000 PUSH1 0x44 DUP3 ADD MSTORE REVERT JUMPDEST SWAP2 SWAP1 DUP3 SUB SWAP2 DUP3 GT PUSH2 0x301C JUMPI JUMP JUMPDEST PUSH4 0x4E487B71 PUSH1 0xE0 SHL PUSH1 0x0 MSTORE PUSH1 0x11 PUSH1 0x4 MSTORE PUSH1 0x24 PUSH1 0x0 REVERT JUMPDEST SWAP2 SWAP1 DUP3 ADD DUP1 SWAP3 GT PUSH2 0x301C JUMPI JUMP JUMPDEST PUSH1 0x2 PUSH1 0x6 SLOAD EQ PUSH2 0x3050 JUMPI PUSH1 0x2 PUSH1 0x6 SSTORE JUMP JUMPDEST PUSH1 0x64 PUSH1 0x40 MLOAD PUSH3 0x461BCD PUSH1 0xE5 SHL DUP2 MSTORE PUSH1 0x20 PUSH1 0x4 DUP3 ADD MSTORE PUSH1 0x1F PUSH1 0x24 DUP3 ADD MSTORE PUSH32 0x5265656E7472616E637947756172643A207265656E7472616E742063616C6C00 PUSH1 0x44 DUP3 ADD MSTORE REVERT JUMPDEST SWAP3 SWAP1 PUSH1 0x40 MLOAD SWAP3 PUSH32 0x23B872DD00000000000000000000000000000000000000000000000000000000 PUSH1 0x20 DUP6 ADD MSTORE PUSH1 0x1 PUSH1 0x1 PUSH1 0xA0 SHL SUB DUP1 SWAP3 AND PUSH1 0x24 DUP6 ADD MSTORE AND PUSH1 0x44 DUP4 ADD MSTORE PUSH1 0x64 DUP3 ADD MSTORE PUSH1 0x64 DUP2 MSTORE PUSH1 0xA0 DUP2 ADD SWAP2 DUP2 DUP4 LT PUSH8 0xFFFFFFFFFFFFFFFF DUP5 GT OR PUSH2 0x27D5 JUMPI PUSH2 0x3103 SWAP3 PUSH1 0x40 MSTORE PUSH2 0x3105 JUMP JUMPDEST JUMP JUMPDEST PUSH1 0x1 PUSH1 0x1 PUSH1 0xA0 SHL SUB AND SWAP1 PUSH1 0x40 MLOAD PUSH1 0x40 DUP2 ADD SWAP1 DUP1 DUP3 LT PUSH8 0xFFFFFFFFFFFFFFFF DUP4 GT OR PUSH2 0x27D5 JUMPI PUSH2 0x3178 SWAP2 PUSH1 0x40 MSTORE PUSH1 0x20 SWAP4 DUP5 DUP3 MSTORE PUSH32 0x5361666545524332303A206C6F772D6C6576656C2063616C6C206661696C6564 DUP6 DUP4 ADD MSTORE PUSH1 0x0 DUP1 DUP6 DUP8 DUP3 SWAP8 MLOAD SWAP2 ADD DUP3 DUP6 GAS CALL PUSH2 0x3172 PUSH2 0x2D22 JUMP JUMPDEST SWAP2 PUSH2 0x326C JUMP JUMPDEST DUP1 MLOAD SWAP2 DUP3 ISZERO SWAP2 DUP5 DUP4 ISZERO PUSH2 0x31FD JUMPI JUMPDEST POP POP POP SWAP1 POP ISZERO PUSH2 0x3193 JUMPI POP JUMP JUMPDEST PUSH1 0x84 SWAP1 PUSH1 0x40 MLOAD SWAP1 PUSH3 0x461BCD PUSH1 0xE5 SHL DUP3 MSTORE PUSH1 0x4 DUP3 ADD MSTORE PUSH1 0x2A PUSH1 0x24 DUP3 ADD MSTORE PUSH32 0x5361666545524332303A204552433230206F7065726174696F6E20646964206E PUSH1 0x44 DUP3 ADD MSTORE PUSH32 0x6F74207375636365656400000000000000000000000000000000000000000000 PUSH1 0x64 DUP3 ADD MSTORE REVERT JUMPDEST SWAP2 SWAP4 DUP2 DUP1 SWAP5 POP ADD SUB SLT PUSH2 0x312 JUMPI DUP3 ADD MLOAD SWAP1 DUP2 ISZERO ISZERO DUP3 SUB PUSH2 0x47F JUMPI POP DUP1 CODESIZE DUP1 DUP5 PUSH2 0x3186 JUMP JUMPDEST ISZERO PUSH2 0x3228 JUMPI JUMP JUMPDEST PUSH1 0x64 PUSH1 0x40 MLOAD PUSH3 0x461BCD PUSH1 0xE5 SHL DUP2 MSTORE PUSH1 0x20 PUSH1 0x4 DUP3 ADD MSTORE PUSH1 0x1C PUSH1 0x24 DUP3 ADD MSTORE PUSH32 0x4552433732313A20746F6B656E20616C7265616479206D696E74656400000000 PUSH1 0x44 DUP3 ADD MSTORE REVERT JUMPDEST SWAP2 SWAP3 SWAP1 ISZERO PUSH2 0x32CD JUMPI POP DUP2 MLOAD ISZERO PUSH2 0x3280 JUMPI POP SWAP1 JUMP JUMPDEST EXTCODESIZE ISZERO PUSH2 0x3289 JUMPI SWAP1 JUMP JUMPDEST PUSH1 0x64 PUSH1 0x40 MLOAD PUSH3 0x461BCD PUSH1 0xE5 SHL DUP2 MSTORE PUSH1 0x20 PUSH1 0x4 DUP3 ADD MSTORE PUSH1 0x1D PUSH1 0x24 DUP3 ADD MSTORE PUSH32 0x416464726573733A2063616C6C20746F206E6F6E2D636F6E7472616374000000 PUSH1 0x44 DUP3 ADD MSTORE REVERT JUMPDEST DUP3 MLOAD SWAP1 SWAP2 POP ISZERO PUSH2 0x32E0 JUMPI POP DUP1 MLOAD SWAP1 PUSH1 0x20 ADD REVERT JUMPDEST PUSH2 0x2AB0 SWAP1 PUSH1 0x40 MLOAD SWAP2 DUP3 SWAP2 PUSH3 0x461BCD PUSH1 0xE5 SHL DUP4 MSTORE PUSH1 0x20 PUSH1 0x4 DUP5 ADD MSTORE PUSH1 0x24 DUP4 ADD SWAP1 PUSH2 0x2679 JUMP JUMPDEST ISZERO PUSH2 0x330B JUMPI JUMP JUMPDEST PUSH1 0x64 PUSH1 0x40 MLOAD PUSH3 0x461BCD PUSH1 0xE5 SHL DUP2 MSTORE PUSH1 0x20 PUSH1 0x4 DUP3 ADD MSTORE PUSH1 0x14 PUSH1 0x24 DUP3 ADD MSTORE PUSH32 0x546F6B656E20646F6573206E6F74206578697374000000000000000000000000 PUSH1 0x44 DUP3 ADD MSTORE REVERT JUMPDEST ISZERO PUSH2 0x3356 JUMPI JUMP JUMPDEST PUSH1 0x64 PUSH1 0x40 MLOAD PUSH3 0x461BCD PUSH1 0xE5 SHL DUP2 MSTORE PUSH1 0x20 PUSH1 0x4 DUP3 ADD MSTORE PUSH1 0xF PUSH1 0x24 DUP3 ADD MSTORE PUSH32 0x4E6F7420746F6B656E206F776E65720000000000000000000000000000000000 PUSH1 0x44 DUP3 ADD MSTORE REVERT JUMPDEST ISZERO PUSH2 0x33A1 JUMPI JUMP JUMPDEST PUSH1 0x64 PUSH1 0x40 MLOAD PUSH3 0x461BCD PUSH1 0xE5 SHL DUP2 MSTORE PUSH1 0x20 PUSH1 0x4 DUP3 ADD MSTORE PUSH1 0x10 PUSH1 0x24 DUP3 ADD MSTORE PUSH32 0x546F6B656E206E6F74206C697374656400000000000000000000000000000000 PUSH1 0x44 DUP3 ADD MSTORE REVERT JUMPDEST SWAP2 PUSH1 0x1 PUSH1 0x1 PUSH1 0xA0 SHL SUB PUSH1 0x40 MLOAD SWAP3 PUSH32 0xA9059CBB00000000000000000000000000000000000000000000000000000000 PUSH1 0x20 DUP6 ADD MSTORE AND PUSH1 0x24 DUP4 ADD MSTORE PUSH1 0x44 DUP3 ADD MSTORE PUSH1 0x44 DUP2 MSTORE PUSH1 0x80 DUP2 ADD SWAP2 DUP2 DUP4 LT PUSH8 0xFFFFFFFFFFFFFFFF DUP5 GT OR PUSH2 0x27D5 JUMPI PUSH2 0x3103 SWAP3 PUSH1 0x40 MSTORE PUSH2 0x3105 JUMP JUMPDEST ISZERO PUSH2 0x3452 JUMPI JUMP JUMPDEST PUSH1 0x64 PUSH1 0x40 MLOAD PUSH3 0x461BCD PUSH1 0xE5 SHL DUP2 MSTORE PUSH1 0x20 PUSH1 0x4 DUP3 ADD MSTORE PUSH1 0x15 PUSH1 0x24 DUP3 ADD MSTORE PUSH32 0x496E76616C696420746F6B656E20616464726573730000000000000000000000 PUSH1 0x44 DUP3 ADD MSTORE REVERT JUMPDEST ISZERO PUSH2 0x349D JUMPI JUMP JUMPDEST PUSH1 0x64 PUSH1 0x40 MLOAD PUSH3 0x461BCD PUSH1 0xE5 SHL DUP2 MSTORE PUSH1 0x20 PUSH1 0x4 DUP3 ADD MSTORE PUSH1 0x17 PUSH1 0x24 DUP3 ADD MSTORE PUSH32 0x416D6F756E74206D75737420626520706F736974697665000000000000000000 PUSH1 0x44 DUP3 ADD MSTORE REVERT JUMPDEST PUSH8 0xFFFFFFFFFFFFFFFF DUP2 GT PUSH2 0x27D5 JUMPI PUSH1 0x5 SHL PUSH1 0x20 ADD SWAP1 JUMP JUMPDEST PUSH1 0x0 NOT DUP2 EQ PUSH2 0x301C JUMPI PUSH1 0x1 ADD SWAP1 JUMP JUMPDEST DUP1 MLOAD DUP3 LT ISZERO PUSH2 0x2769 JUMPI PUSH1 0x20 SWAP2 PUSH1 0x5 SHL ADD ADD SWAP1 JUMP JUMPDEST SWAP1 PUSH1 0x12 SLOAD SWAP1 DUP2 DUP4 LT ISZERO PUSH2 0x366E JUMPI PUSH2 0x3547 SWAP2 PUSH2 0x3538 DUP5 SWAP3 DUP4 PUSH2 0x3032 JUMP JUMPDEST SWAP1 DUP1 DUP3 GT PUSH2 0x3666 JUMPI JUMPDEST POP PUSH2 0x300F JUMP JUMPDEST PUSH2 0x3550 DUP2 PUSH2 0x34E1 JUMP JUMPDEST SWAP2 PUSH1 0x40 SWAP1 PUSH2 0x3560 DUP3 MLOAD SWAP5 DUP6 PUSH2 0x2807 JUMP JUMPDEST DUP3 DUP5 MSTORE PUSH1 0x1F NOT PUSH2 0x356F DUP5 PUSH2 0x34E1 JUMP JUMPDEST ADD PUSH1 0x0 JUMPDEST DUP2 DUP2 LT PUSH2 0x3627 JUMPI POP POP PUSH1 0x0 JUMPDEST DUP4 DUP2 LT PUSH2 0x358D JUMPI POP POP POP POP SWAP1 JUMP JUMPDEST DUP1 PUSH2 0x35A3 PUSH2 0x359E PUSH2 0x3622 SWAP4 DUP6 PUSH2 0x3032 JUMP JUMPDEST PUSH2 0x2732 JUMP JUMPDEST SWAP1 SLOAD PUSH1 0x3 SWAP2 DUP3 SHL SHR PUSH1 0x0 MSTORE PUSH1 0xFF PUSH1 0x5 PUSH1 0x20 PUSH1 0x10 DUP2 MSTORE DUP8 PUSH1 0x0 KECCAK256 SWAP1 DUP9 MLOAD SWAP5 PUSH2 0x35C9 DUP7 PUSH2 0x27B9 JUMP JUMPDEST DUP3 SLOAD DUP7 MSTORE PUSH1 0x1 PUSH1 0x1 PUSH1 0xA0 SHL SUB SWAP2 DUP3 PUSH1 0x1 DUP6 ADD SLOAD AND SWAP1 DUP8 ADD MSTORE PUSH1 0x2 DUP4 ADD SLOAD DUP11 DUP8 ADD MSTORE DUP3 ADD SLOAD AND PUSH1 0x60 DUP6 ADD MSTORE PUSH1 0x4 DUP2 ADD SLOAD PUSH1 0x80 DUP6 ADD MSTORE ADD SLOAD AND ISZERO ISZERO PUSH1 0xA0 DUP3 ADD MSTORE PUSH2 0x3611 DUP3 DUP9 PUSH2 0x3508 JUMP JUMPDEST MSTORE PUSH2 0x361C DUP2 DUP8 PUSH2 0x3508 JUMP JUMPDEST POP PUSH2 0x34F9 JUMP JUMPDEST PUSH2 0x357F JUMP JUMPDEST PUSH1 0x20 SWAP1 DUP5 MLOAD PUSH2 0x3635 DUP2 PUSH2 0x27B9 JUMP JUMPDEST PUSH1 0x0 DUP2 MSTORE DUP3 PUSH1 0x0 DUP2 DUP4 ADD MSTORE PUSH1 0x0 DUP8 DUP4 ADD MSTORE PUSH1 0x0 PUSH1 0x60 DUP4 ADD MSTORE PUSH1 0x0 PUSH1 0x80 DUP4 ADD MSTORE PUSH1 0x0 PUSH1 0xA0 DUP4 ADD MSTORE DUP3 DUP10 ADD ADD MSTORE ADD PUSH2 0x3573 JUMP JUMPDEST SWAP1 POP CODESIZE PUSH2 0x3541 JUMP JUMPDEST POP POP POP PUSH1 0x40 MLOAD PUSH2 0x367D DUP2 PUSH2 0x27EB JUMP JUMPDEST PUSH1 0x0 DUP2 MSTORE SWAP1 JUMP JUMPDEST SWAP1 PUSH2 0x368E DUP3 PUSH2 0x34E1 JUMP JUMPDEST PUSH2 0x369B PUSH1 0x40 MLOAD SWAP2 DUP3 PUSH2 0x2807 JUMP JUMPDEST DUP3 DUP2 MSTORE DUP1 SWAP3 PUSH2 0x36AC PUSH1 0x1F NOT SWAP2 PUSH2 0x34E1 JUMP JUMPDEST ADD SWAP1 PUSH1 0x20 CALLDATASIZE SWAP2 ADD CALLDATACOPY JUMP JUMPDEST PUSH2 0x36BF DUP2 PUSH2 0x2896 JUMP JUMPDEST DUP1 ISZERO PUSH2 0x3758 JUMPI PUSH2 0x36CE SWAP1 PUSH2 0x3684 JUMP JUMPDEST SWAP1 PUSH1 0x0 PUSH1 0x1 SWAP2 PUSH1 0xF SLOAD SWAP3 JUMPDEST DUP4 DUP2 LT PUSH2 0x36E7 JUMPI POP POP POP POP SWAP1 JUMP JUMPDEST PUSH2 0x3707 DUP2 PUSH1 0x0 MSTORE PUSH1 0x2 PUSH1 0x20 MSTORE PUSH1 0x1 PUSH1 0x1 PUSH1 0xA0 SHL SUB PUSH1 0x40 PUSH1 0x0 KECCAK256 SLOAD AND ISZERO ISZERO SWAP1 JUMP JUMPDEST DUP1 PUSH2 0x373B JUMPI JUMPDEST PUSH2 0x3720 JUMPI JUMPDEST PUSH2 0x371B SWAP1 PUSH2 0x34F9 JUMP JUMPDEST PUSH2 0x36D9 JUMP JUMPDEST SWAP2 PUSH2 0x3733 DUP2 DUP5 PUSH2 0x429 PUSH2 0x371B SWAP5 DUP10 PUSH2 0x3508 JUMP JUMPDEST SWAP3 SWAP1 POP PUSH2 0x3712 JUMP JUMPDEST POP PUSH2 0x3745 DUP2 PUSH2 0x296B JUMP JUMPDEST PUSH1 0x1 PUSH1 0x1 PUSH1 0xA0 SHL SUB DUP1 DUP5 AND SWAP2 AND EQ PUSH2 0x370D JUMP JUMPDEST POP POP PUSH1 0x40 MLOAD PUSH2 0x3766 DUP2 PUSH2 0x27EB JUMP JUMPDEST PUSH1 0x0 DUP2 MSTORE PUSH1 0x0 CALLDATASIZE DUP2 CALLDATACOPY SWAP1 JUMP JUMPDEST PUSH1 0x0 SWAP1 DUP1 DUP3 MSTORE PUSH1 0x20 PUSH1 0x11 DUP2 MSTORE PUSH1 0x40 SWAP2 PUSH2 0x3790 PUSH1 0xFF DUP5 DUP7 KECCAK256 SLOAD AND PUSH2 0x339A JUMP JUMPDEST DUP1 DUP5 MSTORE PUSH1 0x13 DUP3 MSTORE DUP3 DUP5 KECCAK256 SLOAD PUSH1 0x12 SLOAD PUSH1 0x0 NOT SWAP2 SWAP1 DUP3 DUP2 ADD SWAP1 DUP2 GT PUSH2 0x3851 JUMPI PUSH2 0x37B6 SWAP1 PUSH2 0x2732 JUMP JUMPDEST SWAP1 SLOAD SWAP1 PUSH1 0x3 SHL SHR PUSH2 0x37CA DUP2 PUSH2 0x11C1 DUP5 PUSH2 0x2732 JUMP JUMPDEST DUP7 MSTORE PUSH1 0x13 DUP5 MSTORE DUP5 DUP7 KECCAK256 SSTORE PUSH1 0x12 SLOAD DUP1 ISZERO PUSH2 0x383D JUMPI SWAP1 DUP1 PUSH1 0x13 SWAP5 SWAP4 SWAP3 ADD SWAP1 PUSH2 0x37EF DUP3 PUSH2 0x2732 JUMP JUMPDEST SWAP1 SWAP2 DUP3 SLOAD SWAP2 PUSH1 0x3 SHL SHL NOT AND SWAP1 SSTORE PUSH1 0x12 SSTORE DUP5 MSTORE PUSH1 0x10 DUP2 MSTORE DUP4 PUSH1 0x5 DUP5 DUP3 KECCAK256 DUP3 DUP2 SSTORE DUP3 PUSH1 0x1 DUP3 ADD SSTORE DUP3 PUSH1 0x2 DUP3 ADD SSTORE DUP3 PUSH1 0x3 DUP3 ADD SSTORE DUP3 PUSH1 0x4 DUP3 ADD SSTORE ADD SSTORE PUSH1 0x11 DUP2 MSTORE DUP3 DUP5 KECCAK256 PUSH1 0xFF NOT DUP2 SLOAD AND SWAP1 SSTORE MSTORE DUP2 KECCAK256 SSTORE JUMP JUMPDEST PUSH1 0x24 DUP7 PUSH4 0x4E487B71 PUSH1 0xE0 SHL DUP2 MSTORE PUSH1 0x31 PUSH1 0x4 MSTORE REVERT JUMPDEST PUSH1 0x24 DUP8 PUSH4 0x4E487B71 PUSH1 0xE0 SHL DUP2 MSTORE PUSH1 0x11 PUSH1 0x4 MSTORE REVERT INVALID LOG2 PUSH5 0x6970667358 0x22 SLT KECCAK256 SGT DUP13 MSTORE8 CALLDATALOAD PUSH14 0xFE465565BEAE8BD2C88ED039927B NUMBER 0xD6 0xBE 0xC1 DUP16 0xE8 SWAP4 SWAP1 0xBD SWAP4 MLOAD 0x4D MULMOD PUSH5 0x736F6C6343 STOP ADDMOD SGT STOP CALLER 0x29 0xD 0xEC 0xD9 SLOAD DUP12 PUSH3 0xA8D603 GASLIMIT 0xA9 DUP9 CODESIZE PUSH16 0xC84BA6BC95484008F6362F93160EF3E5 PUSH4 0xF3F7A9FE CALLDATASIZE 0x4F 0xAA 0xB9 EXTCODESIZE 0x21 PUSH14 0xA50A3214154F22A0A2B415B23A84 0xC8 AND SWAP15 DUP12 PUSH4 0x6EE3B10E 0x2D MSTORE PUSH23 0x12073B26EECDFD717E6A320CF44B4AFAC2B0732D9FCBE2 0xB7 STATICCALL 0xC 0xF6 "},"methodIdentifiers":{"activeListings(uint256)":"61cf4863","approve(address,uint256)":"095ea7b3","balanceOf(address)":"70a08231","buyToken(uint256)":"2d296bf1","collectionImageUrl()":"b2d1eb80","creator()":"02d05d3f","description()":"7284e416","factory()":"c45a0155","getActiveListings(uint256,uint256)":"c128b231","getApproved(uint256)":"081812fc","getCollectionStats()":"5894bd51","getListingsBySeller(address)":"d8cba251","isApprovedForAll(address,address)":"e985e9c5","isListed(uint256)":"fcce4883","listToken(uint256,uint256,address)":"78196662","listings(uint256)":"de74e57b","marketplaceFeePercent()":"38d73b0d","marketplaceFeesByToken(address)":"8424d70b","maxSupply()":"d5abeb01","mint(address)":"6a627842","mintPrice()":"6817c76c","mintToken()":"2004ffd9","name()":"06fdde03","ownerOf(uint256)":"6352211e","pause()":"8456cb59","paused()":"5c975abb","recoverERC20(address,address,uint256)":"1171bda9","revenueByToken(address)":"312e13dc","safeTransferFrom(address,address,uint256)":"42842e0e","safeTransferFrom(address,address,uint256,bytes)":"b88d4fde","setApprovalForAll(address,bool)":"a22cb465","setMarketplaceFee(uint256)":"9407ea98","setMetadata(string,string)":"51335b50","setMintPrice(uint256)":"f4a0a528","supportsInterface(bytes4)":"01ffc9a7","symbol()":"95d89b41","tokenURI(uint256)":"c87b56dd","tokensOfOwner(address)":"8462151c","totalMarketplaceFees()":"84b75f95","totalRevenue()":"bf2d9e0b","totalSupply()":"18160ddd","transferFrom(address,address,uint256)":"23b872dd","unlistToken(uint256)":"ad3a358c","unpause()":"3f4ba83a","updatePrice(uint256,uint256)":"82367b2d","withdrawMarketplaceFees(address,uint256)":"2c3c7f3d","withdrawRevenue(address,uint256)":"8b63c267"}}}}}