{"contracts/EcosystemStakingFactory.sol":{"EcosystemStakingFactory":{"abi":[{"inputs":[{"internalType":"address","name":"_orderToken","type":"address"}],"stateMutability":"nonpayable","type":"constructor"},{"anonymous":false,"inputs":[{"indexed":true,"internalType":"address","name":"previousAdmin","type":"address"},{"indexed":true,"internalType":"address","name":"newAdmin","type":"address"}],"name":"AdminTransferred","type":"event"},{"anonymous":false,"inputs":[{"indexed":false,"internalType":"uint256","name":"oldAmount","type":"uint256"},{"indexed":false,"internalType":"uint256","name":"newAmount","type":"uint256"}],"name":"BurnAmountUpdated","type":"event"},{"anonymous":false,"inputs":[{"indexed":true,"internalType":"address","name":"poolAddress","type":"address"},{"indexed":true,"internalType":"address","name":"creator","type":"address"},{"indexed":false,"internalType":"address","name":"stakingToken","type":"address"},{"indexed":false,"internalType":"address","name":"rewardToken","type":"address"},{"indexed":false,"internalType":"uint256","name":"rewardPerBlock","type":"uint256"},{"indexed":false,"internalType":"uint256","name":"startBlock","type":"uint256"},{"indexed":false,"internalType":"uint256","name":"endBlock","type":"uint256"}],"name":"PoolCreated","type":"event"},{"anonymous":false,"inputs":[{"indexed":true,"internalType":"address","name":"account","type":"address"},{"indexed":false,"internalType":"bool","name":"status","type":"bool"}],"name":"WhitelistUpdated","type":"event"},{"inputs":[],"name":"DEAD_ADDRESS","outputs":[{"internalType":"address","name":"","type":"address"}],"stateMutability":"view","type":"function"},{"inputs":[],"name":"admin","outputs":[{"internalType":"address","name":"","type":"address"}],"stateMutability":"view","type":"function"},{"inputs":[{"internalType":"uint256","name":"","type":"uint256"}],"name":"allPools","outputs":[{"internalType":"address","name":"","type":"address"}],"stateMutability":"view","type":"function"},{"inputs":[],"name":"burnAmount","outputs":[{"internalType":"uint256","name":"","type":"uint256"}],"stateMutability":"view","type":"function"},{"inputs":[{"components":[{"internalType":"address","name":"stakingToken","type":"address"},{"internalType":"address","name":"rewardToken","type":"address"},{"internalType":"uint256","name":"rewardPerBlock","type":"uint256"},{"internalType":"uint256","name":"startBlock","type":"uint256"},{"internalType":"uint256","name":"endBlock","type":"uint256"},{"internalType":"uint256","name":"totalRewardAmount","type":"uint256"},{"internalType":"string","name":"poolName","type":"string"},{"internalType":"string","name":"poolDescription","type":"string"},{"internalType":"string","name":"stakingSymbol","type":"string"},{"internalType":"string","name":"rewardSymbol","type":"string"},{"internalType":"string","name":"stakingLogo","type":"string"},{"internalType":"string","name":"rewardLogo","type":"string"}],"internalType":"struct EcosystemStakingFactory.CreateParams","name":"params","type":"tuple"}],"name":"createStakingPool","outputs":[{"internalType":"address","name":"","type":"address"}],"stateMutability":"nonpayable","type":"function"},{"inputs":[{"internalType":"uint256","name":"_offset","type":"uint256"},{"internalType":"uint256","name":"_limit","type":"uint256"}],"name":"getAllPools","outputs":[{"internalType":"address[]","name":"","type":"address[]"}],"stateMutability":"view","type":"function"},{"inputs":[{"internalType":"address","name":"_pool","type":"address"}],"name":"getPoolInfo","outputs":[{"components":[{"internalType":"address","name":"poolAddress","type":"address"},{"internalType":"address","name":"stakingToken","type":"address"},{"internalType":"address","name":"rewardToken","type":"address"},{"internalType":"uint256","name":"rewardPerBlock","type":"uint256"},{"internalType":"uint256","name":"startBlock","type":"uint256"},{"internalType":"uint256","name":"endBlock","type":"uint256"},{"internalType":"address","name":"creator","type":"address"},{"internalType":"uint256","name":"createdAt","type":"uint256"}],"internalType":"struct EcosystemStakingFactory.PoolInfo","name":"","type":"tuple"}],"stateMutability":"view","type":"function"},{"inputs":[{"internalType":"address","name":"_creator","type":"address"}],"name":"getPoolsByCreator","outputs":[{"internalType":"address[]","name":"","type":"address[]"}],"stateMutability":"view","type":"function"},{"inputs":[],"name":"orderToken","outputs":[{"internalType":"contract IERC20Burnable","name":"","type":"address"}],"stateMutability":"view","type":"function"},{"inputs":[],"name":"poolCount","outputs":[{"internalType":"uint256","name":"","type":"uint256"}],"stateMutability":"view","type":"function"},{"inputs":[{"internalType":"address","name":"","type":"address"}],"name":"poolInfo","outputs":[{"internalType":"address","name":"poolAddress","type":"address"},{"internalType":"address","name":"stakingToken","type":"address"},{"internalType":"address","name":"rewardToken","type":"address"},{"internalType":"uint256","name":"rewardPerBlock","type":"uint256"},{"internalType":"uint256","name":"startBlock","type":"uint256"},{"internalType":"uint256","name":"endBlock","type":"uint256"},{"internalType":"address","name":"creator","type":"address"},{"internalType":"uint256","name":"createdAt","type":"uint256"}],"stateMutability":"view","type":"function"},{"inputs":[{"internalType":"address","name":"","type":"address"},{"internalType":"uint256","name":"","type":"uint256"}],"name":"poolsByCreator","outputs":[{"internalType":"address","name":"","type":"address"}],"stateMutability":"view","type":"function"},{"inputs":[{"internalType":"uint256","name":"_newBurnAmount","type":"uint256"}],"name":"setBurnAmount","outputs":[],"stateMutability":"nonpayable","type":"function"},{"inputs":[{"internalType":"address","name":"_account","type":"address"},{"internalType":"bool","name":"_status","type":"bool"}],"name":"setWhitelist","outputs":[],"stateMutability":"nonpayable","type":"function"},{"inputs":[{"internalType":"address","name":"_newAdmin","type":"address"}],"name":"transferAdmin","outputs":[],"stateMutability":"nonpayable","type":"function"},{"inputs":[{"internalType":"address","name":"","type":"address"}],"name":"whitelistedCreators","outputs":[{"internalType":"bool","name":"","type":"bool"}],"stateMutability":"view","type":"function"}],"evm":{"bytecode":{"linkReferences":{},"object":"60803461013357601f61379e38819003918201601f19168301916001600160401b038311848410176101385780849260209460405283398101031261013357516001600160a01b0381169081900361013357600160005569d3c21bcecceda100000060025580156100ee5760018060a01b03199081600154161760015533906004541617600455733fa6df8357dc58935360833827a9762433488c838060005260036020526040600020600160ff198254161790557ff93f9a76c1bf3444d22400a00cb9fe990e6abe9dbb333fda48859cfee864543d602060405160018152a260405161364f908161014f8239f35b60405162461bcd60e51b815260206004820152601360248201527f496e76616c6964204f5244455220746f6b656e000000000000000000000000006044820152606490fd5b600080fd5b634e487b7160e01b600052604160045260246000fdfe60808060405260043610156200001457600080fd5b600090813560e01c908163041bb6ff14620013c25750806306bfa93814620012a757806341d1de97146200126f578063486a7e6b146200124f5780634e6fd6c4146200123057806353d6fd59146200119d5780637362c93614620004d557806375829def14620003be57806385d1891714620003955780639a7b5f111462000301578063a7753f0914620002d9578063c84728ef1462000243578063cc43f3d3146200018f578063f525cb68146200016f578063f851a44014620001465763fcbf570b14620000e257600080fd5b34620001435760403660031901126200014357620000ff62001400565b602435916001600160a01b03809216815260066020526040812090815484101562000143575060209262000133916200146a565b9190546040519260031b1c168152f35b80fd5b5034620001435780600319360112620001435760206001600160a01b0360045416604051908152f35b503462000143578060031936011262000143576020600554604051908152f35b5034620001435760203660031901126200014357600435620001be6001600160a01b03600454163314620014c9565b8015620001ff5760407f64cb08366b6486e69e8c2feeb9a0b70224e269763e3a8c965ef2109c7958967b91600254908060025582519182526020820152a180f35b606460405162461bcd60e51b815260206004820152601c60248201527f4275726e20616d6f756e74206d75737420626520706f736974697665000000006044820152fd5b50346200014357602080600319360112620002d5576001600160a01b0391826200026c62001400565b168152600682526040812092604051908193808654938481520195845280842093915b838310620002bb57620002b786620002aa818a0382620015a2565b6040519182918262001483565b0390f35b84548116875295810195600194850194909201916200028f565b5080fd5b5034620001435760403660031901126200014357620002b7620002aa60243560043562001627565b50346200014357602036600319011262000143576101009060406001600160a01b0391826200032f62001400565b1681526007602052209080825416918160018201541691806002830154166003830154600484015491600760058601549460068701541695015495604051978852602088015260408701526060860152608085015260a084015260c083015260e0820152f35b5034620001435780600319360112620001435760206001600160a01b0360015416604051908152f35b5034620001435760203660031901126200014357620003dc62001400565b600454906001600160a01b0380831691620003f9833314620014c9565b1691821562000491578183146200044d5773ffffffffffffffffffffffffffffffffffffffff191682176004557ff8ccb027dfcd135e000e9d45e6cc2d662578a8825d4c45b5e32e0adf67e79ec68380a380f35b606460405162461bcd60e51b815260206004820152600d60248201527f416c72656164792061646d696e000000000000000000000000000000000000006044820152fd5b606460405162461bcd60e51b815260206004820152601160248201527f496e76616c6964206e65772061646d696e0000000000000000000000000000006044820152fd5b503462000143576020366003190112620001435767ffffffffffffffff60043511620001435761018060043536036003190112620001435760028154146200115957600281556001600160a01b036200053360043560040162001515565b161562001115576001600160a01b036200055260246004350162001515565b1615620010d1576200056960043560040162001515565b6001600160a01b03806200058260246004350162001515565b16911614801590620010bf575b1562001056574360646004350135111562001012576084600435013560646004350135101562000fce576064620005d2816004350135608460043501356200152a565b1062000f8a576303220080620005f560646004350135608460043501356200152a565b1162000f4657604460043501351562000f025760a460043501351562000ebe576200062b60c4600435016004356004016200154e565b905015158062000e9b575b1562000e575762000653610104600435016004356004016200154e565b905015158062000e33575b1562000def576200067b610124600435016004356004016200154e565b905015158062000dcb575b1562000d8757620006a460646004350135608460043501356200152a565b60043560440135808202919082040362000d735760a460043501351062000d2f57338152600360205260ff6040822054161562000c76575b620006ec60043560040162001515565b620006fc60246004350162001515565b6040519182611ef381011067ffffffffffffffff611ef38501111762000c6257906001600160a01b038092611ef362001727863916611ef384019081529116602082015260043560448101356040830152606481013560608301526084013560808201523360a082015281900360c0019082f0801562000c55576001600160a01b03168160206001600160a01b036200079a60246004350162001515565b166064604051809481936323b872dd60e01b835233600484015287602484015260a4600435013560448401525af190811562000c4a57839162000c14575b501562000bd057620007f560c4600435016004356004016200154e565b92906200080d60e4600435016004356004016200154e565b91909462000827610104600435016004356004016200154e565b906200083f610124600435016004356004016200154e565b9062000857610144600435016004356004016200154e565b91909262000871610164600435016004356004016200154e565b9590968c3b1562000bcc578b9c9d60409c9b9c519c8d9b8c9b7fa03fe6d7000000000000000000000000000000000000000000000000000000008d5260048d0160c0905260c48d0190620008c592620015df565b906003198c83030160248d0152620008dd92620015df565b906003198a83030160448b0152620008f592620015df565b906003198883030160648901526200090d92620015df565b906003198683030160848701526200092592620015df565b906003198483030160a48501526200093d92620015df565b038183875af1801562000bc15762000b93575b50906200096260043560040162001515565b60076200097460246004350162001515565b60405192620009838462001584565b8484526001600160a01b0360208501911681526001600160a01b03604085019216825260608401906044600435013582526080850160646004350135815260a086019060846004350135825260c087019333855260e0880195428752898b52876020526001600160a01b0360408c209951169473ffffffffffffffffffffffffffffffffffffffff1995868b5416178a556001600160a01b0360018b01915116868254161790556001600160a01b0360028a01915116858254161790555160038801555160048701555160058601556001600160a01b0360068601925116908254161790555191015560055468010000000000000000908181101562000b7d5780600162000a9592016005556200141c565b81549060031b906001600160a01b0385831b921b19161790553383526006602052604083209283549182101562000b7d5762000adb82602095600180950181556200146a565b81549060031b906001600160a01b0386831b921b191617905562000b0460043560040162001515565b6001600160a01b0362000b1c60246004350162001515565b81604051931683521685820152604460043501356040820152606460043501356060820152608460043501356080820152837fa2ef419740fc832b1bb2db408ebdfebd59ab8ed8c47c92411ee60fdfb6cd5d1260a03393a355604051908152f35b634e487b7160e01b600052604160045260246000fd5b67ffffffffffffffff811162000bad576040523862000950565b602482634e487b7160e01b81526041600452fd5b6040513d84823e3d90fd5b8b80fd5b606460405162461bcd60e51b815260206004820152601c60248201527f52657761726420746f6b656e207472616e73666572206661696c6564000000006044820152fd5b62000c3b915060203d60201162000c42575b62000c328183620015a2565b810190620015c5565b38620007d8565b503d62000c26565b6040513d85823e3d90fd5b50604051903d90823e3d90fd5b602484634e487b7160e01b81526041600452fd5b8060206001600160a01b0360015416606460025460405194859384926323b872dd60e01b845233600485015261dead602485015260448401525af190811562000bc157829162000d0b575b50620006dc57606460405162461bcd60e51b815260206004820152601160248201527f4f52444552206275726e206661696c65640000000000000000000000000000006044820152fd5b62000d28915060203d60201162000c425762000c328183620015a2565b3862000cc1565b606460405162461bcd60e51b815260206004820152601a60248201527f496e73756666696369656e742072657761726420616d6f756e740000000000006044820152fd5b602482634e487b7160e01b81526011600452fd5b606460405162461bcd60e51b815260206004820152601560248201527f5265776172642073796d626f6c20696e76616c696400000000000000000000006044820152fd5b50601462000de5610124600435016004356004016200154e565b9050111562000686565b606460405162461bcd60e51b815260206004820152601660248201527f5374616b696e672073796d626f6c20696e76616c6964000000000000000000006044820152fd5b50601462000e4d610104600435016004356004016200154e565b905011156200065e565b606460405162461bcd60e51b815260206004820152601160248201527f506f6f6c206e616d6520696e76616c69640000000000000000000000000000006044820152fd5b50606462000eb460c4600435016004356004016200154e565b9050111562000636565b606460405162461bcd60e51b815260206004820152601b60248201527f496e76616c696420746f74616c2072657761726420616d6f756e7400000000006044820152fd5b606460405162461bcd60e51b815260206004820152601360248201527f496e76616c6964207265776172642072617465000000000000000000000000006044820152fd5b606460405162461bcd60e51b815260206004820152601660248201527f506f6f6c206475726174696f6e20746f6f206c6f6e67000000000000000000006044820152fd5b606460405162461bcd60e51b815260206004820152601760248201527f506f6f6c206475726174696f6e20746f6f2073686f72740000000000000000006044820152fd5b606460405162461bcd60e51b815260206004820152601360248201527f496e76616c696420626c6f636b2072616e6765000000000000000000000000006044820152fd5b606460405162461bcd60e51b815260206004820152601d60248201527f537461727420626c6f636b206d75737420626520696e206675747572650000006044820152fd5b608460405162461bcd60e51b8152602060048201526024808201527f52657761726420616d6f756e7420746f6f206c6f7720666f722073616d65207460448201527f6f6b656e000000000000000000000000000000000000000000000000000000006064820152fd5b5060025460a46004350135116200058f565b606460405162461bcd60e51b815260206004820152601460248201527f496e76616c69642072657761726420746f6b656e0000000000000000000000006044820152fd5b606460405162461bcd60e51b815260206004820152601560248201527f496e76616c6964207374616b696e6720746f6b656e00000000000000000000006044820152fd5b606460405162461bcd60e51b815260206004820152601f60248201527f5265656e7472616e637947756172643a207265656e7472616e742063616c6c006044820152fd5b5034620001435760403660031901126200014357620011bb62001400565b602435908115158092036200122c5760207ff93f9a76c1bf3444d22400a00cb9fe990e6abe9dbb333fda48859cfee864543d916001600160a01b03906200120882600454163314620014c9565b1692838552600382526040852060ff1981541660ff8316179055604051908152a280f35b8280fd5b50346200014357806003193601126200014357602060405161dead8152f35b503462000143578060031936011262000143576020600254604051908152f35b503462000143576020366003190112620001435760043590600554821015620001435760206001600160a01b0362000133846200141c565b5034620001435760203660031901126200014357610100906040620012cb62001400565b918060e08351620012dc8162001584565b82815282602082015282858201528260608201528260808201528260a08201528260c082015201526001600160a01b0380931681526007602052209060405190620013278262001584565b80835416928383528160018201541660208401908152826002830154166040850190815260038301546060860190815284600485015492608088019384528160058701549560a08a0196875260e060078360068b0154169960c08d019a8b5201549a01998a526040519a8b52511660208a0152511660408801525160608701525160808601525160a0850152511660c08301525160e0820152f35b905034620002d5576020366003190112620002d55760ff60406020936001600160a01b03620013f062001400565b1681526003855220541615158152f35b600435906001600160a01b03821682036200141757565b600080fd5b600554811015620014545760056000527f036b6384b5eca791c62761152d0c79bb0604c104a5fb6f4eb0703f3154bb3db00190600090565b634e487b7160e01b600052603260045260246000fd5b8054821015620014545760005260206000200190600090565b6020908160408183019282815285518094520193019160005b828110620014ab575050505090565b83516001600160a01b0316855293810193928101926001016200149c565b15620014d157565b606460405162461bcd60e51b815260206004820152600a60248201527f4f6e6c792061646d696e000000000000000000000000000000000000000000006044820152fd5b356001600160a01b0381168103620014175790565b919082039182116200153857565b634e487b7160e01b600052601160045260246000fd5b903590601e198136030182121562001417570180359067ffffffffffffffff821162001417576020019181360383136200141757565b610100810190811067ffffffffffffffff82111762000b7d57604052565b90601f8019910116810190811067ffffffffffffffff82111762000b7d57604052565b908160209103126200141757518015158103620014175790565b908060209392818452848401376000828201840152601f01601f1916010190565b67ffffffffffffffff811162000b7d5760051b60200190565b919082018092116200153857565b9060059081549081841015620016f8576200165a916200164985928362001619565b90808211620016ef575b506200152a565b90620016668262001600565b92620016766040519485620015a2565b828452601f19620016878462001600565b0190602091368387013760005b848110620016a457505050505090565b620016ba620016b4828462001619565b6200141c565b9054875183101562001454576001600160a01b039160031b1c168382861b880101526000198114620015385760010162001694565b90503862001653565b505050506040516020810181811067ffffffffffffffff82111762000b7d576040526000815260003681379056fe6080604090808252346200045b5760c08162001ef3803803809162000025828562000460565b8339810103126200045b576200003b816200049a565b60206200004a8184016200049a565b92848101516060820151926200006860a0608085015194016200049a565b906000956001875560018060a01b0380911697881562000417578116928315620003d357858710156200038f5784156200034b5716958615620003155743861115620002d157858503858111620002bd576064116200027957885163313ce56760e01b80825283826004818d5afa9182156200026f5783926200024b575b508a519081528381600481885afa92831562000240579262000204575b5060ff6012911603620001b45760ff601291160362000166575060018060a01b0319958660015416176001558560025416176002556005558160035560045560065581600b541617600b553390600c541617600c5551611a289081620004cb8239f35b60849088519062461bcd60e51b82526004820152602260248201527f52657761726420746f6b656e206d757374206861766520313820646563696d616044820152616c7360f01b6064820152fd5b885162461bcd60e51b815260048101839052602360248201527f5374616b696e6720746f6b656e206d757374206861766520313820646563696d604482015262616c7360e81b6064820152608490fd5b60129192506200022f60ff91853d871162000238575b62000226818362000460565b810190620004af565b92915062000103565b503d6200021a565b8b51903d90823e3d90fd5b62000267919250843d8611620002385762000226818362000460565b9038620000e6565b8b513d85823e3d90fd5b885162461bcd60e51b815260048101839052601760248201527f506f6f6c206475726174696f6e20746f6f2073686f72740000000000000000006044820152606490fd5b634e487b7160e01b82526011600452602482fd5b885162461bcd60e51b815260048101839052601d60248201527f537461727420626c6f636b206d75737420626520696e206675747572650000006044820152606490fd5b885162461bcd60e51b815260048101839052600f60248201526e24b73b30b634b21031b932b0ba37b960891b6044820152606490fd5b895162461bcd60e51b815260048101849052601360248201527f496e76616c6964207265776172642072617465000000000000000000000000006044820152606490fd5b895162461bcd60e51b815260048101849052601360248201527f496e76616c696420626c6f636b2072616e6765000000000000000000000000006044820152606490fd5b895162461bcd60e51b815260048101849052601460248201527f496e76616c69642072657761726420746f6b656e0000000000000000000000006044820152606490fd5b895162461bcd60e51b815260048101849052601560248201527f496e76616c6964207374616b696e6720746f6b656e00000000000000000000006044820152606490fd5b600080fd5b601f909101601f19168101906001600160401b038211908210176200048457604052565b634e487b7160e01b600052604160045260246000fd5b51906001600160a01b03821682036200045b57565b908160209103126200045b575160ff811681036200045b579056fe608080604052600436101561001357600080fd5b60003560e01c90816302d05d3f1461169e57508063083c6323146116805780631959a0021461162c5780632e17de781461148257806348cd4cb11461146457806360246c88146113fa57806372f702f3146113d3578063817b1cd2146113b557806383bb3877146113975780638ae39cac146113795780638b840f36146111f25780638dbb1e3a146111d1578063939d6237146111b3578063a03fe6d71461087d578063a694fc3a1461065e578063a9f8d18114610640578063b88a802f14610422578063c45a0155146103fb578063db2e21bc146102ac578063e3161ddd14610291578063f40f0f521461013d5763f7c618c11461011157600080fd5b346101385760003660031901126101385760206001600160a01b0360025416604051908152f35b600080fd5b34610138576020366003190112610138576004356001600160a01b03811680910361013857600052600a60205260406000206040516060810181811067ffffffffffffffff82111761027b5760405281548152600260018301549260208301938452015490604081019182526007549060065480431180610270575b6101f2575b60206101ea856101e28864e8d4a510006101d989895161176a565b04905190611837565b90519061179d565b604051908152f35b61020361020c91949394439061191e565b6005549061176a565b9364e8d4a510009485810295818704149015171561025a5764e8d4a510006101d96101e29361024d6101ea9761024760209a6008549061177d565b9061179d565b95965093505050936101be565b634e487b7160e01b600052601160045260246000fd5b5060085415156101b9565b634e487b7160e01b600052604160045260246000fd5b34610138576000366003190112610138576102aa6117aa565b005b34610138576000366003190112610138576102c56118c9565b336000526020600a815260406000209081549182156103b757600281600080935582600182015501556102fa82600854611837565b60085560015460405163a9059cbb60e01b81523360048201526024810184905291908190839060449082906000906001600160a01b03165af19182156103ab577f5fafa99d0643513820be26656b45130b01e1c03062e1266bf36f88cbd3bd96959261036e9160009161037e575b5061187e565b6040519283523392a26001600055005b61039e9150833d85116103a4575b6103968183611844565b810190611866565b85610368565b503d61038c565b6040513d6000823e3d90fd5b6064826040519062461bcd60e51b82526004820152600860248201527f4e6f207374616b650000000000000000000000000000000000000000000000006044820152fd5b346101385760003660031901126101385760206001600160a01b03600c5416604051908152f35b346101385760003660031901126101385761043b6118c9565b336000526020600a81526040600020906104536117aa565b81549164e8d4a51000806104696007548661176a565b049061048a60026104806001860194855490611837565b940193845461179d565b9485156105fc576001600160a01b03938460025416604051907f70a082310000000000000000000000000000000000000000000000000000000082523060048301528782602481845afa80156103ab5789926000916105cb575b5080918860015416146105b7575b501061057357600090556007546105089161176a565b04905560025460405163a9059cbb60e01b8152336004820152602481018590529291829184916044918391600091165af19182156103ab577f106f923f993c2149d49b4255ff723acafa1f2d94393f561d3eda32ae348f72419261036e9160009161037e575061187e565b6064866040519062461bcd60e51b82526004820152601d60248201527f506f6f6c2068617320696e73756666696369656e7420726577617264730000006044820152fd5b6105c5915060085490611837565b896104f2565b809350898092503d83116105f5575b6105e48183611844565b81010312610138578891518a6104e4565b503d6105da565b6064856040519062461bcd60e51b82526004820152600a60248201527f4e6f2072657761726473000000000000000000000000000000000000000000006044820152fd5b34610138576000366003190112610138576020600654604051908152f35b3461013857602080600319360112610138576004359061067c6118c9565b81156108395760035443106107f5576004544310156107b157600090338252600a8152604082206106ab6117aa565b6106bb8482548061076d5761179d565b81556106c98460085461179d565b600855600164e8d4a510006106e283546007549061176a565b04910155806001600160a01b03600154166064604051809581937f23b872dd0000000000000000000000000000000000000000000000000000000083523360048401523060248401528860448401525af19182156103ab577f9e71bc8eea02a63969f509818f2dafb9254532904319f9dbda79b67bd34a5f3d9261036e9160009161037e575061187e565b61078e64e8d4a510006107826007548461176a565b04600186015490611837565b8061079a575b5061179d565b6107a96002860191825461179d565b905587610794565b6064906040519062461bcd60e51b82526004820152600d60248201527f5374616b696e6720656e646564000000000000000000000000000000000000006044820152fd5b6064906040519062461bcd60e51b82526004820152601360248201527f5374616b696e67206e6f742073746172746564000000000000000000000000006044820152fd5b6064906040519062461bcd60e51b82526004820152600e60248201527f43616e6e6f74207374616b6520300000000000000000000000000000000000006044820152fd5b346101385760c03660031901126101385760043567ffffffffffffffff8111610138576108ae903690600401611702565b9060243567ffffffffffffffff8111610138576108cf903690600401611702565b9060443567ffffffffffffffff8111610138576108f0903690600401611702565b9060643567ffffffffffffffff811161013857610911903690600401611702565b91909260843567ffffffffffffffff811161013857610934903690600401611702565b95909660a43567ffffffffffffffff811161013857610957903690600401611702565b99909a6001600160a01b0380600b541633149081156111a5575b50156111615760008052600d6020527f81955a0a11e65eac625c29e8882660bae4e165a75d72780094acae8ece9a29ee546109ab90611730565b61111d5760008052600d6020527f81955a0a11e65eac625c29e8882660bae4e165a75d72780094acae8ece9a29ee9167ffffffffffffffff821161027b5781906109f58454611730565b601f81116110cd575b50600090601f83116001146110655760009261105a575b50508160011b916000199060031b1c19161790555b6001600052600d6020527ffd54ff1ed53f34a900b24c5ba64f85761163b5d82d98a47b9bd80e45466993c59167ffffffffffffffff821161027b578190610a718454611730565b601f811161100a575b50600090601f8311600114610fa257600092610f97575b50508160011b916000199060031b1c19161790555b6002600052600d6020527f10a81eed9d63d16face5e76357905348e6253d3394086026bb2bf2145d7cc2499167ffffffffffffffff821161027b578190610aed8454611730565b601f8111610f47575b50600090601f8311600114610edf57600092610ed4575b50508160011b916000199060031b1c19161790555b6003600052600d6020527f26b4a10d0f0b04925c23bd4480ee147c916e5e87a7d68206a533dad160ac81e29167ffffffffffffffff821161027b578190610b698454611730565b601f8111610e84575b50600090601f8311600114610e1c57600092610e11575b50508160011b916000199060031b1c19161790555b6004600052600d6020527fafafe8948a4ed9d478b1e9a5780b119b5edd00ea7d07bc35bef7c814824eb94b9167ffffffffffffffff821161027b578190610be58454611730565b601f8111610dc1575b50600090601f8311600114610d5957600092610d4e575b50508160011b916000199060031b1c19161790555b6005600052600d6020527fa5049387d9cb649c59f4bda666105ba636c2a103d8e2b232ba4d125737cd21499067ffffffffffffffff811161027b57610c5f8254611730565b601f8111610d06575b506000601f8211600114610ca457819293600092610c99575b5050600019600383901b1c191660019190911b179055005b013590508380610c81565b601f198216938360005260206000209160005b868110610cee5750836001959610610cd4575b505050811b019055005b0135600019600384901b60f8161c19169055838080610cca565b90926020600181928686013581550194019101610cb7565b826000526020600020601f830160051c81019160208410610d44575b601f0160051c01905b818110610d385750610c68565b60008155600101610d2b565b9091508190610d22565b013590508580610c05565b600085815260208120909450915b601f1984168510610da9576001945083601f19811610610d8f575b505050811b019055610c1a565b0135600019600384901b60f8161c19169055858080610d82565b81810135835560209485019460019093019201610d67565b909150836000526020600020601f840160051c810160208510610e0a575b90849392915b601f830160051c82018110610dfb575050610bee565b60008155859450600101610de5565b5080610ddf565b013590508780610b89565b600085815260208120909450915b601f1984168510610e6c576001945083601f19811610610e52575b505050811b019055610b9e565b0135600019600384901b60f8161c19169055878080610e45565b81810135835560209485019460019093019201610e2a565b909150836000526020600020601f840160051c810160208510610ecd575b90849392915b601f830160051c82018110610ebe575050610b72565b60008155859450600101610ea8565b5080610ea2565b013590508980610b0d565b600085815260208120909450915b601f1984168510610f2f576001945083601f19811610610f15575b505050811b019055610b22565b0135600019600384901b60f8161c19169055898080610f08565b81810135835560209485019460019093019201610eed565b909150836000526020600020601f840160051c810160208510610f90575b90849392915b601f830160051c82018110610f81575050610af6565b60008155859450600101610f6b565b5080610f65565b013590508b80610a91565b600085815260208120909450915b601f1984168510610ff2576001945083601f19811610610fd8575b505050811b019055610aa6565b0135600019600384901b60f8161c191690558b8080610fcb565b81810135835560209485019460019093019201610fb0565b909150836000526020600020601f840160051c810160208510611053575b90849392915b601f830160051c82018110611044575050610a7a565b6000815585945060010161102e565b5080611028565b013590508d80610a15565b600085815260208120909450915b601f19841685106110b5576001945083601f1981161061109b575b505050811b019055610a2a565b0135600019600384901b60f8161c191690558d808061108e565b81810135835560209485019460019093019201611073565b909150836000526020600020601f840160051c810160208510611116575b90849392915b601f830160051c820181106111075750506109fe565b600081558594506001016110f1565b50806110eb565b606460405162461bcd60e51b815260206004820152601460248201527f4d6574616461746120616c7265616479207365740000000000000000000000006044820152fd5b606460405162461bcd60e51b815260206004820152601760248201527f4f6e6c792063726561746f72206f7220666163746f72790000000000000000006044820152fd5b9050600c541633148d610971565b34610138576000366003190112610138576020600754604051908152f35b346101385760403660031901126101385760206101ea60243560043561191e565b3461013857600036600319011261013857600d602052600560005261132f7ffd54ff1ed53f34a900b24c5ba64f85761163b5d82d98a47b9bd80e45466993c56113757f10a81eed9d63d16face5e76357905348e6253d3394086026bb2bf2145d7cc2496113677fa5049387d9cb649c59f4bda666105ba636c2a103d8e2b232ba4d125737cd21496113597fafafe8948a4ed9d478b1e9a5780b119b5edd00ea7d07bc35bef7c814824eb94b61134b7f26b4a10d0f0b04925c23bd4480ee147c916e5e87a7d68206a533dad160ac81e261133d61131a61131461130e6113086113026112fc7f81955a0a11e65eac625c29e8882660bae4e165a75d72780094acae8ece9a29ee61194e565b9e61194e565b9b61194e565b9461194e565b9561194e565b9661194e565b976040519b8c9b60c08d5260c08d01906116c2565b908b820360208d01526116c2565b9089820360408b01526116c2565b9087820360608901526116c2565b9085820360808701526116c2565b9083820360a08501526116c2565b0390f35b34610138576000366003190112610138576020600554604051908152f35b34610138576000366003190112610138576020600954604051908152f35b34610138576000366003190112610138576020600854604051908152f35b346101385760003660031901126101385760206001600160a01b0360015416604051908152f35b34610138576000366003190112610138576101006001600160a01b03806001541690806002541690600554600354600454906008549260065494600b541695604051978852602088015260408701526060860152608085015260a084015260c083015260e0820152f35b34610138576000366003190112610138576020600354604051908152f35b346101385760208060031936011261013857600435906114a06118c9565b33600052600a81526040600020828154106115e85782156115a4576114c36117aa565b80549061151a64e8d4a51000916114ff86846114e16007548861176a565b04956114f36001850197885490611837565b8061158d575b50611837565b815561150d86600854611837565b600855546007549061176a565b04905560015460405163a9059cbb60e01b81523360048201526024810184905291908190839060449082906000906001600160a01b03165af19182156103ab577f0f5bb82176feb1b5e747e28471aa92156a04d9f3ab9f45f28e2d704232b93f759261036e9160009161037e575061187e565b61159c6002860191825461179d565b9055896114f9565b6064826040519062461bcd60e51b82526004820152601060248201527f43616e6e6f7420756e7374616b652030000000000000000000000000000000006044820152fd5b6064826040519062461bcd60e51b82526004820152601460248201527f496e73756666696369656e742062616c616e63650000000000000000000000006044820152fd5b34610138576020366003190112610138576004356001600160a01b03811680910361013857600052600a60205260606040600020805490600260018201549101549060405192835260208301526040820152f35b34610138576000366003190112610138576020600454604051908152f35b34610138576000366003190112610138576020906001600160a01b03600b54168152f35b919082519283825260005b8481106116ee575050826000602080949584010152601f8019910116010190565b6020818301810151848301820152016116cd565b9181601f840112156101385782359167ffffffffffffffff8311610138576020838186019501011161013857565b90600182811c92168015611760575b602083101461174a57565b634e487b7160e01b600052602260045260246000fd5b91607f169161173f565b8181029291811591840414171561025a57565b8115611787570490565b634e487b7160e01b600052601260045260246000fd5b9190820180921161025a57565b60065443111561183557600854801561182e576117cc6102034360065461191e565b6007549164e8d4a510009182810292818404149015171561025a577f7fa9647ec1cc14e3822b46d05a2b9d4e019bde8875c0088c46b6503d71bf1722926102476118189260409461177d565b80600755436006558151904382526020820152a1565b5043600655565b565b9190820391821161025a57565b90601f8019910116810190811067ffffffffffffffff82111761027b57604052565b90816020910312610138575180151581036101385790565b1561188557565b606460405162461bcd60e51b815260206004820152600f60248201527f5472616e73666572206661696c656400000000000000000000000000000000006044820152fd5b6002600054146118da576002600055565b606460405162461bcd60e51b815260206004820152601f60248201527f5265656e7472616e637947756172643a207265656e7472616e742063616c6c006044820152fd5b60045491828111611936576119339250611837565b90565b50818110611945575050600090565b61193391611837565b906040519182600082549261196284611730565b9081845260019485811690816000146119cf575060011461198c575b505061183592500383611844565b9093915060005260209081600020936000915b8183106119b75750506118359350820101388061197e565b8554888401850152948501948794509183019161199f565b91505061183594506020925060ff191682840152151560051b820101388061197e56fea26469706673582212206ad0d64d39e47cb30c54f3a2b64b5b8534dab772f5af1e19ab1c4123ebcf26ff64736f6c63430008130033a26469706673582212200aaf89a7c8d6a1ad62dc7e8da000c6782222e84beeccefd452b219289f8fab3164736f6c63430008130033","opcodes":"PUSH1 0x80 CALLVALUE PUSH2 0x133 JUMPI PUSH1 0x1F PUSH2 0x379E CODESIZE DUP2 SWAP1 SUB SWAP2 DUP3 ADD PUSH1 0x1F NOT AND DUP4 ADD SWAP2 PUSH1 0x1 PUSH1 0x1 PUSH1 0x40 SHL SUB DUP4 GT DUP5 DUP5 LT OR PUSH2 0x138 JUMPI DUP1 DUP5 SWAP3 PUSH1 0x20 SWAP5 PUSH1 0x40 MSTORE DUP4 CODECOPY DUP2 ADD SUB SLT PUSH2 0x133 JUMPI MLOAD PUSH1 0x1 PUSH1 0x1 PUSH1 0xA0 SHL SUB DUP2 AND SWAP1 DUP2 SWAP1 SUB PUSH2 0x133 JUMPI PUSH1 0x1 PUSH1 0x0 SSTORE PUSH10 0xD3C21BCECCEDA1000000 PUSH1 0x2 SSTORE DUP1 ISZERO PUSH2 0xEE JUMPI PUSH1 0x1 DUP1 PUSH1 0xA0 SHL SUB NOT SWAP1 DUP2 PUSH1 0x1 SLOAD AND OR PUSH1 0x1 SSTORE CALLER SWAP1 PUSH1 0x4 SLOAD AND OR PUSH1 0x4 SSTORE PUSH20 0x3FA6DF8357DC58935360833827A9762433488C83 DUP1 PUSH1 0x0 MSTORE PUSH1 0x3 PUSH1 0x20 MSTORE PUSH1 0x40 PUSH1 0x0 KECCAK256 PUSH1 0x1 PUSH1 0xFF NOT DUP3 SLOAD AND OR SWAP1 SSTORE PUSH32 0xF93F9A76C1BF3444D22400A00CB9FE990E6ABE9DBB333FDA48859CFEE864543D PUSH1 0x20 PUSH1 0x40 MLOAD PUSH1 0x1 DUP2 MSTORE LOG2 PUSH1 0x40 MLOAD PUSH2 0x364F SWAP1 DUP2 PUSH2 0x14F DUP3 CODECOPY RETURN JUMPDEST PUSH1 0x40 MLOAD PUSH3 0x461BCD PUSH1 0xE5 SHL DUP2 MSTORE PUSH1 0x20 PUSH1 0x4 DUP3 ADD MSTORE PUSH1 0x13 PUSH1 0x24 DUP3 ADD MSTORE PUSH32 0x496E76616C6964204F5244455220746F6B656E00000000000000000000000000 PUSH1 0x44 DUP3 ADD MSTORE PUSH1 0x64 SWAP1 REVERT JUMPDEST PUSH1 0x0 DUP1 REVERT JUMPDEST PUSH4 0x4E487B71 PUSH1 0xE0 SHL PUSH1 0x0 MSTORE PUSH1 0x41 PUSH1 0x4 MSTORE PUSH1 0x24 PUSH1 0x0 REVERT INVALID PUSH1 0x80 DUP1 PUSH1 0x40 MSTORE PUSH1 0x4 CALLDATASIZE LT ISZERO PUSH3 0x14 JUMPI PUSH1 0x0 DUP1 REVERT JUMPDEST PUSH1 0x0 SWAP1 DUP2 CALLDATALOAD PUSH1 0xE0 SHR SWAP1 DUP2 PUSH4 0x41BB6FF EQ PUSH3 0x13C2 JUMPI POP DUP1 PUSH4 0x6BFA938 EQ PUSH3 0x12A7 JUMPI DUP1 PUSH4 0x41D1DE97 EQ PUSH3 0x126F JUMPI DUP1 PUSH4 0x486A7E6B EQ PUSH3 0x124F JUMPI DUP1 PUSH4 0x4E6FD6C4 EQ PUSH3 0x1230 JUMPI DUP1 PUSH4 0x53D6FD59 EQ PUSH3 0x119D JUMPI DUP1 PUSH4 0x7362C936 EQ PUSH3 0x4D5 JUMPI DUP1 PUSH4 0x75829DEF EQ PUSH3 0x3BE JUMPI DUP1 PUSH4 0x85D18917 EQ PUSH3 0x395 JUMPI DUP1 PUSH4 0x9A7B5F11 EQ PUSH3 0x301 JUMPI DUP1 PUSH4 0xA7753F09 EQ PUSH3 0x2D9 JUMPI DUP1 PUSH4 0xC84728EF EQ PUSH3 0x243 JUMPI DUP1 PUSH4 0xCC43F3D3 EQ PUSH3 0x18F JUMPI DUP1 PUSH4 0xF525CB68 EQ PUSH3 0x16F JUMPI DUP1 PUSH4 0xF851A440 EQ PUSH3 0x146 JUMPI PUSH4 0xFCBF570B EQ PUSH3 0xE2 JUMPI PUSH1 0x0 DUP1 REVERT JUMPDEST CALLVALUE PUSH3 0x143 JUMPI PUSH1 0x40 CALLDATASIZE PUSH1 0x3 NOT ADD SLT PUSH3 0x143 JUMPI PUSH3 0xFF PUSH3 0x1400 JUMP JUMPDEST PUSH1 0x24 CALLDATALOAD SWAP2 PUSH1 0x1 PUSH1 0x1 PUSH1 0xA0 SHL SUB DUP1 SWAP3 AND DUP2 MSTORE PUSH1 0x6 PUSH1 0x20 MSTORE PUSH1 0x40 DUP2 KECCAK256 SWAP1 DUP2 SLOAD DUP5 LT ISZERO PUSH3 0x143 JUMPI POP PUSH1 0x20 SWAP3 PUSH3 0x133 SWAP2 PUSH3 0x146A JUMP JUMPDEST SWAP2 SWAP1 SLOAD PUSH1 0x40 MLOAD SWAP3 PUSH1 0x3 SHL SHR AND DUP2 MSTORE RETURN JUMPDEST DUP1 REVERT JUMPDEST POP CALLVALUE PUSH3 0x143 JUMPI DUP1 PUSH1 0x3 NOT CALLDATASIZE ADD SLT PUSH3 0x143 JUMPI PUSH1 0x20 PUSH1 0x1 PUSH1 0x1 PUSH1 0xA0 SHL SUB PUSH1 0x4 SLOAD AND PUSH1 0x40 MLOAD SWAP1 DUP2 MSTORE RETURN JUMPDEST POP CALLVALUE PUSH3 0x143 JUMPI DUP1 PUSH1 0x3 NOT CALLDATASIZE ADD SLT PUSH3 0x143 JUMPI PUSH1 0x20 PUSH1 0x5 SLOAD PUSH1 0x40 MLOAD SWAP1 DUP2 MSTORE RETURN JUMPDEST POP CALLVALUE PUSH3 0x143 JUMPI PUSH1 0x20 CALLDATASIZE PUSH1 0x3 NOT ADD SLT PUSH3 0x143 JUMPI PUSH1 0x4 CALLDATALOAD PUSH3 0x1BE PUSH1 0x1 PUSH1 0x1 PUSH1 0xA0 SHL SUB PUSH1 0x4 SLOAD AND CALLER EQ PUSH3 0x14C9 JUMP JUMPDEST DUP1 ISZERO PUSH3 0x1FF JUMPI PUSH1 0x40 PUSH32 0x64CB08366B6486E69E8C2FEEB9A0B70224E269763E3A8C965EF2109C7958967B SWAP2 PUSH1 0x2 SLOAD SWAP1 DUP1 PUSH1 0x2 SSTORE DUP3 MLOAD SWAP2 DUP3 MSTORE PUSH1 0x20 DUP3 ADD MSTORE LOG1 DUP1 RETURN JUMPDEST PUSH1 0x64 PUSH1 0x40 MLOAD PUSH3 0x461BCD PUSH1 0xE5 SHL DUP2 MSTORE PUSH1 0x20 PUSH1 0x4 DUP3 ADD MSTORE PUSH1 0x1C PUSH1 0x24 DUP3 ADD MSTORE PUSH32 0x4275726E20616D6F756E74206D75737420626520706F73697469766500000000 PUSH1 0x44 DUP3 ADD MSTORE REVERT JUMPDEST POP CALLVALUE PUSH3 0x143 JUMPI PUSH1 0x20 DUP1 PUSH1 0x3 NOT CALLDATASIZE ADD SLT PUSH3 0x2D5 JUMPI PUSH1 0x1 PUSH1 0x1 PUSH1 0xA0 SHL SUB SWAP2 DUP3 PUSH3 0x26C PUSH3 0x1400 JUMP JUMPDEST AND DUP2 MSTORE PUSH1 0x6 DUP3 MSTORE PUSH1 0x40 DUP2 KECCAK256 SWAP3 PUSH1 0x40 MLOAD SWAP1 DUP2 SWAP4 DUP1 DUP7 SLOAD SWAP4 DUP5 DUP2 MSTORE ADD SWAP6 DUP5 MSTORE DUP1 DUP5 KECCAK256 SWAP4 SWAP2 JUMPDEST DUP4 DUP4 LT PUSH3 0x2BB JUMPI PUSH3 0x2B7 DUP7 PUSH3 0x2AA DUP2 DUP11 SUB DUP3 PUSH3 0x15A2 JUMP JUMPDEST PUSH1 0x40 MLOAD SWAP2 DUP3 SWAP2 DUP3 PUSH3 0x1483 JUMP JUMPDEST SUB SWAP1 RETURN JUMPDEST DUP5 SLOAD DUP2 AND DUP8 MSTORE SWAP6 DUP2 ADD SWAP6 PUSH1 0x1 SWAP5 DUP6 ADD SWAP5 SWAP1 SWAP3 ADD SWAP2 PUSH3 0x28F JUMP JUMPDEST POP DUP1 REVERT JUMPDEST POP CALLVALUE PUSH3 0x143 JUMPI PUSH1 0x40 CALLDATASIZE PUSH1 0x3 NOT ADD SLT PUSH3 0x143 JUMPI PUSH3 0x2B7 PUSH3 0x2AA PUSH1 0x24 CALLDATALOAD PUSH1 0x4 CALLDATALOAD PUSH3 0x1627 JUMP JUMPDEST POP CALLVALUE PUSH3 0x143 JUMPI PUSH1 0x20 CALLDATASIZE PUSH1 0x3 NOT ADD SLT PUSH3 0x143 JUMPI PUSH2 0x100 SWAP1 PUSH1 0x40 PUSH1 0x1 PUSH1 0x1 PUSH1 0xA0 SHL SUB SWAP2 DUP3 PUSH3 0x32F PUSH3 0x1400 JUMP JUMPDEST AND DUP2 MSTORE PUSH1 0x7 PUSH1 0x20 MSTORE KECCAK256 SWAP1 DUP1 DUP3 SLOAD AND SWAP2 DUP2 PUSH1 0x1 DUP3 ADD SLOAD AND SWAP2 DUP1 PUSH1 0x2 DUP4 ADD SLOAD AND PUSH1 0x3 DUP4 ADD SLOAD PUSH1 0x4 DUP5 ADD SLOAD SWAP2 PUSH1 0x7 PUSH1 0x5 DUP7 ADD SLOAD SWAP5 PUSH1 0x6 DUP8 ADD SLOAD AND SWAP6 ADD SLOAD SWAP6 PUSH1 0x40 MLOAD SWAP8 DUP9 MSTORE PUSH1 0x20 DUP9 ADD MSTORE PUSH1 0x40 DUP8 ADD MSTORE PUSH1 0x60 DUP7 ADD MSTORE PUSH1 0x80 DUP6 ADD MSTORE PUSH1 0xA0 DUP5 ADD MSTORE PUSH1 0xC0 DUP4 ADD MSTORE PUSH1 0xE0 DUP3 ADD MSTORE RETURN JUMPDEST POP CALLVALUE PUSH3 0x143 JUMPI DUP1 PUSH1 0x3 NOT CALLDATASIZE ADD SLT PUSH3 0x143 JUMPI PUSH1 0x20 PUSH1 0x1 PUSH1 0x1 PUSH1 0xA0 SHL SUB PUSH1 0x1 SLOAD AND PUSH1 0x40 MLOAD SWAP1 DUP2 MSTORE RETURN JUMPDEST POP CALLVALUE PUSH3 0x143 JUMPI PUSH1 0x20 CALLDATASIZE PUSH1 0x3 NOT ADD SLT PUSH3 0x143 JUMPI PUSH3 0x3DC PUSH3 0x1400 JUMP JUMPDEST PUSH1 0x4 SLOAD SWAP1 PUSH1 0x1 PUSH1 0x1 PUSH1 0xA0 SHL SUB DUP1 DUP4 AND SWAP2 PUSH3 0x3F9 DUP4 CALLER EQ PUSH3 0x14C9 JUMP JUMPDEST AND SWAP2 DUP3 ISZERO PUSH3 0x491 JUMPI DUP2 DUP4 EQ PUSH3 0x44D JUMPI PUSH20 0xFFFFFFFFFFFFFFFFFFFFFFFFFFFFFFFFFFFFFFFF NOT AND DUP3 OR PUSH1 0x4 SSTORE PUSH32 0xF8CCB027DFCD135E000E9D45E6CC2D662578A8825D4C45B5E32E0ADF67E79EC6 DUP4 DUP1 LOG3 DUP1 RETURN JUMPDEST PUSH1 0x64 PUSH1 0x40 MLOAD PUSH3 0x461BCD PUSH1 0xE5 SHL DUP2 MSTORE PUSH1 0x20 PUSH1 0x4 DUP3 ADD MSTORE PUSH1 0xD PUSH1 0x24 DUP3 ADD MSTORE PUSH32 0x416C72656164792061646D696E00000000000000000000000000000000000000 PUSH1 0x44 DUP3 ADD MSTORE REVERT JUMPDEST PUSH1 0x64 PUSH1 0x40 MLOAD PUSH3 0x461BCD PUSH1 0xE5 SHL DUP2 MSTORE PUSH1 0x20 PUSH1 0x4 DUP3 ADD MSTORE PUSH1 0x11 PUSH1 0x24 DUP3 ADD MSTORE PUSH32 0x496E76616C6964206E65772061646D696E000000000000000000000000000000 PUSH1 0x44 DUP3 ADD MSTORE REVERT JUMPDEST POP CALLVALUE PUSH3 0x143 JUMPI PUSH1 0x20 CALLDATASIZE PUSH1 0x3 NOT ADD SLT PUSH3 0x143 JUMPI PUSH8 0xFFFFFFFFFFFFFFFF PUSH1 0x4 CALLDATALOAD GT PUSH3 0x143 JUMPI PUSH2 0x180 PUSH1 0x4 CALLDATALOAD CALLDATASIZE SUB PUSH1 0x3 NOT ADD SLT PUSH3 0x143 JUMPI PUSH1 0x2 DUP2 SLOAD EQ PUSH3 0x1159 JUMPI PUSH1 0x2 DUP2 SSTORE PUSH1 0x1 PUSH1 0x1 PUSH1 0xA0 SHL SUB PUSH3 0x533 PUSH1 0x4 CALLDATALOAD PUSH1 0x4 ADD PUSH3 0x1515 JUMP JUMPDEST AND ISZERO PUSH3 0x1115 JUMPI PUSH1 0x1 PUSH1 0x1 PUSH1 0xA0 SHL SUB PUSH3 0x552 PUSH1 0x24 PUSH1 0x4 CALLDATALOAD ADD PUSH3 0x1515 JUMP JUMPDEST AND ISZERO PUSH3 0x10D1 JUMPI PUSH3 0x569 PUSH1 0x4 CALLDATALOAD PUSH1 0x4 ADD PUSH3 0x1515 JUMP JUMPDEST PUSH1 0x1 PUSH1 0x1 PUSH1 0xA0 SHL SUB DUP1 PUSH3 0x582 PUSH1 0x24 PUSH1 0x4 CALLDATALOAD ADD PUSH3 0x1515 JUMP JUMPDEST AND SWAP2 AND EQ DUP1 ISZERO SWAP1 PUSH3 0x10BF JUMPI JUMPDEST ISZERO PUSH3 0x1056 JUMPI NUMBER PUSH1 0x64 PUSH1 0x4 CALLDATALOAD ADD CALLDATALOAD GT ISZERO PUSH3 0x1012 JUMPI PUSH1 0x84 PUSH1 0x4 CALLDATALOAD ADD CALLDATALOAD PUSH1 0x64 PUSH1 0x4 CALLDATALOAD ADD CALLDATALOAD LT ISZERO PUSH3 0xFCE JUMPI PUSH1 0x64 PUSH3 0x5D2 DUP2 PUSH1 0x4 CALLDATALOAD ADD CALLDATALOAD PUSH1 0x84 PUSH1 0x4 CALLDATALOAD ADD CALLDATALOAD PUSH3 0x152A JUMP JUMPDEST LT PUSH3 0xF8A JUMPI PUSH4 0x3220080 PUSH3 0x5F5 PUSH1 0x64 PUSH1 0x4 CALLDATALOAD ADD CALLDATALOAD PUSH1 0x84 PUSH1 0x4 CALLDATALOAD ADD CALLDATALOAD PUSH3 0x152A JUMP JUMPDEST GT PUSH3 0xF46 JUMPI PUSH1 0x44 PUSH1 0x4 CALLDATALOAD ADD CALLDATALOAD ISZERO PUSH3 0xF02 JUMPI PUSH1 0xA4 PUSH1 0x4 CALLDATALOAD ADD CALLDATALOAD ISZERO PUSH3 0xEBE JUMPI PUSH3 0x62B PUSH1 0xC4 PUSH1 0x4 CALLDATALOAD ADD PUSH1 0x4 CALLDATALOAD PUSH1 0x4 ADD PUSH3 0x154E JUMP JUMPDEST SWAP1 POP ISZERO ISZERO DUP1 PUSH3 0xE9B JUMPI JUMPDEST ISZERO PUSH3 0xE57 JUMPI PUSH3 0x653 PUSH2 0x104 PUSH1 0x4 CALLDATALOAD ADD PUSH1 0x4 CALLDATALOAD PUSH1 0x4 ADD PUSH3 0x154E JUMP JUMPDEST SWAP1 POP ISZERO ISZERO DUP1 PUSH3 0xE33 JUMPI JUMPDEST ISZERO PUSH3 0xDEF JUMPI PUSH3 0x67B PUSH2 0x124 PUSH1 0x4 CALLDATALOAD ADD PUSH1 0x4 CALLDATALOAD PUSH1 0x4 ADD PUSH3 0x154E JUMP JUMPDEST SWAP1 POP ISZERO ISZERO DUP1 PUSH3 0xDCB JUMPI JUMPDEST ISZERO PUSH3 0xD87 JUMPI PUSH3 0x6A4 PUSH1 0x64 PUSH1 0x4 CALLDATALOAD ADD CALLDATALOAD PUSH1 0x84 PUSH1 0x4 CALLDATALOAD ADD CALLDATALOAD PUSH3 0x152A JUMP JUMPDEST PUSH1 0x4 CALLDATALOAD PUSH1 0x44 ADD CALLDATALOAD DUP1 DUP3 MUL SWAP2 SWAP1 DUP3 DIV SUB PUSH3 0xD73 JUMPI PUSH1 0xA4 PUSH1 0x4 CALLDATALOAD ADD CALLDATALOAD LT PUSH3 0xD2F JUMPI CALLER DUP2 MSTORE PUSH1 0x3 PUSH1 0x20 MSTORE PUSH1 0xFF PUSH1 0x40 DUP3 KECCAK256 SLOAD AND ISZERO PUSH3 0xC76 JUMPI JUMPDEST PUSH3 0x6EC PUSH1 0x4 CALLDATALOAD PUSH1 0x4 ADD PUSH3 0x1515 JUMP JUMPDEST PUSH3 0x6FC PUSH1 0x24 PUSH1 0x4 CALLDATALOAD ADD PUSH3 0x1515 JUMP JUMPDEST PUSH1 0x40 MLOAD SWAP2 DUP3 PUSH2 0x1EF3 DUP2 ADD LT PUSH8 0xFFFFFFFFFFFFFFFF PUSH2 0x1EF3 DUP6 ADD GT OR PUSH3 0xC62 JUMPI SWAP1 PUSH1 0x1 PUSH1 0x1 PUSH1 0xA0 SHL SUB DUP1 SWAP3 PUSH2 0x1EF3 PUSH3 0x1727 DUP7 CODECOPY AND PUSH2 0x1EF3 DUP5 ADD SWAP1 DUP2 MSTORE SWAP2 AND PUSH1 0x20 DUP3 ADD MSTORE PUSH1 0x4 CALLDATALOAD PUSH1 0x44 DUP2 ADD CALLDATALOAD PUSH1 0x40 DUP4 ADD MSTORE PUSH1 0x64 DUP2 ADD CALLDATALOAD PUSH1 0x60 DUP4 ADD MSTORE PUSH1 0x84 ADD CALLDATALOAD PUSH1 0x80 DUP3 ADD MSTORE CALLER PUSH1 0xA0 DUP3 ADD MSTORE DUP2 SWAP1 SUB PUSH1 0xC0 ADD SWAP1 DUP3 CREATE DUP1 ISZERO PUSH3 0xC55 JUMPI PUSH1 0x1 PUSH1 0x1 PUSH1 0xA0 SHL SUB AND DUP2 PUSH1 0x20 PUSH1 0x1 PUSH1 0x1 PUSH1 0xA0 SHL SUB PUSH3 0x79A PUSH1 0x24 PUSH1 0x4 CALLDATALOAD ADD PUSH3 0x1515 JUMP JUMPDEST AND PUSH1 0x64 PUSH1 0x40 MLOAD DUP1 SWAP5 DUP2 SWAP4 PUSH4 0x23B872DD PUSH1 0xE0 SHL DUP4 MSTORE CALLER PUSH1 0x4 DUP5 ADD MSTORE DUP8 PUSH1 0x24 DUP5 ADD MSTORE PUSH1 0xA4 PUSH1 0x4 CALLDATALOAD ADD CALLDATALOAD PUSH1 0x44 DUP5 ADD MSTORE GAS CALL SWAP1 DUP2 ISZERO PUSH3 0xC4A JUMPI DUP4 SWAP2 PUSH3 0xC14 JUMPI JUMPDEST POP ISZERO PUSH3 0xBD0 JUMPI PUSH3 0x7F5 PUSH1 0xC4 PUSH1 0x4 CALLDATALOAD ADD PUSH1 0x4 CALLDATALOAD PUSH1 0x4 ADD PUSH3 0x154E JUMP JUMPDEST SWAP3 SWAP1 PUSH3 0x80D PUSH1 0xE4 PUSH1 0x4 CALLDATALOAD ADD PUSH1 0x4 CALLDATALOAD PUSH1 0x4 ADD PUSH3 0x154E JUMP JUMPDEST SWAP2 SWAP1 SWAP5 PUSH3 0x827 PUSH2 0x104 PUSH1 0x4 CALLDATALOAD ADD PUSH1 0x4 CALLDATALOAD PUSH1 0x4 ADD PUSH3 0x154E JUMP JUMPDEST SWAP1 PUSH3 0x83F PUSH2 0x124 PUSH1 0x4 CALLDATALOAD ADD PUSH1 0x4 CALLDATALOAD PUSH1 0x4 ADD PUSH3 0x154E JUMP JUMPDEST SWAP1 PUSH3 0x857 PUSH2 0x144 PUSH1 0x4 CALLDATALOAD ADD PUSH1 0x4 CALLDATALOAD PUSH1 0x4 ADD PUSH3 0x154E JUMP JUMPDEST SWAP2 SWAP1 SWAP3 PUSH3 0x871 PUSH2 0x164 PUSH1 0x4 CALLDATALOAD ADD PUSH1 0x4 CALLDATALOAD PUSH1 0x4 ADD PUSH3 0x154E JUMP JUMPDEST SWAP6 SWAP1 SWAP7 DUP13 EXTCODESIZE ISZERO PUSH3 0xBCC JUMPI DUP12 SWAP13 SWAP14 PUSH1 0x40 SWAP13 SWAP12 SWAP13 MLOAD SWAP13 DUP14 SWAP12 DUP13 SWAP12 PUSH32 0xA03FE6D700000000000000000000000000000000000000000000000000000000 DUP14 MSTORE PUSH1 0x4 DUP14 ADD PUSH1 0xC0 SWAP1 MSTORE PUSH1 0xC4 DUP14 ADD SWAP1 PUSH3 0x8C5 SWAP3 PUSH3 0x15DF JUMP JUMPDEST SWAP1 PUSH1 0x3 NOT DUP13 DUP4 SUB ADD PUSH1 0x24 DUP14 ADD MSTORE PUSH3 0x8DD SWAP3 PUSH3 0x15DF JUMP JUMPDEST SWAP1 PUSH1 0x3 NOT DUP11 DUP4 SUB ADD PUSH1 0x44 DUP12 ADD MSTORE PUSH3 0x8F5 SWAP3 PUSH3 0x15DF JUMP JUMPDEST SWAP1 PUSH1 0x3 NOT DUP9 DUP4 SUB ADD PUSH1 0x64 DUP10 ADD MSTORE PUSH3 0x90D SWAP3 PUSH3 0x15DF JUMP JUMPDEST SWAP1 PUSH1 0x3 NOT DUP7 DUP4 SUB ADD PUSH1 0x84 DUP8 ADD MSTORE PUSH3 0x925 SWAP3 PUSH3 0x15DF JUMP JUMPDEST SWAP1 PUSH1 0x3 NOT DUP5 DUP4 SUB ADD PUSH1 0xA4 DUP6 ADD MSTORE PUSH3 0x93D SWAP3 PUSH3 0x15DF JUMP JUMPDEST SUB DUP2 DUP4 DUP8 GAS CALL DUP1 ISZERO PUSH3 0xBC1 JUMPI PUSH3 0xB93 JUMPI JUMPDEST POP SWAP1 PUSH3 0x962 PUSH1 0x4 CALLDATALOAD PUSH1 0x4 ADD PUSH3 0x1515 JUMP JUMPDEST PUSH1 0x7 PUSH3 0x974 PUSH1 0x24 PUSH1 0x4 CALLDATALOAD ADD PUSH3 0x1515 JUMP JUMPDEST PUSH1 0x40 MLOAD SWAP3 PUSH3 0x983 DUP5 PUSH3 0x1584 JUMP JUMPDEST DUP5 DUP5 MSTORE PUSH1 0x1 PUSH1 0x1 PUSH1 0xA0 SHL SUB PUSH1 0x20 DUP6 ADD SWAP2 AND DUP2 MSTORE PUSH1 0x1 PUSH1 0x1 PUSH1 0xA0 SHL SUB PUSH1 0x40 DUP6 ADD SWAP3 AND DUP3 MSTORE PUSH1 0x60 DUP5 ADD SWAP1 PUSH1 0x44 PUSH1 0x4 CALLDATALOAD ADD CALLDATALOAD DUP3 MSTORE PUSH1 0x80 DUP6 ADD PUSH1 0x64 PUSH1 0x4 CALLDATALOAD ADD CALLDATALOAD DUP2 MSTORE PUSH1 0xA0 DUP7 ADD SWAP1 PUSH1 0x84 PUSH1 0x4 CALLDATALOAD ADD CALLDATALOAD DUP3 MSTORE PUSH1 0xC0 DUP8 ADD SWAP4 CALLER DUP6 MSTORE PUSH1 0xE0 DUP9 ADD SWAP6 TIMESTAMP DUP8 MSTORE DUP10 DUP12 MSTORE DUP8 PUSH1 0x20 MSTORE PUSH1 0x1 PUSH1 0x1 PUSH1 0xA0 SHL SUB PUSH1 0x40 DUP13 KECCAK256 SWAP10 MLOAD AND SWAP5 PUSH20 0xFFFFFFFFFFFFFFFFFFFFFFFFFFFFFFFFFFFFFFFF NOT SWAP6 DUP7 DUP12 SLOAD AND OR DUP11 SSTORE PUSH1 0x1 PUSH1 0x1 PUSH1 0xA0 SHL SUB PUSH1 0x1 DUP12 ADD SWAP2 MLOAD AND DUP7 DUP3 SLOAD AND OR SWAP1 SSTORE PUSH1 0x1 PUSH1 0x1 PUSH1 0xA0 SHL SUB PUSH1 0x2 DUP11 ADD SWAP2 MLOAD AND DUP6 DUP3 SLOAD AND OR SWAP1 SSTORE MLOAD PUSH1 0x3 DUP9 ADD SSTORE MLOAD PUSH1 0x4 DUP8 ADD SSTORE MLOAD PUSH1 0x5 DUP7 ADD SSTORE PUSH1 0x1 PUSH1 0x1 PUSH1 0xA0 SHL SUB PUSH1 0x6 DUP7 ADD SWAP3 MLOAD AND SWAP1 DUP3 SLOAD AND OR SWAP1 SSTORE MLOAD SWAP2 ADD SSTORE PUSH1 0x5 SLOAD PUSH9 0x10000000000000000 SWAP1 DUP2 DUP2 LT ISZERO PUSH3 0xB7D JUMPI DUP1 PUSH1 0x1 PUSH3 0xA95 SWAP3 ADD PUSH1 0x5 SSTORE PUSH3 0x141C JUMP JUMPDEST DUP2 SLOAD SWAP1 PUSH1 0x3 SHL SWAP1 PUSH1 0x1 PUSH1 0x1 PUSH1 0xA0 SHL SUB DUP6 DUP4 SHL SWAP3 SHL NOT AND OR SWAP1 SSTORE CALLER DUP4 MSTORE PUSH1 0x6 PUSH1 0x20 MSTORE PUSH1 0x40 DUP4 KECCAK256 SWAP3 DUP4 SLOAD SWAP2 DUP3 LT ISZERO PUSH3 0xB7D JUMPI PUSH3 0xADB DUP3 PUSH1 0x20 SWAP6 PUSH1 0x1 DUP1 SWAP6 ADD DUP2 SSTORE PUSH3 0x146A JUMP JUMPDEST DUP2 SLOAD SWAP1 PUSH1 0x3 SHL SWAP1 PUSH1 0x1 PUSH1 0x1 PUSH1 0xA0 SHL SUB DUP7 DUP4 SHL SWAP3 SHL NOT AND OR SWAP1 SSTORE PUSH3 0xB04 PUSH1 0x4 CALLDATALOAD PUSH1 0x4 ADD PUSH3 0x1515 JUMP JUMPDEST PUSH1 0x1 PUSH1 0x1 PUSH1 0xA0 SHL SUB PUSH3 0xB1C PUSH1 0x24 PUSH1 0x4 CALLDATALOAD ADD PUSH3 0x1515 JUMP JUMPDEST DUP2 PUSH1 0x40 MLOAD SWAP4 AND DUP4 MSTORE AND DUP6 DUP3 ADD MSTORE PUSH1 0x44 PUSH1 0x4 CALLDATALOAD ADD CALLDATALOAD PUSH1 0x40 DUP3 ADD MSTORE PUSH1 0x64 PUSH1 0x4 CALLDATALOAD ADD CALLDATALOAD PUSH1 0x60 DUP3 ADD MSTORE PUSH1 0x84 PUSH1 0x4 CALLDATALOAD ADD CALLDATALOAD PUSH1 0x80 DUP3 ADD MSTORE DUP4 PUSH32 0xA2EF419740FC832B1BB2DB408EBDFEBD59AB8ED8C47C92411EE60FDFB6CD5D12 PUSH1 0xA0 CALLER SWAP4 LOG3 SSTORE PUSH1 0x40 MLOAD SWAP1 DUP2 MSTORE RETURN JUMPDEST PUSH4 0x4E487B71 PUSH1 0xE0 SHL PUSH1 0x0 MSTORE PUSH1 0x41 PUSH1 0x4 MSTORE PUSH1 0x24 PUSH1 0x0 REVERT JUMPDEST PUSH8 0xFFFFFFFFFFFFFFFF DUP2 GT PUSH3 0xBAD JUMPI PUSH1 0x40 MSTORE CODESIZE PUSH3 0x950 JUMP JUMPDEST PUSH1 0x24 DUP3 PUSH4 0x4E487B71 PUSH1 0xE0 SHL DUP2 MSTORE PUSH1 0x41 PUSH1 0x4 MSTORE REVERT JUMPDEST PUSH1 0x40 MLOAD RETURNDATASIZE DUP5 DUP3 RETURNDATACOPY RETURNDATASIZE SWAP1 REVERT JUMPDEST DUP12 DUP1 REVERT JUMPDEST PUSH1 0x64 PUSH1 0x40 MLOAD PUSH3 0x461BCD PUSH1 0xE5 SHL DUP2 MSTORE PUSH1 0x20 PUSH1 0x4 DUP3 ADD MSTORE PUSH1 0x1C PUSH1 0x24 DUP3 ADD MSTORE PUSH32 0x52657761726420746F6B656E207472616E73666572206661696C656400000000 PUSH1 0x44 DUP3 ADD MSTORE REVERT JUMPDEST PUSH3 0xC3B SWAP2 POP PUSH1 0x20 RETURNDATASIZE PUSH1 0x20 GT PUSH3 0xC42 JUMPI JUMPDEST PUSH3 0xC32 DUP2 DUP4 PUSH3 0x15A2 JUMP JUMPDEST DUP2 ADD SWAP1 PUSH3 0x15C5 JUMP JUMPDEST CODESIZE PUSH3 0x7D8 JUMP JUMPDEST POP RETURNDATASIZE PUSH3 0xC26 JUMP JUMPDEST PUSH1 0x40 MLOAD RETURNDATASIZE DUP6 DUP3 RETURNDATACOPY RETURNDATASIZE SWAP1 REVERT JUMPDEST POP PUSH1 0x40 MLOAD SWAP1 RETURNDATASIZE SWAP1 DUP3 RETURNDATACOPY RETURNDATASIZE SWAP1 REVERT JUMPDEST PUSH1 0x24 DUP5 PUSH4 0x4E487B71 PUSH1 0xE0 SHL DUP2 MSTORE PUSH1 0x41 PUSH1 0x4 MSTORE REVERT JUMPDEST DUP1 PUSH1 0x20 PUSH1 0x1 PUSH1 0x1 PUSH1 0xA0 SHL SUB PUSH1 0x1 SLOAD AND PUSH1 0x64 PUSH1 0x2 SLOAD PUSH1 0x40 MLOAD SWAP5 DUP6 SWAP4 DUP5 SWAP3 PUSH4 0x23B872DD PUSH1 0xE0 SHL DUP5 MSTORE CALLER PUSH1 0x4 DUP6 ADD MSTORE PUSH2 0xDEAD PUSH1 0x24 DUP6 ADD MSTORE PUSH1 0x44 DUP5 ADD MSTORE GAS CALL SWAP1 DUP2 ISZERO PUSH3 0xBC1 JUMPI DUP3 SWAP2 PUSH3 0xD0B JUMPI JUMPDEST POP PUSH3 0x6DC JUMPI PUSH1 0x64 PUSH1 0x40 MLOAD PUSH3 0x461BCD PUSH1 0xE5 SHL DUP2 MSTORE PUSH1 0x20 PUSH1 0x4 DUP3 ADD MSTORE PUSH1 0x11 PUSH1 0x24 DUP3 ADD MSTORE PUSH32 0x4F52444552206275726E206661696C6564000000000000000000000000000000 PUSH1 0x44 DUP3 ADD MSTORE REVERT JUMPDEST PUSH3 0xD28 SWAP2 POP PUSH1 0x20 RETURNDATASIZE PUSH1 0x20 GT PUSH3 0xC42 JUMPI PUSH3 0xC32 DUP2 DUP4 PUSH3 0x15A2 JUMP JUMPDEST CODESIZE PUSH3 0xCC1 JUMP JUMPDEST PUSH1 0x64 PUSH1 0x40 MLOAD PUSH3 0x461BCD PUSH1 0xE5 SHL DUP2 MSTORE PUSH1 0x20 PUSH1 0x4 DUP3 ADD MSTORE PUSH1 0x1A PUSH1 0x24 DUP3 ADD MSTORE PUSH32 0x496E73756666696369656E742072657761726420616D6F756E74000000000000 PUSH1 0x44 DUP3 ADD MSTORE REVERT JUMPDEST PUSH1 0x24 DUP3 PUSH4 0x4E487B71 PUSH1 0xE0 SHL DUP2 MSTORE PUSH1 0x11 PUSH1 0x4 MSTORE REVERT JUMPDEST PUSH1 0x64 PUSH1 0x40 MLOAD PUSH3 0x461BCD PUSH1 0xE5 SHL DUP2 MSTORE PUSH1 0x20 PUSH1 0x4 DUP3 ADD MSTORE PUSH1 0x15 PUSH1 0x24 DUP3 ADD MSTORE PUSH32 0x5265776172642073796D626F6C20696E76616C69640000000000000000000000 PUSH1 0x44 DUP3 ADD MSTORE REVERT JUMPDEST POP PUSH1 0x14 PUSH3 0xDE5 PUSH2 0x124 PUSH1 0x4 CALLDATALOAD ADD PUSH1 0x4 CALLDATALOAD PUSH1 0x4 ADD PUSH3 0x154E JUMP JUMPDEST SWAP1 POP GT ISZERO PUSH3 0x686 JUMP JUMPDEST PUSH1 0x64 PUSH1 0x40 MLOAD PUSH3 0x461BCD PUSH1 0xE5 SHL DUP2 MSTORE PUSH1 0x20 PUSH1 0x4 DUP3 ADD MSTORE PUSH1 0x16 PUSH1 0x24 DUP3 ADD MSTORE PUSH32 0x5374616B696E672073796D626F6C20696E76616C696400000000000000000000 PUSH1 0x44 DUP3 ADD MSTORE REVERT JUMPDEST POP PUSH1 0x14 PUSH3 0xE4D PUSH2 0x104 PUSH1 0x4 CALLDATALOAD ADD PUSH1 0x4 CALLDATALOAD PUSH1 0x4 ADD PUSH3 0x154E JUMP JUMPDEST SWAP1 POP GT ISZERO PUSH3 0x65E JUMP JUMPDEST PUSH1 0x64 PUSH1 0x40 MLOAD PUSH3 0x461BCD PUSH1 0xE5 SHL DUP2 MSTORE PUSH1 0x20 PUSH1 0x4 DUP3 ADD MSTORE PUSH1 0x11 PUSH1 0x24 DUP3 ADD MSTORE PUSH32 0x506F6F6C206E616D6520696E76616C6964000000000000000000000000000000 PUSH1 0x44 DUP3 ADD MSTORE REVERT JUMPDEST POP PUSH1 0x64 PUSH3 0xEB4 PUSH1 0xC4 PUSH1 0x4 CALLDATALOAD ADD PUSH1 0x4 CALLDATALOAD PUSH1 0x4 ADD PUSH3 0x154E JUMP JUMPDEST SWAP1 POP GT ISZERO PUSH3 0x636 JUMP JUMPDEST PUSH1 0x64 PUSH1 0x40 MLOAD PUSH3 0x461BCD PUSH1 0xE5 SHL DUP2 MSTORE PUSH1 0x20 PUSH1 0x4 DUP3 ADD MSTORE PUSH1 0x1B PUSH1 0x24 DUP3 ADD MSTORE PUSH32 0x496E76616C696420746F74616C2072657761726420616D6F756E740000000000 PUSH1 0x44 DUP3 ADD MSTORE REVERT JUMPDEST PUSH1 0x64 PUSH1 0x40 MLOAD PUSH3 0x461BCD PUSH1 0xE5 SHL DUP2 MSTORE PUSH1 0x20 PUSH1 0x4 DUP3 ADD MSTORE PUSH1 0x13 PUSH1 0x24 DUP3 ADD MSTORE PUSH32 0x496E76616C696420726577617264207261746500000000000000000000000000 PUSH1 0x44 DUP3 ADD MSTORE REVERT JUMPDEST PUSH1 0x64 PUSH1 0x40 MLOAD PUSH3 0x461BCD PUSH1 0xE5 SHL DUP2 MSTORE PUSH1 0x20 PUSH1 0x4 DUP3 ADD MSTORE PUSH1 0x16 PUSH1 0x24 DUP3 ADD MSTORE PUSH32 0x506F6F6C206475726174696F6E20746F6F206C6F6E6700000000000000000000 PUSH1 0x44 DUP3 ADD MSTORE REVERT JUMPDEST PUSH1 0x64 PUSH1 0x40 MLOAD PUSH3 0x461BCD PUSH1 0xE5 SHL DUP2 MSTORE PUSH1 0x20 PUSH1 0x4 DUP3 ADD MSTORE PUSH1 0x17 PUSH1 0x24 DUP3 ADD MSTORE PUSH32 0x506F6F6C206475726174696F6E20746F6F2073686F7274000000000000000000 PUSH1 0x44 DUP3 ADD MSTORE REVERT JUMPDEST PUSH1 0x64 PUSH1 0x40 MLOAD PUSH3 0x461BCD PUSH1 0xE5 SHL DUP2 MSTORE PUSH1 0x20 PUSH1 0x4 DUP3 ADD MSTORE PUSH1 0x13 PUSH1 0x24 DUP3 ADD MSTORE PUSH32 0x496E76616C696420626C6F636B2072616E676500000000000000000000000000 PUSH1 0x44 DUP3 ADD MSTORE REVERT JUMPDEST PUSH1 0x64 PUSH1 0x40 MLOAD PUSH3 0x461BCD PUSH1 0xE5 SHL DUP2 MSTORE PUSH1 0x20 PUSH1 0x4 DUP3 ADD MSTORE PUSH1 0x1D PUSH1 0x24 DUP3 ADD MSTORE PUSH32 0x537461727420626C6F636B206D75737420626520696E20667574757265000000 PUSH1 0x44 DUP3 ADD MSTORE REVERT JUMPDEST PUSH1 0x84 PUSH1 0x40 MLOAD PUSH3 0x461BCD PUSH1 0xE5 SHL DUP2 MSTORE PUSH1 0x20 PUSH1 0x4 DUP3 ADD MSTORE PUSH1 0x24 DUP1 DUP3 ADD MSTORE PUSH32 0x52657761726420616D6F756E7420746F6F206C6F7720666F722073616D652074 PUSH1 0x44 DUP3 ADD MSTORE PUSH32 0x6F6B656E00000000000000000000000000000000000000000000000000000000 PUSH1 0x64 DUP3 ADD MSTORE REVERT JUMPDEST POP PUSH1 0x2 SLOAD PUSH1 0xA4 PUSH1 0x4 CALLDATALOAD ADD CALLDATALOAD GT PUSH3 0x58F JUMP JUMPDEST PUSH1 0x64 PUSH1 0x40 MLOAD PUSH3 0x461BCD PUSH1 0xE5 SHL DUP2 MSTORE PUSH1 0x20 PUSH1 0x4 DUP3 ADD MSTORE PUSH1 0x14 PUSH1 0x24 DUP3 ADD MSTORE PUSH32 0x496E76616C69642072657761726420746F6B656E000000000000000000000000 PUSH1 0x44 DUP3 ADD MSTORE REVERT JUMPDEST PUSH1 0x64 PUSH1 0x40 MLOAD PUSH3 0x461BCD PUSH1 0xE5 SHL DUP2 MSTORE PUSH1 0x20 PUSH1 0x4 DUP3 ADD MSTORE PUSH1 0x15 PUSH1 0x24 DUP3 ADD MSTORE PUSH32 0x496E76616C6964207374616B696E6720746F6B656E0000000000000000000000 PUSH1 0x44 DUP3 ADD MSTORE REVERT JUMPDEST PUSH1 0x64 PUSH1 0x40 MLOAD PUSH3 0x461BCD PUSH1 0xE5 SHL DUP2 MSTORE PUSH1 0x20 PUSH1 0x4 DUP3 ADD MSTORE PUSH1 0x1F PUSH1 0x24 DUP3 ADD MSTORE PUSH32 0x5265656E7472616E637947756172643A207265656E7472616E742063616C6C00 PUSH1 0x44 DUP3 ADD MSTORE REVERT JUMPDEST POP CALLVALUE PUSH3 0x143 JUMPI PUSH1 0x40 CALLDATASIZE PUSH1 0x3 NOT ADD SLT PUSH3 0x143 JUMPI PUSH3 0x11BB PUSH3 0x1400 JUMP JUMPDEST PUSH1 0x24 CALLDATALOAD SWAP1 DUP2 ISZERO ISZERO DUP1 SWAP3 SUB PUSH3 0x122C JUMPI PUSH1 0x20 PUSH32 0xF93F9A76C1BF3444D22400A00CB9FE990E6ABE9DBB333FDA48859CFEE864543D SWAP2 PUSH1 0x1 PUSH1 0x1 PUSH1 0xA0 SHL SUB SWAP1 PUSH3 0x1208 DUP3 PUSH1 0x4 SLOAD AND CALLER EQ PUSH3 0x14C9 JUMP JUMPDEST AND SWAP3 DUP4 DUP6 MSTORE PUSH1 0x3 DUP3 MSTORE PUSH1 0x40 DUP6 KECCAK256 PUSH1 0xFF NOT DUP2 SLOAD AND PUSH1 0xFF DUP4 AND OR SWAP1 SSTORE PUSH1 0x40 MLOAD SWAP1 DUP2 MSTORE LOG2 DUP1 RETURN JUMPDEST DUP3 DUP1 REVERT JUMPDEST POP CALLVALUE PUSH3 0x143 JUMPI DUP1 PUSH1 0x3 NOT CALLDATASIZE ADD SLT PUSH3 0x143 JUMPI PUSH1 0x20 PUSH1 0x40 MLOAD PUSH2 0xDEAD DUP2 MSTORE RETURN JUMPDEST POP CALLVALUE PUSH3 0x143 JUMPI DUP1 PUSH1 0x3 NOT CALLDATASIZE ADD SLT PUSH3 0x143 JUMPI PUSH1 0x20 PUSH1 0x2 SLOAD PUSH1 0x40 MLOAD SWAP1 DUP2 MSTORE RETURN JUMPDEST POP CALLVALUE PUSH3 0x143 JUMPI PUSH1 0x20 CALLDATASIZE PUSH1 0x3 NOT ADD SLT PUSH3 0x143 JUMPI PUSH1 0x4 CALLDATALOAD SWAP1 PUSH1 0x5 SLOAD DUP3 LT ISZERO PUSH3 0x143 JUMPI PUSH1 0x20 PUSH1 0x1 PUSH1 0x1 PUSH1 0xA0 SHL SUB PUSH3 0x133 DUP5 PUSH3 0x141C JUMP JUMPDEST POP CALLVALUE PUSH3 0x143 JUMPI PUSH1 0x20 CALLDATASIZE PUSH1 0x3 NOT ADD SLT PUSH3 0x143 JUMPI PUSH2 0x100 SWAP1 PUSH1 0x40 PUSH3 0x12CB PUSH3 0x1400 JUMP JUMPDEST SWAP2 DUP1 PUSH1 0xE0 DUP4 MLOAD PUSH3 0x12DC DUP2 PUSH3 0x1584 JUMP JUMPDEST DUP3 DUP2 MSTORE DUP3 PUSH1 0x20 DUP3 ADD MSTORE DUP3 DUP6 DUP3 ADD MSTORE DUP3 PUSH1 0x60 DUP3 ADD MSTORE DUP3 PUSH1 0x80 DUP3 ADD MSTORE DUP3 PUSH1 0xA0 DUP3 ADD MSTORE DUP3 PUSH1 0xC0 DUP3 ADD MSTORE ADD MSTORE PUSH1 0x1 PUSH1 0x1 PUSH1 0xA0 SHL SUB DUP1 SWAP4 AND DUP2 MSTORE PUSH1 0x7 PUSH1 0x20 MSTORE KECCAK256 SWAP1 PUSH1 0x40 MLOAD SWAP1 PUSH3 0x1327 DUP3 PUSH3 0x1584 JUMP JUMPDEST DUP1 DUP4 SLOAD AND SWAP3 DUP4 DUP4 MSTORE DUP2 PUSH1 0x1 DUP3 ADD SLOAD AND PUSH1 0x20 DUP5 ADD SWAP1 DUP2 MSTORE DUP3 PUSH1 0x2 DUP4 ADD SLOAD AND PUSH1 0x40 DUP6 ADD SWAP1 DUP2 MSTORE PUSH1 0x3 DUP4 ADD SLOAD PUSH1 0x60 DUP7 ADD SWAP1 DUP2 MSTORE DUP5 PUSH1 0x4 DUP6 ADD SLOAD SWAP3 PUSH1 0x80 DUP9 ADD SWAP4 DUP5 MSTORE DUP2 PUSH1 0x5 DUP8 ADD SLOAD SWAP6 PUSH1 0xA0 DUP11 ADD SWAP7 DUP8 MSTORE PUSH1 0xE0 PUSH1 0x7 DUP4 PUSH1 0x6 DUP12 ADD SLOAD AND SWAP10 PUSH1 0xC0 DUP14 ADD SWAP11 DUP12 MSTORE ADD SLOAD SWAP11 ADD SWAP10 DUP11 MSTORE PUSH1 0x40 MLOAD SWAP11 DUP12 MSTORE MLOAD AND PUSH1 0x20 DUP11 ADD MSTORE MLOAD AND PUSH1 0x40 DUP9 ADD MSTORE MLOAD PUSH1 0x60 DUP8 ADD MSTORE MLOAD PUSH1 0x80 DUP7 ADD MSTORE MLOAD PUSH1 0xA0 DUP6 ADD MSTORE MLOAD AND PUSH1 0xC0 DUP4 ADD MSTORE MLOAD PUSH1 0xE0 DUP3 ADD MSTORE RETURN JUMPDEST SWAP1 POP CALLVALUE PUSH3 0x2D5 JUMPI PUSH1 0x20 CALLDATASIZE PUSH1 0x3 NOT ADD SLT PUSH3 0x2D5 JUMPI PUSH1 0xFF PUSH1 0x40 PUSH1 0x20 SWAP4 PUSH1 0x1 PUSH1 0x1 PUSH1 0xA0 SHL SUB PUSH3 0x13F0 PUSH3 0x1400 JUMP JUMPDEST AND DUP2 MSTORE PUSH1 0x3 DUP6 MSTORE KECCAK256 SLOAD AND ISZERO ISZERO DUP2 MSTORE RETURN JUMPDEST PUSH1 0x4 CALLDATALOAD SWAP1 PUSH1 0x1 PUSH1 0x1 PUSH1 0xA0 SHL SUB DUP3 AND DUP3 SUB PUSH3 0x1417 JUMPI JUMP JUMPDEST PUSH1 0x0 DUP1 REVERT JUMPDEST PUSH1 0x5 SLOAD DUP2 LT ISZERO PUSH3 0x1454 JUMPI PUSH1 0x5 PUSH1 0x0 MSTORE PUSH32 0x36B6384B5ECA791C62761152D0C79BB0604C104A5FB6F4EB0703F3154BB3DB0 ADD SWAP1 PUSH1 0x0 SWAP1 JUMP JUMPDEST PUSH4 0x4E487B71 PUSH1 0xE0 SHL PUSH1 0x0 MSTORE PUSH1 0x32 PUSH1 0x4 MSTORE PUSH1 0x24 PUSH1 0x0 REVERT JUMPDEST DUP1 SLOAD DUP3 LT ISZERO PUSH3 0x1454 JUMPI PUSH1 0x0 MSTORE PUSH1 0x20 PUSH1 0x0 KECCAK256 ADD SWAP1 PUSH1 0x0 SWAP1 JUMP JUMPDEST PUSH1 0x20 SWAP1 DUP2 PUSH1 0x40 DUP2 DUP4 ADD SWAP3 DUP3 DUP2 MSTORE DUP6 MLOAD DUP1 SWAP5 MSTORE ADD SWAP4 ADD SWAP2 PUSH1 0x0 JUMPDEST DUP3 DUP2 LT PUSH3 0x14AB JUMPI POP POP POP POP SWAP1 JUMP JUMPDEST DUP4 MLOAD PUSH1 0x1 PUSH1 0x1 PUSH1 0xA0 SHL SUB AND DUP6 MSTORE SWAP4 DUP2 ADD SWAP4 SWAP3 DUP2 ADD SWAP3 PUSH1 0x1 ADD PUSH3 0x149C JUMP JUMPDEST ISZERO PUSH3 0x14D1 JUMPI JUMP JUMPDEST PUSH1 0x64 PUSH1 0x40 MLOAD PUSH3 0x461BCD PUSH1 0xE5 SHL DUP2 MSTORE PUSH1 0x20 PUSH1 0x4 DUP3 ADD MSTORE PUSH1 0xA PUSH1 0x24 DUP3 ADD MSTORE PUSH32 0x4F6E6C792061646D696E00000000000000000000000000000000000000000000 PUSH1 0x44 DUP3 ADD MSTORE REVERT JUMPDEST CALLDATALOAD PUSH1 0x1 PUSH1 0x1 PUSH1 0xA0 SHL SUB DUP2 AND DUP2 SUB PUSH3 0x1417 JUMPI SWAP1 JUMP JUMPDEST SWAP2 SWAP1 DUP3 SUB SWAP2 DUP3 GT PUSH3 0x1538 JUMPI JUMP JUMPDEST PUSH4 0x4E487B71 PUSH1 0xE0 SHL PUSH1 0x0 MSTORE PUSH1 0x11 PUSH1 0x4 MSTORE PUSH1 0x24 PUSH1 0x0 REVERT JUMPDEST SWAP1 CALLDATALOAD SWAP1 PUSH1 0x1E NOT DUP2 CALLDATASIZE SUB ADD DUP3 SLT ISZERO PUSH3 0x1417 JUMPI ADD DUP1 CALLDATALOAD SWAP1 PUSH8 0xFFFFFFFFFFFFFFFF DUP3 GT PUSH3 0x1417 JUMPI PUSH1 0x20 ADD SWAP2 DUP2 CALLDATASIZE SUB DUP4 SGT PUSH3 0x1417 JUMPI JUMP JUMPDEST PUSH2 0x100 DUP2 ADD SWAP1 DUP2 LT PUSH8 0xFFFFFFFFFFFFFFFF DUP3 GT OR PUSH3 0xB7D JUMPI PUSH1 0x40 MSTORE JUMP JUMPDEST SWAP1 PUSH1 0x1F DUP1 NOT SWAP2 ADD AND DUP2 ADD SWAP1 DUP2 LT PUSH8 0xFFFFFFFFFFFFFFFF DUP3 GT OR PUSH3 0xB7D JUMPI PUSH1 0x40 MSTORE JUMP JUMPDEST SWAP1 DUP2 PUSH1 0x20 SWAP2 SUB SLT PUSH3 0x1417 JUMPI MLOAD DUP1 ISZERO ISZERO DUP2 SUB PUSH3 0x1417 JUMPI SWAP1 JUMP JUMPDEST SWAP1 DUP1 PUSH1 0x20 SWAP4 SWAP3 DUP2 DUP5 MSTORE DUP5 DUP5 ADD CALLDATACOPY PUSH1 0x0 DUP3 DUP3 ADD DUP5 ADD MSTORE PUSH1 0x1F ADD PUSH1 0x1F NOT AND ADD ADD SWAP1 JUMP JUMPDEST PUSH8 0xFFFFFFFFFFFFFFFF DUP2 GT PUSH3 0xB7D JUMPI PUSH1 0x5 SHL PUSH1 0x20 ADD SWAP1 JUMP JUMPDEST SWAP2 SWAP1 DUP3 ADD DUP1 SWAP3 GT PUSH3 0x1538 JUMPI JUMP JUMPDEST SWAP1 PUSH1 0x5 SWAP1 DUP2 SLOAD SWAP1 DUP2 DUP5 LT ISZERO PUSH3 0x16F8 JUMPI PUSH3 0x165A SWAP2 PUSH3 0x1649 DUP6 SWAP3 DUP4 PUSH3 0x1619 JUMP JUMPDEST SWAP1 DUP1 DUP3 GT PUSH3 0x16EF JUMPI JUMPDEST POP PUSH3 0x152A JUMP JUMPDEST SWAP1 PUSH3 0x1666 DUP3 PUSH3 0x1600 JUMP JUMPDEST SWAP3 PUSH3 0x1676 PUSH1 0x40 MLOAD SWAP5 DUP6 PUSH3 0x15A2 JUMP JUMPDEST DUP3 DUP5 MSTORE PUSH1 0x1F NOT PUSH3 0x1687 DUP5 PUSH3 0x1600 JUMP JUMPDEST ADD SWAP1 PUSH1 0x20 SWAP2 CALLDATASIZE DUP4 DUP8 ADD CALLDATACOPY PUSH1 0x0 JUMPDEST DUP5 DUP2 LT PUSH3 0x16A4 JUMPI POP POP POP POP POP SWAP1 JUMP JUMPDEST PUSH3 0x16BA PUSH3 0x16B4 DUP3 DUP5 PUSH3 0x1619 JUMP JUMPDEST PUSH3 0x141C JUMP JUMPDEST SWAP1 SLOAD DUP8 MLOAD DUP4 LT ISZERO PUSH3 0x1454 JUMPI PUSH1 0x1 PUSH1 0x1 PUSH1 0xA0 SHL SUB SWAP2 PUSH1 0x3 SHL SHR AND DUP4 DUP3 DUP7 SHL DUP9 ADD ADD MSTORE PUSH1 0x0 NOT DUP2 EQ PUSH3 0x1538 JUMPI PUSH1 0x1 ADD PUSH3 0x1694 JUMP JUMPDEST SWAP1 POP CODESIZE PUSH3 0x1653 JUMP JUMPDEST POP POP POP POP PUSH1 0x40 MLOAD PUSH1 0x20 DUP2 ADD DUP2 DUP2 LT PUSH8 0xFFFFFFFFFFFFFFFF DUP3 GT OR PUSH3 0xB7D JUMPI PUSH1 0x40 MSTORE PUSH1 0x0 DUP2 MSTORE PUSH1 0x0 CALLDATASIZE DUP2 CALLDATACOPY SWAP1 JUMP INVALID PUSH1 0x80 PUSH1 0x40 SWAP1 DUP1 DUP3 MSTORE CALLVALUE PUSH3 0x45B JUMPI PUSH1 0xC0 DUP2 PUSH3 0x1EF3 DUP1 CODESIZE SUB DUP1 SWAP2 PUSH3 0x25 DUP3 DUP6 PUSH3 0x460 JUMP JUMPDEST DUP4 CODECOPY DUP2 ADD SUB SLT PUSH3 0x45B JUMPI PUSH3 0x3B DUP2 PUSH3 0x49A JUMP JUMPDEST PUSH1 0x20 PUSH3 0x4A DUP2 DUP5 ADD PUSH3 0x49A JUMP JUMPDEST SWAP3 DUP5 DUP2 ADD MLOAD PUSH1 0x60 DUP3 ADD MLOAD SWAP3 PUSH3 0x68 PUSH1 0xA0 PUSH1 0x80 DUP6 ADD MLOAD SWAP5 ADD PUSH3 0x49A JUMP JUMPDEST SWAP1 PUSH1 0x0 SWAP6 PUSH1 0x1 DUP8 SSTORE PUSH1 0x1 DUP1 PUSH1 0xA0 SHL SUB DUP1 SWAP2 AND SWAP8 DUP9 ISZERO PUSH3 0x417 JUMPI DUP2 AND SWAP3 DUP4 ISZERO PUSH3 0x3D3 JUMPI DUP6 DUP8 LT ISZERO PUSH3 0x38F JUMPI DUP5 ISZERO PUSH3 0x34B JUMPI AND SWAP6 DUP7 ISZERO PUSH3 0x315 JUMPI NUMBER DUP7 GT ISZERO PUSH3 0x2D1 JUMPI DUP6 DUP6 SUB DUP6 DUP2 GT PUSH3 0x2BD JUMPI PUSH1 0x64 GT PUSH3 0x279 JUMPI DUP9 MLOAD PUSH4 0x313CE567 PUSH1 0xE0 SHL DUP1 DUP3 MSTORE DUP4 DUP3 PUSH1 0x4 DUP2 DUP14 GAS STATICCALL SWAP2 DUP3 ISZERO PUSH3 0x26F JUMPI DUP4 SWAP3 PUSH3 0x24B JUMPI JUMPDEST POP DUP11 MLOAD SWAP1 DUP2 MSTORE DUP4 DUP2 PUSH1 0x4 DUP2 DUP9 GAS STATICCALL SWAP3 DUP4 ISZERO PUSH3 0x240 JUMPI SWAP3 PUSH3 0x204 JUMPI JUMPDEST POP PUSH1 0xFF PUSH1 0x12 SWAP2 AND SUB PUSH3 0x1B4 JUMPI PUSH1 0xFF PUSH1 0x12 SWAP2 AND SUB PUSH3 0x166 JUMPI POP PUSH1 0x1 DUP1 PUSH1 0xA0 SHL SUB NOT SWAP6 DUP7 PUSH1 0x1 SLOAD AND OR PUSH1 0x1 SSTORE DUP6 PUSH1 0x2 SLOAD AND OR PUSH1 0x2 SSTORE PUSH1 0x5 SSTORE DUP2 PUSH1 0x3 SSTORE PUSH1 0x4 SSTORE PUSH1 0x6 SSTORE DUP2 PUSH1 0xB SLOAD AND OR PUSH1 0xB SSTORE CALLER SWAP1 PUSH1 0xC SLOAD AND OR PUSH1 0xC SSTORE MLOAD PUSH2 0x1A28 SWAP1 DUP2 PUSH3 0x4CB DUP3 CODECOPY RETURN JUMPDEST PUSH1 0x84 SWAP1 DUP9 MLOAD SWAP1 PUSH3 0x461BCD PUSH1 0xE5 SHL DUP3 MSTORE PUSH1 0x4 DUP3 ADD MSTORE PUSH1 0x22 PUSH1 0x24 DUP3 ADD MSTORE PUSH32 0x52657761726420746F6B656E206D757374206861766520313820646563696D61 PUSH1 0x44 DUP3 ADD MSTORE PUSH2 0x6C73 PUSH1 0xF0 SHL PUSH1 0x64 DUP3 ADD MSTORE REVERT JUMPDEST DUP9 MLOAD PUSH3 0x461BCD PUSH1 0xE5 SHL DUP2 MSTORE PUSH1 0x4 DUP2 ADD DUP4 SWAP1 MSTORE PUSH1 0x23 PUSH1 0x24 DUP3 ADD MSTORE PUSH32 0x5374616B696E6720746F6B656E206D757374206861766520313820646563696D PUSH1 0x44 DUP3 ADD MSTORE PUSH3 0x616C73 PUSH1 0xE8 SHL PUSH1 0x64 DUP3 ADD MSTORE PUSH1 0x84 SWAP1 REVERT JUMPDEST PUSH1 0x12 SWAP2 SWAP3 POP PUSH3 0x22F PUSH1 0xFF SWAP2 DUP6 RETURNDATASIZE DUP8 GT PUSH3 0x238 JUMPI JUMPDEST PUSH3 0x226 DUP2 DUP4 PUSH3 0x460 JUMP JUMPDEST DUP2 ADD SWAP1 PUSH3 0x4AF JUMP JUMPDEST SWAP3 SWAP2 POP PUSH3 0x103 JUMP JUMPDEST POP RETURNDATASIZE PUSH3 0x21A JUMP JUMPDEST DUP12 MLOAD SWAP1 RETURNDATASIZE SWAP1 DUP3 RETURNDATACOPY RETURNDATASIZE SWAP1 REVERT JUMPDEST PUSH3 0x267 SWAP2 SWAP3 POP DUP5 RETURNDATASIZE DUP7 GT PUSH3 0x238 JUMPI PUSH3 0x226 DUP2 DUP4 PUSH3 0x460 JUMP JUMPDEST SWAP1 CODESIZE PUSH3 0xE6 JUMP JUMPDEST DUP12 MLOAD RETURNDATASIZE DUP6 DUP3 RETURNDATACOPY RETURNDATASIZE SWAP1 REVERT JUMPDEST DUP9 MLOAD PUSH3 0x461BCD PUSH1 0xE5 SHL DUP2 MSTORE PUSH1 0x4 DUP2 ADD DUP4 SWAP1 MSTORE PUSH1 0x17 PUSH1 0x24 DUP3 ADD MSTORE PUSH32 0x506F6F6C206475726174696F6E20746F6F2073686F7274000000000000000000 PUSH1 0x44 DUP3 ADD MSTORE PUSH1 0x64 SWAP1 REVERT JUMPDEST PUSH4 0x4E487B71 PUSH1 0xE0 SHL DUP3 MSTORE PUSH1 0x11 PUSH1 0x4 MSTORE PUSH1 0x24 DUP3 REVERT JUMPDEST DUP9 MLOAD PUSH3 0x461BCD PUSH1 0xE5 SHL DUP2 MSTORE PUSH1 0x4 DUP2 ADD DUP4 SWAP1 MSTORE PUSH1 0x1D PUSH1 0x24 DUP3 ADD MSTORE PUSH32 0x537461727420626C6F636B206D75737420626520696E20667574757265000000 PUSH1 0x44 DUP3 ADD MSTORE PUSH1 0x64 SWAP1 REVERT JUMPDEST DUP9 MLOAD PUSH3 0x461BCD PUSH1 0xE5 SHL DUP2 MSTORE PUSH1 0x4 DUP2 ADD DUP4 SWAP1 MSTORE PUSH1 0xF PUSH1 0x24 DUP3 ADD MSTORE PUSH15 0x24B73B30B634B21031B932B0BA37B9 PUSH1 0x89 SHL PUSH1 0x44 DUP3 ADD MSTORE PUSH1 0x64 SWAP1 REVERT JUMPDEST DUP10 MLOAD PUSH3 0x461BCD PUSH1 0xE5 SHL DUP2 MSTORE PUSH1 0x4 DUP2 ADD DUP5 SWAP1 MSTORE PUSH1 0x13 PUSH1 0x24 DUP3 ADD MSTORE PUSH32 0x496E76616C696420726577617264207261746500000000000000000000000000 PUSH1 0x44 DUP3 ADD MSTORE PUSH1 0x64 SWAP1 REVERT JUMPDEST DUP10 MLOAD PUSH3 0x461BCD PUSH1 0xE5 SHL DUP2 MSTORE PUSH1 0x4 DUP2 ADD DUP5 SWAP1 MSTORE PUSH1 0x13 PUSH1 0x24 DUP3 ADD MSTORE PUSH32 0x496E76616C696420626C6F636B2072616E676500000000000000000000000000 PUSH1 0x44 DUP3 ADD MSTORE PUSH1 0x64 SWAP1 REVERT JUMPDEST DUP10 MLOAD PUSH3 0x461BCD PUSH1 0xE5 SHL DUP2 MSTORE PUSH1 0x4 DUP2 ADD DUP5 SWAP1 MSTORE PUSH1 0x14 PUSH1 0x24 DUP3 ADD MSTORE PUSH32 0x496E76616C69642072657761726420746F6B656E000000000000000000000000 PUSH1 0x44 DUP3 ADD MSTORE PUSH1 0x64 SWAP1 REVERT JUMPDEST DUP10 MLOAD PUSH3 0x461BCD PUSH1 0xE5 SHL DUP2 MSTORE PUSH1 0x4 DUP2 ADD DUP5 SWAP1 MSTORE PUSH1 0x15 PUSH1 0x24 DUP3 ADD MSTORE PUSH32 0x496E76616C6964207374616B696E6720746F6B656E0000000000000000000000 PUSH1 0x44 DUP3 ADD MSTORE PUSH1 0x64 SWAP1 REVERT JUMPDEST PUSH1 0x0 DUP1 REVERT JUMPDEST PUSH1 0x1F SWAP1 SWAP2 ADD PUSH1 0x1F NOT AND DUP2 ADD SWAP1 PUSH1 0x1 PUSH1 0x1 PUSH1 0x40 SHL SUB DUP3 GT SWAP1 DUP3 LT OR PUSH3 0x484 JUMPI PUSH1 0x40 MSTORE JUMP JUMPDEST PUSH4 0x4E487B71 PUSH1 0xE0 SHL PUSH1 0x0 MSTORE PUSH1 0x41 PUSH1 0x4 MSTORE PUSH1 0x24 PUSH1 0x0 REVERT JUMPDEST MLOAD SWAP1 PUSH1 0x1 PUSH1 0x1 PUSH1 0xA0 SHL SUB DUP3 AND DUP3 SUB PUSH3 0x45B JUMPI JUMP JUMPDEST SWAP1 DUP2 PUSH1 0x20 SWAP2 SUB SLT PUSH3 0x45B JUMPI MLOAD PUSH1 0xFF DUP2 AND DUP2 SUB PUSH3 0x45B JUMPI SWAP1 JUMP INVALID PUSH1 0x80 DUP1 PUSH1 0x40 MSTORE PUSH1 0x4 CALLDATASIZE LT ISZERO PUSH2 0x13 JUMPI PUSH1 0x0 DUP1 REVERT JUMPDEST PUSH1 0x0 CALLDATALOAD PUSH1 0xE0 SHR SWAP1 DUP2 PUSH4 0x2D05D3F EQ PUSH2 0x169E JUMPI POP DUP1 PUSH4 0x83C6323 EQ PUSH2 0x1680 JUMPI DUP1 PUSH4 0x1959A002 EQ PUSH2 0x162C JUMPI DUP1 PUSH4 0x2E17DE78 EQ PUSH2 0x1482 JUMPI DUP1 PUSH4 0x48CD4CB1 EQ PUSH2 0x1464 JUMPI DUP1 PUSH4 0x60246C88 EQ PUSH2 0x13FA JUMPI DUP1 PUSH4 0x72F702F3 EQ PUSH2 0x13D3 JUMPI DUP1 PUSH4 0x817B1CD2 EQ PUSH2 0x13B5 JUMPI DUP1 PUSH4 0x83BB3877 EQ PUSH2 0x1397 JUMPI DUP1 PUSH4 0x8AE39CAC EQ PUSH2 0x1379 JUMPI DUP1 PUSH4 0x8B840F36 EQ PUSH2 0x11F2 JUMPI DUP1 PUSH4 0x8DBB1E3A EQ PUSH2 0x11D1 JUMPI DUP1 PUSH4 0x939D6237 EQ PUSH2 0x11B3 JUMPI DUP1 PUSH4 0xA03FE6D7 EQ PUSH2 0x87D JUMPI DUP1 PUSH4 0xA694FC3A EQ PUSH2 0x65E JUMPI DUP1 PUSH4 0xA9F8D181 EQ PUSH2 0x640 JUMPI DUP1 PUSH4 0xB88A802F EQ PUSH2 0x422 JUMPI DUP1 PUSH4 0xC45A0155 EQ PUSH2 0x3FB JUMPI DUP1 PUSH4 0xDB2E21BC EQ PUSH2 0x2AC JUMPI DUP1 PUSH4 0xE3161DDD EQ PUSH2 0x291 JUMPI DUP1 PUSH4 0xF40F0F52 EQ PUSH2 0x13D JUMPI PUSH4 0xF7C618C1 EQ PUSH2 0x111 JUMPI PUSH1 0x0 DUP1 REVERT JUMPDEST CALLVALUE PUSH2 0x138 JUMPI PUSH1 0x0 CALLDATASIZE PUSH1 0x3 NOT ADD SLT PUSH2 0x138 JUMPI PUSH1 0x20 PUSH1 0x1 PUSH1 0x1 PUSH1 0xA0 SHL SUB PUSH1 0x2 SLOAD AND PUSH1 0x40 MLOAD SWAP1 DUP2 MSTORE RETURN JUMPDEST PUSH1 0x0 DUP1 REVERT JUMPDEST CALLVALUE PUSH2 0x138 JUMPI PUSH1 0x20 CALLDATASIZE PUSH1 0x3 NOT ADD SLT PUSH2 0x138 JUMPI PUSH1 0x4 CALLDATALOAD PUSH1 0x1 PUSH1 0x1 PUSH1 0xA0 SHL SUB DUP2 AND DUP1 SWAP2 SUB PUSH2 0x138 JUMPI PUSH1 0x0 MSTORE PUSH1 0xA PUSH1 0x20 MSTORE PUSH1 0x40 PUSH1 0x0 KECCAK256 PUSH1 0x40 MLOAD PUSH1 0x60 DUP2 ADD DUP2 DUP2 LT PUSH8 0xFFFFFFFFFFFFFFFF DUP3 GT OR PUSH2 0x27B JUMPI PUSH1 0x40 MSTORE DUP2 SLOAD DUP2 MSTORE PUSH1 0x2 PUSH1 0x1 DUP4 ADD SLOAD SWAP3 PUSH1 0x20 DUP4 ADD SWAP4 DUP5 MSTORE ADD SLOAD SWAP1 PUSH1 0x40 DUP2 ADD SWAP2 DUP3 MSTORE PUSH1 0x7 SLOAD SWAP1 PUSH1 0x6 SLOAD DUP1 NUMBER GT DUP1 PUSH2 0x270 JUMPI JUMPDEST PUSH2 0x1F2 JUMPI JUMPDEST PUSH1 0x20 PUSH2 0x1EA DUP6 PUSH2 0x1E2 DUP9 PUSH5 0xE8D4A51000 PUSH2 0x1D9 DUP10 DUP10 MLOAD PUSH2 0x176A JUMP JUMPDEST DIV SWAP1 MLOAD SWAP1 PUSH2 0x1837 JUMP JUMPDEST SWAP1 MLOAD SWAP1 PUSH2 0x179D JUMP JUMPDEST PUSH1 0x40 MLOAD SWAP1 DUP2 MSTORE RETURN JUMPDEST PUSH2 0x203 PUSH2 0x20C SWAP2 SWAP5 SWAP4 SWAP5 NUMBER SWAP1 PUSH2 0x191E JUMP JUMPDEST PUSH1 0x5 SLOAD SWAP1 PUSH2 0x176A JUMP JUMPDEST SWAP4 PUSH5 0xE8D4A51000 SWAP5 DUP6 DUP2 MUL SWAP6 DUP2 DUP8 DIV EQ SWAP1 ISZERO OR ISZERO PUSH2 0x25A JUMPI PUSH5 0xE8D4A51000 PUSH2 0x1D9 PUSH2 0x1E2 SWAP4 PUSH2 0x24D PUSH2 0x1EA SWAP8 PUSH2 0x247 PUSH1 0x20 SWAP11 PUSH1 0x8 SLOAD SWAP1 PUSH2 0x177D JUMP JUMPDEST SWAP1 PUSH2 0x179D JUMP JUMPDEST SWAP6 SWAP7 POP SWAP4 POP POP POP SWAP4 PUSH2 0x1BE JUMP JUMPDEST PUSH4 0x4E487B71 PUSH1 0xE0 SHL PUSH1 0x0 MSTORE PUSH1 0x11 PUSH1 0x4 MSTORE PUSH1 0x24 PUSH1 0x0 REVERT JUMPDEST POP PUSH1 0x8 SLOAD ISZERO ISZERO PUSH2 0x1B9 JUMP JUMPDEST PUSH4 0x4E487B71 PUSH1 0xE0 SHL PUSH1 0x0 MSTORE PUSH1 0x41 PUSH1 0x4 MSTORE PUSH1 0x24 PUSH1 0x0 REVERT JUMPDEST CALLVALUE PUSH2 0x138 JUMPI PUSH1 0x0 CALLDATASIZE PUSH1 0x3 NOT ADD SLT PUSH2 0x138 JUMPI PUSH2 0x2AA PUSH2 0x17AA JUMP JUMPDEST STOP JUMPDEST CALLVALUE PUSH2 0x138 JUMPI PUSH1 0x0 CALLDATASIZE PUSH1 0x3 NOT ADD SLT PUSH2 0x138 JUMPI PUSH2 0x2C5 PUSH2 0x18C9 JUMP JUMPDEST CALLER PUSH1 0x0 MSTORE PUSH1 0x20 PUSH1 0xA DUP2 MSTORE PUSH1 0x40 PUSH1 0x0 KECCAK256 SWAP1 DUP2 SLOAD SWAP2 DUP3 ISZERO PUSH2 0x3B7 JUMPI PUSH1 0x2 DUP2 PUSH1 0x0 DUP1 SWAP4 SSTORE DUP3 PUSH1 0x1 DUP3 ADD SSTORE ADD SSTORE PUSH2 0x2FA DUP3 PUSH1 0x8 SLOAD PUSH2 0x1837 JUMP JUMPDEST PUSH1 0x8 SSTORE PUSH1 0x1 SLOAD PUSH1 0x40 MLOAD PUSH4 0xA9059CBB PUSH1 0xE0 SHL DUP2 MSTORE CALLER PUSH1 0x4 DUP3 ADD MSTORE PUSH1 0x24 DUP2 ADD DUP5 SWAP1 MSTORE SWAP2 SWAP1 DUP2 SWAP1 DUP4 SWAP1 PUSH1 0x44 SWAP1 DUP3 SWAP1 PUSH1 0x0 SWAP1 PUSH1 0x1 PUSH1 0x1 PUSH1 0xA0 SHL SUB AND GAS CALL SWAP2 DUP3 ISZERO PUSH2 0x3AB JUMPI PUSH32 0x5FAFA99D0643513820BE26656B45130B01E1C03062E1266BF36F88CBD3BD9695 SWAP3 PUSH2 0x36E SWAP2 PUSH1 0x0 SWAP2 PUSH2 0x37E JUMPI JUMPDEST POP PUSH2 0x187E JUMP JUMPDEST PUSH1 0x40 MLOAD SWAP3 DUP4 MSTORE CALLER SWAP3 LOG2 PUSH1 0x1 PUSH1 0x0 SSTORE STOP JUMPDEST PUSH2 0x39E SWAP2 POP DUP4 RETURNDATASIZE DUP6 GT PUSH2 0x3A4 JUMPI JUMPDEST PUSH2 0x396 DUP2 DUP4 PUSH2 0x1844 JUMP JUMPDEST DUP2 ADD SWAP1 PUSH2 0x1866 JUMP JUMPDEST DUP6 PUSH2 0x368 JUMP JUMPDEST POP RETURNDATASIZE PUSH2 0x38C JUMP JUMPDEST PUSH1 0x40 MLOAD RETURNDATASIZE PUSH1 0x0 DUP3 RETURNDATACOPY RETURNDATASIZE SWAP1 REVERT JUMPDEST PUSH1 0x64 DUP3 PUSH1 0x40 MLOAD SWAP1 PUSH3 0x461BCD PUSH1 0xE5 SHL DUP3 MSTORE PUSH1 0x4 DUP3 ADD MSTORE PUSH1 0x8 PUSH1 0x24 DUP3 ADD MSTORE PUSH32 0x4E6F207374616B65000000000000000000000000000000000000000000000000 PUSH1 0x44 DUP3 ADD MSTORE REVERT JUMPDEST CALLVALUE PUSH2 0x138 JUMPI PUSH1 0x0 CALLDATASIZE PUSH1 0x3 NOT ADD SLT PUSH2 0x138 JUMPI PUSH1 0x20 PUSH1 0x1 PUSH1 0x1 PUSH1 0xA0 SHL SUB PUSH1 0xC SLOAD AND PUSH1 0x40 MLOAD SWAP1 DUP2 MSTORE RETURN JUMPDEST CALLVALUE PUSH2 0x138 JUMPI PUSH1 0x0 CALLDATASIZE PUSH1 0x3 NOT ADD SLT PUSH2 0x138 JUMPI PUSH2 0x43B PUSH2 0x18C9 JUMP JUMPDEST CALLER PUSH1 0x0 MSTORE PUSH1 0x20 PUSH1 0xA DUP2 MSTORE PUSH1 0x40 PUSH1 0x0 KECCAK256 SWAP1 PUSH2 0x453 PUSH2 0x17AA JUMP JUMPDEST DUP2 SLOAD SWAP2 PUSH5 0xE8D4A51000 DUP1 PUSH2 0x469 PUSH1 0x7 SLOAD DUP7 PUSH2 0x176A JUMP JUMPDEST DIV SWAP1 PUSH2 0x48A PUSH1 0x2 PUSH2 0x480 PUSH1 0x1 DUP7 ADD SWAP5 DUP6 SLOAD SWAP1 PUSH2 0x1837 JUMP JUMPDEST SWAP5 ADD SWAP4 DUP5 SLOAD PUSH2 0x179D JUMP JUMPDEST SWAP5 DUP6 ISZERO PUSH2 0x5FC JUMPI PUSH1 0x1 PUSH1 0x1 PUSH1 0xA0 SHL SUB SWAP4 DUP5 PUSH1 0x2 SLOAD AND PUSH1 0x40 MLOAD SWAP1 PUSH32 0x70A0823100000000000000000000000000000000000000000000000000000000 DUP3 MSTORE ADDRESS PUSH1 0x4 DUP4 ADD MSTORE DUP8 DUP3 PUSH1 0x24 DUP2 DUP5 GAS STATICCALL DUP1 ISZERO PUSH2 0x3AB JUMPI DUP10 SWAP3 PUSH1 0x0 SWAP2 PUSH2 0x5CB JUMPI JUMPDEST POP DUP1 SWAP2 DUP9 PUSH1 0x1 SLOAD AND EQ PUSH2 0x5B7 JUMPI JUMPDEST POP LT PUSH2 0x573 JUMPI PUSH1 0x0 SWAP1 SSTORE PUSH1 0x7 SLOAD PUSH2 0x508 SWAP2 PUSH2 0x176A JUMP JUMPDEST DIV SWAP1 SSTORE PUSH1 0x2 SLOAD PUSH1 0x40 MLOAD PUSH4 0xA9059CBB PUSH1 0xE0 SHL DUP2 MSTORE CALLER PUSH1 0x4 DUP3 ADD MSTORE PUSH1 0x24 DUP2 ADD DUP6 SWAP1 MSTORE SWAP3 SWAP2 DUP3 SWAP2 DUP5 SWAP2 PUSH1 0x44 SWAP2 DUP4 SWAP2 PUSH1 0x0 SWAP2 AND GAS CALL SWAP2 DUP3 ISZERO PUSH2 0x3AB JUMPI PUSH32 0x106F923F993C2149D49B4255FF723ACAFA1F2D94393F561D3EDA32AE348F7241 SWAP3 PUSH2 0x36E SWAP2 PUSH1 0x0 SWAP2 PUSH2 0x37E JUMPI POP PUSH2 0x187E JUMP JUMPDEST PUSH1 0x64 DUP7 PUSH1 0x40 MLOAD SWAP1 PUSH3 0x461BCD PUSH1 0xE5 SHL DUP3 MSTORE PUSH1 0x4 DUP3 ADD MSTORE PUSH1 0x1D PUSH1 0x24 DUP3 ADD MSTORE PUSH32 0x506F6F6C2068617320696E73756666696369656E742072657761726473000000 PUSH1 0x44 DUP3 ADD MSTORE REVERT JUMPDEST PUSH2 0x5C5 SWAP2 POP PUSH1 0x8 SLOAD SWAP1 PUSH2 0x1837 JUMP JUMPDEST DUP10 PUSH2 0x4F2 JUMP JUMPDEST DUP1 SWAP4 POP DUP10 DUP1 SWAP3 POP RETURNDATASIZE DUP4 GT PUSH2 0x5F5 JUMPI JUMPDEST PUSH2 0x5E4 DUP2 DUP4 PUSH2 0x1844 JUMP JUMPDEST DUP2 ADD SUB SLT PUSH2 0x138 JUMPI DUP9 SWAP2 MLOAD DUP11 PUSH2 0x4E4 JUMP JUMPDEST POP RETURNDATASIZE PUSH2 0x5DA JUMP JUMPDEST PUSH1 0x64 DUP6 PUSH1 0x40 MLOAD SWAP1 PUSH3 0x461BCD PUSH1 0xE5 SHL DUP3 MSTORE PUSH1 0x4 DUP3 ADD MSTORE PUSH1 0xA PUSH1 0x24 DUP3 ADD MSTORE PUSH32 0x4E6F207265776172647300000000000000000000000000000000000000000000 PUSH1 0x44 DUP3 ADD MSTORE REVERT JUMPDEST CALLVALUE PUSH2 0x138 JUMPI PUSH1 0x0 CALLDATASIZE PUSH1 0x3 NOT ADD SLT PUSH2 0x138 JUMPI PUSH1 0x20 PUSH1 0x6 SLOAD PUSH1 0x40 MLOAD SWAP1 DUP2 MSTORE RETURN JUMPDEST CALLVALUE PUSH2 0x138 JUMPI PUSH1 0x20 DUP1 PUSH1 0x3 NOT CALLDATASIZE ADD SLT PUSH2 0x138 JUMPI PUSH1 0x4 CALLDATALOAD SWAP1 PUSH2 0x67C PUSH2 0x18C9 JUMP JUMPDEST DUP2 ISZERO PUSH2 0x839 JUMPI PUSH1 0x3 SLOAD NUMBER LT PUSH2 0x7F5 JUMPI PUSH1 0x4 SLOAD NUMBER LT ISZERO PUSH2 0x7B1 JUMPI PUSH1 0x0 SWAP1 CALLER DUP3 MSTORE PUSH1 0xA DUP2 MSTORE PUSH1 0x40 DUP3 KECCAK256 PUSH2 0x6AB PUSH2 0x17AA JUMP JUMPDEST PUSH2 0x6BB DUP5 DUP3 SLOAD DUP1 PUSH2 0x76D JUMPI PUSH2 0x179D JUMP JUMPDEST DUP2 SSTORE PUSH2 0x6C9 DUP5 PUSH1 0x8 SLOAD PUSH2 0x179D JUMP JUMPDEST PUSH1 0x8 SSTORE PUSH1 0x1 PUSH5 0xE8D4A51000 PUSH2 0x6E2 DUP4 SLOAD PUSH1 0x7 SLOAD SWAP1 PUSH2 0x176A JUMP JUMPDEST DIV SWAP2 ADD SSTORE DUP1 PUSH1 0x1 PUSH1 0x1 PUSH1 0xA0 SHL SUB PUSH1 0x1 SLOAD AND PUSH1 0x64 PUSH1 0x40 MLOAD DUP1 SWAP6 DUP2 SWAP4 PUSH32 0x23B872DD00000000000000000000000000000000000000000000000000000000 DUP4 MSTORE CALLER PUSH1 0x4 DUP5 ADD MSTORE ADDRESS PUSH1 0x24 DUP5 ADD MSTORE DUP9 PUSH1 0x44 DUP5 ADD MSTORE GAS CALL SWAP2 DUP3 ISZERO PUSH2 0x3AB JUMPI PUSH32 0x9E71BC8EEA02A63969F509818F2DAFB9254532904319F9DBDA79B67BD34A5F3D SWAP3 PUSH2 0x36E SWAP2 PUSH1 0x0 SWAP2 PUSH2 0x37E JUMPI POP PUSH2 0x187E JUMP JUMPDEST PUSH2 0x78E PUSH5 0xE8D4A51000 PUSH2 0x782 PUSH1 0x7 SLOAD DUP5 PUSH2 0x176A JUMP JUMPDEST DIV PUSH1 0x1 DUP7 ADD SLOAD SWAP1 PUSH2 0x1837 JUMP JUMPDEST DUP1 PUSH2 0x79A JUMPI JUMPDEST POP PUSH2 0x179D JUMP JUMPDEST PUSH2 0x7A9 PUSH1 0x2 DUP7 ADD SWAP2 DUP3 SLOAD PUSH2 0x179D JUMP JUMPDEST SWAP1 SSTORE DUP8 PUSH2 0x794 JUMP JUMPDEST PUSH1 0x64 SWAP1 PUSH1 0x40 MLOAD SWAP1 PUSH3 0x461BCD PUSH1 0xE5 SHL DUP3 MSTORE PUSH1 0x4 DUP3 ADD MSTORE PUSH1 0xD PUSH1 0x24 DUP3 ADD MSTORE PUSH32 0x5374616B696E6720656E64656400000000000000000000000000000000000000 PUSH1 0x44 DUP3 ADD MSTORE REVERT JUMPDEST PUSH1 0x64 SWAP1 PUSH1 0x40 MLOAD SWAP1 PUSH3 0x461BCD PUSH1 0xE5 SHL DUP3 MSTORE PUSH1 0x4 DUP3 ADD MSTORE PUSH1 0x13 PUSH1 0x24 DUP3 ADD MSTORE PUSH32 0x5374616B696E67206E6F74207374617274656400000000000000000000000000 PUSH1 0x44 DUP3 ADD MSTORE REVERT JUMPDEST PUSH1 0x64 SWAP1 PUSH1 0x40 MLOAD SWAP1 PUSH3 0x461BCD PUSH1 0xE5 SHL DUP3 MSTORE PUSH1 0x4 DUP3 ADD MSTORE PUSH1 0xE PUSH1 0x24 DUP3 ADD MSTORE PUSH32 0x43616E6E6F74207374616B652030000000000000000000000000000000000000 PUSH1 0x44 DUP3 ADD MSTORE REVERT JUMPDEST CALLVALUE PUSH2 0x138 JUMPI PUSH1 0xC0 CALLDATASIZE PUSH1 0x3 NOT ADD SLT PUSH2 0x138 JUMPI PUSH1 0x4 CALLDATALOAD PUSH8 0xFFFFFFFFFFFFFFFF DUP2 GT PUSH2 0x138 JUMPI PUSH2 0x8AE SWAP1 CALLDATASIZE SWAP1 PUSH1 0x4 ADD PUSH2 0x1702 JUMP JUMPDEST SWAP1 PUSH1 0x24 CALLDATALOAD PUSH8 0xFFFFFFFFFFFFFFFF DUP2 GT PUSH2 0x138 JUMPI PUSH2 0x8CF SWAP1 CALLDATASIZE SWAP1 PUSH1 0x4 ADD PUSH2 0x1702 JUMP JUMPDEST SWAP1 PUSH1 0x44 CALLDATALOAD PUSH8 0xFFFFFFFFFFFFFFFF DUP2 GT PUSH2 0x138 JUMPI PUSH2 0x8F0 SWAP1 CALLDATASIZE SWAP1 PUSH1 0x4 ADD PUSH2 0x1702 JUMP JUMPDEST SWAP1 PUSH1 0x64 CALLDATALOAD PUSH8 0xFFFFFFFFFFFFFFFF DUP2 GT PUSH2 0x138 JUMPI PUSH2 0x911 SWAP1 CALLDATASIZE SWAP1 PUSH1 0x4 ADD PUSH2 0x1702 JUMP JUMPDEST SWAP2 SWAP1 SWAP3 PUSH1 0x84 CALLDATALOAD PUSH8 0xFFFFFFFFFFFFFFFF DUP2 GT PUSH2 0x138 JUMPI PUSH2 0x934 SWAP1 CALLDATASIZE SWAP1 PUSH1 0x4 ADD PUSH2 0x1702 JUMP JUMPDEST SWAP6 SWAP1 SWAP7 PUSH1 0xA4 CALLDATALOAD PUSH8 0xFFFFFFFFFFFFFFFF DUP2 GT PUSH2 0x138 JUMPI PUSH2 0x957 SWAP1 CALLDATASIZE SWAP1 PUSH1 0x4 ADD PUSH2 0x1702 JUMP JUMPDEST SWAP10 SWAP1 SWAP11 PUSH1 0x1 PUSH1 0x1 PUSH1 0xA0 SHL SUB DUP1 PUSH1 0xB SLOAD AND CALLER EQ SWAP1 DUP2 ISZERO PUSH2 0x11A5 JUMPI JUMPDEST POP ISZERO PUSH2 0x1161 JUMPI PUSH1 0x0 DUP1 MSTORE PUSH1 0xD PUSH1 0x20 MSTORE PUSH32 0x81955A0A11E65EAC625C29E8882660BAE4E165A75D72780094ACAE8ECE9A29EE SLOAD PUSH2 0x9AB SWAP1 PUSH2 0x1730 JUMP JUMPDEST PUSH2 0x111D JUMPI PUSH1 0x0 DUP1 MSTORE PUSH1 0xD PUSH1 0x20 MSTORE PUSH32 0x81955A0A11E65EAC625C29E8882660BAE4E165A75D72780094ACAE8ECE9A29EE SWAP2 PUSH8 0xFFFFFFFFFFFFFFFF DUP3 GT PUSH2 0x27B JUMPI DUP2 SWAP1 PUSH2 0x9F5 DUP5 SLOAD PUSH2 0x1730 JUMP JUMPDEST PUSH1 0x1F DUP2 GT PUSH2 0x10CD JUMPI JUMPDEST POP PUSH1 0x0 SWAP1 PUSH1 0x1F DUP4 GT PUSH1 0x1 EQ PUSH2 0x1065 JUMPI PUSH1 0x0 SWAP3 PUSH2 0x105A JUMPI JUMPDEST POP POP DUP2 PUSH1 0x1 SHL SWAP2 PUSH1 0x0 NOT SWAP1 PUSH1 0x3 SHL SHR NOT AND OR SWAP1 SSTORE JUMPDEST PUSH1 0x1 PUSH1 0x0 MSTORE PUSH1 0xD PUSH1 0x20 MSTORE PUSH32 0xFD54FF1ED53F34A900B24C5BA64F85761163B5D82D98A47B9BD80E45466993C5 SWAP2 PUSH8 0xFFFFFFFFFFFFFFFF DUP3 GT PUSH2 0x27B JUMPI DUP2 SWAP1 PUSH2 0xA71 DUP5 SLOAD PUSH2 0x1730 JUMP JUMPDEST PUSH1 0x1F DUP2 GT PUSH2 0x100A JUMPI JUMPDEST POP PUSH1 0x0 SWAP1 PUSH1 0x1F DUP4 GT PUSH1 0x1 EQ PUSH2 0xFA2 JUMPI PUSH1 0x0 SWAP3 PUSH2 0xF97 JUMPI JUMPDEST POP POP DUP2 PUSH1 0x1 SHL SWAP2 PUSH1 0x0 NOT SWAP1 PUSH1 0x3 SHL SHR NOT AND OR SWAP1 SSTORE JUMPDEST PUSH1 0x2 PUSH1 0x0 MSTORE PUSH1 0xD PUSH1 0x20 MSTORE PUSH32 0x10A81EED9D63D16FACE5E76357905348E6253D3394086026BB2BF2145D7CC249 SWAP2 PUSH8 0xFFFFFFFFFFFFFFFF DUP3 GT PUSH2 0x27B JUMPI DUP2 SWAP1 PUSH2 0xAED DUP5 SLOAD PUSH2 0x1730 JUMP JUMPDEST PUSH1 0x1F DUP2 GT PUSH2 0xF47 JUMPI JUMPDEST POP PUSH1 0x0 SWAP1 PUSH1 0x1F DUP4 GT PUSH1 0x1 EQ PUSH2 0xEDF JUMPI PUSH1 0x0 SWAP3 PUSH2 0xED4 JUMPI JUMPDEST POP POP DUP2 PUSH1 0x1 SHL SWAP2 PUSH1 0x0 NOT SWAP1 PUSH1 0x3 SHL SHR NOT AND OR SWAP1 SSTORE JUMPDEST PUSH1 0x3 PUSH1 0x0 MSTORE PUSH1 0xD PUSH1 0x20 MSTORE PUSH32 0x26B4A10D0F0B04925C23BD4480EE147C916E5E87A7D68206A533DAD160AC81E2 SWAP2 PUSH8 0xFFFFFFFFFFFFFFFF DUP3 GT PUSH2 0x27B JUMPI DUP2 SWAP1 PUSH2 0xB69 DUP5 SLOAD PUSH2 0x1730 JUMP JUMPDEST PUSH1 0x1F DUP2 GT PUSH2 0xE84 JUMPI JUMPDEST POP PUSH1 0x0 SWAP1 PUSH1 0x1F DUP4 GT PUSH1 0x1 EQ PUSH2 0xE1C JUMPI PUSH1 0x0 SWAP3 PUSH2 0xE11 JUMPI JUMPDEST POP POP DUP2 PUSH1 0x1 SHL SWAP2 PUSH1 0x0 NOT SWAP1 PUSH1 0x3 SHL SHR NOT AND OR SWAP1 SSTORE JUMPDEST PUSH1 0x4 PUSH1 0x0 MSTORE PUSH1 0xD PUSH1 0x20 MSTORE PUSH32 0xAFAFE8948A4ED9D478B1E9A5780B119B5EDD00EA7D07BC35BEF7C814824EB94B SWAP2 PUSH8 0xFFFFFFFFFFFFFFFF DUP3 GT PUSH2 0x27B JUMPI DUP2 SWAP1 PUSH2 0xBE5 DUP5 SLOAD PUSH2 0x1730 JUMP JUMPDEST PUSH1 0x1F DUP2 GT PUSH2 0xDC1 JUMPI JUMPDEST POP PUSH1 0x0 SWAP1 PUSH1 0x1F DUP4 GT PUSH1 0x1 EQ PUSH2 0xD59 JUMPI PUSH1 0x0 SWAP3 PUSH2 0xD4E JUMPI JUMPDEST POP POP DUP2 PUSH1 0x1 SHL SWAP2 PUSH1 0x0 NOT SWAP1 PUSH1 0x3 SHL SHR NOT AND OR SWAP1 SSTORE JUMPDEST PUSH1 0x5 PUSH1 0x0 MSTORE PUSH1 0xD PUSH1 0x20 MSTORE PUSH32 0xA5049387D9CB649C59F4BDA666105BA636C2A103D8E2B232BA4D125737CD2149 SWAP1 PUSH8 0xFFFFFFFFFFFFFFFF DUP2 GT PUSH2 0x27B JUMPI PUSH2 0xC5F DUP3 SLOAD PUSH2 0x1730 JUMP JUMPDEST PUSH1 0x1F DUP2 GT PUSH2 0xD06 JUMPI JUMPDEST POP PUSH1 0x0 PUSH1 0x1F DUP3 GT PUSH1 0x1 EQ PUSH2 0xCA4 JUMPI DUP2 SWAP3 SWAP4 PUSH1 0x0 SWAP3 PUSH2 0xC99 JUMPI JUMPDEST POP POP PUSH1 0x0 NOT PUSH1 0x3 DUP4 SWAP1 SHL SHR NOT AND PUSH1 0x1 SWAP2 SWAP1 SWAP2 SHL OR SWAP1 SSTORE STOP JUMPDEST ADD CALLDATALOAD SWAP1 POP DUP4 DUP1 PUSH2 0xC81 JUMP JUMPDEST PUSH1 0x1F NOT DUP3 AND SWAP4 DUP4 PUSH1 0x0 MSTORE PUSH1 0x20 PUSH1 0x0 KECCAK256 SWAP2 PUSH1 0x0 JUMPDEST DUP7 DUP2 LT PUSH2 0xCEE JUMPI POP DUP4 PUSH1 0x1 SWAP6 SWAP7 LT PUSH2 0xCD4 JUMPI JUMPDEST POP POP POP DUP2 SHL ADD SWAP1 SSTORE STOP JUMPDEST ADD CALLDATALOAD PUSH1 0x0 NOT PUSH1 0x3 DUP5 SWAP1 SHL PUSH1 0xF8 AND SHR NOT AND SWAP1 SSTORE DUP4 DUP1 DUP1 PUSH2 0xCCA JUMP JUMPDEST SWAP1 SWAP3 PUSH1 0x20 PUSH1 0x1 DUP2 SWAP3 DUP7 DUP7 ADD CALLDATALOAD DUP2 SSTORE ADD SWAP5 ADD SWAP2 ADD PUSH2 0xCB7 JUMP JUMPDEST DUP3 PUSH1 0x0 MSTORE PUSH1 0x20 PUSH1 0x0 KECCAK256 PUSH1 0x1F DUP4 ADD PUSH1 0x5 SHR DUP2 ADD SWAP2 PUSH1 0x20 DUP5 LT PUSH2 0xD44 JUMPI JUMPDEST PUSH1 0x1F ADD PUSH1 0x5 SHR ADD SWAP1 JUMPDEST DUP2 DUP2 LT PUSH2 0xD38 JUMPI POP PUSH2 0xC68 JUMP JUMPDEST PUSH1 0x0 DUP2 SSTORE PUSH1 0x1 ADD PUSH2 0xD2B JUMP JUMPDEST SWAP1 SWAP2 POP DUP2 SWAP1 PUSH2 0xD22 JUMP JUMPDEST ADD CALLDATALOAD SWAP1 POP DUP6 DUP1 PUSH2 0xC05 JUMP JUMPDEST PUSH1 0x0 DUP6 DUP2 MSTORE PUSH1 0x20 DUP2 KECCAK256 SWAP1 SWAP5 POP SWAP2 JUMPDEST PUSH1 0x1F NOT DUP5 AND DUP6 LT PUSH2 0xDA9 JUMPI PUSH1 0x1 SWAP5 POP DUP4 PUSH1 0x1F NOT DUP2 AND LT PUSH2 0xD8F JUMPI JUMPDEST POP POP POP DUP2 SHL ADD SWAP1 SSTORE PUSH2 0xC1A JUMP JUMPDEST ADD CALLDATALOAD PUSH1 0x0 NOT PUSH1 0x3 DUP5 SWAP1 SHL PUSH1 0xF8 AND SHR NOT AND SWAP1 SSTORE DUP6 DUP1 DUP1 PUSH2 0xD82 JUMP JUMPDEST DUP2 DUP2 ADD CALLDATALOAD DUP4 SSTORE PUSH1 0x20 SWAP5 DUP6 ADD SWAP5 PUSH1 0x1 SWAP1 SWAP4 ADD SWAP3 ADD PUSH2 0xD67 JUMP JUMPDEST SWAP1 SWAP2 POP DUP4 PUSH1 0x0 MSTORE PUSH1 0x20 PUSH1 0x0 KECCAK256 PUSH1 0x1F DUP5 ADD PUSH1 0x5 SHR DUP2 ADD PUSH1 0x20 DUP6 LT PUSH2 0xE0A JUMPI JUMPDEST SWAP1 DUP5 SWAP4 SWAP3 SWAP2 JUMPDEST PUSH1 0x1F DUP4 ADD PUSH1 0x5 SHR DUP3 ADD DUP2 LT PUSH2 0xDFB JUMPI POP POP PUSH2 0xBEE JUMP JUMPDEST PUSH1 0x0 DUP2 SSTORE DUP6 SWAP5 POP PUSH1 0x1 ADD PUSH2 0xDE5 JUMP JUMPDEST POP DUP1 PUSH2 0xDDF JUMP JUMPDEST ADD CALLDATALOAD SWAP1 POP DUP8 DUP1 PUSH2 0xB89 JUMP JUMPDEST PUSH1 0x0 DUP6 DUP2 MSTORE PUSH1 0x20 DUP2 KECCAK256 SWAP1 SWAP5 POP SWAP2 JUMPDEST PUSH1 0x1F NOT DUP5 AND DUP6 LT PUSH2 0xE6C JUMPI PUSH1 0x1 SWAP5 POP DUP4 PUSH1 0x1F NOT DUP2 AND LT PUSH2 0xE52 JUMPI JUMPDEST POP POP POP DUP2 SHL ADD SWAP1 SSTORE PUSH2 0xB9E JUMP JUMPDEST ADD CALLDATALOAD PUSH1 0x0 NOT PUSH1 0x3 DUP5 SWAP1 SHL PUSH1 0xF8 AND SHR NOT AND SWAP1 SSTORE DUP8 DUP1 DUP1 PUSH2 0xE45 JUMP JUMPDEST DUP2 DUP2 ADD CALLDATALOAD DUP4 SSTORE PUSH1 0x20 SWAP5 DUP6 ADD SWAP5 PUSH1 0x1 SWAP1 SWAP4 ADD SWAP3 ADD PUSH2 0xE2A JUMP JUMPDEST SWAP1 SWAP2 POP DUP4 PUSH1 0x0 MSTORE PUSH1 0x20 PUSH1 0x0 KECCAK256 PUSH1 0x1F DUP5 ADD PUSH1 0x5 SHR DUP2 ADD PUSH1 0x20 DUP6 LT PUSH2 0xECD JUMPI JUMPDEST SWAP1 DUP5 SWAP4 SWAP3 SWAP2 JUMPDEST PUSH1 0x1F DUP4 ADD PUSH1 0x5 SHR DUP3 ADD DUP2 LT PUSH2 0xEBE JUMPI POP POP PUSH2 0xB72 JUMP JUMPDEST PUSH1 0x0 DUP2 SSTORE DUP6 SWAP5 POP PUSH1 0x1 ADD PUSH2 0xEA8 JUMP JUMPDEST POP DUP1 PUSH2 0xEA2 JUMP JUMPDEST ADD CALLDATALOAD SWAP1 POP DUP10 DUP1 PUSH2 0xB0D JUMP JUMPDEST PUSH1 0x0 DUP6 DUP2 MSTORE PUSH1 0x20 DUP2 KECCAK256 SWAP1 SWAP5 POP SWAP2 JUMPDEST PUSH1 0x1F NOT DUP5 AND DUP6 LT PUSH2 0xF2F JUMPI PUSH1 0x1 SWAP5 POP DUP4 PUSH1 0x1F NOT DUP2 AND LT PUSH2 0xF15 JUMPI JUMPDEST POP POP POP DUP2 SHL ADD SWAP1 SSTORE PUSH2 0xB22 JUMP JUMPDEST ADD CALLDATALOAD PUSH1 0x0 NOT PUSH1 0x3 DUP5 SWAP1 SHL PUSH1 0xF8 AND SHR NOT AND SWAP1 SSTORE DUP10 DUP1 DUP1 PUSH2 0xF08 JUMP JUMPDEST DUP2 DUP2 ADD CALLDATALOAD DUP4 SSTORE PUSH1 0x20 SWAP5 DUP6 ADD SWAP5 PUSH1 0x1 SWAP1 SWAP4 ADD SWAP3 ADD PUSH2 0xEED JUMP JUMPDEST SWAP1 SWAP2 POP DUP4 PUSH1 0x0 MSTORE PUSH1 0x20 PUSH1 0x0 KECCAK256 PUSH1 0x1F DUP5 ADD PUSH1 0x5 SHR DUP2 ADD PUSH1 0x20 DUP6 LT PUSH2 0xF90 JUMPI JUMPDEST SWAP1 DUP5 SWAP4 SWAP3 SWAP2 JUMPDEST PUSH1 0x1F DUP4 ADD PUSH1 0x5 SHR DUP3 ADD DUP2 LT PUSH2 0xF81 JUMPI POP POP PUSH2 0xAF6 JUMP JUMPDEST PUSH1 0x0 DUP2 SSTORE DUP6 SWAP5 POP PUSH1 0x1 ADD PUSH2 0xF6B JUMP JUMPDEST POP DUP1 PUSH2 0xF65 JUMP JUMPDEST ADD CALLDATALOAD SWAP1 POP DUP12 DUP1 PUSH2 0xA91 JUMP JUMPDEST PUSH1 0x0 DUP6 DUP2 MSTORE PUSH1 0x20 DUP2 KECCAK256 SWAP1 SWAP5 POP SWAP2 JUMPDEST PUSH1 0x1F NOT DUP5 AND DUP6 LT PUSH2 0xFF2 JUMPI PUSH1 0x1 SWAP5 POP DUP4 PUSH1 0x1F NOT DUP2 AND LT PUSH2 0xFD8 JUMPI JUMPDEST POP POP POP DUP2 SHL ADD SWAP1 SSTORE PUSH2 0xAA6 JUMP JUMPDEST ADD CALLDATALOAD PUSH1 0x0 NOT PUSH1 0x3 DUP5 SWAP1 SHL PUSH1 0xF8 AND SHR NOT AND SWAP1 SSTORE DUP12 DUP1 DUP1 PUSH2 0xFCB JUMP JUMPDEST DUP2 DUP2 ADD CALLDATALOAD DUP4 SSTORE PUSH1 0x20 SWAP5 DUP6 ADD SWAP5 PUSH1 0x1 SWAP1 SWAP4 ADD SWAP3 ADD PUSH2 0xFB0 JUMP JUMPDEST SWAP1 SWAP2 POP DUP4 PUSH1 0x0 MSTORE PUSH1 0x20 PUSH1 0x0 KECCAK256 PUSH1 0x1F DUP5 ADD PUSH1 0x5 SHR DUP2 ADD PUSH1 0x20 DUP6 LT PUSH2 0x1053 JUMPI JUMPDEST SWAP1 DUP5 SWAP4 SWAP3 SWAP2 JUMPDEST PUSH1 0x1F DUP4 ADD PUSH1 0x5 SHR DUP3 ADD DUP2 LT PUSH2 0x1044 JUMPI POP POP PUSH2 0xA7A JUMP JUMPDEST PUSH1 0x0 DUP2 SSTORE DUP6 SWAP5 POP PUSH1 0x1 ADD PUSH2 0x102E JUMP JUMPDEST POP DUP1 PUSH2 0x1028 JUMP JUMPDEST ADD CALLDATALOAD SWAP1 POP DUP14 DUP1 PUSH2 0xA15 JUMP JUMPDEST PUSH1 0x0 DUP6 DUP2 MSTORE PUSH1 0x20 DUP2 KECCAK256 SWAP1 SWAP5 POP SWAP2 JUMPDEST PUSH1 0x1F NOT DUP5 AND DUP6 LT PUSH2 0x10B5 JUMPI PUSH1 0x1 SWAP5 POP DUP4 PUSH1 0x1F NOT DUP2 AND LT PUSH2 0x109B JUMPI JUMPDEST POP POP POP DUP2 SHL ADD SWAP1 SSTORE PUSH2 0xA2A JUMP JUMPDEST ADD CALLDATALOAD PUSH1 0x0 NOT PUSH1 0x3 DUP5 SWAP1 SHL PUSH1 0xF8 AND SHR NOT AND SWAP1 SSTORE DUP14 DUP1 DUP1 PUSH2 0x108E JUMP JUMPDEST DUP2 DUP2 ADD CALLDATALOAD DUP4 SSTORE PUSH1 0x20 SWAP5 DUP6 ADD SWAP5 PUSH1 0x1 SWAP1 SWAP4 ADD SWAP3 ADD PUSH2 0x1073 JUMP JUMPDEST SWAP1 SWAP2 POP DUP4 PUSH1 0x0 MSTORE PUSH1 0x20 PUSH1 0x0 KECCAK256 PUSH1 0x1F DUP5 ADD PUSH1 0x5 SHR DUP2 ADD PUSH1 0x20 DUP6 LT PUSH2 0x1116 JUMPI JUMPDEST SWAP1 DUP5 SWAP4 SWAP3 SWAP2 JUMPDEST PUSH1 0x1F DUP4 ADD PUSH1 0x5 SHR DUP3 ADD DUP2 LT PUSH2 0x1107 JUMPI POP POP PUSH2 0x9FE JUMP JUMPDEST PUSH1 0x0 DUP2 SSTORE DUP6 SWAP5 POP PUSH1 0x1 ADD PUSH2 0x10F1 JUMP JUMPDEST POP DUP1 PUSH2 0x10EB JUMP JUMPDEST PUSH1 0x64 PUSH1 0x40 MLOAD PUSH3 0x461BCD PUSH1 0xE5 SHL DUP2 MSTORE PUSH1 0x20 PUSH1 0x4 DUP3 ADD MSTORE PUSH1 0x14 PUSH1 0x24 DUP3 ADD MSTORE PUSH32 0x4D6574616461746120616C726561647920736574000000000000000000000000 PUSH1 0x44 DUP3 ADD MSTORE REVERT JUMPDEST PUSH1 0x64 PUSH1 0x40 MLOAD PUSH3 0x461BCD PUSH1 0xE5 SHL DUP2 MSTORE PUSH1 0x20 PUSH1 0x4 DUP3 ADD MSTORE PUSH1 0x17 PUSH1 0x24 DUP3 ADD MSTORE PUSH32 0x4F6E6C792063726561746F72206F7220666163746F7279000000000000000000 PUSH1 0x44 DUP3 ADD MSTORE REVERT JUMPDEST SWAP1 POP PUSH1 0xC SLOAD AND CALLER EQ DUP14 PUSH2 0x971 JUMP JUMPDEST CALLVALUE PUSH2 0x138 JUMPI PUSH1 0x0 CALLDATASIZE PUSH1 0x3 NOT ADD SLT PUSH2 0x138 JUMPI PUSH1 0x20 PUSH1 0x7 SLOAD PUSH1 0x40 MLOAD SWAP1 DUP2 MSTORE RETURN JUMPDEST CALLVALUE PUSH2 0x138 JUMPI PUSH1 0x40 CALLDATASIZE PUSH1 0x3 NOT ADD SLT PUSH2 0x138 JUMPI PUSH1 0x20 PUSH2 0x1EA PUSH1 0x24 CALLDATALOAD PUSH1 0x4 CALLDATALOAD PUSH2 0x191E JUMP JUMPDEST CALLVALUE PUSH2 0x138 JUMPI PUSH1 0x0 CALLDATASIZE PUSH1 0x3 NOT ADD SLT PUSH2 0x138 JUMPI PUSH1 0xD PUSH1 0x20 MSTORE PUSH1 0x5 PUSH1 0x0 MSTORE PUSH2 0x132F PUSH32 0xFD54FF1ED53F34A900B24C5BA64F85761163B5D82D98A47B9BD80E45466993C5 PUSH2 0x1375 PUSH32 0x10A81EED9D63D16FACE5E76357905348E6253D3394086026BB2BF2145D7CC249 PUSH2 0x1367 PUSH32 0xA5049387D9CB649C59F4BDA666105BA636C2A103D8E2B232BA4D125737CD2149 PUSH2 0x1359 PUSH32 0xAFAFE8948A4ED9D478B1E9A5780B119B5EDD00EA7D07BC35BEF7C814824EB94B PUSH2 0x134B PUSH32 0x26B4A10D0F0B04925C23BD4480EE147C916E5E87A7D68206A533DAD160AC81E2 PUSH2 0x133D PUSH2 0x131A PUSH2 0x1314 PUSH2 0x130E PUSH2 0x1308 PUSH2 0x1302 PUSH2 0x12FC PUSH32 0x81955A0A11E65EAC625C29E8882660BAE4E165A75D72780094ACAE8ECE9A29EE PUSH2 0x194E JUMP JUMPDEST SWAP15 PUSH2 0x194E JUMP JUMPDEST SWAP12 PUSH2 0x194E JUMP JUMPDEST SWAP5 PUSH2 0x194E JUMP JUMPDEST SWAP6 PUSH2 0x194E JUMP JUMPDEST SWAP7 PUSH2 0x194E JUMP JUMPDEST SWAP8 PUSH1 0x40 MLOAD SWAP12 DUP13 SWAP12 PUSH1 0xC0 DUP14 MSTORE PUSH1 0xC0 DUP14 ADD SWAP1 PUSH2 0x16C2 JUMP JUMPDEST SWAP1 DUP12 DUP3 SUB PUSH1 0x20 DUP14 ADD MSTORE PUSH2 0x16C2 JUMP JUMPDEST SWAP1 DUP10 DUP3 SUB PUSH1 0x40 DUP12 ADD MSTORE PUSH2 0x16C2 JUMP JUMPDEST SWAP1 DUP8 DUP3 SUB PUSH1 0x60 DUP10 ADD MSTORE PUSH2 0x16C2 JUMP JUMPDEST SWAP1 DUP6 DUP3 SUB PUSH1 0x80 DUP8 ADD MSTORE PUSH2 0x16C2 JUMP JUMPDEST SWAP1 DUP4 DUP3 SUB PUSH1 0xA0 DUP6 ADD MSTORE PUSH2 0x16C2 JUMP JUMPDEST SUB SWAP1 RETURN JUMPDEST CALLVALUE PUSH2 0x138 JUMPI PUSH1 0x0 CALLDATASIZE PUSH1 0x3 NOT ADD SLT PUSH2 0x138 JUMPI PUSH1 0x20 PUSH1 0x5 SLOAD PUSH1 0x40 MLOAD SWAP1 DUP2 MSTORE RETURN JUMPDEST CALLVALUE PUSH2 0x138 JUMPI PUSH1 0x0 CALLDATASIZE PUSH1 0x3 NOT ADD SLT PUSH2 0x138 JUMPI PUSH1 0x20 PUSH1 0x9 SLOAD PUSH1 0x40 MLOAD SWAP1 DUP2 MSTORE RETURN JUMPDEST CALLVALUE PUSH2 0x138 JUMPI PUSH1 0x0 CALLDATASIZE PUSH1 0x3 NOT ADD SLT PUSH2 0x138 JUMPI PUSH1 0x20 PUSH1 0x8 SLOAD PUSH1 0x40 MLOAD SWAP1 DUP2 MSTORE RETURN JUMPDEST CALLVALUE PUSH2 0x138 JUMPI PUSH1 0x0 CALLDATASIZE PUSH1 0x3 NOT ADD SLT PUSH2 0x138 JUMPI PUSH1 0x20 PUSH1 0x1 PUSH1 0x1 PUSH1 0xA0 SHL SUB PUSH1 0x1 SLOAD AND PUSH1 0x40 MLOAD SWAP1 DUP2 MSTORE RETURN JUMPDEST CALLVALUE PUSH2 0x138 JUMPI PUSH1 0x0 CALLDATASIZE PUSH1 0x3 NOT ADD SLT PUSH2 0x138 JUMPI PUSH2 0x100 PUSH1 0x1 PUSH1 0x1 PUSH1 0xA0 SHL SUB DUP1 PUSH1 0x1 SLOAD AND SWAP1 DUP1 PUSH1 0x2 SLOAD AND SWAP1 PUSH1 0x5 SLOAD PUSH1 0x3 SLOAD PUSH1 0x4 SLOAD SWAP1 PUSH1 0x8 SLOAD SWAP3 PUSH1 0x6 SLOAD SWAP5 PUSH1 0xB SLOAD AND SWAP6 PUSH1 0x40 MLOAD SWAP8 DUP9 MSTORE PUSH1 0x20 DUP9 ADD MSTORE PUSH1 0x40 DUP8 ADD MSTORE PUSH1 0x60 DUP7 ADD MSTORE PUSH1 0x80 DUP6 ADD MSTORE PUSH1 0xA0 DUP5 ADD MSTORE PUSH1 0xC0 DUP4 ADD MSTORE PUSH1 0xE0 DUP3 ADD MSTORE RETURN JUMPDEST CALLVALUE PUSH2 0x138 JUMPI PUSH1 0x0 CALLDATASIZE PUSH1 0x3 NOT ADD SLT PUSH2 0x138 JUMPI PUSH1 0x20 PUSH1 0x3 SLOAD PUSH1 0x40 MLOAD SWAP1 DUP2 MSTORE RETURN JUMPDEST CALLVALUE PUSH2 0x138 JUMPI PUSH1 0x20 DUP1 PUSH1 0x3 NOT CALLDATASIZE ADD SLT PUSH2 0x138 JUMPI PUSH1 0x4 CALLDATALOAD SWAP1 PUSH2 0x14A0 PUSH2 0x18C9 JUMP JUMPDEST CALLER PUSH1 0x0 MSTORE PUSH1 0xA DUP2 MSTORE PUSH1 0x40 PUSH1 0x0 KECCAK256 DUP3 DUP2 SLOAD LT PUSH2 0x15E8 JUMPI DUP3 ISZERO PUSH2 0x15A4 JUMPI PUSH2 0x14C3 PUSH2 0x17AA JUMP JUMPDEST DUP1 SLOAD SWAP1 PUSH2 0x151A PUSH5 0xE8D4A51000 SWAP2 PUSH2 0x14FF DUP7 DUP5 PUSH2 0x14E1 PUSH1 0x7 SLOAD DUP9 PUSH2 0x176A JUMP JUMPDEST DIV SWAP6 PUSH2 0x14F3 PUSH1 0x1 DUP6 ADD SWAP8 DUP9 SLOAD SWAP1 PUSH2 0x1837 JUMP JUMPDEST DUP1 PUSH2 0x158D JUMPI JUMPDEST POP PUSH2 0x1837 JUMP JUMPDEST DUP2 SSTORE PUSH2 0x150D DUP7 PUSH1 0x8 SLOAD PUSH2 0x1837 JUMP JUMPDEST PUSH1 0x8 SSTORE SLOAD PUSH1 0x7 SLOAD SWAP1 PUSH2 0x176A JUMP JUMPDEST DIV SWAP1 SSTORE PUSH1 0x1 SLOAD PUSH1 0x40 MLOAD PUSH4 0xA9059CBB PUSH1 0xE0 SHL DUP2 MSTORE CALLER PUSH1 0x4 DUP3 ADD MSTORE PUSH1 0x24 DUP2 ADD DUP5 SWAP1 MSTORE SWAP2 SWAP1 DUP2 SWAP1 DUP4 SWAP1 PUSH1 0x44 SWAP1 DUP3 SWAP1 PUSH1 0x0 SWAP1 PUSH1 0x1 PUSH1 0x1 PUSH1 0xA0 SHL SUB AND GAS CALL SWAP2 DUP3 ISZERO PUSH2 0x3AB JUMPI PUSH32 0xF5BB82176FEB1B5E747E28471AA92156A04D9F3AB9F45F28E2D704232B93F75 SWAP3 PUSH2 0x36E SWAP2 PUSH1 0x0 SWAP2 PUSH2 0x37E JUMPI POP PUSH2 0x187E JUMP JUMPDEST PUSH2 0x159C PUSH1 0x2 DUP7 ADD SWAP2 DUP3 SLOAD PUSH2 0x179D JUMP JUMPDEST SWAP1 SSTORE DUP10 PUSH2 0x14F9 JUMP JUMPDEST PUSH1 0x64 DUP3 PUSH1 0x40 MLOAD SWAP1 PUSH3 0x461BCD PUSH1 0xE5 SHL DUP3 MSTORE PUSH1 0x4 DUP3 ADD MSTORE PUSH1 0x10 PUSH1 0x24 DUP3 ADD MSTORE PUSH32 0x43616E6E6F7420756E7374616B65203000000000000000000000000000000000 PUSH1 0x44 DUP3 ADD MSTORE REVERT JUMPDEST PUSH1 0x64 DUP3 PUSH1 0x40 MLOAD SWAP1 PUSH3 0x461BCD PUSH1 0xE5 SHL DUP3 MSTORE PUSH1 0x4 DUP3 ADD MSTORE PUSH1 0x14 PUSH1 0x24 DUP3 ADD MSTORE PUSH32 0x496E73756666696369656E742062616C616E6365000000000000000000000000 PUSH1 0x44 DUP3 ADD MSTORE REVERT JUMPDEST CALLVALUE PUSH2 0x138 JUMPI PUSH1 0x20 CALLDATASIZE PUSH1 0x3 NOT ADD SLT PUSH2 0x138 JUMPI PUSH1 0x4 CALLDATALOAD PUSH1 0x1 PUSH1 0x1 PUSH1 0xA0 SHL SUB DUP2 AND DUP1 SWAP2 SUB PUSH2 0x138 JUMPI PUSH1 0x0 MSTORE PUSH1 0xA PUSH1 0x20 MSTORE PUSH1 0x60 PUSH1 0x40 PUSH1 0x0 KECCAK256 DUP1 SLOAD SWAP1 PUSH1 0x2 PUSH1 0x1 DUP3 ADD SLOAD SWAP2 ADD SLOAD SWAP1 PUSH1 0x40 MLOAD SWAP3 DUP4 MSTORE PUSH1 0x20 DUP4 ADD MSTORE PUSH1 0x40 DUP3 ADD MSTORE RETURN JUMPDEST CALLVALUE PUSH2 0x138 JUMPI PUSH1 0x0 CALLDATASIZE PUSH1 0x3 NOT ADD SLT PUSH2 0x138 JUMPI PUSH1 0x20 PUSH1 0x4 SLOAD PUSH1 0x40 MLOAD SWAP1 DUP2 MSTORE RETURN JUMPDEST CALLVALUE PUSH2 0x138 JUMPI PUSH1 0x0 CALLDATASIZE PUSH1 0x3 NOT ADD SLT PUSH2 0x138 JUMPI PUSH1 0x20 SWAP1 PUSH1 0x1 PUSH1 0x1 PUSH1 0xA0 SHL SUB PUSH1 0xB SLOAD AND DUP2 MSTORE RETURN JUMPDEST SWAP2 SWAP1 DUP3 MLOAD SWAP3 DUP4 DUP3 MSTORE PUSH1 0x0 JUMPDEST DUP5 DUP2 LT PUSH2 0x16EE JUMPI POP POP DUP3 PUSH1 0x0 PUSH1 0x20 DUP1 SWAP5 SWAP6 DUP5 ADD ADD MSTORE PUSH1 0x1F DUP1 NOT SWAP2 ADD AND ADD ADD SWAP1 JUMP JUMPDEST PUSH1 0x20 DUP2 DUP4 ADD DUP2 ADD MLOAD DUP5 DUP4 ADD DUP3 ADD MSTORE ADD PUSH2 0x16CD JUMP JUMPDEST SWAP2 DUP2 PUSH1 0x1F DUP5 ADD SLT ISZERO PUSH2 0x138 JUMPI DUP3 CALLDATALOAD SWAP2 PUSH8 0xFFFFFFFFFFFFFFFF DUP4 GT PUSH2 0x138 JUMPI PUSH1 0x20 DUP4 DUP2 DUP7 ADD SWAP6 ADD ADD GT PUSH2 0x138 JUMPI JUMP JUMPDEST SWAP1 PUSH1 0x1 DUP3 DUP2 SHR SWAP3 AND DUP1 ISZERO PUSH2 0x1760 JUMPI JUMPDEST PUSH1 0x20 DUP4 LT EQ PUSH2 0x174A JUMPI JUMP JUMPDEST PUSH4 0x4E487B71 PUSH1 0xE0 SHL PUSH1 0x0 MSTORE PUSH1 0x22 PUSH1 0x4 MSTORE PUSH1 0x24 PUSH1 0x0 REVERT JUMPDEST SWAP2 PUSH1 0x7F AND SWAP2 PUSH2 0x173F JUMP JUMPDEST DUP2 DUP2 MUL SWAP3 SWAP2 DUP2 ISZERO SWAP2 DUP5 DIV EQ OR ISZERO PUSH2 0x25A JUMPI JUMP JUMPDEST DUP2 ISZERO PUSH2 0x1787 JUMPI DIV SWAP1 JUMP JUMPDEST PUSH4 0x4E487B71 PUSH1 0xE0 SHL PUSH1 0x0 MSTORE PUSH1 0x12 PUSH1 0x4 MSTORE PUSH1 0x24 PUSH1 0x0 REVERT JUMPDEST SWAP2 SWAP1 DUP3 ADD DUP1 SWAP3 GT PUSH2 0x25A JUMPI JUMP JUMPDEST PUSH1 0x6 SLOAD NUMBER GT ISZERO PUSH2 0x1835 JUMPI PUSH1 0x8 SLOAD DUP1 ISZERO PUSH2 0x182E JUMPI PUSH2 0x17CC PUSH2 0x203 NUMBER PUSH1 0x6 SLOAD PUSH2 0x191E JUMP JUMPDEST PUSH1 0x7 SLOAD SWAP2 PUSH5 0xE8D4A51000 SWAP2 DUP3 DUP2 MUL SWAP3 DUP2 DUP5 DIV EQ SWAP1 ISZERO OR ISZERO PUSH2 0x25A JUMPI PUSH32 0x7FA9647EC1CC14E3822B46D05A2B9D4E019BDE8875C0088C46B6503D71BF1722 SWAP3 PUSH2 0x247 PUSH2 0x1818 SWAP3 PUSH1 0x40 SWAP5 PUSH2 0x177D JUMP JUMPDEST DUP1 PUSH1 0x7 SSTORE NUMBER PUSH1 0x6 SSTORE DUP2 MLOAD SWAP1 NUMBER DUP3 MSTORE PUSH1 0x20 DUP3 ADD MSTORE LOG1 JUMP JUMPDEST POP NUMBER PUSH1 0x6 SSTORE JUMP JUMPDEST JUMP JUMPDEST SWAP2 SWAP1 DUP3 SUB SWAP2 DUP3 GT PUSH2 0x25A JUMPI JUMP JUMPDEST SWAP1 PUSH1 0x1F DUP1 NOT SWAP2 ADD AND DUP2 ADD SWAP1 DUP2 LT PUSH8 0xFFFFFFFFFFFFFFFF DUP3 GT OR PUSH2 0x27B JUMPI PUSH1 0x40 MSTORE JUMP JUMPDEST SWAP1 DUP2 PUSH1 0x20 SWAP2 SUB SLT PUSH2 0x138 JUMPI MLOAD DUP1 ISZERO ISZERO DUP2 SUB PUSH2 0x138 JUMPI SWAP1 JUMP JUMPDEST ISZERO PUSH2 0x1885 JUMPI JUMP JUMPDEST PUSH1 0x64 PUSH1 0x40 MLOAD PUSH3 0x461BCD PUSH1 0xE5 SHL DUP2 MSTORE PUSH1 0x20 PUSH1 0x4 DUP3 ADD MSTORE PUSH1 0xF PUSH1 0x24 DUP3 ADD MSTORE PUSH32 0x5472616E73666572206661696C65640000000000000000000000000000000000 PUSH1 0x44 DUP3 ADD MSTORE REVERT JUMPDEST PUSH1 0x2 PUSH1 0x0 SLOAD EQ PUSH2 0x18DA JUMPI PUSH1 0x2 PUSH1 0x0 SSTORE JUMP JUMPDEST PUSH1 0x64 PUSH1 0x40 MLOAD PUSH3 0x461BCD PUSH1 0xE5 SHL DUP2 MSTORE PUSH1 0x20 PUSH1 0x4 DUP3 ADD MSTORE PUSH1 0x1F PUSH1 0x24 DUP3 ADD MSTORE PUSH32 0x5265656E7472616E637947756172643A207265656E7472616E742063616C6C00 PUSH1 0x44 DUP3 ADD MSTORE REVERT JUMPDEST PUSH1 0x4 SLOAD SWAP2 DUP3 DUP2 GT PUSH2 0x1936 JUMPI PUSH2 0x1933 SWAP3 POP PUSH2 0x1837 JUMP JUMPDEST SWAP1 JUMP JUMPDEST POP DUP2 DUP2 LT PUSH2 0x1945 JUMPI POP POP PUSH1 0x0 SWAP1 JUMP JUMPDEST PUSH2 0x1933 SWAP2 PUSH2 0x1837 JUMP JUMPDEST SWAP1 PUSH1 0x40 MLOAD SWAP2 DUP3 PUSH1 0x0 DUP3 SLOAD SWAP3 PUSH2 0x1962 DUP5 PUSH2 0x1730 JUMP JUMPDEST SWAP1 DUP2 DUP5 MSTORE PUSH1 0x1 SWAP5 DUP6 DUP2 AND SWAP1 DUP2 PUSH1 0x0 EQ PUSH2 0x19CF JUMPI POP PUSH1 0x1 EQ PUSH2 0x198C JUMPI JUMPDEST POP POP PUSH2 0x1835 SWAP3 POP SUB DUP4 PUSH2 0x1844 JUMP JUMPDEST SWAP1 SWAP4 SWAP2 POP PUSH1 0x0 MSTORE PUSH1 0x20 SWAP1 DUP2 PUSH1 0x0 KECCAK256 SWAP4 PUSH1 0x0 SWAP2 JUMPDEST DUP2 DUP4 LT PUSH2 0x19B7 JUMPI POP POP PUSH2 0x1835 SWAP4 POP DUP3 ADD ADD CODESIZE DUP1 PUSH2 0x197E JUMP JUMPDEST DUP6 SLOAD DUP9 DUP5 ADD DUP6 ADD MSTORE SWAP5 DUP6 ADD SWAP5 DUP8 SWAP5 POP SWAP2 DUP4 ADD SWAP2 PUSH2 0x199F JUMP JUMPDEST SWAP2 POP POP PUSH2 0x1835 SWAP5 POP PUSH1 0x20 SWAP3 POP PUSH1 0xFF NOT AND DUP3 DUP5 ADD MSTORE ISZERO ISZERO PUSH1 0x5 SHL DUP3 ADD ADD CODESIZE DUP1 PUSH2 0x197E JUMP INVALID LOG2 PUSH5 0x6970667358 0x22 SLT KECCAK256 PUSH11 0xD0D64D39E47CB30C54F3A2 0xB6 0x4B JUMPDEST DUP6 CALLVALUE 0xDA 0xB7 PUSH19 0xF5AF1E19AB1C4123EBCF26FF64736F6C634300 ADDMOD SGT STOP CALLER LOG2 PUSH5 0x6970667358 0x22 SLT KECCAK256 EXP 0xAF DUP10 0xA7 0xC8 0xD6 LOG1 0xAD PUSH3 0xDC7E8D LOG0 STOP 0xC6 PUSH25 0x2222E84BEECCEFD452B219289F8FAB3164736F6C6343000813 STOP CALLER "},"methodIdentifiers":{"DEAD_ADDRESS()":"4e6fd6c4","admin()":"f851a440","allPools(uint256)":"41d1de97","burnAmount()":"486a7e6b","createStakingPool((address,address,uint256,uint256,uint256,uint256,string,string,string,string,string,string))":"7362c936","getAllPools(uint256,uint256)":"a7753f09","getPoolInfo(address)":"06bfa938","getPoolsByCreator(address)":"c84728ef","orderToken()":"85d18917","poolCount()":"f525cb68","poolInfo(address)":"9a7b5f11","poolsByCreator(address,uint256)":"fcbf570b","setBurnAmount(uint256)":"cc43f3d3","setWhitelist(address,bool)":"53d6fd59","transferAdmin(address)":"75829def","whitelistedCreators(address)":"041bb6ff"}}}}}