{"contracts/OrderNFTLaunch.sol":{"OrderNFTLaunch":{"abi":[{"inputs":[],"stateMutability":"nonpayable","type":"constructor"},{"anonymous":false,"inputs":[{"indexed":true,"internalType":"address","name":"previousAdmin","type":"address"},{"indexed":true,"internalType":"address","name":"newAdmin","type":"address"}],"name":"AdminTransferred","type":"event"},{"anonymous":false,"inputs":[{"indexed":false,"internalType":"uint256","name":"oldAmount","type":"uint256"},{"indexed":false,"internalType":"uint256","name":"newAmount","type":"uint256"}],"name":"BurnAmountUpdated","type":"event"},{"anonymous":false,"inputs":[{"indexed":true,"internalType":"address","name":"collectionAddress","type":"address"},{"indexed":true,"internalType":"address","name":"creator","type":"address"},{"indexed":false,"internalType":"string","name":"name","type":"string"},{"indexed":false,"internalType":"string","name":"symbol","type":"string"},{"indexed":false,"internalType":"string","name":"baseURI","type":"string"},{"indexed":false,"internalType":"uint256","name":"maxSupply","type":"uint256"},{"indexed":false,"internalType":"address","name":"mintToken","type":"address"},{"indexed":false,"internalType":"uint256","name":"mintPrice","type":"uint256"},{"indexed":false,"internalType":"uint256","name":"marketplaceFeePercent","type":"uint256"}],"name":"CollectionCreated","type":"event"},{"anonymous":false,"inputs":[{"indexed":true,"internalType":"address","name":"collection","type":"address"},{"indexed":false,"internalType":"bool","name":"isActive","type":"bool"}],"name":"CollectionStatusUpdated","type":"event"},{"anonymous":false,"inputs":[{"indexed":false,"internalType":"address","name":"account","type":"address"}],"name":"Paused","type":"event"},{"anonymous":false,"inputs":[{"indexed":false,"internalType":"address","name":"account","type":"address"}],"name":"Unpaused","type":"event"},{"inputs":[],"name":"DEAD_ADDRESS","outputs":[{"internalType":"address","name":"","type":"address"}],"stateMutability":"view","type":"function"},{"inputs":[],"name":"ORDER_TOKEN","outputs":[{"internalType":"contract IERC20Burnable","name":"","type":"address"}],"stateMutability":"view","type":"function"},{"inputs":[],"name":"admin","outputs":[{"internalType":"address","name":"","type":"address"}],"stateMutability":"view","type":"function"},{"inputs":[{"internalType":"uint256","name":"","type":"uint256"}],"name":"allCollections","outputs":[{"internalType":"address","name":"","type":"address"}],"stateMutability":"view","type":"function"},{"inputs":[],"name":"allCollectionsLength","outputs":[{"internalType":"uint256","name":"","type":"uint256"}],"stateMutability":"view","type":"function"},{"inputs":[],"name":"burnAmount","outputs":[{"internalType":"uint256","name":"","type":"uint256"}],"stateMutability":"view","type":"function"},{"inputs":[],"name":"collectionCount","outputs":[{"internalType":"uint256","name":"","type":"uint256"}],"stateMutability":"view","type":"function"},{"inputs":[{"internalType":"address","name":"","type":"address"}],"name":"collectionInfo","outputs":[{"internalType":"address","name":"collectionAddress","type":"address"},{"internalType":"address","name":"creator","type":"address"},{"internalType":"string","name":"name","type":"string"},{"internalType":"string","name":"symbol","type":"string"},{"internalType":"string","name":"baseURI","type":"string"},{"internalType":"uint256","name":"maxSupply","type":"uint256"},{"internalType":"address","name":"mintToken","type":"address"},{"internalType":"uint256","name":"mintPrice","type":"uint256"},{"internalType":"uint256","name":"marketplaceFeePercent","type":"uint256"},{"internalType":"uint256","name":"createdAt","type":"uint256"},{"internalType":"uint256","name":"totalMinted","type":"uint256"},{"internalType":"bool","name":"isActive","type":"bool"}],"stateMutability":"view","type":"function"},{"inputs":[{"internalType":"address","name":"","type":"address"},{"internalType":"uint256","name":"","type":"uint256"}],"name":"collectionsByCreator","outputs":[{"internalType":"address","name":"","type":"address"}],"stateMutability":"view","type":"function"},{"inputs":[{"components":[{"internalType":"string","name":"name","type":"string"},{"internalType":"string","name":"symbol","type":"string"},{"internalType":"string","name":"baseURI","type":"string"},{"internalType":"uint256","name":"maxSupply","type":"uint256"},{"internalType":"address","name":"mintToken","type":"address"},{"internalType":"uint256","name":"mintPrice","type":"uint256"},{"internalType":"uint256","name":"marketplaceFeePercent","type":"uint256"},{"internalType":"string","name":"description","type":"string"},{"internalType":"string","name":"collectionImageUrl","type":"string"}],"internalType":"struct OrderNFTLaunch.CreateParams","name":"params","type":"tuple"}],"name":"createNFTCollection","outputs":[{"internalType":"address","name":"","type":"address"}],"stateMutability":"nonpayable","type":"function"},{"inputs":[{"internalType":"uint256","name":"_offset","type":"uint256"},{"internalType":"uint256","name":"_limit","type":"uint256"},{"internalType":"bool","name":"_activeOnly","type":"bool"}],"name":"getAllNFTMarketplaces","outputs":[{"components":[{"internalType":"address","name":"collectionAddress","type":"address"},{"internalType":"address","name":"creator","type":"address"},{"internalType":"string","name":"name","type":"string"},{"internalType":"string","name":"symbol","type":"string"},{"internalType":"string","name":"baseURI","type":"string"},{"internalType":"uint256","name":"maxSupply","type":"uint256"},{"internalType":"address","name":"mintToken","type":"address"},{"internalType":"uint256","name":"mintPrice","type":"uint256"},{"internalType":"uint256","name":"marketplaceFeePercent","type":"uint256"},{"internalType":"uint256","name":"createdAt","type":"uint256"},{"internalType":"uint256","name":"totalMinted","type":"uint256"},{"internalType":"bool","name":"isActive","type":"bool"}],"internalType":"struct OrderNFTLaunch.CollectionInfo[]","name":"","type":"tuple[]"}],"stateMutability":"view","type":"function"},{"inputs":[{"internalType":"address","name":"_collection","type":"address"}],"name":"getCollectionInfo","outputs":[{"components":[{"internalType":"address","name":"collectionAddress","type":"address"},{"internalType":"address","name":"creator","type":"address"},{"internalType":"string","name":"name","type":"string"},{"internalType":"string","name":"symbol","type":"string"},{"internalType":"string","name":"baseURI","type":"string"},{"internalType":"uint256","name":"maxSupply","type":"uint256"},{"internalType":"address","name":"mintToken","type":"address"},{"internalType":"uint256","name":"mintPrice","type":"uint256"},{"internalType":"uint256","name":"marketplaceFeePercent","type":"uint256"},{"internalType":"uint256","name":"createdAt","type":"uint256"},{"internalType":"uint256","name":"totalMinted","type":"uint256"},{"internalType":"bool","name":"isActive","type":"bool"}],"internalType":"struct OrderNFTLaunch.CollectionInfo","name":"","type":"tuple"}],"stateMutability":"view","type":"function"},{"inputs":[{"internalType":"address","name":"_creator","type":"address"}],"name":"getCollectionsByCreator","outputs":[{"internalType":"address[]","name":"","type":"address[]"}],"stateMutability":"view","type":"function"},{"inputs":[{"internalType":"uint256","name":"_offset","type":"uint256"},{"internalType":"uint256","name":"_limit","type":"uint256"},{"internalType":"address","name":"_creator","type":"address"},{"internalType":"address","name":"_mintToken","type":"address"},{"internalType":"bool","name":"_activeOnly","type":"bool"}],"name":"getFilteredCollections","outputs":[{"components":[{"internalType":"address","name":"collectionAddress","type":"address"},{"internalType":"address","name":"creator","type":"address"},{"internalType":"string","name":"name","type":"string"},{"internalType":"string","name":"symbol","type":"string"},{"internalType":"string","name":"baseURI","type":"string"},{"internalType":"uint256","name":"maxSupply","type":"uint256"},{"internalType":"address","name":"mintToken","type":"address"},{"internalType":"uint256","name":"mintPrice","type":"uint256"},{"internalType":"uint256","name":"marketplaceFeePercent","type":"uint256"},{"internalType":"uint256","name":"createdAt","type":"uint256"},{"internalType":"uint256","name":"totalMinted","type":"uint256"},{"internalType":"bool","name":"isActive","type":"bool"}],"internalType":"struct OrderNFTLaunch.CollectionInfo[]","name":"","type":"tuple[]"}],"stateMutability":"view","type":"function"},{"inputs":[{"internalType":"string","name":"_url","type":"string"}],"name":"isUrlUsed","outputs":[{"internalType":"bool","name":"","type":"bool"}],"stateMutability":"view","type":"function"},{"inputs":[],"name":"pause","outputs":[],"stateMutability":"nonpayable","type":"function"},{"inputs":[],"name":"paused","outputs":[{"internalType":"bool","name":"","type":"bool"}],"stateMutability":"view","type":"function"},{"inputs":[{"internalType":"uint256","name":"_newBurnAmount","type":"uint256"}],"name":"setBurnAmount","outputs":[],"stateMutability":"nonpayable","type":"function"},{"inputs":[{"internalType":"address","name":"_collection","type":"address"},{"internalType":"bool","name":"_isActive","type":"bool"}],"name":"setCollectionStatus","outputs":[],"stateMutability":"nonpayable","type":"function"},{"inputs":[{"internalType":"uint256","name":"_start","type":"uint256"},{"internalType":"uint256","name":"_end","type":"uint256"}],"name":"syncPauseToCollections","outputs":[],"stateMutability":"nonpayable","type":"function"},{"inputs":[{"internalType":"address","name":"_newAdmin","type":"address"}],"name":"transferAdmin","outputs":[],"stateMutability":"nonpayable","type":"function"},{"inputs":[],"name":"unpause","outputs":[],"stateMutability":"nonpayable","type":"function"},{"inputs":[{"internalType":"uint256","name":"_newMintedCount","type":"uint256"}],"name":"updateMintedCount","outputs":[],"stateMutability":"nonpayable","type":"function"},{"inputs":[{"internalType":"string","name":"","type":"string"}],"name":"usedCollectionUrls","outputs":[{"internalType":"bool","name":"","type":"bool"}],"stateMutability":"view","type":"function"}],"evm":{"bytecode":{"linkReferences":{},"object":"608080604052346100455760016000819055805460ff1916905569d3c21bcecceda1000000600255600380546001600160a01b031916331790556178be908161004b8239f35b600080fdfe608060405260043610156200001357600080fd5b60003560e01c80630a9fe8d01462001e1d578063167ef4951462001de75780631f0c602d1462001cd65780633d759a9214620002285780633f4ba83a1462001c27578063449f5d0a1462001ae6578063486a7e6b1462001ac65780634e6fd6c41462001aa757806356fb82be1462001a3c5780635c975abb1462001a1757806375829def14620019015780637c3dc67214620018a05780637f086ed0146200186f5780638456cb5914620018025780639056a04b1462001700578063a6b90e021462001697578063abf1c2041462001608578063b7bf7c5c146200158d578063b97d016f1462000462578063cb7c139014620002e0578063cc43f3d3146200022e578063d57f966b1462000228578063f56b8369146200016b5763f851a440146200013d57600080fd5b3462000166576000366003190112620001665760206001600160a01b0360035416604051908152f35b600080fd5b34620001665760208060031936011262000166576001600160a01b0390816200019362002020565b1660005260058152604060002060405191828183549182815201908193600052826000209060005b818110620002115750505083620001d491038462002092565b60405192818401908285525180915260408401929160005b828110620001fa5785850386f35b8351871685529381019392810192600101620001ec565b8254881684529284019260019283019201620001bb565b62002167565b346200016657602036600319011262000166576004356200025c6001600160a01b03600354163314620021e0565b80156200029c5760407f64cb08366b6486e69e8c2feeb9a0b70224e269763e3a8c965ef2109c7958967b91600254908060025582519182526020820152a1005b606460405162461bcd60e51b815260206004820152601c60248201527f4275726e20616d6f756e74206d75737420626520706f736974697665000000006044820152fd5b346200016657604036600319011262000166576004356024908135906001600160a01b03600362000316828254163314620021e0565b838310156200041e576004548411620003da5760ff6001541615925b8481106200033c57005b82620003488262001fb9565b905490841b1c1690813b1562000166576000809288604051809581937fbf0ca3950000000000000000000000000000000000000000000000000000000083528a60048401525af1620003a7575b620003a191506200227d565b62000332565b67ffffffffffffffff8211620003c557620003a19160405262000395565b86634e487b7160e01b60005260416004526000fd5b60648560176040519162461bcd60e51b8352602060048401528201527f456e6420696e646578206f7574206f6620626f756e64730000000000000000006044820152fd5b606485600d6040519162461bcd60e51b8352602060048401528201527f496e76616c69642072616e6765000000000000000000000000000000000000006044820152fd5b34620001665760031960203682011262000166576004359067ffffffffffffffff82116200016657610120908236030112620001665760026000541462001549576002600055620004b26200222c565b620004c160048201806200228d565b90501515806200152d575b15620014e957620004e460248201826004016200228d565b9050151580620014ca575b1562001486576200050760448201826004016200228d565b905015620014425762000537620005316200052960448401846004016200228d565b3691620021a4565b620023be565b60ff604051602081845162000550818385890162001e52565b810160068152030190205416620013fe576064820135151580620013ec575b15620013a8576001600160a01b036200058b60848401620022c3565b1615620013645760a48201351562001320576103e88060c484013511620012dc57620005be60e48401846004016200228d565b9050116200129857600460206001600160a01b03620005e060848601620022c3565b16604051928380927f313ce5670000000000000000000000000000000000000000000000000000000082525afa6000918162001253575b506200066157606460405162461bcd60e51b815260206004820152601b60248201527f496e76616c6964206d696e7420746f6b656e206d6574616461746100000000006044820152fd5b60ff60129116036200120f576040516370a0823160e01b815261dead6004820152602081602481731bed077195307229fccbc719c5f2ce6416a581805afa9081156200109e57600091620011d7575b50600254604051907f23b872dd00000000000000000000000000000000000000000000000000000000602083015233602483015261dead60448301526064820152606481528060a081011067ffffffffffffffff60a08301111762000dfa5760a0810160e082011067ffffffffffffffff60e08301111762000dfa578060e0620007c09201604052602060a08201527f5361666545524332303a206c6f772d6c6576656c2063616c6c206661696c656460c082015260008082516020840182731bed077195307229fccbc719c5f2ce6416a581805af1903d15620011cc5760a03d916200079d8362002187565b92620007ad604051948562002092565b83523d6000602085013e5b0191620022f9565b8051908115918215620011a6575b5050156200113c576040516370a0823160e01b815261dead6004820152602081602481731bed077195307229fccbc719c5f2ce6416a581805afa9081156200109e5760009162001104575b506002548201809211620010ee5710620010aa5760206200084891816040519382858094519384920162001e52565b600690820190815203019020805460ff191660011790556200086e60048201806200228d565b6200088060248401846004016200228d565b6200089560448694939401866004016200228d565b9290620008a560848801620022c3565b936040519687614c7b81011067ffffffffffffffff614c7b8a01111762000dfa5787966001600160a01b0395620008fb62000912936200092997614c7b62002c0e8d39610120614c7b8d018181520191620022d8565b91614c7b8a0183036020614c7b8c010152620022d8565b91614c7b870183036040614c7b89010152620022d8565b6064860135614c7b8501606081019190915291909216608082015260a485013560a082015260c485013560c08201523360e0820152306101009091015203906000f080156200109e576001600160a01b036200098960048401806200228d565b919062000a0a620009a160248701876004016200228d565b90620009fd620009b860448a018a6004016200228d565b929093620009f0620009cd60848d01620022c3565b976040519a620009dd8c62002074565b8a8d168c523360208d01523691620021a4565b60408a01523691620021a4565b60608701523691620021a4565b6080840152606485013560a08401521660c082015260a483013560e082015260c483013561010082015242610120820152600061014082015260016101608201526001600160a01b03821660005260076020526040600020906001600160a01b0381511673ffffffffffffffffffffffffffffffffffffffff19835416178255600182016001600160a01b0360208301511673ffffffffffffffffffffffffffffffffffffffff19825416179055604081015180519067ffffffffffffffff821162000dfa57819062000ae1600286015462002037565b601f811162001046575b50602090601f831160011462000fcf5760009262000fc3575b50508160011b916000199060031b1c19161760028301555b606081015180519067ffffffffffffffff821162000dfa57819062000b45600386015462002037565b601f811162000f6b575b50602090601f831160011462000ef45760009262000ee8575b50508160011b916000199060031b1c19161760038301555b608081015180519067ffffffffffffffff821162000dfa5762000ba7600485015462002037565b601f811162000e9c575b50602090601f831160011462000e1c579282600b936101609362000c6b979660009262000e10575b50508160011b916000199060031b1c19161760048501555b60a08101516005850155600684016001600160a01b0360c08301511673ffffffffffffffffffffffffffffffffffffffff1982541617905560e0810151600785015561010081015160088501556101208101516009850155610140810151600a8501550151151591019060ff801983541691151516179055565b6004546801000000000000000081101562000dfa5780600162000c92920160045562001fb9565b81549060031b906001600160a01b03808516831b921b19161790553360005260056020526040600020918254926801000000000000000084101562000dfa5760c460e09262000cee8662000d9094600160209901815562002007565b81549060031b906001600160a01b03808916831b921b19161790556001600160a01b0362000d2382600401836004016200228d565b949062000d7362000d8162000d3f60248701876004016200228d565b62000d5160448901896004016200228d565b94909562000d6260848b01620022c3565b9b6040519d8e8181520191620022d8565b918b83038e8d0152620022d8565b9188830360408a0152620022d8565b936064830135606087015216608085015260a481013560a0850152013560c08301527f47b74713d583913a6edc4b92aeefc05736430cfffc369930e78db68a1bb3f80a3392806001600160a01b038616930390a360016000556001600160a01b0360405191168152f35b634e487b7160e01b600052604160045260246000fd5b01519050898062000bd9565b906004850160005260206000209160005b601f198516811062000e835750836101609362000c6b979693600193600b97601f1981161062000e69575b505050811b01600485015562000bf1565b015160001960f88460031b161c1916905589808062000e58565b9192602060018192868501518155019401920162000e2d565b600485016000526020600020601f840160051c81016020851062000ee0575b601f830160051c8201811062000ed357505062000bb1565b6000815560010162000ebb565b508062000ebb565b01519050868062000b68565b9250600385016000526020600020906000935b601f198416851062000f4f576001945083601f1981161062000f35575b505050811b01600383015562000b80565b015160001960f88460031b161c1916905586808062000f24565b8181015183556020948501946001909301929091019062000f07565b909150600385016000526020600020601f840160051c81016020851062000fbb575b90849392915b601f830160051c8201811062000fab57505062000b4f565b6000815585945060010162000f93565b508062000f8d565b01519050868062000b04565b9250600285016000526020600020906000935b601f19841685106200102a576001945083601f1981161062001010575b505050811b01600283015562000b1c565b015160001960f88460031b161c1916905586808062000fff565b8181015183556020948501946001909301929091019062000fe2565b909150600285016000526020600020601f840160051c81016020851062001096575b90849392915b601f830160051c820181106200108657505062000aeb565b600081558594506001016200106e565b508062001068565b6040513d6000823e3d90fd5b606460405162461bcd60e51b815260206004820152601e60248201527f4f52444552206275726e20766572696669636174696f6e206661696c656400006044820152fd5b634e487b7160e01b600052601160045260246000fd5b90506020813d60201162001133575b81620011226020938362002092565b810103126200016657518462000819565b3d915062001113565b608460405162461bcd60e51b815260206004820152602a60248201527f5361666545524332303a204552433230206f7065726174696f6e20646964206e60448201527f6f742073756363656564000000000000000000000000000000000000000000006064820152fd5b8192509060209181010312620001665760200151801515810362000166578480620007ce565b60a0606091620007b8565b90506020813d60201162001206575b81620011f56020938362002092565b8101031262000166575183620006b0565b3d9150620011e6565b606460405162461bcd60e51b815260206004820152602060248201527f4d696e7420746f6b656e206d757374206861766520313820646563696d616c736044820152fd5b9091506020813d6020116200128f575b81620012726020938362002092565b8101031262000166575160ff811681036200016657908462000617565b3d915062001263565b606460405162461bcd60e51b815260206004820152601460248201527f4465736372697074696f6e20746f6f206c6f6e670000000000000000000000006044820152fd5b606460405162461bcd60e51b815260206004820152601860248201527f4d61726b6574706c6163652066656520746f6f206869676800000000000000006044820152fd5b606460405162461bcd60e51b815260206004820152601260248201527f496e76616c6964206d696e7420707269636500000000000000000000000000006044820152fd5b606460405162461bcd60e51b815260206004820152601260248201527f496e76616c6964206d696e7420746f6b656e00000000000000000000000000006044820152fd5b606460405162461bcd60e51b815260206004820152601260248201527f496e76616c6964206d617820737570706c7900000000000000000000000000006044820152fd5b50620186a0606483013511156200056f565b606460405162461bcd60e51b815260206004820152601560248201527f426173652055524920616c7265616479207573656400000000000000000000006044820152fd5b606460405162461bcd60e51b815260206004820152601160248201527f42617365205552492072657175697265640000000000000000000000000000006044820152fd5b606460405162461bcd60e51b815260206004820152601560248201527f496e76616c69642073796d626f6c206c656e67746800000000000000000000006044820152fd5b506014620014df60248301836004016200228d565b90501115620004ef565b606460405162461bcd60e51b815260206004820152601360248201527f496e76616c6964206e616d65206c656e677468000000000000000000000000006044820152fd5b5060646200153f60048301806200228d565b90501115620004cc565b606460405162461bcd60e51b815260206004820152601f60248201527f5265656e7472616e637947756172643a207265656e7472616e742063616c6c006044820152fd5b3462000166576020366003190112620001665760043567ffffffffffffffff8111620001665736602382011215620001665760ff620015f26020620015de81943690602481600401359101620021a4565b816040519382858094519384920162001e52565b8101600681520301902054166040519015158152f35b346200016657602036600319011262000166573360005260076020526001600160a01b0360406000205416156200165357336000526007602052600435600a60406000200155600080f35b606460405162461bcd60e51b815260206004820152601960248201527f4f6e6c7920636f6c6c656374696f6e732063616e2063616c6c000000000000006044820152fd5b34620001665760a036600319011262000166576001600160a01b03604435818116810362000166576064359182168203620001665760843580151581036200016657620016fc92620016ef9260243560043562002883565b6040519182918262001f53565b0390f35b34620001665760203660031901126200016657620016fc6200172162002020565b6200172b62002555565b506001600160a01b03809116600052600760205260ff600b604060002060405193620017578562002074565b8082541685528060018301541660208601526200177760028301620020b5565b60408601526200178a60038301620020b5565b60608601526200179d60048301620020b5565b6080860152600582015460a086015260068201541660c0850152600781015460e085015260088101546101008501526009810154610120850152600a810154610140850152015416151561016082015260405191829160208352602083019062001e9e565b346200016657600036600319011262000166576200182d6001600160a01b03600354163314620021e0565b620018376200222c565b600160ff19815416176001557f62e78cea01bee320cd4e420270b5ea74000d11b0c9f74754ebdbfc544b05a2586020604051338152a1005b346200016657600036600319011262000166576020604051731bed077195307229fccbc719c5f2ce6416a581808152f35b34620001665760403660031901126200016657620018bd62002020565b602435906001600160a01b038091166000526005602052604060002080548310156200016657602092620018f19162002007565b9190546040519260031b1c168152f35b346200016657602036600319011262000166576200191e62002020565b600354906001600160a01b03808316916200193b833314620021e0565b16918215620019d3578183146200198f5773ffffffffffffffffffffffffffffffffffffffff191682176003557ff8ccb027dfcd135e000e9d45e6cc2d662578a8825d4c45b5e32e0adf67e79ec6600080a3005b606460405162461bcd60e51b815260206004820152600d60248201527f416c72656164792061646d696e000000000000000000000000000000000000006044820152fd5b606460405162461bcd60e51b815260206004820152601160248201527f496e76616c6964206e65772061646d696e0000000000000000000000000000006044820152fd5b34620001665760003660031901126200016657602060ff600154166040519015158152f35b3462000166576020366003190112620001665760043567ffffffffffffffff80821162000166573660238301121562000166578160040135908111620001665736602482840101116200016657620015f26020620015de62000531829560ff956024369201620021a4565b34620001665760003660031901126200016657602060405161dead8152f35b346200016657600036600319011262000166576020600254604051908152f35b3462000166576040366003190112620001665762001b0362002020565b6024358015159081810362000166576001600160a01b03809362001b2d82600354163314620021e0565b1692831562001be357836000526007602052604060002054161562001b9f577f79e37877969a45af2a00e507e8e00e9701442e50f51a85dae8dafc20c1341c4d9162001b966020928560005260078452600b6040600020019060ff801983541691151516179055565b604051908152a2005b606460405162461bcd60e51b815260206004820152601460248201527f436f6c6c656374696f6e206e6f7420666f756e640000000000000000000000006044820152fd5b606460405162461bcd60e51b815260206004820152601a60248201527f496e76616c696420636f6c6c656374696f6e20616464726573730000000000006044820152fd5b3462000166576000366003190112620001665762001c526001600160a01b03600354163314620021e0565b60015460ff81161562001c925760ff19166001557f5db9ee0a495bf2e6ff9c91a7834c1ba4fdd244a5e8aa4e537bd38aeae4b073aa6020604051338152a1005b606460405162461bcd60e51b815260206004820152601460248201527f5061757361626c653a206e6f74207061757365640000000000000000000000006044820152fd5b346200016657602036600319011262000166576001600160a01b038062001cfc62002020565b166000526007602052604060002090808254169080600184015416926002810162001d2790620020b5565b9062001d3660038201620020b5565b62001d4460048301620020b5565b600583015494600684015416600784015490600885015492600986015494600a87015496600b015460ff16976040519b8c9b8c5260208c01526101808060408d01528b0162001d939162001e77565b8a810360608c015262001da69162001e77565b89810360808b015262001db99162001e77565b9660a089015260c088015260e087015261010086015261012085015261014084015215156101608301520390f35b3462000166576020366003190112620001665760043560045481101562000166576001600160a01b03620018f160209262001fb9565b3462000166576060366003190112620001665760443580151581036200016657620016ef620016fc9160243560043562002660565b60005b83811062001e665750506000910152565b818101518382015260200162001e55565b9060209162001e928151809281855285808601910162001e52565b601f01601f1916010190565b906001600160a01b039182815116825282602082015116602083015262001f0362001ef062001edd604084015161018080604088015286019062001e77565b6060840151858203606087015262001e77565b6080830151848203608086015262001e77565b9260a082015160a084015260c08201511660c083015260e081015160e083015261010080820151908301526101208082015190830152610140808201519083015261016080910151151591015290565b602080820190808352835180925260408301928160408460051b8301019501936000915b84831062001f885750505050505090565b909192939495848062001fa8600193603f198682030187528a5162001e9e565b980193019301919493929062001f77565b60045481101562001ff15760046000527f8a35acfbc15ff81a39ae7d344fd709f28e8600b4aa8c65c6b64bfe7fe36bd19b0190600090565b634e487b7160e01b600052603260045260246000fd5b805482101562001ff15760005260206000200190600090565b600435906001600160a01b03821682036200016657565b90600182811c9216801562002069575b60208310146200205357565b634e487b7160e01b600052602260045260246000fd5b91607f169162002047565b610180810190811067ffffffffffffffff82111762000dfa57604052565b90601f8019910116810190811067ffffffffffffffff82111762000dfa57604052565b9060405191826000825492620020cb8462002037565b908184526001948581169081600014620021425750600114620020fb575b5050620020f99250038362002092565b565b9093915060005260209081600020936000915b81831062002129575050620020f993508201013880620020e9565b855488840185015294850194879450918301916200210e565b915050620020f994506020925060ff191682840152151560051b8201013880620020e9565b346200016657600036600319011262000166576020600454604051908152f35b67ffffffffffffffff811162000dfa57601f01601f191660200190565b929192620021b28262002187565b91620021c2604051938462002092565b82948184528183011162000166578281602093846000960137010152565b15620021e857565b606460405162461bcd60e51b815260206004820152600a60248201527f4f6e6c792061646d696e000000000000000000000000000000000000000000006044820152fd5b60ff600154166200223957565b606460405162461bcd60e51b815260206004820152601060248201527f5061757361626c653a20706175736564000000000000000000000000000000006044820152fd5b6000198114620010ee5760010190565b903590601e198136030182121562000166570180359067ffffffffffffffff821162000166576020019181360383136200016657565b356001600160a01b0381168103620001665790565b908060209392818452848401376000828201840152601f01601f1916010190565b909190156200237157508051156200230e5790565b731bed077195307229fccbc719c5f2ce6416a581803b156200232d5790565b606460405162461bcd60e51b815260206004820152601d60248201527f416464726573733a2063616c6c20746f206e6f6e2d636f6e74726163740000006044820152fd5b815115620023825750805190602001fd5b620023a89060405191829162461bcd60e51b835260206004840152602483019062001e77565b0390fd5b90815181101562001ff1570160200190565b9060005b8251811015620024b4577fff00000000000000000000000000000000000000000000000000000000000000907f4100000000000000000000000000000000000000000000000000000000000000826200241c8387620023ac565b51161015806200247b575b6200243f575b6200243991506200227d565b620023c2565b6200244b8185620023ac565b5191602060f893841c0160ff8111620010ee5762002439931b1660001a620024748286620023ac565b536200242d565b507f5a0000000000000000000000000000000000000000000000000000000000000082620024aa8387620023ac565b5116111562002427565b5090805180151590816200250a575b50620024cc5790565b62002507602160405183620024ec82955180926020808601910162001e52565b8101602f60f81b602082015203600181018452018262002092565b90565b600019810191508111620010ee577fff000000000000000000000000000000000000000000000000000000000000006200254a602f60f81b9284620023ac565b5116141538620024c3565b60405190620025648262002074565b8161016060009182815282602082015260606040820152606080820152606060808201528260a08201528260c08201528260e08201528261010082015282610120820152826101408201520152565b67ffffffffffffffff811162000dfa5760051b60200190565b6040516020810181811067ffffffffffffffff82111762000dfa576040526000815290565b90620025fd82620025b3565b6200260c604051918262002092565b82815280926200261f601f1991620025b3565b019060005b8281106200263157505050565b6020906200263e62002555565b8282850101520162002624565b805182101562001ff15760209160051b010190565b90916004805490818410156200287457600093805b838110806200286a575b15620026fa57620026908162001fb9565b90548615918215620026cf575b5050620026b6575b620026b0906200227d565b62002675565b94620026c6620026b0916200227d565b959050620026a5565b6001600160a01b03925060031b1c16600052600760205260ff600b604060002001541638806200269d565b509290936200270c90959295620025f1565b916000935b8681108062002860575b156200285657600b60ff620027308362001fb9565b6001600160a01b03939193809454600392831b1c1660005260076020948186526200279560409384600020948051986200276a8a62002074565b848754168a5284600188015416908a01526200278960028701620020b5565b908901528401620020b5565b6060870152620027a78c8401620020b5565b6080870152600583015460a087015260068301541660c086015281015460e085015260088101546101008501526009810154610120850152600a81015461014085015201541615158061016083015284159081156200284d575b506200281a575b5062002814906200227d565b62002711565b85620028459162002831620028149498886200264b565b526200283e81876200264b565b506200227d565b949062002808565b90503862002801565b5050509250505090565b508185106200271b565b508686106200267f565b505050505062002507620025cc565b9093949291946004918254908181101562002bfb57600095815b8381108062002bf1575b1562002a1f5789610160620028bc8362001fb9565b92906001600160a01b03809154600395861b1c16600052806007928b60ff600b602098878a526200292e604094620029218660002093875197620029008962002074565b8a86541689528a6001870154169e89019e8f526200278960028701620020b5565b60608701528201620020b5565b6080850152600581015460a085015285600682015416978860c086015281015460e085015260088101546101008501526009810154610120850152600a8101546101408501520154161515958691015216801594851562002a11575b505083620029ea575b505081620029cd575b50620029b4575b620029ae906200227d565b6200289d565b96620029c4620029ae916200227d565b979050620029a3565b861591508115620029e1575b50386200299c565b905038620029d9565b909192508916801591821562002a06575b505090388062002993565b1490503880620029fb565b51821614935038806200298a565b509094929791965094929462002a3584620025f1565b936000955b8881108062002be7575b1562002bda578762002a568262001fb9565b906001600160a01b03809154600393841b1c16600052600760ff600b60209483865262002ad060409762002ac389600020938a519a62002a968c62002074565b898654168c52896001870154169a8c019a8b5262002ab760028701620020b5565b908c01528401620020b5565b60608a01528201620020b5565b6080880152600581015460a088015284600682015416938460c089015281015460e088015260088101546101008801526009810154610120880152600a81015461014088015201541615159182610160860152808916801594851562002bcc575b50508362002ba5575b50508162002b88575b5062002b5c575b5062002b56906200227d565b62002a3a565b8762002b809162002b7362002b56949a8a6200264b565b526200283e81896200264b565b969062002b4a565b8c159150811562002b9c575b503862002b43565b90503862002b94565b909192508816801591821562002bc1575b505090388062002b3a565b149050388062002bb6565b518216149350388062002b31565b5050965050509250505090565b5081871062002a44565b50888810620028a7565b505050505091505062002507620025cc56fe608060409080825234620004c65762004c7b80380380916200002282856200089d565b833981019061012081830312620004c65780516001600160401b038111620004c6578262000052918301620008c1565b60208201516001600160401b038111620004c6578362000074918401620008c1565b8285015190936001600160401b038211620004c65762000096918401620008c1565b926060830151620000aa6080850162000938565b9060a08501519160c086015193620000d4610100620000cc60e08a0162000938565b980162000938565b86519096906001600160401b0381116200043157600054600181811c9116801562000892575b60208210146200041057601f81116200083e575b50806020601f8211600114620007c757600091620007bb575b508160011b916000199060031b1c1916176000555b81516001600160401b0381116200043157600154600181811c91168015620007b0575b60208210146200041057601f81116200075b575b50806020601f8211600114620006e257600091620006d6575b508160011b916000199060031b1c1916176001555b600160065560ff19600754166007555115620006a25751156200066c5786511562000634578115620005f0576001600160a01b03908116958615620005b757831562000573576103e88511620005405781169485156200050a5716958615620004d457875163313ce56760e01b81526020816004818a5afa600091816200048a575b506200026d57885162461bcd60e51b815260206004820152601b60248201527f496e76616c6964206d696e7420746f6b656e206d6574616461746100000000006044820152606490fd5b60ff601291160362000447578051906001600160401b038211620004315760085490600182811c9216801562000426575b6020831014620004105781601f849311620003ac575b50602090601f8311600114620003325760009262000326575b50508160011b916000199060031b1c1916176008555b60095560018060a01b03199384600a541617600a55600b55600c558160105416176010556011541617601155600160125401601255516142cd90816200094e8239f35b015190503880620002cd565b6008600090815260008051602062004c3b8339815191529350601f198516905b81811062000393575090846001959493921062000379575b505050811b01600855620002e3565b015160001960f88460031b161c191690553880806200036a565b9293602060018192878601518155019501930162000352565b600860005290915060008051602062004c3b833981519152601f840160051c8101916020851062000405575b90601f859493920160051c01905b818110620003f55750620002b4565b60008155849350600101620003e6565b9091508190620003d8565b634e487b7160e01b600052602260045260246000fd5b91607f16916200029e565b634e487b7160e01b600052604160045260246000fd5b6064885162461bcd60e51b815260206004820152602060248201527f4d696e7420746f6b656e206d757374206861766520313820646563696d616c736044820152fd5b9091506020813d602011620004cb575b81620004a9602093836200089d565b81010312620004c6575160ff81168103620004c657903862000223565b600080fd5b3d91506200049a565b875162461bcd60e51b815260206004820152600f60248201526e496e76616c696420666163746f727960881b6044820152606490fd5b885162461bcd60e51b815260206004820152600f60248201526e24b73b30b634b21031b932b0ba37b960891b6044820152606490fd5b885162461bcd60e51b815260206004820152600c60248201526b08ccaca40e8dede40d0d2ced60a31b6044820152606490fd5b885162461bcd60e51b815260206004820152601b60248201527f4d696e74207072696365206d75737420626520706f73697469766500000000006044820152606490fd5b885162461bcd60e51b815260206004820152601260248201527124b73b30b634b21036b4b73a103a37b5b2b760711b6044820152606490fd5b875162461bcd60e51b815260206004820152601b60248201527f4d617820737570706c79206d75737420626520706f73697469766500000000006044820152606490fd5b875162461bcd60e51b815260206004820152601160248201527010985cd948155492481c995c5d5a5c9959607a1b6044820152606490fd5b875162461bcd60e51b815260206004820152600f60248201526e14de5b589bdb081c995c5d5a5c9959608a1b6044820152606490fd5b885162461bcd60e51b815260206004820152600d60248201526c13985b59481c995c5d5a5c9959609a1b6044820152606490fd5b9050830151386200018c565b60016000908152925060008051602062004c5b833981519152905b601f198316841062000742576001935082601f1981161062000728575b5050811b01600155620001a1565b85015160001960f88460031b161c1916905538806200071a565b85810151825560209384019360019092019101620006fd565b600160005260008051602062004c5b833981519152601f830160051c810160208410620007a8575b601f830160051c820181106200079b57505062000173565b6000815560010162000783565b508062000783565b90607f16906200015f565b90508201513862000127565b6000808052925060008051602062004c1b833981519152905b601f198316841062000825576001935082601f198116106200080b575b5050811b016000556200013c565b84015160001960f88460031b161c191690553880620007fd565b84810151825560209384019360019092019101620007e0565b6000805260008051602062004c1b833981519152601f830160051c8101602084106200088a575b601f830160051c820181106200087d5750506200010e565b6000815560010162000865565b508062000865565b90607f1690620000fa565b601f909101601f19168101906001600160401b038211908210176200043157604052565b919080601f84011215620004c6578251906001600160401b038211620004315760405191602091620008fd601f8301601f19168401856200089d565b818452828287010111620004c65760005b8181106200092457508260009394955001015290565b85810183015184820184015282016200090e565b51906001600160a01b0382168203620004c65756fe608080604052600436101561001357600080fd5b600090813560e01c90816301ffc9a714612a0c5750806302d05d3f146129e557806306fdde0314612916578063081812fc146128f7578063095ea7b3146127685780630e980602146122815780631171bda9146120db57806318160ddd146120af5780632004ffd91461208857806323b872dd146120635780632c3c7f3d14611f5b5780632d296bf114611c00578063312e13dc14611bc857806338d73b0d14611baa5780633f4ba83a14611b4357806342842e0e14611b1057806351335b50146117735780635894bd51146117005780635c975abb146116dd57806361cf4863146116a45780636352211e146116745780636817c76c146116565780636a627842146113f857806370a08231146113cc5780637284e416146113265780637819666214610f745780637c6d908b14610f1857806382367b2d14610e715780638424d70b14610e395780638456cb5914610e125780638462151c14610de157806384b75f9514610dc35780638b63c26714610c955780638d09652114610c755780639407ea9814610bc357806395d89b4114610b20578063a22cb46514610a46578063ad3a358c1461099b578063b2d1eb80146108cd578063b88d4fde1461083f578063bf0ca395146106fb578063bf2d9e0b146106dd578063c128b23114610645578063c45a01551461061e578063c87b56dd146105ea578063d5abeb01146105cc578063d8cba251146104c8578063de74e57b14610454578063e985e9c5146103ff578063f4a0a52814610390578063fa3fa1961461028e5763fcce48831461025d57600080fd5b3461028b57602036600319011261028b5760ff60406020926004358152601484522054166040519015158152f35b80fd5b503461028b57602036600319011261028b576102a8612b25565b601054906001600160a01b03808316916102c3833314613494565b1691821561034c57818314610308576001600160a01b03191682176010557f7f11fe0c7098e1a76afcc68f35abaa07ef156fa7d6dd2d39664812fe37348d168380a380f35b606460405162461bcd60e51b815260206004820152600f60248201527f416c72656164792063726561746f7200000000000000000000000000000000006044820152fd5b606460405162461bcd60e51b815260206004820152601360248201527f496e76616c6964206e65772063726561746f72000000000000000000000000006044820152fd5b503461028b57602036600319011261028b577f2e1c9e000c6e8dda4d03536adb13b7cb6034ccff90d17f01de381e4d5097b52560406004356103de6001600160a01b03601054163314613494565b6103e981151561352f565b600b549080600b5582519182526020820152a180f35b503461028b57604036600319011261028b57610419612b25565b6040610423612b3b565b926001600160a01b0380931681526005602052209116600052602052602060ff604060002054166040519015158152f35b503461028b57602036600319011261028b57604060c09160043581526013602052208054906001600160a01b039081600182015416916002820154906003830154169060ff6005600485015494015416936040519586526020860152604085015260608401526080830152151560a0820152f35b503461028b576020806003193601126105c8576104e3612b25565b82908392601554926001600160a01b03809316945b84811061057e575061050990613d93565b938592865b85811061052757604051806105238982612d7b565b0390f35b61053081612bb4565b90549060031b1c808952601385528383600160408c200154161461055e575b5061055990613c08565b61050e565b856105779161057161055994988b613c17565b52613c08565b949061054f565b61058781612bb4565b90549060031b1c8752601383528584600160408a20015416146105b3575b6105ae90613c08565b6104f8565b906105c06105ae91613c08565b9190506105a5565b5080fd5b503461028b578060031936011261028b576020600954604051908152f35b503461028b57602036600319011261028b5761052361060a600435613e81565b604051918291602083526020830190612b00565b503461028b578060031936011261028b5760206001600160a01b0360115416604051908152f35b503461028b5761065d61065736612d65565b90613c2b565b60405190602080830190808452825180925280604085019301945b8281106106855784840385f35b855180518552808301516001600160a01b039081168685015260408083015190870152606080830151909116908601526080808201519086015260a0908101511515908501529481019460c090930192600101610678565b503461028b578060031936011261028b576020601754604051908152f35b503461028b57602036600319011261028b57600435801515810361083a576001600160a01b036011541633036107f657156107b45760075460ff8116156107705760ff19166007557f5db9ee0a495bf2e6ff9c91a7834c1ba4fdd244a5e8aa4e537bd38aeae4b073aa6020604051338152a180f35b606460405162461bcd60e51b815260206004820152601460248201527f5061757361626c653a206e6f74207061757365640000000000000000000000006044820152fd5b6107bc6134df565b600160ff1960075416176007557f62e78cea01bee320cd4e420270b5ea74000d11b0c9f74754ebdbfc544b05a2586020604051338152a180f35b606460405162461bcd60e51b815260206004820152600c60248201527f4f6e6c7920666163746f727900000000000000000000000000000000000000006044820152fd5b600080fd5b503461028b57608036600319011261028b57610859612b25565b610861612b3b565b906064359060443567ffffffffffffffff83116108c957366023840112156108c9576108c69361089e6108c1943690602481600401359101612dd2565b926108b16108ac843361302c565b612f45565b6108bc83838361310b565b613433565b612fb6565b80f35b8480fd5b503461028b578060031936011261028b576040516000601c546108ef81612c01565b808452906001908181169081156109745750600114610919575b6105238461060a81860382612c9d565b601c600090815292507f0e4562a10381dec21b205ed72637e6b1b523bdd0e4d4d50af5cd23dd4500a2115b82841061095c57505050810160200161060a82610909565b80546020858701810191909152909301928101610944565b60ff191660208087019190915292151560051b8501909201925061060a9150839050610909565b503461028b57602036600319011261028b576004356109b86134df565b6109e06109db8260005260026020526001600160a01b0360406000205416151590565b613a13565b6109fc6109ec82612ede565b6001600160a01b03163314613a5e565b8082526014602052610a1460ff604084205416613aa9565b610a1d816141a4565b33907fbe50bf6d5ebc58e29a68dddccdef1c087a9e6dd728a5c3247051d7fdad14219b8380a380f35b503461028b57604036600319011261028b57610a60612b25565b602435908115159081830361083a576001600160a01b031691823314610adc57610aad903385526005602052604085208460005260205260406000209060ff801983541691151516179055565b6040519081527f17307eab39ab6107e8899845ad3d59bd9653f200f220920489ca2b5937696c3160203392a380f35b606460405162461bcd60e51b815260206004820152601960248201527f4552433732313a20617070726f766520746f2063616c6c6572000000000000006044820152fd5b503461028b578060031936011261028b5760405160006001805490610b4482612c01565b808552918181169081156109745750600114610b6a576105238461060a81860382612c9d565b600081815292507fb10e2d527612073b26eecdfd717e6a320cf44b4afac2b0732d9fcbe2b7fa0cf65b828410610bab57505050810160200161060a82610909565b80546020858701810191909152909301928101610b93565b503461028b57602036600319011261028b57600435610bee6001600160a01b03601054163314613494565b6103e88111610c315760407f936008f1e981d6f48d4a529714c27d74d644750a1d215451212ce0f2476f2fbc91600c549080600c5582519182526020820152a180f35b606460405162461bcd60e51b815260206004820152600c60248201527f46656520746f6f206869676800000000000000000000000000000000000000006044820152fd5b503461028b57602036600319011261028b5761052361060a600435614171565b503461028b57604036600319011261028b57610caf612b25565b602435906001600160a01b0390610ccb82601054163314613494565b610cd3613640565b81811691610ce2831515613b5a565b610ced841515613ba5565b828552601960205283604086205410610d7f57610d5984847f0121b283ed79f0646a25775a9eb3c86aa23bea96a49ef2fad07d17686dfd2c60958852601960205260408820610d3d838254613610565b9055610d4b82601754613610565b601755836010541690613af4565b601054604080519586526001600160a01b039390931660208601521692a2600160065580f35b606460405162461bcd60e51b815260206004820152601460248201527f496e73756666696369656e7420726576656e75650000000000000000000000006044820152fd5b503461028b578060031936011261028b576020601854604051908152f35b503461028b57602036600319011261028b57610523610e06610e01612b25565b613dc5565b60405191829182612d7b565b503461028b578060031936011261028b576107b46001600160a01b03601054163314613494565b503461028b57602036600319011261028b5760406020916001600160a01b03610e60612b25565b168152601a83522054604051908152f35b503461028b5760407f15819dd2fd9f6418b142e798d08a18d0bf06ea368f4480b7b0d3f75bd966bc48610ea336612d65565b610ec86109db83959360005260026020526001600160a01b0360406000205416151590565b610ed46109ec85612ede565b8385526014602052610eeb60ff8387205416613aa9565b610ef681151561352f565b838552601360205260028286200190808254925582519182526020820152a280f35b503461028b57602036600319011261028b5760043567ffffffffffffffff81116105c8576040602092610f5b610f5460ff943690600401612b51565b3691612dd2565b8481519101208152600e84522054166040519015158152f35b503461028b57606036600319011261028b576004356024918235604435926001600160a01b03938481169485820361083a57610fae613640565b610fb66134df565b610fd96109db8460005260026020526001600160a01b0360406000205416151590565b610fee610fe584612ede565b82163314613a5e565b8285526020956014875260ff6040872054166112e35761100f85151561352f565b80156112a0576040517f313ce5670000000000000000000000000000000000000000000000000000000081528781600481855afa879181611263575b5061109357606488601e8b6040519262461bcd60e51b845260048401528201527f496e76616c6964207061796d656e7420746f6b656e206d6574616461746100006044820152fd5b918891601260ff8a9516036111fa57906005868961113894604051946110b886612c65565b83865288860190338252604087018d8152606088019384526040608089019542875260a08a019760018952815260138d5220975188558160018901935116926001600160a01b03199384825416179055516002880155600387019251169082541617905551600484015551151591019060ff801983541691151516179055565b6014825260408620600160ff1982541617905560166015549252816040872055680100000000000000008210156111e857507fad9bd239ed4e99994741303afbd6dd4c6e9e20ffd17a1241c5f2014145d3a558916111bc846111a38460016111dd9601601555612bb4565b90919082549060031b91821b91600019901b1916179055565b604080519586526001600160a01b0390911660208601523394918291820190565b0390a3600160065580f35b85634e487b7160e01b81526041600452fd5b6084846023856040519262461bcd60e51b845260048401528201527f5061796d656e7420746f6b656e206d757374206861766520313820646563696d60448201527f616c7300000000000000000000000000000000000000000000000000000000006064820152fd5b9091508881813d8311611299575b61127b8183612c9d565b81010312611295575160ff8116810361129557903861104b565b8780fd5b503d611271565b60648760158a6040519262461bcd60e51b845260048401528201527f496e76616c6964207061796d656e7420746f6b656e00000000000000000000006044820152fd5b606487600f8a6040519262461bcd60e51b845260048401528201527f546f6b656e206973206c697374656400000000000000000000000000000000006044820152fd5b503461028b578060031936011261028b576040516000601b5461134881612c01565b808452906001908181169081156109745750600114611371576105238461060a81860382612c9d565b601b600090815292507f3ad8aa4f87544323a9d1e5dd902f40c356527a7955687113db5f9a85ad579dc15b8284106113b457505050810160200161060a82610909565b8054602085870181019190915290930192810161139c565b503461028b57602036600319011261028b5760206113f06113eb612b25565b612e09565b604051908152f35b503461028b576020806003193601126105c857611413612b25565b61141b613640565b6114236134df565b6001600160a01b03908181169061143b82151561357a565b6012549261144d6009548511156135c5565b80600a54166040516370a0823160e01b918282523060048301528782602481845afa91821561164b57899261161a575b50600b5461148e9130903390613695565b8683600a54169260246040518095819382523060048301525afa801561160f57869289916115da575b506114cc92916114c691613610565b9361381c565b6001601254016012556114e182601754613633565b60175580600a5416865260198552604086206114fe838254613633565b905560115460125460001981019183169082116115c657908188923b156115c257602483926040519a8b938492632afc708160e21b845260048401525af19687156115b557859697611597575b5050600a546040805193845291166001600160a01b031660208301527f6a1a369ef3c3eebe428c993f6eb79fb1438544741070bc7a4388c801fa08463d91a36001600655604051908152f35b8192939495506115a690612c3b565b61028b5790818594939261154b565b50604051903d90823e3d90fd5b8280fd5b602488634e487b7160e01b81526011600452fd5b809350888092503d8311611608575b6115f38183612c9d565b8101031261083a5790518591906114cc6114b7565b503d6115e9565b6040513d8a823e3d90fd5b9091508781813d8311611644575b6116328183612c9d565b8101031261083a57519061148e61147d565b503d611628565b6040513d8b823e3d90fd5b503461028b578060031936011261028b576020600b54604051908152f35b503461028b57602036600319011261028b576020611693600435612ede565b6001600160a01b0360405191168152f35b503461028b57602036600319011261028b576004359060155482101561028b5760206116cf83612bb4565b90546040519160031b1c8152f35b503461028b578060031936011261028b57602060ff600754166040519015158152f35b503461028b578060031936011261028b5760125460001981019190821161175f5760e08260095460175460185460155490600b5492600c5494604051968752602087015260408601526060850152608084015260a083015260c0820152f35b80634e487b7160e01b602492526011600452fd5b503461028b57604036600319011261028b5767ffffffffffffffff906004358281116105c8576117a7903690600401612b51565b9290602435828111611b0c576117c1903690600401612b51565b9290946117da6001600160a01b03601054163314613494565b6103e88111611ac8576101f48411611a8457818111611a7057806117ff601b54612c01565b93601f94858111611a03575b50869085831160011461197e578792611973575b50508160011b916000199060031b1c191617601b555b821161195f57611846601c54612c01565b818111611902575b508290821160011461188757829382939261187c575b50508160011b916000199060031b1c191617601c5580f35b013590503880611864565b601f198216937f0e4562a10381dec21b205ed72637e6b1b523bdd0e4d4d50af5cd23dd4500a21191845b8681106118ea57508360019596106118d0575b505050811b01601c5580f35b0135600019600384901b60f8161c191690553880806118c4565b909260206001819286860135815501940191016118b1565b7f0e4562a10381dec21b205ed72637e6b1b523bdd0e4d4d50af5cd23dd4500a2118280850160051c82019260208610611956575b0160051c01905b81811061194a575061184e565b6000815560010161193d565b92508192611936565b602483634e487b7160e01b81526041600452fd5b01359050388061181f565b601b88527f3ad8aa4f87544323a9d1e5dd902f40c356527a7955687113db5f9a85ad579dc1925090601f198416885b8181106119eb57509084600195949392106119d1575b505050811b01601b55611835565b0135600019600384901b60f8161c191690553880806119c3565b919360206001819287870135815501950192016119ad565b909150601b87527f3ad8aa4f87544323a9d1e5dd902f40c356527a7955687113db5f9a85ad579dc18580850160051c82019260208610611a67575b9085949392910160051c01905b818110611a58575061180b565b60008155849350600101611a4b565b92508192611a3e565b602485634e487b7160e01b81526041600452fd5b606460405162461bcd60e51b815260206004820152601260248201527f496d6167652055524c20746f6f206c6f6e6700000000000000000000000000006044820152fd5b606460405162461bcd60e51b815260206004820152601460248201527f4465736372697074696f6e20746f6f206c6f6e670000000000000000000000006044820152fd5b8380fd5b503461028b576108c66108c1611b2536612b7f565b9060405192611b3384612c81565b8684526108b16108ac843361302c565b503461028b578060031936011261028b57611b6a6001600160a01b03601054163314613494565b60075460ff8116156107705760ff19166007557f5db9ee0a495bf2e6ff9c91a7834c1ba4fdd244a5e8aa4e537bd38aeae4b073aa6020604051338152a180f35b503461028b578060031936011261028b576020600c54604051908152f35b503461028b57602036600319011261028b5760406020916001600160a01b03611bef612b25565b168152601983522054604051908152f35b503461028b576020806003193601126105c85760043590611c1f613640565b611c276134df565b611c4a6109db8360005260026020526001600160a01b0360406000205416151590565b81835260148152611c6160ff604085205416613aa9565b81835260138152604083209160405191611c7a83612c65565b835483526001600160a01b03806001860154168285019081526002860154946040810195865260ff60058460038a0154169860608401998a5260048101546080850152015416159060a08215910152611f1757818151163314611ed357819051169351945116611ce9836141a4565b604051946370a0823160e01b908187523060048801528387602481865afa96871561160f578897611ea2575b50611d2290303385613695565b6040518181523060048201528381602481865afa801561160f5787908990611e71575b611d4f9250613610565b95600c54808802908882041488151715611e5d57612710611d71910488613610565b80611e4c575b506040519182523060048301528382602481865afa801561160f578890611e1d575b611da39250613610565b9182611df1575b611db584338761310b565b60405195865285015260408401527f695c2b5c229b2e096e844e7dfb1515d51431aad217561e67062e3e0ae7582ce960603394a4600160065580f35b611dfd83601854613633565b601855818752601a815260408720611e16848254613633565b9055611daa565b508382813d8311611e45575b611e338183612c9d565b8101031261083a57611da39151611d99565b503d611e29565b611e57908785613af4565b38611d77565b602489634e487b7160e01b81526011600452fd5b50508381813d8311611e9b575b611e888183612c9d565b8101031261083a5786611d4f9151611d45565b503d611e7e565b9096508381813d8311611ecc575b611eba8183612c9d565b8101031261083a575195611d22611d15565b503d611eb0565b6064836040519062461bcd60e51b82526004820152601460248201527f43616e6e6f7420627579206f776e20746f6b656e0000000000000000000000006044820152fd5b6064836040519062461bcd60e51b82526004820152601260248201527f4c697374696e67206e6f742061637469766500000000000000000000000000006044820152fd5b503461028b57604036600319011261028b57611f75612b25565b602435906001600160a01b0390611f9182601054163314613494565b611f99613640565b81811691611fa8831515613b5a565b611fb3841515613ba5565b828552601a6020528360408620541061201f57610d5984847f9bb58b6694ef0e8a4f1486ce0ced951b4969751ce6137ffe5e5e8ed4896e9a32958852601a60205260408820612003838254613610565b905561201182601854613610565b601855836010541690613af4565b606460405162461bcd60e51b815260206004820152601160248201527f496e73756666696369656e7420666565730000000000000000000000000000006044820152fd5b503461028b576108c661207536612b7f565b916120836108ac843361302c565b61310b565b503461028b578060031936011261028b5760206001600160a01b03600a5416604051908152f35b503461028b578060031936011261028b5760125460001981019190821161175f57602082604051908152f35b503461028b576120ea36612b7f565b91906001600160a01b03809261210582601054163314613494565b61210d613640565b169161211a831515613b5a565b811692831561223d5761212e811515613ba5565b8285526020916019835261214f6040872054601a8552604088205490613633565b6040516370a0823160e01b81523060048201528481602481895afa90811561160f578490899261220b575b506121859192613633565b116121c757906121b8817faca8fb252cde442184e5f10e0f2e6e4029e8cd7717cae63559079610702436aa949386613af4565b604051908152a3600160065580f35b6064836040519062461bcd60e51b82526004820152601e60248201527f43616e6e6f74207265636f7665722070726f7465637465642066756e647300006044820152fd5b809250868092503d8311612236575b6122248183612c9d565b8101031261083a57518361218561217a565b503d61221a565b606460405162461bcd60e51b815260206004820152601960248201527f496e76616c696420726563697069656e742061646472657373000000000000006044820152fd5b503461028b57604036600319011261028b5761229b612b25565b9060243567ffffffffffffffff81116105c8576122bc903690600401612b51565b926122c5613640565b6122cd6134df565b6122e16001600160a01b038216151561357a565b601254926122f36009548511156135c5565b8415612724576101f485116126e05761230d368685612dd2565b6020815191012090818152600e60205260ff60408220541661269c576001600160a01b03600a54166040516370a0823160e01b8152306004820152602081602481855afa90811561265d578391612668575b50612373602492600b549030903390613695565b60206001600160a01b03600a5416604051938480926370a0823160e01b82523060048301525afa801561265d578390612627575b6123b19250613610565b916123bc868561381c565b600160125401601255858252600d6020526040822067ffffffffffffffff881161195f576123ea8154612c01565b601f81116125e2575b508783601f821160011461257f578491612574575b508860011b906000198a60031b1c19161790555b858252600f602052604082209060ff19916001838254161790558252600e6020526001604083209182541617905561245682601754613633565b6017556001600160a01b03600a5416815260196020526040812061247b838254613633565b90556001600160a01b0360115416601254600019810190811161256057813b156115c2578291602483926040519485938492632afc708160e21b845260048401525af1801561255557946001600160a01b0388957f5974d77c5da341f66bb6fb040d92b0c537c5abf5a19d1f8ca12a591f61b9f72f9560209a956080958b9a612546575b509083600a5416916040519788966060885281606089015288880137858a018701528b85015260408401521694601f01601f19168101030190a36001600655604051908152f35b61254f90612c3b565b386124ff565b6040513d84823e3d90fd5b602483634e487b7160e01b81526011600452fd5b905086013538612408565b82855260208520915089601f198116865b8181106125c75750106125ad575b5050600188811b01905561241c565b87013560001960038b901b60f8161c19169055388061259e565b8a84013585556001909401936020938401938d935001612590565b81845260208420601f8a0160051c81019160208b1061261d575b601f0160051c01905b81811061261257506123f3565b848155600101612605565b90915081906125fc565b50906020813d602011612655575b8161264260209383612c9d565b810103126115c257906123b191516123a7565b3d9150612635565b6040513d85823e3d90fd5b90506020813d602011612694575b8161268360209383612c9d565b810103126115c2575161237361235f565b3d9150612676565b606460405162461bcd60e51b815260206004820152601060248201527f55524920616c72656164792075736564000000000000000000000000000000006044820152fd5b606460405162461bcd60e51b815260206004820152600c60248201527f55524920746f6f206c6f6e6700000000000000000000000000000000000000006044820152fd5b606460405162461bcd60e51b815260206004820152601360248201527f5552492063616e6e6f7420626520656d707479000000000000000000000000006044820152fd5b503461028b57604036600319011261028b57612782612b25565b602435906001600160a01b03808061279985612ede565b1692169180831461288d5780331490811561286c575b501561280257828452600460205260408420826001600160a01b03198254161790556127da83612ede565b167f8c5be1e5ebec7d5bd14f71427d1e84f3dd0314c0f7b2291e5b200ac8c7c3b9258480a480f35b608460405162461bcd60e51b815260206004820152603d60248201527f4552433732313a20617070726f76652063616c6c6572206973206e6f7420746f60448201527f6b656e206f776e6572206f7220617070726f76656420666f7220616c6c0000006064820152fd5b9050845260056020526040842033855260205260ff604085205416386127af565b608460405162461bcd60e51b815260206004820152602160248201527f4552433732313a20617070726f76616c20746f2063757272656e74206f776e6560448201527f72000000000000000000000000000000000000000000000000000000000000006064820152fd5b503461028b57602036600319011261028b576020611693600435612f03565b503461028b578060031936011261028b576040519080805461293781612c01565b808552916001918083169081156129bb5750600114612961575b6105238561060a81870382612c9d565b80809450527f290decd9548b62a8d60345a988386fc84ba6bc95484008f6362f93160ef3e5635b8284106129a357505050810160200161060a82610523612951565b80546020858701810191909152909301928101612988565b8695506105239693506020925061060a94915060ff191682840152151560051b8201019293612951565b503461028b578060031936011261028b5760206001600160a01b0360105416604051908152f35b9050346105c85760203660031901126105c8576004357fffffffff0000000000000000000000000000000000000000000000000000000081168091036115c257602092507f80ac58cd000000000000000000000000000000000000000000000000000000008114908115612ab3575b8115612a89575b5015158152f35b7f01ffc9a70000000000000000000000000000000000000000000000000000000091501438612a82565b7f5b5e139f0000000000000000000000000000000000000000000000000000000081149150612a7b565b60005b838110612af05750506000910152565b8181015183820152602001612ae0565b90602091612b1981518092818552858086019101612add565b601f01601f1916010190565b600435906001600160a01b038216820361083a57565b602435906001600160a01b038216820361083a57565b9181601f8401121561083a5782359167ffffffffffffffff831161083a576020838186019501011161083a57565b606090600319011261083a576001600160a01b0390600435828116810361083a5791602435908116810361083a579060443590565b601554811015612beb5760156000527f55f448fdea98c4d29eb340757ef0a66cd03dbb9538908a6a81d96026b71ec4750190600090565b634e487b7160e01b600052603260045260246000fd5b90600182811c92168015612c31575b6020831014612c1b57565b634e487b7160e01b600052602260045260246000fd5b91607f1691612c10565b67ffffffffffffffff8111612c4f57604052565b634e487b7160e01b600052604160045260246000fd5b60c0810190811067ffffffffffffffff821117612c4f57604052565b6020810190811067ffffffffffffffff821117612c4f57604052565b90601f8019910116810190811067ffffffffffffffff821117612c4f57604052565b9060405191826000825492612cd384612c01565b908184526001948581169081600014612d425750600114612cff575b5050612cfd92500383612c9d565b565b9093915060005260209081600020936000915b818310612d2a575050612cfd93508201013880612cef565b85548884018501529485019487945091830191612d12565b915050612cfd94506020925060ff191682840152151560051b8201013880612cef565b604090600319011261083a576004359060243590565b6020908160408183019282815285518094520193019160005b828110612da2575050505090565b835185529381019392810192600101612d94565b67ffffffffffffffff8111612c4f57601f01601f191660200190565b929192612dde82612db6565b91612dec6040519384612c9d565b82948184528183011161083a578281602093846000960137010152565b6001600160a01b03168015612e2957600052600360205260406000205490565b608460405162461bcd60e51b815260206004820152602960248201527f4552433732313a2061646472657373207a65726f206973206e6f74206120766160448201527f6c6964206f776e657200000000000000000000000000000000000000000000006064820152fd5b15612e9a57565b606460405162461bcd60e51b815260206004820152601860248201527f4552433732313a20696e76616c696420746f6b656e20494400000000000000006044820152fd5b60005260026020526001600160a01b0360406000205416612f00811515612e93565b90565b612f2b612f268260005260026020526001600160a01b0360406000205416151590565b612e93565b60005260046020526001600160a01b036040600020541690565b15612f4c57565b608460405162461bcd60e51b815260206004820152602d60248201527f4552433732313a2063616c6c6572206973206e6f7420746f6b656e206f776e6560448201527f72206f7220617070726f766564000000000000000000000000000000000000006064820152fd5b15612fbd57565b60405162461bcd60e51b815260206004820152603260248201527f4552433732313a207472616e7366657220746f206e6f6e20455243373231526560448201527f63656976657220696d706c656d656e74657200000000000000000000000000006064820152608490fd5b0390fd5b906001600160a01b03808061304084612ede565b16931691838314938415613073575b50831561305d575b50505090565b61306991929350612f03565b1614388080613057565b909350600052600560205260406000208260005260205260ff60406000205416923861304f565b156130a157565b608460405162461bcd60e51b815260206004820152602560248201527f4552433732313a207472616e736665722066726f6d20696e636f72726563742060448201527f6f776e65720000000000000000000000000000000000000000000000000000006064820152fd5b906131339161311984612ede565b916001600160a01b0393849384809416948591161461309a565b16918215613224578161315e918115158061320c575b6131d7575b61315786612ede565b161461309a565b7fddf252ad1be2c89b69c2b068fc378daa952ba7f163c4a11628f55a4df523b3ef60008481526004602052604081206001600160a01b03199081815416905583825260036020526040822060001981540190558482526040822060018154019055858252600260205284604083209182541617905580a4565b6131e0866141a4565b81867fbe50bf6d5ebc58e29a68dddccdef1c087a9e6dd728a5c3247051d7fdad14219b600080a361314e565b5085600052601460205260ff60406000205416613149565b608460405162461bcd60e51b8152602060048201526024808201527f4552433732313a207472616e7366657220746f20746865207a65726f2061646460448201527f72657373000000000000000000000000000000000000000000000000000000006064820152fd5b3d156132b8573d9061329e82612db6565b916132ac6040519384612c9d565b82523d6000602084013e565b606090565b9091600091803b1561342a576133106020916001600160a01b039385604051958680958194630a85bd0160e11b9b8c84523360048501528560248501526044840152608060648401526084830190612b00565b0393165af1908290826133ca575b50506133a45761332c61328d565b8051908161339f5760405162461bcd60e51b815260206004820152603260248201527f4552433732313a207472616e7366657220746f206e6f6e20455243373231526560448201527f63656976657220696d706c656d656e74657200000000000000000000000000006064820152608490fd5b602001fd5b7fffffffff00000000000000000000000000000000000000000000000000000000161490565b909192506020813d8211613422575b816133e660209383612c9d565b810103126105c85751907fffffffff000000000000000000000000000000000000000000000000000000008216820361028b575090388061331e565b3d91506133d9565b50505050600190565b91926000929190813b1561348a576020916133109185604051958680958194630a85bd0160e11b9b8c84523360048501526001600160a01b0380951660248501526044840152608060648401526084830190612b00565b5050505050600190565b1561349b57565b606460405162461bcd60e51b815260206004820152600c60248201527f4f6e6c792063726561746f7200000000000000000000000000000000000000006044820152fd5b60ff600754166134eb57565b606460405162461bcd60e51b815260206004820152601060248201527f5061757361626c653a20706175736564000000000000000000000000000000006044820152fd5b1561353657565b606460405162461bcd60e51b815260206004820152601660248201527f5072696365206d75737420626520706f736974697665000000000000000000006044820152fd5b1561358157565b606460405162461bcd60e51b815260206004820152601160248201527f496e76616c696420726563697069656e740000000000000000000000000000006044820152fd5b156135cc57565b606460405162461bcd60e51b815260206004820152601260248201527f4d617820737570706c79207265616368656400000000000000000000000000006044820152fd5b9190820391821161361d57565b634e487b7160e01b600052601160045260246000fd5b9190820180921161361d57565b600260065414613651576002600655565b606460405162461bcd60e51b815260206004820152601f60248201527f5265656e7472616e637947756172643a207265656e7472616e742063616c6c006044820152fd5b9290604051927f23b872dd0000000000000000000000000000000000000000000000000000000060208501526001600160a01b03809216602485015216604483015260648201526064815260a081019181831067ffffffffffffffff841117612c4f57612cfd926040525b6001600160a01b031690604051604081019080821067ffffffffffffffff831117612c4f57613773916040526020938482527f5361666545524332303a206c6f772d6c6576656c2063616c6c206661696c6564858301526000808587829751910182855af161376d61328d565b9161397b565b8051918215918483156137f8575b50505090501561378e5750565b6084906040519062461bcd60e51b82526004820152602a60248201527f5361666545524332303a204552433230206f7065726174696f6e20646964206e60448201527f6f742073756363656564000000000000000000000000000000000000000000006064820152fd5b9193818094500103126105c85782015190811515820361028b575080388084613781565b60405161382881612c81565b6000928382526001600160a01b0383169283156138ec57816108c194612cfd9661387161386b8460005260026020526001600160a01b0360406000205416151590565b15613930565b61389461386b8460005260026020526001600160a01b0360406000205416151590565b81815260036020526040812060018154019055828152600260205260408120826001600160a01b03198254161790557fddf252ad1be2c89b69c2b068fc378daa952ba7f163c4a11628f55a4df523b3ef8180a46132bd565b606460405162461bcd60e51b815260206004820152602060248201527f4552433732313a206d696e7420746f20746865207a65726f20616464726573736044820152fd5b1561393757565b606460405162461bcd60e51b815260206004820152601c60248201527f4552433732313a20746f6b656e20616c7265616479206d696e746564000000006044820152fd5b919290156139dc575081511561398f575090565b3b156139985790565b606460405162461bcd60e51b815260206004820152601d60248201527f416464726573733a2063616c6c20746f206e6f6e2d636f6e74726163740000006044820152fd5b8251909150156139ef5750805190602001fd5b6130289060405191829162461bcd60e51b8352602060048401526024830190612b00565b15613a1a57565b606460405162461bcd60e51b815260206004820152601460248201527f546f6b656e20646f6573206e6f742065786973740000000000000000000000006044820152fd5b15613a6557565b606460405162461bcd60e51b815260206004820152600f60248201527f4e6f7420746f6b656e206f776e657200000000000000000000000000000000006044820152fd5b15613ab057565b606460405162461bcd60e51b815260206004820152601060248201527f546f6b656e206e6f74206c6973746564000000000000000000000000000000006044820152fd5b916001600160a01b03604051927fa9059cbb000000000000000000000000000000000000000000000000000000006020850152166024830152604482015260448152608081019181831067ffffffffffffffff841117612c4f57612cfd92604052613700565b15613b6157565b606460405162461bcd60e51b815260206004820152601560248201527f496e76616c696420746f6b656e206164647265737300000000000000000000006044820152fd5b15613bac57565b606460405162461bcd60e51b815260206004820152601760248201527f416d6f756e74206d75737420626520706f7369746976650000000000000000006044820152fd5b67ffffffffffffffff8111612c4f5760051b60200190565b600019811461361d5760010190565b8051821015612beb5760209160051b010190565b906015549081831015613d7d57613c5691613c47849283613633565b90808211613d75575b50613610565b613c5f81613bf0565b91604090613c6f82519485612c9d565b828452601f19613c7e84613bf0565b0160005b818110613d3657505060005b838110613c9c575050505090565b80613cb2613cad613d319385613633565b612bb4565b9054600391821b1c60005260ff60056020601381528760002090885194613cd886612c65565b825486526001600160a01b0391826001850154169087015260028301548a87015282015416606085015260048101546080850152015416151560a0820152613d208288613c17565b52613d2b8187613c17565b50613c08565b613c8e565b6020908451613d4481612c65565b60008152826000818301526000878301526000606083015260006080830152600060a0830152828901015201613c82565b905038613c50565b505050604051613d8c81612c81565b6000815290565b90613d9d82613bf0565b613daa6040519182612c9d565b8281528092613dbb601f1991613bf0565b0190602036910137565b613dce81612e09565b8015613e6757613ddd90613d93565b906000600191601254925b838110613df6575050505090565b613e168160005260026020526001600160a01b0360406000205416151590565b80613e4a575b613e2f575b613e2a90613c08565b613de8565b91613e428184610571613e2a9489613c17565b929050613e21565b50613e5481612ede565b6001600160a01b03808416911614613e1c565b5050604051613e7581612c81565b60008152600036813790565b613ea46109db8260005260026020526001600160a01b0360406000205416151590565b600090808252602090600f825260409260ff848220541661416157613ee2612f268360005260026020526001600160a01b0360406000205416151590565b83519181600854613ef281612c01565b80865285878101936001938985821691826000146141465750506001146140eb575b613f2092500386612c9d565b8451156140d45782839185947a184f03e93ff9f4daa797ed6e38ed64bf6a1f01000000000000000090818110156140c7575b5050876d04ee2d6d415b85acef8100000000808510156140b9575b5050662386f26fc10000808410156140aa575b506305f5e1008084101561409b575b506127108084101561408c575b50606483101561407c575b600a80931015614073575b9081602186613fdb838d9901613fd3613fca82612db6565b9a519a8b612c9d565b808a52612db6565b888c019990601f1901368b3750870101905b614030575b5050505090614024612f0095949392614015975197889551809288880190612add565b84019151809386840190612add565b01038084520182612c9d565b600019019083907f30313233343536373839616263646566000000000000000000000000000000008282061a83530491821561406e57919082613fed565b613ff2565b80940193613fb2565b9391606460029104920193613fa7565b60049195930492019338613f9c565b60089195930492019338613f8f565b60109195930492019338613f80565b950194909204918738613f6d565b8a96500492503880613f52565b5050509291505051906140e682612c81565b815290565b505060088552858786847ff3f7a9fe364faab93b216da50a3214154f22a0a2b415b23a84c8169e8b636ee35b85831061412d575050613f209350820101613f14565b80919294505483858c0101520191018890848993614117565b60ff19168752613f2094151560051b8401019150613f149050565b9050600d612f0093925220612cbf565b600052600f60205260ff6040600020541661419257604051613d8c81612c81565b600d602052612f006040600020612cbf565b6000908082526020601481526040916141c260ff8486205416613aa9565b80845260168252828420546015546000199190828101908111614283576141e890612bb4565b90549060031b1c6141fc816111a384612bb4565b86526016845284862055601554801561426f5790806016949392019061422182612bb4565b909182549160031b1b1916905560155584526013815283600584822082815582600182015582600282015582600382015582600482015501556014815282842060ff19815416905552812055565b602486634e487b7160e01b81526031600452fd5b602487634e487b7160e01b81526011600452fdfea26469706673582212206d44880c769d1d4f461f525d98869931119c221f47c8f78bd76f2ea40f96549564736f6c63430008130033290decd9548b62a8d60345a988386fc84ba6bc95484008f6362f93160ef3e563f3f7a9fe364faab93b216da50a3214154f22a0a2b415b23a84c8169e8b636ee3b10e2d527612073b26eecdfd717e6a320cf44b4afac2b0732d9fcbe2b7fa0cf6a2646970667358221220a3eea781226eb5ae24e12b0b88e1b31443cbecb256d03c61b2c8bd05b9a7d14364736f6c63430008130033","opcodes":"PUSH1 0x80 DUP1 PUSH1 0x40 MSTORE CALLVALUE PUSH2 0x45 JUMPI PUSH1 0x1 PUSH1 0x0 DUP2 SWAP1 SSTORE DUP1 SLOAD PUSH1 0xFF NOT AND SWAP1 SSTORE PUSH10 0xD3C21BCECCEDA1000000 PUSH1 0x2 SSTORE PUSH1 0x3 DUP1 SLOAD PUSH1 0x1 PUSH1 0x1 PUSH1 0xA0 SHL SUB NOT AND CALLER OR SWAP1 SSTORE PUSH2 0x78BE SWAP1 DUP2 PUSH2 0x4B DUP3 CODECOPY RETURN JUMPDEST PUSH1 0x0 DUP1 REVERT INVALID PUSH1 0x80 PUSH1 0x40 MSTORE PUSH1 0x4 CALLDATASIZE LT ISZERO PUSH3 0x13 JUMPI PUSH1 0x0 DUP1 REVERT JUMPDEST PUSH1 0x0 CALLDATALOAD PUSH1 0xE0 SHR DUP1 PUSH4 0xA9FE8D0 EQ PUSH3 0x1E1D JUMPI DUP1 PUSH4 0x167EF495 EQ PUSH3 0x1DE7 JUMPI DUP1 PUSH4 0x1F0C602D EQ PUSH3 0x1CD6 JUMPI DUP1 PUSH4 0x3D759A92 EQ PUSH3 0x228 JUMPI DUP1 PUSH4 0x3F4BA83A EQ PUSH3 0x1C27 JUMPI DUP1 PUSH4 0x449F5D0A EQ PUSH3 0x1AE6 JUMPI DUP1 PUSH4 0x486A7E6B EQ PUSH3 0x1AC6 JUMPI DUP1 PUSH4 0x4E6FD6C4 EQ PUSH3 0x1AA7 JUMPI DUP1 PUSH4 0x56FB82BE EQ PUSH3 0x1A3C JUMPI DUP1 PUSH4 0x5C975ABB EQ PUSH3 0x1A17 JUMPI DUP1 PUSH4 0x75829DEF EQ PUSH3 0x1901 JUMPI DUP1 PUSH4 0x7C3DC672 EQ PUSH3 0x18A0 JUMPI DUP1 PUSH4 0x7F086ED0 EQ PUSH3 0x186F JUMPI DUP1 PUSH4 0x8456CB59 EQ PUSH3 0x1802 JUMPI DUP1 PUSH4 0x9056A04B EQ PUSH3 0x1700 JUMPI DUP1 PUSH4 0xA6B90E02 EQ PUSH3 0x1697 JUMPI DUP1 PUSH4 0xABF1C204 EQ PUSH3 0x1608 JUMPI DUP1 PUSH4 0xB7BF7C5C EQ PUSH3 0x158D JUMPI DUP1 PUSH4 0xB97D016F EQ PUSH3 0x462 JUMPI DUP1 PUSH4 0xCB7C1390 EQ PUSH3 0x2E0 JUMPI DUP1 PUSH4 0xCC43F3D3 EQ PUSH3 0x22E JUMPI DUP1 PUSH4 0xD57F966B EQ PUSH3 0x228 JUMPI DUP1 PUSH4 0xF56B8369 EQ PUSH3 0x16B JUMPI PUSH4 0xF851A440 EQ PUSH3 0x13D JUMPI PUSH1 0x0 DUP1 REVERT JUMPDEST CALLVALUE PUSH3 0x166 JUMPI PUSH1 0x0 CALLDATASIZE PUSH1 0x3 NOT ADD SLT PUSH3 0x166 JUMPI PUSH1 0x20 PUSH1 0x1 PUSH1 0x1 PUSH1 0xA0 SHL SUB PUSH1 0x3 SLOAD AND PUSH1 0x40 MLOAD SWAP1 DUP2 MSTORE RETURN JUMPDEST PUSH1 0x0 DUP1 REVERT JUMPDEST CALLVALUE PUSH3 0x166 JUMPI PUSH1 0x20 DUP1 PUSH1 0x3 NOT CALLDATASIZE ADD SLT PUSH3 0x166 JUMPI PUSH1 0x1 PUSH1 0x1 PUSH1 0xA0 SHL SUB SWAP1 DUP2 PUSH3 0x193 PUSH3 0x2020 JUMP JUMPDEST AND PUSH1 0x0 MSTORE PUSH1 0x5 DUP2 MSTORE PUSH1 0x40 PUSH1 0x0 KECCAK256 PUSH1 0x40 MLOAD SWAP2 DUP3 DUP2 DUP4 SLOAD SWAP2 DUP3 DUP2 MSTORE ADD SWAP1 DUP2 SWAP4 PUSH1 0x0 MSTORE DUP3 PUSH1 0x0 KECCAK256 SWAP1 PUSH1 0x0 JUMPDEST DUP2 DUP2 LT PUSH3 0x211 JUMPI POP POP POP DUP4 PUSH3 0x1D4 SWAP2 SUB DUP5 PUSH3 0x2092 JUMP JUMPDEST PUSH1 0x40 MLOAD SWAP3 DUP2 DUP5 ADD SWAP1 DUP3 DUP6 MSTORE MLOAD DUP1 SWAP2 MSTORE PUSH1 0x40 DUP5 ADD SWAP3 SWAP2 PUSH1 0x0 JUMPDEST DUP3 DUP2 LT PUSH3 0x1FA JUMPI DUP6 DUP6 SUB DUP7 RETURN JUMPDEST DUP4 MLOAD DUP8 AND DUP6 MSTORE SWAP4 DUP2 ADD SWAP4 SWAP3 DUP2 ADD SWAP3 PUSH1 0x1 ADD PUSH3 0x1EC JUMP JUMPDEST DUP3 SLOAD DUP9 AND DUP5 MSTORE SWAP3 DUP5 ADD SWAP3 PUSH1 0x1 SWAP3 DUP4 ADD SWAP3 ADD PUSH3 0x1BB JUMP JUMPDEST PUSH3 0x2167 JUMP JUMPDEST CALLVALUE PUSH3 0x166 JUMPI PUSH1 0x20 CALLDATASIZE PUSH1 0x3 NOT ADD SLT PUSH3 0x166 JUMPI PUSH1 0x4 CALLDATALOAD PUSH3 0x25C PUSH1 0x1 PUSH1 0x1 PUSH1 0xA0 SHL SUB PUSH1 0x3 SLOAD AND CALLER EQ PUSH3 0x21E0 JUMP JUMPDEST DUP1 ISZERO PUSH3 0x29C JUMPI PUSH1 0x40 PUSH32 0x64CB08366B6486E69E8C2FEEB9A0B70224E269763E3A8C965EF2109C7958967B SWAP2 PUSH1 0x2 SLOAD SWAP1 DUP1 PUSH1 0x2 SSTORE DUP3 MLOAD SWAP2 DUP3 MSTORE PUSH1 0x20 DUP3 ADD MSTORE LOG1 STOP JUMPDEST PUSH1 0x64 PUSH1 0x40 MLOAD PUSH3 0x461BCD PUSH1 0xE5 SHL DUP2 MSTORE PUSH1 0x20 PUSH1 0x4 DUP3 ADD MSTORE PUSH1 0x1C PUSH1 0x24 DUP3 ADD MSTORE PUSH32 0x4275726E20616D6F756E74206D75737420626520706F73697469766500000000 PUSH1 0x44 DUP3 ADD MSTORE REVERT JUMPDEST CALLVALUE PUSH3 0x166 JUMPI PUSH1 0x40 CALLDATASIZE PUSH1 0x3 NOT ADD SLT PUSH3 0x166 JUMPI PUSH1 0x4 CALLDATALOAD PUSH1 0x24 SWAP1 DUP2 CALLDATALOAD SWAP1 PUSH1 0x1 PUSH1 0x1 PUSH1 0xA0 SHL SUB PUSH1 0x3 PUSH3 0x316 DUP3 DUP3 SLOAD AND CALLER EQ PUSH3 0x21E0 JUMP JUMPDEST DUP4 DUP4 LT ISZERO PUSH3 0x41E JUMPI PUSH1 0x4 SLOAD DUP5 GT PUSH3 0x3DA JUMPI PUSH1 0xFF PUSH1 0x1 SLOAD AND ISZERO SWAP3 JUMPDEST DUP5 DUP2 LT PUSH3 0x33C JUMPI STOP JUMPDEST DUP3 PUSH3 0x348 DUP3 PUSH3 0x1FB9 JUMP JUMPDEST SWAP1 SLOAD SWAP1 DUP5 SHL SHR AND SWAP1 DUP2 EXTCODESIZE ISZERO PUSH3 0x166 JUMPI PUSH1 0x0 DUP1 SWAP3 DUP9 PUSH1 0x40 MLOAD DUP1 SWAP6 DUP2 SWAP4 PUSH32 0xBF0CA39500000000000000000000000000000000000000000000000000000000 DUP4 MSTORE DUP11 PUSH1 0x4 DUP5 ADD MSTORE GAS CALL PUSH3 0x3A7 JUMPI JUMPDEST PUSH3 0x3A1 SWAP2 POP PUSH3 0x227D JUMP JUMPDEST PUSH3 0x332 JUMP JUMPDEST PUSH8 0xFFFFFFFFFFFFFFFF DUP3 GT PUSH3 0x3C5 JUMPI PUSH3 0x3A1 SWAP2 PUSH1 0x40 MSTORE PUSH3 0x395 JUMP JUMPDEST DUP7 PUSH4 0x4E487B71 PUSH1 0xE0 SHL PUSH1 0x0 MSTORE PUSH1 0x41 PUSH1 0x4 MSTORE PUSH1 0x0 REVERT JUMPDEST PUSH1 0x64 DUP6 PUSH1 0x17 PUSH1 0x40 MLOAD SWAP2 PUSH3 0x461BCD PUSH1 0xE5 SHL DUP4 MSTORE PUSH1 0x20 PUSH1 0x4 DUP5 ADD MSTORE DUP3 ADD MSTORE PUSH32 0x456E6420696E646578206F7574206F6620626F756E6473000000000000000000 PUSH1 0x44 DUP3 ADD MSTORE REVERT JUMPDEST PUSH1 0x64 DUP6 PUSH1 0xD PUSH1 0x40 MLOAD SWAP2 PUSH3 0x461BCD PUSH1 0xE5 SHL DUP4 MSTORE PUSH1 0x20 PUSH1 0x4 DUP5 ADD MSTORE DUP3 ADD MSTORE PUSH32 0x496E76616C69642072616E676500000000000000000000000000000000000000 PUSH1 0x44 DUP3 ADD MSTORE REVERT JUMPDEST CALLVALUE PUSH3 0x166 JUMPI PUSH1 0x3 NOT PUSH1 0x20 CALLDATASIZE DUP3 ADD SLT PUSH3 0x166 JUMPI PUSH1 0x4 CALLDATALOAD SWAP1 PUSH8 0xFFFFFFFFFFFFFFFF DUP3 GT PUSH3 0x166 JUMPI PUSH2 0x120 SWAP1 DUP3 CALLDATASIZE SUB ADD SLT PUSH3 0x166 JUMPI PUSH1 0x2 PUSH1 0x0 SLOAD EQ PUSH3 0x1549 JUMPI PUSH1 0x2 PUSH1 0x0 SSTORE PUSH3 0x4B2 PUSH3 0x222C JUMP JUMPDEST PUSH3 0x4C1 PUSH1 0x4 DUP3 ADD DUP1 PUSH3 0x228D JUMP JUMPDEST SWAP1 POP ISZERO ISZERO DUP1 PUSH3 0x152D JUMPI JUMPDEST ISZERO PUSH3 0x14E9 JUMPI PUSH3 0x4E4 PUSH1 0x24 DUP3 ADD DUP3 PUSH1 0x4 ADD PUSH3 0x228D JUMP JUMPDEST SWAP1 POP ISZERO ISZERO DUP1 PUSH3 0x14CA JUMPI JUMPDEST ISZERO PUSH3 0x1486 JUMPI PUSH3 0x507 PUSH1 0x44 DUP3 ADD DUP3 PUSH1 0x4 ADD PUSH3 0x228D JUMP JUMPDEST SWAP1 POP ISZERO PUSH3 0x1442 JUMPI PUSH3 0x537 PUSH3 0x531 PUSH3 0x529 PUSH1 0x44 DUP5 ADD DUP5 PUSH1 0x4 ADD PUSH3 0x228D JUMP JUMPDEST CALLDATASIZE SWAP2 PUSH3 0x21A4 JUMP JUMPDEST PUSH3 0x23BE JUMP JUMPDEST PUSH1 0xFF PUSH1 0x40 MLOAD PUSH1 0x20 DUP2 DUP5 MLOAD PUSH3 0x550 DUP2 DUP4 DUP6 DUP10 ADD PUSH3 0x1E52 JUMP JUMPDEST DUP2 ADD PUSH1 0x6 DUP2 MSTORE SUB ADD SWAP1 KECCAK256 SLOAD AND PUSH3 0x13FE JUMPI PUSH1 0x64 DUP3 ADD CALLDATALOAD ISZERO ISZERO DUP1 PUSH3 0x13EC JUMPI JUMPDEST ISZERO PUSH3 0x13A8 JUMPI PUSH1 0x1 PUSH1 0x1 PUSH1 0xA0 SHL SUB PUSH3 0x58B PUSH1 0x84 DUP5 ADD PUSH3 0x22C3 JUMP JUMPDEST AND ISZERO PUSH3 0x1364 JUMPI PUSH1 0xA4 DUP3 ADD CALLDATALOAD ISZERO PUSH3 0x1320 JUMPI PUSH2 0x3E8 DUP1 PUSH1 0xC4 DUP5 ADD CALLDATALOAD GT PUSH3 0x12DC JUMPI PUSH3 0x5BE PUSH1 0xE4 DUP5 ADD DUP5 PUSH1 0x4 ADD PUSH3 0x228D JUMP JUMPDEST SWAP1 POP GT PUSH3 0x1298 JUMPI PUSH1 0x4 PUSH1 0x20 PUSH1 0x1 PUSH1 0x1 PUSH1 0xA0 SHL SUB PUSH3 0x5E0 PUSH1 0x84 DUP7 ADD PUSH3 0x22C3 JUMP JUMPDEST AND PUSH1 0x40 MLOAD SWAP3 DUP4 DUP1 SWAP3 PUSH32 0x313CE56700000000000000000000000000000000000000000000000000000000 DUP3 MSTORE GAS STATICCALL PUSH1 0x0 SWAP2 DUP2 PUSH3 0x1253 JUMPI JUMPDEST POP PUSH3 0x661 JUMPI PUSH1 0x64 PUSH1 0x40 MLOAD PUSH3 0x461BCD PUSH1 0xE5 SHL DUP2 MSTORE PUSH1 0x20 PUSH1 0x4 DUP3 ADD MSTORE PUSH1 0x1B PUSH1 0x24 DUP3 ADD MSTORE PUSH32 0x496E76616C6964206D696E7420746F6B656E206D657461646174610000000000 PUSH1 0x44 DUP3 ADD MSTORE REVERT JUMPDEST PUSH1 0xFF PUSH1 0x12 SWAP2 AND SUB PUSH3 0x120F JUMPI PUSH1 0x40 MLOAD PUSH4 0x70A08231 PUSH1 0xE0 SHL DUP2 MSTORE PUSH2 0xDEAD PUSH1 0x4 DUP3 ADD MSTORE PUSH1 0x20 DUP2 PUSH1 0x24 DUP2 PUSH20 0x1BED077195307229FCCBC719C5F2CE6416A58180 GAS STATICCALL SWAP1 DUP2 ISZERO PUSH3 0x109E JUMPI PUSH1 0x0 SWAP2 PUSH3 0x11D7 JUMPI JUMPDEST POP PUSH1 0x2 SLOAD PUSH1 0x40 MLOAD SWAP1 PUSH32 0x23B872DD00000000000000000000000000000000000000000000000000000000 PUSH1 0x20 DUP4 ADD MSTORE CALLER PUSH1 0x24 DUP4 ADD MSTORE PUSH2 0xDEAD PUSH1 0x44 DUP4 ADD MSTORE PUSH1 0x64 DUP3 ADD MSTORE PUSH1 0x64 DUP2 MSTORE DUP1 PUSH1 0xA0 DUP2 ADD LT PUSH8 0xFFFFFFFFFFFFFFFF PUSH1 0xA0 DUP4 ADD GT OR PUSH3 0xDFA JUMPI PUSH1 0xA0 DUP2 ADD PUSH1 0xE0 DUP3 ADD LT PUSH8 0xFFFFFFFFFFFFFFFF PUSH1 0xE0 DUP4 ADD GT OR PUSH3 0xDFA JUMPI DUP1 PUSH1 0xE0 PUSH3 0x7C0 SWAP3 ADD PUSH1 0x40 MSTORE PUSH1 0x20 PUSH1 0xA0 DUP3 ADD MSTORE PUSH32 0x5361666545524332303A206C6F772D6C6576656C2063616C6C206661696C6564 PUSH1 0xC0 DUP3 ADD MSTORE PUSH1 0x0 DUP1 DUP3 MLOAD PUSH1 0x20 DUP5 ADD DUP3 PUSH20 0x1BED077195307229FCCBC719C5F2CE6416A58180 GAS CALL SWAP1 RETURNDATASIZE ISZERO PUSH3 0x11CC JUMPI PUSH1 0xA0 RETURNDATASIZE SWAP2 PUSH3 0x79D DUP4 PUSH3 0x2187 JUMP JUMPDEST SWAP3 PUSH3 0x7AD PUSH1 0x40 MLOAD SWAP5 DUP6 PUSH3 0x2092 JUMP JUMPDEST DUP4 MSTORE RETURNDATASIZE PUSH1 0x0 PUSH1 0x20 DUP6 ADD RETURNDATACOPY JUMPDEST ADD SWAP2 PUSH3 0x22F9 JUMP JUMPDEST DUP1 MLOAD SWAP1 DUP2 ISZERO SWAP2 DUP3 ISZERO PUSH3 0x11A6 JUMPI JUMPDEST POP POP ISZERO PUSH3 0x113C JUMPI PUSH1 0x40 MLOAD PUSH4 0x70A08231 PUSH1 0xE0 SHL DUP2 MSTORE PUSH2 0xDEAD PUSH1 0x4 DUP3 ADD MSTORE PUSH1 0x20 DUP2 PUSH1 0x24 DUP2 PUSH20 0x1BED077195307229FCCBC719C5F2CE6416A58180 GAS STATICCALL SWAP1 DUP2 ISZERO PUSH3 0x109E JUMPI PUSH1 0x0 SWAP2 PUSH3 0x1104 JUMPI JUMPDEST POP PUSH1 0x2 SLOAD DUP3 ADD DUP1 SWAP3 GT PUSH3 0x10EE JUMPI LT PUSH3 0x10AA JUMPI PUSH1 0x20 PUSH3 0x848 SWAP2 DUP2 PUSH1 0x40 MLOAD SWAP4 DUP3 DUP6 DUP1 SWAP5 MLOAD SWAP4 DUP5 SWAP3 ADD PUSH3 0x1E52 JUMP JUMPDEST PUSH1 0x6 SWAP1 DUP3 ADD SWAP1 DUP2 MSTORE SUB ADD SWAP1 KECCAK256 DUP1 SLOAD PUSH1 0xFF NOT AND PUSH1 0x1 OR SWAP1 SSTORE PUSH3 0x86E PUSH1 0x4 DUP3 ADD DUP1 PUSH3 0x228D JUMP JUMPDEST PUSH3 0x880 PUSH1 0x24 DUP5 ADD DUP5 PUSH1 0x4 ADD PUSH3 0x228D JUMP JUMPDEST PUSH3 0x895 PUSH1 0x44 DUP7 SWAP5 SWAP4 SWAP5 ADD DUP7 PUSH1 0x4 ADD PUSH3 0x228D JUMP JUMPDEST SWAP3 SWAP1 PUSH3 0x8A5 PUSH1 0x84 DUP9 ADD PUSH3 0x22C3 JUMP JUMPDEST SWAP4 PUSH1 0x40 MLOAD SWAP7 DUP8 PUSH2 0x4C7B DUP2 ADD LT PUSH8 0xFFFFFFFFFFFFFFFF PUSH2 0x4C7B DUP11 ADD GT OR PUSH3 0xDFA JUMPI DUP8 SWAP7 PUSH1 0x1 PUSH1 0x1 PUSH1 0xA0 SHL SUB SWAP6 PUSH3 0x8FB PUSH3 0x912 SWAP4 PUSH3 0x929 SWAP8 PUSH2 0x4C7B PUSH3 0x2C0E DUP14 CODECOPY PUSH2 0x120 PUSH2 0x4C7B DUP14 ADD DUP2 DUP2 MSTORE ADD SWAP2 PUSH3 0x22D8 JUMP JUMPDEST SWAP2 PUSH2 0x4C7B DUP11 ADD DUP4 SUB PUSH1 0x20 PUSH2 0x4C7B DUP13 ADD ADD MSTORE PUSH3 0x22D8 JUMP JUMPDEST SWAP2 PUSH2 0x4C7B DUP8 ADD DUP4 SUB PUSH1 0x40 PUSH2 0x4C7B DUP10 ADD ADD MSTORE PUSH3 0x22D8 JUMP JUMPDEST PUSH1 0x64 DUP7 ADD CALLDATALOAD PUSH2 0x4C7B DUP6 ADD PUSH1 0x60 DUP2 ADD SWAP2 SWAP1 SWAP2 MSTORE SWAP2 SWAP1 SWAP3 AND PUSH1 0x80 DUP3 ADD MSTORE PUSH1 0xA4 DUP6 ADD CALLDATALOAD PUSH1 0xA0 DUP3 ADD MSTORE PUSH1 0xC4 DUP6 ADD CALLDATALOAD PUSH1 0xC0 DUP3 ADD MSTORE CALLER PUSH1 0xE0 DUP3 ADD MSTORE ADDRESS PUSH2 0x100 SWAP1 SWAP2 ADD MSTORE SUB SWAP1 PUSH1 0x0 CREATE DUP1 ISZERO PUSH3 0x109E JUMPI PUSH1 0x1 PUSH1 0x1 PUSH1 0xA0 SHL SUB PUSH3 0x989 PUSH1 0x4 DUP5 ADD DUP1 PUSH3 0x228D JUMP JUMPDEST SWAP2 SWAP1 PUSH3 0xA0A PUSH3 0x9A1 PUSH1 0x24 DUP8 ADD DUP8 PUSH1 0x4 ADD PUSH3 0x228D JUMP JUMPDEST SWAP1 PUSH3 0x9FD PUSH3 0x9B8 PUSH1 0x44 DUP11 ADD DUP11 PUSH1 0x4 ADD PUSH3 0x228D JUMP JUMPDEST SWAP3 SWAP1 SWAP4 PUSH3 0x9F0 PUSH3 0x9CD PUSH1 0x84 DUP14 ADD PUSH3 0x22C3 JUMP JUMPDEST SWAP8 PUSH1 0x40 MLOAD SWAP11 PUSH3 0x9DD DUP13 PUSH3 0x2074 JUMP JUMPDEST DUP11 DUP14 AND DUP13 MSTORE CALLER PUSH1 0x20 DUP14 ADD MSTORE CALLDATASIZE SWAP2 PUSH3 0x21A4 JUMP JUMPDEST PUSH1 0x40 DUP11 ADD MSTORE CALLDATASIZE SWAP2 PUSH3 0x21A4 JUMP JUMPDEST PUSH1 0x60 DUP8 ADD MSTORE CALLDATASIZE SWAP2 PUSH3 0x21A4 JUMP JUMPDEST PUSH1 0x80 DUP5 ADD MSTORE PUSH1 0x64 DUP6 ADD CALLDATALOAD PUSH1 0xA0 DUP5 ADD MSTORE AND PUSH1 0xC0 DUP3 ADD MSTORE PUSH1 0xA4 DUP4 ADD CALLDATALOAD PUSH1 0xE0 DUP3 ADD MSTORE PUSH1 0xC4 DUP4 ADD CALLDATALOAD PUSH2 0x100 DUP3 ADD MSTORE TIMESTAMP PUSH2 0x120 DUP3 ADD MSTORE PUSH1 0x0 PUSH2 0x140 DUP3 ADD MSTORE PUSH1 0x1 PUSH2 0x160 DUP3 ADD MSTORE PUSH1 0x1 PUSH1 0x1 PUSH1 0xA0 SHL SUB DUP3 AND PUSH1 0x0 MSTORE PUSH1 0x7 PUSH1 0x20 MSTORE PUSH1 0x40 PUSH1 0x0 KECCAK256 SWAP1 PUSH1 0x1 PUSH1 0x1 PUSH1 0xA0 SHL SUB DUP2 MLOAD AND PUSH20 0xFFFFFFFFFFFFFFFFFFFFFFFFFFFFFFFFFFFFFFFF NOT DUP4 SLOAD AND OR DUP3 SSTORE PUSH1 0x1 DUP3 ADD PUSH1 0x1 PUSH1 0x1 PUSH1 0xA0 SHL SUB PUSH1 0x20 DUP4 ADD MLOAD AND PUSH20 0xFFFFFFFFFFFFFFFFFFFFFFFFFFFFFFFFFFFFFFFF NOT DUP3 SLOAD AND OR SWAP1 SSTORE PUSH1 0x40 DUP2 ADD MLOAD DUP1 MLOAD SWAP1 PUSH8 0xFFFFFFFFFFFFFFFF DUP3 GT PUSH3 0xDFA JUMPI DUP2 SWAP1 PUSH3 0xAE1 PUSH1 0x2 DUP7 ADD SLOAD PUSH3 0x2037 JUMP JUMPDEST PUSH1 0x1F DUP2 GT PUSH3 0x1046 JUMPI JUMPDEST POP PUSH1 0x20 SWAP1 PUSH1 0x1F DUP4 GT PUSH1 0x1 EQ PUSH3 0xFCF JUMPI PUSH1 0x0 SWAP3 PUSH3 0xFC3 JUMPI JUMPDEST POP POP DUP2 PUSH1 0x1 SHL SWAP2 PUSH1 0x0 NOT SWAP1 PUSH1 0x3 SHL SHR NOT AND OR PUSH1 0x2 DUP4 ADD SSTORE JUMPDEST PUSH1 0x60 DUP2 ADD MLOAD DUP1 MLOAD SWAP1 PUSH8 0xFFFFFFFFFFFFFFFF DUP3 GT PUSH3 0xDFA JUMPI DUP2 SWAP1 PUSH3 0xB45 PUSH1 0x3 DUP7 ADD SLOAD PUSH3 0x2037 JUMP JUMPDEST PUSH1 0x1F DUP2 GT PUSH3 0xF6B JUMPI JUMPDEST POP PUSH1 0x20 SWAP1 PUSH1 0x1F DUP4 GT PUSH1 0x1 EQ PUSH3 0xEF4 JUMPI PUSH1 0x0 SWAP3 PUSH3 0xEE8 JUMPI JUMPDEST POP POP DUP2 PUSH1 0x1 SHL SWAP2 PUSH1 0x0 NOT SWAP1 PUSH1 0x3 SHL SHR NOT AND OR PUSH1 0x3 DUP4 ADD SSTORE JUMPDEST PUSH1 0x80 DUP2 ADD MLOAD DUP1 MLOAD SWAP1 PUSH8 0xFFFFFFFFFFFFFFFF DUP3 GT PUSH3 0xDFA JUMPI PUSH3 0xBA7 PUSH1 0x4 DUP6 ADD SLOAD PUSH3 0x2037 JUMP JUMPDEST PUSH1 0x1F DUP2 GT PUSH3 0xE9C JUMPI JUMPDEST POP PUSH1 0x20 SWAP1 PUSH1 0x1F DUP4 GT PUSH1 0x1 EQ PUSH3 0xE1C JUMPI SWAP3 DUP3 PUSH1 0xB SWAP4 PUSH2 0x160 SWAP4 PUSH3 0xC6B SWAP8 SWAP7 PUSH1 0x0 SWAP3 PUSH3 0xE10 JUMPI JUMPDEST POP POP DUP2 PUSH1 0x1 SHL SWAP2 PUSH1 0x0 NOT SWAP1 PUSH1 0x3 SHL SHR NOT AND OR PUSH1 0x4 DUP6 ADD SSTORE JUMPDEST PUSH1 0xA0 DUP2 ADD MLOAD PUSH1 0x5 DUP6 ADD SSTORE PUSH1 0x6 DUP5 ADD PUSH1 0x1 PUSH1 0x1 PUSH1 0xA0 SHL SUB PUSH1 0xC0 DUP4 ADD MLOAD AND PUSH20 0xFFFFFFFFFFFFFFFFFFFFFFFFFFFFFFFFFFFFFFFF NOT DUP3 SLOAD AND OR SWAP1 SSTORE PUSH1 0xE0 DUP2 ADD MLOAD PUSH1 0x7 DUP6 ADD SSTORE PUSH2 0x100 DUP2 ADD MLOAD PUSH1 0x8 DUP6 ADD SSTORE PUSH2 0x120 DUP2 ADD MLOAD PUSH1 0x9 DUP6 ADD SSTORE PUSH2 0x140 DUP2 ADD MLOAD PUSH1 0xA DUP6 ADD SSTORE ADD MLOAD ISZERO ISZERO SWAP2 ADD SWAP1 PUSH1 0xFF DUP1 NOT DUP4 SLOAD AND SWAP2 ISZERO ISZERO AND OR SWAP1 SSTORE JUMP JUMPDEST PUSH1 0x4 SLOAD PUSH9 0x10000000000000000 DUP2 LT ISZERO PUSH3 0xDFA JUMPI DUP1 PUSH1 0x1 PUSH3 0xC92 SWAP3 ADD PUSH1 0x4 SSTORE PUSH3 0x1FB9 JUMP JUMPDEST DUP2 SLOAD SWAP1 PUSH1 0x3 SHL SWAP1 PUSH1 0x1 PUSH1 0x1 PUSH1 0xA0 SHL SUB DUP1 DUP6 AND DUP4 SHL SWAP3 SHL NOT AND OR SWAP1 SSTORE CALLER PUSH1 0x0 MSTORE PUSH1 0x5 PUSH1 0x20 MSTORE PUSH1 0x40 PUSH1 0x0 KECCAK256 SWAP2 DUP3 SLOAD SWAP3 PUSH9 0x10000000000000000 DUP5 LT ISZERO PUSH3 0xDFA JUMPI PUSH1 0xC4 PUSH1 0xE0 SWAP3 PUSH3 0xCEE DUP7 PUSH3 0xD90 SWAP5 PUSH1 0x1 PUSH1 0x20 SWAP10 ADD DUP2 SSTORE PUSH3 0x2007 JUMP JUMPDEST DUP2 SLOAD SWAP1 PUSH1 0x3 SHL SWAP1 PUSH1 0x1 PUSH1 0x1 PUSH1 0xA0 SHL SUB DUP1 DUP10 AND DUP4 SHL SWAP3 SHL NOT AND OR SWAP1 SSTORE PUSH1 0x1 PUSH1 0x1 PUSH1 0xA0 SHL SUB PUSH3 0xD23 DUP3 PUSH1 0x4 ADD DUP4 PUSH1 0x4 ADD PUSH3 0x228D JUMP JUMPDEST SWAP5 SWAP1 PUSH3 0xD73 PUSH3 0xD81 PUSH3 0xD3F PUSH1 0x24 DUP8 ADD DUP8 PUSH1 0x4 ADD PUSH3 0x228D JUMP JUMPDEST PUSH3 0xD51 PUSH1 0x44 DUP10 ADD DUP10 PUSH1 0x4 ADD PUSH3 0x228D JUMP JUMPDEST SWAP5 SWAP1 SWAP6 PUSH3 0xD62 PUSH1 0x84 DUP12 ADD PUSH3 0x22C3 JUMP JUMPDEST SWAP12 PUSH1 0x40 MLOAD SWAP14 DUP15 DUP2 DUP2 MSTORE ADD SWAP2 PUSH3 0x22D8 JUMP JUMPDEST SWAP2 DUP12 DUP4 SUB DUP15 DUP14 ADD MSTORE PUSH3 0x22D8 JUMP JUMPDEST SWAP2 DUP9 DUP4 SUB PUSH1 0x40 DUP11 ADD MSTORE PUSH3 0x22D8 JUMP JUMPDEST SWAP4 PUSH1 0x64 DUP4 ADD CALLDATALOAD PUSH1 0x60 DUP8 ADD MSTORE AND PUSH1 0x80 DUP6 ADD MSTORE PUSH1 0xA4 DUP2 ADD CALLDATALOAD PUSH1 0xA0 DUP6 ADD MSTORE ADD CALLDATALOAD PUSH1 0xC0 DUP4 ADD MSTORE PUSH32 0x47B74713D583913A6EDC4B92AEEFC05736430CFFFC369930E78DB68A1BB3F80A CALLER SWAP3 DUP1 PUSH1 0x1 PUSH1 0x1 PUSH1 0xA0 SHL SUB DUP7 AND SWAP4 SUB SWAP1 LOG3 PUSH1 0x1 PUSH1 0x0 SSTORE PUSH1 0x1 PUSH1 0x1 PUSH1 0xA0 SHL SUB PUSH1 0x40 MLOAD SWAP2 AND DUP2 MSTORE RETURN JUMPDEST PUSH4 0x4E487B71 PUSH1 0xE0 SHL PUSH1 0x0 MSTORE PUSH1 0x41 PUSH1 0x4 MSTORE PUSH1 0x24 PUSH1 0x0 REVERT JUMPDEST ADD MLOAD SWAP1 POP DUP10 DUP1 PUSH3 0xBD9 JUMP JUMPDEST SWAP1 PUSH1 0x4 DUP6 ADD PUSH1 0x0 MSTORE PUSH1 0x20 PUSH1 0x0 KECCAK256 SWAP2 PUSH1 0x0 JUMPDEST PUSH1 0x1F NOT DUP6 AND DUP2 LT PUSH3 0xE83 JUMPI POP DUP4 PUSH2 0x160 SWAP4 PUSH3 0xC6B SWAP8 SWAP7 SWAP4 PUSH1 0x1 SWAP4 PUSH1 0xB SWAP8 PUSH1 0x1F NOT DUP2 AND LT PUSH3 0xE69 JUMPI JUMPDEST POP POP POP DUP2 SHL ADD PUSH1 0x4 DUP6 ADD SSTORE PUSH3 0xBF1 JUMP JUMPDEST ADD MLOAD PUSH1 0x0 NOT PUSH1 0xF8 DUP5 PUSH1 0x3 SHL AND SHR NOT AND SWAP1 SSTORE DUP10 DUP1 DUP1 PUSH3 0xE58 JUMP JUMPDEST SWAP2 SWAP3 PUSH1 0x20 PUSH1 0x1 DUP2 SWAP3 DUP7 DUP6 ADD MLOAD DUP2 SSTORE ADD SWAP5 ADD SWAP3 ADD PUSH3 0xE2D JUMP JUMPDEST PUSH1 0x4 DUP6 ADD PUSH1 0x0 MSTORE PUSH1 0x20 PUSH1 0x0 KECCAK256 PUSH1 0x1F DUP5 ADD PUSH1 0x5 SHR DUP2 ADD PUSH1 0x20 DUP6 LT PUSH3 0xEE0 JUMPI JUMPDEST PUSH1 0x1F DUP4 ADD PUSH1 0x5 SHR DUP3 ADD DUP2 LT PUSH3 0xED3 JUMPI POP POP PUSH3 0xBB1 JUMP JUMPDEST PUSH1 0x0 DUP2 SSTORE PUSH1 0x1 ADD PUSH3 0xEBB JUMP JUMPDEST POP DUP1 PUSH3 0xEBB JUMP JUMPDEST ADD MLOAD SWAP1 POP DUP7 DUP1 PUSH3 0xB68 JUMP JUMPDEST SWAP3 POP PUSH1 0x3 DUP6 ADD PUSH1 0x0 MSTORE PUSH1 0x20 PUSH1 0x0 KECCAK256 SWAP1 PUSH1 0x0 SWAP4 JUMPDEST PUSH1 0x1F NOT DUP5 AND DUP6 LT PUSH3 0xF4F JUMPI PUSH1 0x1 SWAP5 POP DUP4 PUSH1 0x1F NOT DUP2 AND LT PUSH3 0xF35 JUMPI JUMPDEST POP POP POP DUP2 SHL ADD PUSH1 0x3 DUP4 ADD SSTORE PUSH3 0xB80 JUMP JUMPDEST ADD MLOAD PUSH1 0x0 NOT PUSH1 0xF8 DUP5 PUSH1 0x3 SHL AND SHR NOT AND SWAP1 SSTORE DUP7 DUP1 DUP1 PUSH3 0xF24 JUMP JUMPDEST DUP2 DUP2 ADD MLOAD DUP4 SSTORE PUSH1 0x20 SWAP5 DUP6 ADD SWAP5 PUSH1 0x1 SWAP1 SWAP4 ADD SWAP3 SWAP1 SWAP2 ADD SWAP1 PUSH3 0xF07 JUMP JUMPDEST SWAP1 SWAP2 POP PUSH1 0x3 DUP6 ADD PUSH1 0x0 MSTORE PUSH1 0x20 PUSH1 0x0 KECCAK256 PUSH1 0x1F DUP5 ADD PUSH1 0x5 SHR DUP2 ADD PUSH1 0x20 DUP6 LT PUSH3 0xFBB JUMPI JUMPDEST SWAP1 DUP5 SWAP4 SWAP3 SWAP2 JUMPDEST PUSH1 0x1F DUP4 ADD PUSH1 0x5 SHR DUP3 ADD DUP2 LT PUSH3 0xFAB JUMPI POP POP PUSH3 0xB4F JUMP JUMPDEST PUSH1 0x0 DUP2 SSTORE DUP6 SWAP5 POP PUSH1 0x1 ADD PUSH3 0xF93 JUMP JUMPDEST POP DUP1 PUSH3 0xF8D JUMP JUMPDEST ADD MLOAD SWAP1 POP DUP7 DUP1 PUSH3 0xB04 JUMP JUMPDEST SWAP3 POP PUSH1 0x2 DUP6 ADD PUSH1 0x0 MSTORE PUSH1 0x20 PUSH1 0x0 KECCAK256 SWAP1 PUSH1 0x0 SWAP4 JUMPDEST PUSH1 0x1F NOT DUP5 AND DUP6 LT PUSH3 0x102A JUMPI PUSH1 0x1 SWAP5 POP DUP4 PUSH1 0x1F NOT DUP2 AND LT PUSH3 0x1010 JUMPI JUMPDEST POP POP POP DUP2 SHL ADD PUSH1 0x2 DUP4 ADD SSTORE PUSH3 0xB1C JUMP JUMPDEST ADD MLOAD PUSH1 0x0 NOT PUSH1 0xF8 DUP5 PUSH1 0x3 SHL AND SHR NOT AND SWAP1 SSTORE DUP7 DUP1 DUP1 PUSH3 0xFFF JUMP JUMPDEST DUP2 DUP2 ADD MLOAD DUP4 SSTORE PUSH1 0x20 SWAP5 DUP6 ADD SWAP5 PUSH1 0x1 SWAP1 SWAP4 ADD SWAP3 SWAP1 SWAP2 ADD SWAP1 PUSH3 0xFE2 JUMP JUMPDEST SWAP1 SWAP2 POP PUSH1 0x2 DUP6 ADD PUSH1 0x0 MSTORE PUSH1 0x20 PUSH1 0x0 KECCAK256 PUSH1 0x1F DUP5 ADD PUSH1 0x5 SHR DUP2 ADD PUSH1 0x20 DUP6 LT PUSH3 0x1096 JUMPI JUMPDEST SWAP1 DUP5 SWAP4 SWAP3 SWAP2 JUMPDEST PUSH1 0x1F DUP4 ADD PUSH1 0x5 SHR DUP3 ADD DUP2 LT PUSH3 0x1086 JUMPI POP POP PUSH3 0xAEB JUMP JUMPDEST PUSH1 0x0 DUP2 SSTORE DUP6 SWAP5 POP PUSH1 0x1 ADD PUSH3 0x106E JUMP JUMPDEST POP DUP1 PUSH3 0x1068 JUMP JUMPDEST PUSH1 0x40 MLOAD RETURNDATASIZE PUSH1 0x0 DUP3 RETURNDATACOPY RETURNDATASIZE SWAP1 REVERT JUMPDEST PUSH1 0x64 PUSH1 0x40 MLOAD PUSH3 0x461BCD PUSH1 0xE5 SHL DUP2 MSTORE PUSH1 0x20 PUSH1 0x4 DUP3 ADD MSTORE PUSH1 0x1E PUSH1 0x24 DUP3 ADD MSTORE PUSH32 0x4F52444552206275726E20766572696669636174696F6E206661696C65640000 PUSH1 0x44 DUP3 ADD MSTORE REVERT JUMPDEST PUSH4 0x4E487B71 PUSH1 0xE0 SHL PUSH1 0x0 MSTORE PUSH1 0x11 PUSH1 0x4 MSTORE PUSH1 0x24 PUSH1 0x0 REVERT JUMPDEST SWAP1 POP PUSH1 0x20 DUP2 RETURNDATASIZE PUSH1 0x20 GT PUSH3 0x1133 JUMPI JUMPDEST DUP2 PUSH3 0x1122 PUSH1 0x20 SWAP4 DUP4 PUSH3 0x2092 JUMP JUMPDEST DUP2 ADD SUB SLT PUSH3 0x166 JUMPI MLOAD DUP5 PUSH3 0x819 JUMP JUMPDEST RETURNDATASIZE SWAP2 POP PUSH3 0x1113 JUMP JUMPDEST PUSH1 0x84 PUSH1 0x40 MLOAD PUSH3 0x461BCD PUSH1 0xE5 SHL DUP2 MSTORE PUSH1 0x20 PUSH1 0x4 DUP3 ADD MSTORE PUSH1 0x2A PUSH1 0x24 DUP3 ADD MSTORE PUSH32 0x5361666545524332303A204552433230206F7065726174696F6E20646964206E PUSH1 0x44 DUP3 ADD MSTORE PUSH32 0x6F74207375636365656400000000000000000000000000000000000000000000 PUSH1 0x64 DUP3 ADD MSTORE REVERT JUMPDEST DUP2 SWAP3 POP SWAP1 PUSH1 0x20 SWAP2 DUP2 ADD SUB SLT PUSH3 0x166 JUMPI PUSH1 0x20 ADD MLOAD DUP1 ISZERO ISZERO DUP2 SUB PUSH3 0x166 JUMPI DUP5 DUP1 PUSH3 0x7CE JUMP JUMPDEST PUSH1 0xA0 PUSH1 0x60 SWAP2 PUSH3 0x7B8 JUMP JUMPDEST SWAP1 POP PUSH1 0x20 DUP2 RETURNDATASIZE PUSH1 0x20 GT PUSH3 0x1206 JUMPI JUMPDEST DUP2 PUSH3 0x11F5 PUSH1 0x20 SWAP4 DUP4 PUSH3 0x2092 JUMP JUMPDEST DUP2 ADD SUB SLT PUSH3 0x166 JUMPI MLOAD DUP4 PUSH3 0x6B0 JUMP JUMPDEST RETURNDATASIZE SWAP2 POP PUSH3 0x11E6 JUMP JUMPDEST PUSH1 0x64 PUSH1 0x40 MLOAD PUSH3 0x461BCD PUSH1 0xE5 SHL DUP2 MSTORE PUSH1 0x20 PUSH1 0x4 DUP3 ADD MSTORE PUSH1 0x20 PUSH1 0x24 DUP3 ADD MSTORE PUSH32 0x4D696E7420746F6B656E206D757374206861766520313820646563696D616C73 PUSH1 0x44 DUP3 ADD MSTORE REVERT JUMPDEST SWAP1 SWAP2 POP PUSH1 0x20 DUP2 RETURNDATASIZE PUSH1 0x20 GT PUSH3 0x128F JUMPI JUMPDEST DUP2 PUSH3 0x1272 PUSH1 0x20 SWAP4 DUP4 PUSH3 0x2092 JUMP JUMPDEST DUP2 ADD SUB SLT PUSH3 0x166 JUMPI MLOAD PUSH1 0xFF DUP2 AND DUP2 SUB PUSH3 0x166 JUMPI SWAP1 DUP5 PUSH3 0x617 JUMP JUMPDEST RETURNDATASIZE SWAP2 POP PUSH3 0x1263 JUMP JUMPDEST PUSH1 0x64 PUSH1 0x40 MLOAD PUSH3 0x461BCD PUSH1 0xE5 SHL DUP2 MSTORE PUSH1 0x20 PUSH1 0x4 DUP3 ADD MSTORE PUSH1 0x14 PUSH1 0x24 DUP3 ADD MSTORE PUSH32 0x4465736372697074696F6E20746F6F206C6F6E67000000000000000000000000 PUSH1 0x44 DUP3 ADD MSTORE REVERT JUMPDEST PUSH1 0x64 PUSH1 0x40 MLOAD PUSH3 0x461BCD PUSH1 0xE5 SHL DUP2 MSTORE PUSH1 0x20 PUSH1 0x4 DUP3 ADD MSTORE PUSH1 0x18 PUSH1 0x24 DUP3 ADD MSTORE PUSH32 0x4D61726B6574706C6163652066656520746F6F20686967680000000000000000 PUSH1 0x44 DUP3 ADD MSTORE REVERT JUMPDEST PUSH1 0x64 PUSH1 0x40 MLOAD PUSH3 0x461BCD PUSH1 0xE5 SHL DUP2 MSTORE PUSH1 0x20 PUSH1 0x4 DUP3 ADD MSTORE PUSH1 0x12 PUSH1 0x24 DUP3 ADD MSTORE PUSH32 0x496E76616C6964206D696E742070726963650000000000000000000000000000 PUSH1 0x44 DUP3 ADD MSTORE REVERT JUMPDEST PUSH1 0x64 PUSH1 0x40 MLOAD PUSH3 0x461BCD PUSH1 0xE5 SHL DUP2 MSTORE PUSH1 0x20 PUSH1 0x4 DUP3 ADD MSTORE PUSH1 0x12 PUSH1 0x24 DUP3 ADD MSTORE PUSH32 0x496E76616C6964206D696E7420746F6B656E0000000000000000000000000000 PUSH1 0x44 DUP3 ADD MSTORE REVERT JUMPDEST PUSH1 0x64 PUSH1 0x40 MLOAD PUSH3 0x461BCD PUSH1 0xE5 SHL DUP2 MSTORE PUSH1 0x20 PUSH1 0x4 DUP3 ADD MSTORE PUSH1 0x12 PUSH1 0x24 DUP3 ADD MSTORE PUSH32 0x496E76616C6964206D617820737570706C790000000000000000000000000000 PUSH1 0x44 DUP3 ADD MSTORE REVERT JUMPDEST POP PUSH3 0x186A0 PUSH1 0x64 DUP4 ADD CALLDATALOAD GT ISZERO PUSH3 0x56F JUMP JUMPDEST PUSH1 0x64 PUSH1 0x40 MLOAD PUSH3 0x461BCD PUSH1 0xE5 SHL DUP2 MSTORE PUSH1 0x20 PUSH1 0x4 DUP3 ADD MSTORE PUSH1 0x15 PUSH1 0x24 DUP3 ADD MSTORE PUSH32 0x426173652055524920616C726561647920757365640000000000000000000000 PUSH1 0x44 DUP3 ADD MSTORE REVERT JUMPDEST PUSH1 0x64 PUSH1 0x40 MLOAD PUSH3 0x461BCD PUSH1 0xE5 SHL DUP2 MSTORE PUSH1 0x20 PUSH1 0x4 DUP3 ADD MSTORE PUSH1 0x11 PUSH1 0x24 DUP3 ADD MSTORE PUSH32 0x4261736520555249207265717569726564000000000000000000000000000000 PUSH1 0x44 DUP3 ADD MSTORE REVERT JUMPDEST PUSH1 0x64 PUSH1 0x40 MLOAD PUSH3 0x461BCD PUSH1 0xE5 SHL DUP2 MSTORE PUSH1 0x20 PUSH1 0x4 DUP3 ADD MSTORE PUSH1 0x15 PUSH1 0x24 DUP3 ADD MSTORE PUSH32 0x496E76616C69642073796D626F6C206C656E6774680000000000000000000000 PUSH1 0x44 DUP3 ADD MSTORE REVERT JUMPDEST POP PUSH1 0x14 PUSH3 0x14DF PUSH1 0x24 DUP4 ADD DUP4 PUSH1 0x4 ADD PUSH3 0x228D JUMP JUMPDEST SWAP1 POP GT ISZERO PUSH3 0x4EF JUMP JUMPDEST PUSH1 0x64 PUSH1 0x40 MLOAD PUSH3 0x461BCD PUSH1 0xE5 SHL DUP2 MSTORE PUSH1 0x20 PUSH1 0x4 DUP3 ADD MSTORE PUSH1 0x13 PUSH1 0x24 DUP3 ADD MSTORE PUSH32 0x496E76616C6964206E616D65206C656E67746800000000000000000000000000 PUSH1 0x44 DUP3 ADD MSTORE REVERT JUMPDEST POP PUSH1 0x64 PUSH3 0x153F PUSH1 0x4 DUP4 ADD DUP1 PUSH3 0x228D JUMP JUMPDEST SWAP1 POP GT ISZERO PUSH3 0x4CC JUMP JUMPDEST PUSH1 0x64 PUSH1 0x40 MLOAD PUSH3 0x461BCD PUSH1 0xE5 SHL DUP2 MSTORE PUSH1 0x20 PUSH1 0x4 DUP3 ADD MSTORE PUSH1 0x1F PUSH1 0x24 DUP3 ADD MSTORE PUSH32 0x5265656E7472616E637947756172643A207265656E7472616E742063616C6C00 PUSH1 0x44 DUP3 ADD MSTORE REVERT JUMPDEST CALLVALUE PUSH3 0x166 JUMPI PUSH1 0x20 CALLDATASIZE PUSH1 0x3 NOT ADD SLT PUSH3 0x166 JUMPI PUSH1 0x4 CALLDATALOAD PUSH8 0xFFFFFFFFFFFFFFFF DUP2 GT PUSH3 0x166 JUMPI CALLDATASIZE PUSH1 0x23 DUP3 ADD SLT ISZERO PUSH3 0x166 JUMPI PUSH1 0xFF PUSH3 0x15F2 PUSH1 0x20 PUSH3 0x15DE DUP2 SWAP5 CALLDATASIZE SWAP1 PUSH1 0x24 DUP2 PUSH1 0x4 ADD CALLDATALOAD SWAP2 ADD PUSH3 0x21A4 JUMP JUMPDEST DUP2 PUSH1 0x40 MLOAD SWAP4 DUP3 DUP6 DUP1 SWAP5 MLOAD SWAP4 DUP5 SWAP3 ADD PUSH3 0x1E52 JUMP JUMPDEST DUP2 ADD PUSH1 0x6 DUP2 MSTORE SUB ADD SWAP1 KECCAK256 SLOAD AND PUSH1 0x40 MLOAD SWAP1 ISZERO ISZERO DUP2 MSTORE RETURN JUMPDEST CALLVALUE PUSH3 0x166 JUMPI PUSH1 0x20 CALLDATASIZE PUSH1 0x3 NOT ADD SLT PUSH3 0x166 JUMPI CALLER PUSH1 0x0 MSTORE PUSH1 0x7 PUSH1 0x20 MSTORE PUSH1 0x1 PUSH1 0x1 PUSH1 0xA0 SHL SUB PUSH1 0x40 PUSH1 0x0 KECCAK256 SLOAD AND ISZERO PUSH3 0x1653 JUMPI CALLER PUSH1 0x0 MSTORE PUSH1 0x7 PUSH1 0x20 MSTORE PUSH1 0x4 CALLDATALOAD PUSH1 0xA PUSH1 0x40 PUSH1 0x0 KECCAK256 ADD SSTORE PUSH1 0x0 DUP1 RETURN JUMPDEST PUSH1 0x64 PUSH1 0x40 MLOAD PUSH3 0x461BCD PUSH1 0xE5 SHL DUP2 MSTORE PUSH1 0x20 PUSH1 0x4 DUP3 ADD MSTORE PUSH1 0x19 PUSH1 0x24 DUP3 ADD MSTORE PUSH32 0x4F6E6C7920636F6C6C656374696F6E732063616E2063616C6C00000000000000 PUSH1 0x44 DUP3 ADD MSTORE REVERT JUMPDEST CALLVALUE PUSH3 0x166 JUMPI PUSH1 0xA0 CALLDATASIZE PUSH1 0x3 NOT ADD SLT PUSH3 0x166 JUMPI PUSH1 0x1 PUSH1 0x1 PUSH1 0xA0 SHL SUB PUSH1 0x44 CALLDATALOAD DUP2 DUP2 AND DUP2 SUB PUSH3 0x166 JUMPI PUSH1 0x64 CALLDATALOAD SWAP2 DUP3 AND DUP3 SUB PUSH3 0x166 JUMPI PUSH1 0x84 CALLDATALOAD DUP1 ISZERO ISZERO DUP2 SUB PUSH3 0x166 JUMPI PUSH3 0x16FC SWAP3 PUSH3 0x16EF SWAP3 PUSH1 0x24 CALLDATALOAD PUSH1 0x4 CALLDATALOAD PUSH3 0x2883 JUMP JUMPDEST PUSH1 0x40 MLOAD SWAP2 DUP3 SWAP2 DUP3 PUSH3 0x1F53 JUMP JUMPDEST SUB SWAP1 RETURN JUMPDEST CALLVALUE PUSH3 0x166 JUMPI PUSH1 0x20 CALLDATASIZE PUSH1 0x3 NOT ADD SLT PUSH3 0x166 JUMPI PUSH3 0x16FC PUSH3 0x1721 PUSH3 0x2020 JUMP JUMPDEST PUSH3 0x172B PUSH3 0x2555 JUMP JUMPDEST POP PUSH1 0x1 PUSH1 0x1 PUSH1 0xA0 SHL SUB DUP1 SWAP2 AND PUSH1 0x0 MSTORE PUSH1 0x7 PUSH1 0x20 MSTORE PUSH1 0xFF PUSH1 0xB PUSH1 0x40 PUSH1 0x0 KECCAK256 PUSH1 0x40 MLOAD SWAP4 PUSH3 0x1757 DUP6 PUSH3 0x2074 JUMP JUMPDEST DUP1 DUP3 SLOAD AND DUP6 MSTORE DUP1 PUSH1 0x1 DUP4 ADD SLOAD AND PUSH1 0x20 DUP7 ADD MSTORE PUSH3 0x1777 PUSH1 0x2 DUP4 ADD PUSH3 0x20B5 JUMP JUMPDEST PUSH1 0x40 DUP7 ADD MSTORE PUSH3 0x178A PUSH1 0x3 DUP4 ADD PUSH3 0x20B5 JUMP JUMPDEST PUSH1 0x60 DUP7 ADD MSTORE PUSH3 0x179D PUSH1 0x4 DUP4 ADD PUSH3 0x20B5 JUMP JUMPDEST PUSH1 0x80 DUP7 ADD MSTORE PUSH1 0x5 DUP3 ADD SLOAD PUSH1 0xA0 DUP7 ADD MSTORE PUSH1 0x6 DUP3 ADD SLOAD AND PUSH1 0xC0 DUP6 ADD MSTORE PUSH1 0x7 DUP2 ADD SLOAD PUSH1 0xE0 DUP6 ADD MSTORE PUSH1 0x8 DUP2 ADD SLOAD PUSH2 0x100 DUP6 ADD MSTORE PUSH1 0x9 DUP2 ADD SLOAD PUSH2 0x120 DUP6 ADD MSTORE PUSH1 0xA DUP2 ADD SLOAD PUSH2 0x140 DUP6 ADD MSTORE ADD SLOAD AND ISZERO ISZERO PUSH2 0x160 DUP3 ADD MSTORE PUSH1 0x40 MLOAD SWAP2 DUP3 SWAP2 PUSH1 0x20 DUP4 MSTORE PUSH1 0x20 DUP4 ADD SWAP1 PUSH3 0x1E9E JUMP JUMPDEST CALLVALUE PUSH3 0x166 JUMPI PUSH1 0x0 CALLDATASIZE PUSH1 0x3 NOT ADD SLT PUSH3 0x166 JUMPI PUSH3 0x182D PUSH1 0x1 PUSH1 0x1 PUSH1 0xA0 SHL SUB PUSH1 0x3 SLOAD AND CALLER EQ PUSH3 0x21E0 JUMP JUMPDEST PUSH3 0x1837 PUSH3 0x222C JUMP JUMPDEST PUSH1 0x1 PUSH1 0xFF NOT DUP2 SLOAD AND OR PUSH1 0x1 SSTORE PUSH32 0x62E78CEA01BEE320CD4E420270B5EA74000D11B0C9F74754EBDBFC544B05A258 PUSH1 0x20 PUSH1 0x40 MLOAD CALLER DUP2 MSTORE LOG1 STOP JUMPDEST CALLVALUE PUSH3 0x166 JUMPI PUSH1 0x0 CALLDATASIZE PUSH1 0x3 NOT ADD SLT PUSH3 0x166 JUMPI PUSH1 0x20 PUSH1 0x40 MLOAD PUSH20 0x1BED077195307229FCCBC719C5F2CE6416A58180 DUP2 MSTORE RETURN JUMPDEST CALLVALUE PUSH3 0x166 JUMPI PUSH1 0x40 CALLDATASIZE PUSH1 0x3 NOT ADD SLT PUSH3 0x166 JUMPI PUSH3 0x18BD PUSH3 0x2020 JUMP JUMPDEST PUSH1 0x24 CALLDATALOAD SWAP1 PUSH1 0x1 PUSH1 0x1 PUSH1 0xA0 SHL SUB DUP1 SWAP2 AND PUSH1 0x0 MSTORE PUSH1 0x5 PUSH1 0x20 MSTORE PUSH1 0x40 PUSH1 0x0 KECCAK256 DUP1 SLOAD DUP4 LT ISZERO PUSH3 0x166 JUMPI PUSH1 0x20 SWAP3 PUSH3 0x18F1 SWAP2 PUSH3 0x2007 JUMP JUMPDEST SWAP2 SWAP1 SLOAD PUSH1 0x40 MLOAD SWAP3 PUSH1 0x3 SHL SHR AND DUP2 MSTORE RETURN JUMPDEST CALLVALUE PUSH3 0x166 JUMPI PUSH1 0x20 CALLDATASIZE PUSH1 0x3 NOT ADD SLT PUSH3 0x166 JUMPI PUSH3 0x191E PUSH3 0x2020 JUMP JUMPDEST PUSH1 0x3 SLOAD SWAP1 PUSH1 0x1 PUSH1 0x1 PUSH1 0xA0 SHL SUB DUP1 DUP4 AND SWAP2 PUSH3 0x193B DUP4 CALLER EQ PUSH3 0x21E0 JUMP JUMPDEST AND SWAP2 DUP3 ISZERO PUSH3 0x19D3 JUMPI DUP2 DUP4 EQ PUSH3 0x198F JUMPI PUSH20 0xFFFFFFFFFFFFFFFFFFFFFFFFFFFFFFFFFFFFFFFF NOT AND DUP3 OR PUSH1 0x3 SSTORE PUSH32 0xF8CCB027DFCD135E000E9D45E6CC2D662578A8825D4C45B5E32E0ADF67E79EC6 PUSH1 0x0 DUP1 LOG3 STOP JUMPDEST PUSH1 0x64 PUSH1 0x40 MLOAD PUSH3 0x461BCD PUSH1 0xE5 SHL DUP2 MSTORE PUSH1 0x20 PUSH1 0x4 DUP3 ADD MSTORE PUSH1 0xD PUSH1 0x24 DUP3 ADD MSTORE PUSH32 0x416C72656164792061646D696E00000000000000000000000000000000000000 PUSH1 0x44 DUP3 ADD MSTORE REVERT JUMPDEST PUSH1 0x64 PUSH1 0x40 MLOAD PUSH3 0x461BCD PUSH1 0xE5 SHL DUP2 MSTORE PUSH1 0x20 PUSH1 0x4 DUP3 ADD MSTORE PUSH1 0x11 PUSH1 0x24 DUP3 ADD MSTORE PUSH32 0x496E76616C6964206E65772061646D696E000000000000000000000000000000 PUSH1 0x44 DUP3 ADD MSTORE REVERT JUMPDEST CALLVALUE PUSH3 0x166 JUMPI PUSH1 0x0 CALLDATASIZE PUSH1 0x3 NOT ADD SLT PUSH3 0x166 JUMPI PUSH1 0x20 PUSH1 0xFF PUSH1 0x1 SLOAD AND PUSH1 0x40 MLOAD SWAP1 ISZERO ISZERO DUP2 MSTORE RETURN JUMPDEST CALLVALUE PUSH3 0x166 JUMPI PUSH1 0x20 CALLDATASIZE PUSH1 0x3 NOT ADD SLT PUSH3 0x166 JUMPI PUSH1 0x4 CALLDATALOAD PUSH8 0xFFFFFFFFFFFFFFFF DUP1 DUP3 GT PUSH3 0x166 JUMPI CALLDATASIZE PUSH1 0x23 DUP4 ADD SLT ISZERO PUSH3 0x166 JUMPI DUP2 PUSH1 0x4 ADD CALLDATALOAD SWAP1 DUP2 GT PUSH3 0x166 JUMPI CALLDATASIZE PUSH1 0x24 DUP3 DUP5 ADD ADD GT PUSH3 0x166 JUMPI PUSH3 0x15F2 PUSH1 0x20 PUSH3 0x15DE PUSH3 0x531 DUP3 SWAP6 PUSH1 0xFF SWAP6 PUSH1 0x24 CALLDATASIZE SWAP3 ADD PUSH3 0x21A4 JUMP JUMPDEST CALLVALUE PUSH3 0x166 JUMPI PUSH1 0x0 CALLDATASIZE PUSH1 0x3 NOT ADD SLT PUSH3 0x166 JUMPI PUSH1 0x20 PUSH1 0x40 MLOAD PUSH2 0xDEAD DUP2 MSTORE RETURN JUMPDEST CALLVALUE PUSH3 0x166 JUMPI PUSH1 0x0 CALLDATASIZE PUSH1 0x3 NOT ADD SLT PUSH3 0x166 JUMPI PUSH1 0x20 PUSH1 0x2 SLOAD PUSH1 0x40 MLOAD SWAP1 DUP2 MSTORE RETURN JUMPDEST CALLVALUE PUSH3 0x166 JUMPI PUSH1 0x40 CALLDATASIZE PUSH1 0x3 NOT ADD SLT PUSH3 0x166 JUMPI PUSH3 0x1B03 PUSH3 0x2020 JUMP JUMPDEST PUSH1 0x24 CALLDATALOAD DUP1 ISZERO ISZERO SWAP1 DUP2 DUP2 SUB PUSH3 0x166 JUMPI PUSH1 0x1 PUSH1 0x1 PUSH1 0xA0 SHL SUB DUP1 SWAP4 PUSH3 0x1B2D DUP3 PUSH1 0x3 SLOAD AND CALLER EQ PUSH3 0x21E0 JUMP JUMPDEST AND SWAP3 DUP4 ISZERO PUSH3 0x1BE3 JUMPI DUP4 PUSH1 0x0 MSTORE PUSH1 0x7 PUSH1 0x20 MSTORE PUSH1 0x40 PUSH1 0x0 KECCAK256 SLOAD AND ISZERO PUSH3 0x1B9F JUMPI PUSH32 0x79E37877969A45AF2A00E507E8E00E9701442E50F51A85DAE8DAFC20C1341C4D SWAP2 PUSH3 0x1B96 PUSH1 0x20 SWAP3 DUP6 PUSH1 0x0 MSTORE PUSH1 0x7 DUP5 MSTORE PUSH1 0xB PUSH1 0x40 PUSH1 0x0 KECCAK256 ADD SWAP1 PUSH1 0xFF DUP1 NOT DUP4 SLOAD AND SWAP2 ISZERO ISZERO AND OR SWAP1 SSTORE JUMP JUMPDEST PUSH1 0x40 MLOAD SWAP1 DUP2 MSTORE LOG2 STOP JUMPDEST PUSH1 0x64 PUSH1 0x40 MLOAD PUSH3 0x461BCD PUSH1 0xE5 SHL DUP2 MSTORE PUSH1 0x20 PUSH1 0x4 DUP3 ADD MSTORE PUSH1 0x14 PUSH1 0x24 DUP3 ADD MSTORE PUSH32 0x436F6C6C656374696F6E206E6F7420666F756E64000000000000000000000000 PUSH1 0x44 DUP3 ADD MSTORE REVERT JUMPDEST PUSH1 0x64 PUSH1 0x40 MLOAD PUSH3 0x461BCD PUSH1 0xE5 SHL DUP2 MSTORE PUSH1 0x20 PUSH1 0x4 DUP3 ADD MSTORE PUSH1 0x1A PUSH1 0x24 DUP3 ADD MSTORE PUSH32 0x496E76616C696420636F6C6C656374696F6E2061646472657373000000000000 PUSH1 0x44 DUP3 ADD MSTORE REVERT JUMPDEST CALLVALUE PUSH3 0x166 JUMPI PUSH1 0x0 CALLDATASIZE PUSH1 0x3 NOT ADD SLT PUSH3 0x166 JUMPI PUSH3 0x1C52 PUSH1 0x1 PUSH1 0x1 PUSH1 0xA0 SHL SUB PUSH1 0x3 SLOAD AND CALLER EQ PUSH3 0x21E0 JUMP JUMPDEST PUSH1 0x1 SLOAD PUSH1 0xFF DUP2 AND ISZERO PUSH3 0x1C92 JUMPI PUSH1 0xFF NOT AND PUSH1 0x1 SSTORE PUSH32 0x5DB9EE0A495BF2E6FF9C91A7834C1BA4FDD244A5E8AA4E537BD38AEAE4B073AA PUSH1 0x20 PUSH1 0x40 MLOAD CALLER DUP2 MSTORE LOG1 STOP JUMPDEST PUSH1 0x64 PUSH1 0x40 MLOAD PUSH3 0x461BCD PUSH1 0xE5 SHL DUP2 MSTORE PUSH1 0x20 PUSH1 0x4 DUP3 ADD MSTORE PUSH1 0x14 PUSH1 0x24 DUP3 ADD MSTORE PUSH32 0x5061757361626C653A206E6F7420706175736564000000000000000000000000 PUSH1 0x44 DUP3 ADD MSTORE REVERT JUMPDEST CALLVALUE PUSH3 0x166 JUMPI PUSH1 0x20 CALLDATASIZE PUSH1 0x3 NOT ADD SLT PUSH3 0x166 JUMPI PUSH1 0x1 PUSH1 0x1 PUSH1 0xA0 SHL SUB DUP1 PUSH3 0x1CFC PUSH3 0x2020 JUMP JUMPDEST AND PUSH1 0x0 MSTORE PUSH1 0x7 PUSH1 0x20 MSTORE PUSH1 0x40 PUSH1 0x0 KECCAK256 SWAP1 DUP1 DUP3 SLOAD AND SWAP1 DUP1 PUSH1 0x1 DUP5 ADD SLOAD AND SWAP3 PUSH1 0x2 DUP2 ADD PUSH3 0x1D27 SWAP1 PUSH3 0x20B5 JUMP JUMPDEST SWAP1 PUSH3 0x1D36 PUSH1 0x3 DUP3 ADD PUSH3 0x20B5 JUMP JUMPDEST PUSH3 0x1D44 PUSH1 0x4 DUP4 ADD PUSH3 0x20B5 JUMP JUMPDEST PUSH1 0x5 DUP4 ADD SLOAD SWAP5 PUSH1 0x6 DUP5 ADD SLOAD AND PUSH1 0x7 DUP5 ADD SLOAD SWAP1 PUSH1 0x8 DUP6 ADD SLOAD SWAP3 PUSH1 0x9 DUP7 ADD SLOAD SWAP5 PUSH1 0xA DUP8 ADD SLOAD SWAP7 PUSH1 0xB ADD SLOAD PUSH1 0xFF AND SWAP8 PUSH1 0x40 MLOAD SWAP12 DUP13 SWAP12 DUP13 MSTORE PUSH1 0x20 DUP13 ADD MSTORE PUSH2 0x180 DUP1 PUSH1 0x40 DUP14 ADD MSTORE DUP12 ADD PUSH3 0x1D93 SWAP2 PUSH3 0x1E77 JUMP JUMPDEST DUP11 DUP2 SUB PUSH1 0x60 DUP13 ADD MSTORE PUSH3 0x1DA6 SWAP2 PUSH3 0x1E77 JUMP JUMPDEST DUP10 DUP2 SUB PUSH1 0x80 DUP12 ADD MSTORE PUSH3 0x1DB9 SWAP2 PUSH3 0x1E77 JUMP JUMPDEST SWAP7 PUSH1 0xA0 DUP10 ADD MSTORE PUSH1 0xC0 DUP9 ADD MSTORE PUSH1 0xE0 DUP8 ADD MSTORE PUSH2 0x100 DUP7 ADD MSTORE PUSH2 0x120 DUP6 ADD MSTORE PUSH2 0x140 DUP5 ADD MSTORE ISZERO ISZERO PUSH2 0x160 DUP4 ADD MSTORE SUB SWAP1 RETURN JUMPDEST CALLVALUE PUSH3 0x166 JUMPI PUSH1 0x20 CALLDATASIZE PUSH1 0x3 NOT ADD SLT PUSH3 0x166 JUMPI PUSH1 0x4 CALLDATALOAD PUSH1 0x4 SLOAD DUP2 LT ISZERO PUSH3 0x166 JUMPI PUSH1 0x1 PUSH1 0x1 PUSH1 0xA0 SHL SUB PUSH3 0x18F1 PUSH1 0x20 SWAP3 PUSH3 0x1FB9 JUMP JUMPDEST CALLVALUE PUSH3 0x166 JUMPI PUSH1 0x60 CALLDATASIZE PUSH1 0x3 NOT ADD SLT PUSH3 0x166 JUMPI PUSH1 0x44 CALLDATALOAD DUP1 ISZERO ISZERO DUP2 SUB PUSH3 0x166 JUMPI PUSH3 0x16EF PUSH3 0x16FC SWAP2 PUSH1 0x24 CALLDATALOAD PUSH1 0x4 CALLDATALOAD PUSH3 0x2660 JUMP JUMPDEST PUSH1 0x0 JUMPDEST DUP4 DUP2 LT PUSH3 0x1E66 JUMPI POP POP PUSH1 0x0 SWAP2 ADD MSTORE JUMP JUMPDEST DUP2 DUP2 ADD MLOAD DUP4 DUP3 ADD MSTORE PUSH1 0x20 ADD PUSH3 0x1E55 JUMP JUMPDEST SWAP1 PUSH1 0x20 SWAP2 PUSH3 0x1E92 DUP2 MLOAD DUP1 SWAP3 DUP2 DUP6 MSTORE DUP6 DUP1 DUP7 ADD SWAP2 ADD PUSH3 0x1E52 JUMP JUMPDEST PUSH1 0x1F ADD PUSH1 0x1F NOT AND ADD ADD SWAP1 JUMP JUMPDEST SWAP1 PUSH1 0x1 PUSH1 0x1 PUSH1 0xA0 SHL SUB SWAP2 DUP3 DUP2 MLOAD AND DUP3 MSTORE DUP3 PUSH1 0x20 DUP3 ADD MLOAD AND PUSH1 0x20 DUP4 ADD MSTORE PUSH3 0x1F03 PUSH3 0x1EF0 PUSH3 0x1EDD PUSH1 0x40 DUP5 ADD MLOAD PUSH2 0x180 DUP1 PUSH1 0x40 DUP9 ADD MSTORE DUP7 ADD SWAP1 PUSH3 0x1E77 JUMP JUMPDEST PUSH1 0x60 DUP5 ADD MLOAD DUP6 DUP3 SUB PUSH1 0x60 DUP8 ADD MSTORE PUSH3 0x1E77 JUMP JUMPDEST PUSH1 0x80 DUP4 ADD MLOAD DUP5 DUP3 SUB PUSH1 0x80 DUP7 ADD MSTORE PUSH3 0x1E77 JUMP JUMPDEST SWAP3 PUSH1 0xA0 DUP3 ADD MLOAD PUSH1 0xA0 DUP5 ADD MSTORE PUSH1 0xC0 DUP3 ADD MLOAD AND PUSH1 0xC0 DUP4 ADD MSTORE PUSH1 0xE0 DUP2 ADD MLOAD PUSH1 0xE0 DUP4 ADD MSTORE PUSH2 0x100 DUP1 DUP3 ADD MLOAD SWAP1 DUP4 ADD MSTORE PUSH2 0x120 DUP1 DUP3 ADD MLOAD SWAP1 DUP4 ADD MSTORE PUSH2 0x140 DUP1 DUP3 ADD MLOAD SWAP1 DUP4 ADD MSTORE PUSH2 0x160 DUP1 SWAP2 ADD MLOAD ISZERO ISZERO SWAP2 ADD MSTORE SWAP1 JUMP JUMPDEST PUSH1 0x20 DUP1 DUP3 ADD SWAP1 DUP1 DUP4 MSTORE DUP4 MLOAD DUP1 SWAP3 MSTORE PUSH1 0x40 DUP4 ADD SWAP3 DUP2 PUSH1 0x40 DUP5 PUSH1 0x5 SHL DUP4 ADD ADD SWAP6 ADD SWAP4 PUSH1 0x0 SWAP2 JUMPDEST DUP5 DUP4 LT PUSH3 0x1F88 JUMPI POP POP POP POP POP POP SWAP1 JUMP JUMPDEST SWAP1 SWAP2 SWAP3 SWAP4 SWAP5 SWAP6 DUP5 DUP1 PUSH3 0x1FA8 PUSH1 0x1 SWAP4 PUSH1 0x3F NOT DUP7 DUP3 SUB ADD DUP8 MSTORE DUP11 MLOAD PUSH3 0x1E9E JUMP JUMPDEST SWAP9 ADD SWAP4 ADD SWAP4 ADD SWAP2 SWAP5 SWAP4 SWAP3 SWAP1 PUSH3 0x1F77 JUMP JUMPDEST PUSH1 0x4 SLOAD DUP2 LT ISZERO PUSH3 0x1FF1 JUMPI PUSH1 0x4 PUSH1 0x0 MSTORE PUSH32 0x8A35ACFBC15FF81A39AE7D344FD709F28E8600B4AA8C65C6B64BFE7FE36BD19B ADD SWAP1 PUSH1 0x0 SWAP1 JUMP JUMPDEST PUSH4 0x4E487B71 PUSH1 0xE0 SHL PUSH1 0x0 MSTORE PUSH1 0x32 PUSH1 0x4 MSTORE PUSH1 0x24 PUSH1 0x0 REVERT JUMPDEST DUP1 SLOAD DUP3 LT ISZERO PUSH3 0x1FF1 JUMPI PUSH1 0x0 MSTORE PUSH1 0x20 PUSH1 0x0 KECCAK256 ADD SWAP1 PUSH1 0x0 SWAP1 JUMP JUMPDEST PUSH1 0x4 CALLDATALOAD SWAP1 PUSH1 0x1 PUSH1 0x1 PUSH1 0xA0 SHL SUB DUP3 AND DUP3 SUB PUSH3 0x166 JUMPI JUMP JUMPDEST SWAP1 PUSH1 0x1 DUP3 DUP2 SHR SWAP3 AND DUP1 ISZERO PUSH3 0x2069 JUMPI JUMPDEST PUSH1 0x20 DUP4 LT EQ PUSH3 0x2053 JUMPI JUMP JUMPDEST PUSH4 0x4E487B71 PUSH1 0xE0 SHL PUSH1 0x0 MSTORE PUSH1 0x22 PUSH1 0x4 MSTORE PUSH1 0x24 PUSH1 0x0 REVERT JUMPDEST SWAP2 PUSH1 0x7F AND SWAP2 PUSH3 0x2047 JUMP JUMPDEST PUSH2 0x180 DUP2 ADD SWAP1 DUP2 LT PUSH8 0xFFFFFFFFFFFFFFFF DUP3 GT OR PUSH3 0xDFA JUMPI PUSH1 0x40 MSTORE JUMP JUMPDEST SWAP1 PUSH1 0x1F DUP1 NOT SWAP2 ADD AND DUP2 ADD SWAP1 DUP2 LT PUSH8 0xFFFFFFFFFFFFFFFF DUP3 GT OR PUSH3 0xDFA JUMPI PUSH1 0x40 MSTORE JUMP JUMPDEST SWAP1 PUSH1 0x40 MLOAD SWAP2 DUP3 PUSH1 0x0 DUP3 SLOAD SWAP3 PUSH3 0x20CB DUP5 PUSH3 0x2037 JUMP JUMPDEST SWAP1 DUP2 DUP5 MSTORE PUSH1 0x1 SWAP5 DUP6 DUP2 AND SWAP1 DUP2 PUSH1 0x0 EQ PUSH3 0x2142 JUMPI POP PUSH1 0x1 EQ PUSH3 0x20FB JUMPI JUMPDEST POP POP PUSH3 0x20F9 SWAP3 POP SUB DUP4 PUSH3 0x2092 JUMP JUMPDEST JUMP JUMPDEST SWAP1 SWAP4 SWAP2 POP PUSH1 0x0 MSTORE PUSH1 0x20 SWAP1 DUP2 PUSH1 0x0 KECCAK256 SWAP4 PUSH1 0x0 SWAP2 JUMPDEST DUP2 DUP4 LT PUSH3 0x2129 JUMPI POP POP PUSH3 0x20F9 SWAP4 POP DUP3 ADD ADD CODESIZE DUP1 PUSH3 0x20E9 JUMP JUMPDEST DUP6 SLOAD DUP9 DUP5 ADD DUP6 ADD MSTORE SWAP5 DUP6 ADD SWAP5 DUP8 SWAP5 POP SWAP2 DUP4 ADD SWAP2 PUSH3 0x210E JUMP JUMPDEST SWAP2 POP POP PUSH3 0x20F9 SWAP5 POP PUSH1 0x20 SWAP3 POP PUSH1 0xFF NOT AND DUP3 DUP5 ADD MSTORE ISZERO ISZERO PUSH1 0x5 SHL DUP3 ADD ADD CODESIZE DUP1 PUSH3 0x20E9 JUMP JUMPDEST CALLVALUE PUSH3 0x166 JUMPI PUSH1 0x0 CALLDATASIZE PUSH1 0x3 NOT ADD SLT PUSH3 0x166 JUMPI PUSH1 0x20 PUSH1 0x4 SLOAD PUSH1 0x40 MLOAD SWAP1 DUP2 MSTORE RETURN JUMPDEST PUSH8 0xFFFFFFFFFFFFFFFF DUP2 GT PUSH3 0xDFA JUMPI PUSH1 0x1F ADD PUSH1 0x1F NOT AND PUSH1 0x20 ADD SWAP1 JUMP JUMPDEST SWAP3 SWAP2 SWAP3 PUSH3 0x21B2 DUP3 PUSH3 0x2187 JUMP JUMPDEST SWAP2 PUSH3 0x21C2 PUSH1 0x40 MLOAD SWAP4 DUP5 PUSH3 0x2092 JUMP JUMPDEST DUP3 SWAP5 DUP2 DUP5 MSTORE DUP2 DUP4 ADD GT PUSH3 0x166 JUMPI DUP3 DUP2 PUSH1 0x20 SWAP4 DUP5 PUSH1 0x0 SWAP7 ADD CALLDATACOPY ADD ADD MSTORE JUMP JUMPDEST ISZERO PUSH3 0x21E8 JUMPI JUMP JUMPDEST PUSH1 0x64 PUSH1 0x40 MLOAD PUSH3 0x461BCD PUSH1 0xE5 SHL DUP2 MSTORE PUSH1 0x20 PUSH1 0x4 DUP3 ADD MSTORE PUSH1 0xA PUSH1 0x24 DUP3 ADD MSTORE PUSH32 0x4F6E6C792061646D696E00000000000000000000000000000000000000000000 PUSH1 0x44 DUP3 ADD MSTORE REVERT JUMPDEST PUSH1 0xFF PUSH1 0x1 SLOAD AND PUSH3 0x2239 JUMPI JUMP JUMPDEST PUSH1 0x64 PUSH1 0x40 MLOAD PUSH3 0x461BCD PUSH1 0xE5 SHL DUP2 MSTORE PUSH1 0x20 PUSH1 0x4 DUP3 ADD MSTORE PUSH1 0x10 PUSH1 0x24 DUP3 ADD MSTORE PUSH32 0x5061757361626C653A2070617573656400000000000000000000000000000000 PUSH1 0x44 DUP3 ADD MSTORE REVERT JUMPDEST PUSH1 0x0 NOT DUP2 EQ PUSH3 0x10EE JUMPI PUSH1 0x1 ADD SWAP1 JUMP JUMPDEST SWAP1 CALLDATALOAD SWAP1 PUSH1 0x1E NOT DUP2 CALLDATASIZE SUB ADD DUP3 SLT ISZERO PUSH3 0x166 JUMPI ADD DUP1 CALLDATALOAD SWAP1 PUSH8 0xFFFFFFFFFFFFFFFF DUP3 GT PUSH3 0x166 JUMPI PUSH1 0x20 ADD SWAP2 DUP2 CALLDATASIZE SUB DUP4 SGT PUSH3 0x166 JUMPI JUMP JUMPDEST CALLDATALOAD PUSH1 0x1 PUSH1 0x1 PUSH1 0xA0 SHL SUB DUP2 AND DUP2 SUB PUSH3 0x166 JUMPI SWAP1 JUMP JUMPDEST SWAP1 DUP1 PUSH1 0x20 SWAP4 SWAP3 DUP2 DUP5 MSTORE DUP5 DUP5 ADD CALLDATACOPY PUSH1 0x0 DUP3 DUP3 ADD DUP5 ADD MSTORE PUSH1 0x1F ADD PUSH1 0x1F NOT AND ADD ADD SWAP1 JUMP JUMPDEST SWAP1 SWAP2 SWAP1 ISZERO PUSH3 0x2371 JUMPI POP DUP1 MLOAD ISZERO PUSH3 0x230E JUMPI SWAP1 JUMP JUMPDEST PUSH20 0x1BED077195307229FCCBC719C5F2CE6416A58180 EXTCODESIZE ISZERO PUSH3 0x232D JUMPI SWAP1 JUMP JUMPDEST PUSH1 0x64 PUSH1 0x40 MLOAD PUSH3 0x461BCD PUSH1 0xE5 SHL DUP2 MSTORE PUSH1 0x20 PUSH1 0x4 DUP3 ADD MSTORE PUSH1 0x1D PUSH1 0x24 DUP3 ADD MSTORE PUSH32 0x416464726573733A2063616C6C20746F206E6F6E2D636F6E7472616374000000 PUSH1 0x44 DUP3 ADD MSTORE REVERT JUMPDEST DUP2 MLOAD ISZERO PUSH3 0x2382 JUMPI POP DUP1 MLOAD SWAP1 PUSH1 0x20 ADD REVERT JUMPDEST PUSH3 0x23A8 SWAP1 PUSH1 0x40 MLOAD SWAP2 DUP3 SWAP2 PUSH3 0x461BCD PUSH1 0xE5 SHL DUP4 MSTORE PUSH1 0x20 PUSH1 0x4 DUP5 ADD MSTORE PUSH1 0x24 DUP4 ADD SWAP1 PUSH3 0x1E77 JUMP JUMPDEST SUB SWAP1 REVERT JUMPDEST SWAP1 DUP2 MLOAD DUP2 LT ISZERO PUSH3 0x1FF1 JUMPI ADD PUSH1 0x20 ADD SWAP1 JUMP JUMPDEST SWAP1 PUSH1 0x0 JUMPDEST DUP3 MLOAD DUP2 LT ISZERO PUSH3 0x24B4 JUMPI PUSH32 0xFF00000000000000000000000000000000000000000000000000000000000000 SWAP1 PUSH32 0x4100000000000000000000000000000000000000000000000000000000000000 DUP3 PUSH3 0x241C DUP4 DUP8 PUSH3 0x23AC JUMP JUMPDEST MLOAD AND LT ISZERO DUP1 PUSH3 0x247B JUMPI JUMPDEST PUSH3 0x243F JUMPI JUMPDEST PUSH3 0x2439 SWAP2 POP PUSH3 0x227D JUMP JUMPDEST PUSH3 0x23C2 JUMP JUMPDEST PUSH3 0x244B DUP2 DUP6 PUSH3 0x23AC JUMP JUMPDEST MLOAD SWAP2 PUSH1 0x20 PUSH1 0xF8 SWAP4 DUP5 SHR ADD PUSH1 0xFF DUP2 GT PUSH3 0x10EE JUMPI PUSH3 0x2439 SWAP4 SHL AND PUSH1 0x0 BYTE PUSH3 0x2474 DUP3 DUP7 PUSH3 0x23AC JUMP JUMPDEST MSTORE8 PUSH3 0x242D JUMP JUMPDEST POP PUSH32 0x5A00000000000000000000000000000000000000000000000000000000000000 DUP3 PUSH3 0x24AA DUP4 DUP8 PUSH3 0x23AC JUMP JUMPDEST MLOAD AND GT ISZERO PUSH3 0x2427 JUMP JUMPDEST POP SWAP1 DUP1 MLOAD DUP1 ISZERO ISZERO SWAP1 DUP2 PUSH3 0x250A JUMPI JUMPDEST POP PUSH3 0x24CC JUMPI SWAP1 JUMP JUMPDEST PUSH3 0x2507 PUSH1 0x21 PUSH1 0x40 MLOAD DUP4 PUSH3 0x24EC DUP3 SWAP6 MLOAD DUP1 SWAP3 PUSH1 0x20 DUP1 DUP7 ADD SWAP2 ADD PUSH3 0x1E52 JUMP JUMPDEST DUP2 ADD PUSH1 0x2F PUSH1 0xF8 SHL PUSH1 0x20 DUP3 ADD MSTORE SUB PUSH1 0x1 DUP2 ADD DUP5 MSTORE ADD DUP3 PUSH3 0x2092 JUMP JUMPDEST SWAP1 JUMP JUMPDEST PUSH1 0x0 NOT DUP2 ADD SWAP2 POP DUP2 GT PUSH3 0x10EE JUMPI PUSH32 0xFF00000000000000000000000000000000000000000000000000000000000000 PUSH3 0x254A PUSH1 0x2F PUSH1 0xF8 SHL SWAP3 DUP5 PUSH3 0x23AC JUMP JUMPDEST MLOAD AND EQ ISZERO CODESIZE PUSH3 0x24C3 JUMP JUMPDEST PUSH1 0x40 MLOAD SWAP1 PUSH3 0x2564 DUP3 PUSH3 0x2074 JUMP JUMPDEST DUP2 PUSH2 0x160 PUSH1 0x0 SWAP2 DUP3 DUP2 MSTORE DUP3 PUSH1 0x20 DUP3 ADD MSTORE PUSH1 0x60 PUSH1 0x40 DUP3 ADD MSTORE PUSH1 0x60 DUP1 DUP3 ADD MSTORE PUSH1 0x60 PUSH1 0x80 DUP3 ADD MSTORE DUP3 PUSH1 0xA0 DUP3 ADD MSTORE DUP3 PUSH1 0xC0 DUP3 ADD MSTORE DUP3 PUSH1 0xE0 DUP3 ADD MSTORE DUP3 PUSH2 0x100 DUP3 ADD MSTORE DUP3 PUSH2 0x120 DUP3 ADD MSTORE DUP3 PUSH2 0x140 DUP3 ADD MSTORE ADD MSTORE JUMP JUMPDEST PUSH8 0xFFFFFFFFFFFFFFFF DUP2 GT PUSH3 0xDFA JUMPI PUSH1 0x5 SHL PUSH1 0x20 ADD SWAP1 JUMP JUMPDEST PUSH1 0x40 MLOAD PUSH1 0x20 DUP2 ADD DUP2 DUP2 LT PUSH8 0xFFFFFFFFFFFFFFFF DUP3 GT OR PUSH3 0xDFA JUMPI PUSH1 0x40 MSTORE PUSH1 0x0 DUP2 MSTORE SWAP1 JUMP JUMPDEST SWAP1 PUSH3 0x25FD DUP3 PUSH3 0x25B3 JUMP JUMPDEST PUSH3 0x260C PUSH1 0x40 MLOAD SWAP2 DUP3 PUSH3 0x2092 JUMP JUMPDEST DUP3 DUP2 MSTORE DUP1 SWAP3 PUSH3 0x261F PUSH1 0x1F NOT SWAP2 PUSH3 0x25B3 JUMP JUMPDEST ADD SWAP1 PUSH1 0x0 JUMPDEST DUP3 DUP2 LT PUSH3 0x2631 JUMPI POP POP POP JUMP JUMPDEST PUSH1 0x20 SWAP1 PUSH3 0x263E PUSH3 0x2555 JUMP JUMPDEST DUP3 DUP3 DUP6 ADD ADD MSTORE ADD PUSH3 0x2624 JUMP JUMPDEST DUP1 MLOAD DUP3 LT ISZERO PUSH3 0x1FF1 JUMPI PUSH1 0x20 SWAP2 PUSH1 0x5 SHL ADD ADD SWAP1 JUMP JUMPDEST SWAP1 SWAP2 PUSH1 0x4 DUP1 SLOAD SWAP1 DUP2 DUP5 LT ISZERO PUSH3 0x2874 JUMPI PUSH1 0x0 SWAP4 DUP1 JUMPDEST DUP4 DUP2 LT DUP1 PUSH3 0x286A JUMPI JUMPDEST ISZERO PUSH3 0x26FA JUMPI PUSH3 0x2690 DUP2 PUSH3 0x1FB9 JUMP JUMPDEST SWAP1 SLOAD DUP7 ISZERO SWAP2 DUP3 ISZERO PUSH3 0x26CF JUMPI JUMPDEST POP POP PUSH3 0x26B6 JUMPI JUMPDEST PUSH3 0x26B0 SWAP1 PUSH3 0x227D JUMP JUMPDEST PUSH3 0x2675 JUMP JUMPDEST SWAP5 PUSH3 0x26C6 PUSH3 0x26B0 SWAP2 PUSH3 0x227D JUMP JUMPDEST SWAP6 SWAP1 POP PUSH3 0x26A5 JUMP JUMPDEST PUSH1 0x1 PUSH1 0x1 PUSH1 0xA0 SHL SUB SWAP3 POP PUSH1 0x3 SHL SHR AND PUSH1 0x0 MSTORE PUSH1 0x7 PUSH1 0x20 MSTORE PUSH1 0xFF PUSH1 0xB PUSH1 0x40 PUSH1 0x0 KECCAK256 ADD SLOAD AND CODESIZE DUP1 PUSH3 0x269D JUMP JUMPDEST POP SWAP3 SWAP1 SWAP4 PUSH3 0x270C SWAP1 SWAP6 SWAP3 SWAP6 PUSH3 0x25F1 JUMP JUMPDEST SWAP2 PUSH1 0x0 SWAP4 JUMPDEST DUP7 DUP2 LT DUP1 PUSH3 0x2860 JUMPI JUMPDEST ISZERO PUSH3 0x2856 JUMPI PUSH1 0xB PUSH1 0xFF PUSH3 0x2730 DUP4 PUSH3 0x1FB9 JUMP JUMPDEST PUSH1 0x1 PUSH1 0x1 PUSH1 0xA0 SHL SUB SWAP4 SWAP2 SWAP4 DUP1 SWAP5 SLOAD PUSH1 0x3 SWAP3 DUP4 SHL SHR AND PUSH1 0x0 MSTORE PUSH1 0x7 PUSH1 0x20 SWAP5 DUP2 DUP7 MSTORE PUSH3 0x2795 PUSH1 0x40 SWAP4 DUP5 PUSH1 0x0 KECCAK256 SWAP5 DUP1 MLOAD SWAP9 PUSH3 0x276A DUP11 PUSH3 0x2074 JUMP JUMPDEST DUP5 DUP8 SLOAD AND DUP11 MSTORE DUP5 PUSH1 0x1 DUP9 ADD SLOAD AND SWAP1 DUP11 ADD MSTORE PUSH3 0x2789 PUSH1 0x2 DUP8 ADD PUSH3 0x20B5 JUMP JUMPDEST SWAP1 DUP10 ADD MSTORE DUP5 ADD PUSH3 0x20B5 JUMP JUMPDEST PUSH1 0x60 DUP8 ADD MSTORE PUSH3 0x27A7 DUP13 DUP5 ADD PUSH3 0x20B5 JUMP JUMPDEST PUSH1 0x80 DUP8 ADD MSTORE PUSH1 0x5 DUP4 ADD SLOAD PUSH1 0xA0 DUP8 ADD MSTORE PUSH1 0x6 DUP4 ADD SLOAD AND PUSH1 0xC0 DUP7 ADD MSTORE DUP2 ADD SLOAD PUSH1 0xE0 DUP6 ADD MSTORE PUSH1 0x8 DUP2 ADD SLOAD PUSH2 0x100 DUP6 ADD MSTORE PUSH1 0x9 DUP2 ADD SLOAD PUSH2 0x120 DUP6 ADD MSTORE PUSH1 0xA DUP2 ADD SLOAD PUSH2 0x140 DUP6 ADD MSTORE ADD SLOAD AND ISZERO ISZERO DUP1 PUSH2 0x160 DUP4 ADD MSTORE DUP5 ISZERO SWAP1 DUP2 ISZERO PUSH3 0x284D JUMPI JUMPDEST POP PUSH3 0x281A JUMPI JUMPDEST POP PUSH3 0x2814 SWAP1 PUSH3 0x227D JUMP JUMPDEST PUSH3 0x2711 JUMP JUMPDEST DUP6 PUSH3 0x2845 SWAP2 PUSH3 0x2831 PUSH3 0x2814 SWAP5 SWAP9 DUP9 PUSH3 0x264B JUMP JUMPDEST MSTORE PUSH3 0x283E DUP2 DUP8 PUSH3 0x264B JUMP JUMPDEST POP PUSH3 0x227D JUMP JUMPDEST SWAP5 SWAP1 PUSH3 0x2808 JUMP JUMPDEST SWAP1 POP CODESIZE PUSH3 0x2801 JUMP JUMPDEST POP POP POP SWAP3 POP POP POP SWAP1 JUMP JUMPDEST POP DUP2 DUP6 LT PUSH3 0x271B JUMP JUMPDEST POP DUP7 DUP7 LT PUSH3 0x267F JUMP JUMPDEST POP POP POP POP POP PUSH3 0x2507 PUSH3 0x25CC JUMP JUMPDEST SWAP1 SWAP4 SWAP5 SWAP3 SWAP2 SWAP5 PUSH1 0x4 SWAP2 DUP3 SLOAD SWAP1 DUP2 DUP2 LT ISZERO PUSH3 0x2BFB JUMPI PUSH1 0x0 SWAP6 DUP2 JUMPDEST DUP4 DUP2 LT DUP1 PUSH3 0x2BF1 JUMPI JUMPDEST ISZERO PUSH3 0x2A1F JUMPI DUP10 PUSH2 0x160 PUSH3 0x28BC DUP4 PUSH3 0x1FB9 JUMP JUMPDEST SWAP3 SWAP1 PUSH1 0x1 PUSH1 0x1 PUSH1 0xA0 SHL SUB DUP1 SWAP2 SLOAD PUSH1 0x3 SWAP6 DUP7 SHL SHR AND PUSH1 0x0 MSTORE DUP1 PUSH1 0x7 SWAP3 DUP12 PUSH1 0xFF PUSH1 0xB PUSH1 0x20 SWAP9 DUP8 DUP11 MSTORE PUSH3 0x292E PUSH1 0x40 SWAP5 PUSH3 0x2921 DUP7 PUSH1 0x0 KECCAK256 SWAP4 DUP8 MLOAD SWAP8 PUSH3 0x2900 DUP10 PUSH3 0x2074 JUMP JUMPDEST DUP11 DUP7 SLOAD AND DUP10 MSTORE DUP11 PUSH1 0x1 DUP8 ADD SLOAD AND SWAP15 DUP10 ADD SWAP15 DUP16 MSTORE PUSH3 0x2789 PUSH1 0x2 DUP8 ADD PUSH3 0x20B5 JUMP JUMPDEST PUSH1 0x60 DUP8 ADD MSTORE DUP3 ADD PUSH3 0x20B5 JUMP JUMPDEST PUSH1 0x80 DUP6 ADD MSTORE PUSH1 0x5 DUP2 ADD SLOAD PUSH1 0xA0 DUP6 ADD MSTORE DUP6 PUSH1 0x6 DUP3 ADD SLOAD AND SWAP8 DUP9 PUSH1 0xC0 DUP7 ADD MSTORE DUP2 ADD SLOAD PUSH1 0xE0 DUP6 ADD MSTORE PUSH1 0x8 DUP2 ADD SLOAD PUSH2 0x100 DUP6 ADD MSTORE PUSH1 0x9 DUP2 ADD SLOAD PUSH2 0x120 DUP6 ADD MSTORE PUSH1 0xA DUP2 ADD SLOAD PUSH2 0x140 DUP6 ADD MSTORE ADD SLOAD AND ISZERO ISZERO SWAP6 DUP7 SWAP2 ADD MSTORE AND DUP1 ISZERO SWAP5 DUP6 ISZERO PUSH3 0x2A11 JUMPI JUMPDEST POP POP DUP4 PUSH3 0x29EA JUMPI JUMPDEST POP POP DUP2 PUSH3 0x29CD JUMPI JUMPDEST POP PUSH3 0x29B4 JUMPI JUMPDEST PUSH3 0x29AE SWAP1 PUSH3 0x227D JUMP JUMPDEST PUSH3 0x289D JUMP JUMPDEST SWAP7 PUSH3 0x29C4 PUSH3 0x29AE SWAP2 PUSH3 0x227D JUMP JUMPDEST SWAP8 SWAP1 POP PUSH3 0x29A3 JUMP JUMPDEST DUP7 ISZERO SWAP2 POP DUP2 ISZERO PUSH3 0x29E1 JUMPI JUMPDEST POP CODESIZE PUSH3 0x299C JUMP JUMPDEST SWAP1 POP CODESIZE PUSH3 0x29D9 JUMP JUMPDEST SWAP1 SWAP2 SWAP3 POP DUP10 AND DUP1 ISZERO SWAP2 DUP3 ISZERO PUSH3 0x2A06 JUMPI JUMPDEST POP POP SWAP1 CODESIZE DUP1 PUSH3 0x2993 JUMP JUMPDEST EQ SWAP1 POP CODESIZE DUP1 PUSH3 0x29FB JUMP JUMPDEST MLOAD DUP3 AND EQ SWAP4 POP CODESIZE DUP1 PUSH3 0x298A JUMP JUMPDEST POP SWAP1 SWAP5 SWAP3 SWAP8 SWAP2 SWAP7 POP SWAP5 SWAP3 SWAP5 PUSH3 0x2A35 DUP5 PUSH3 0x25F1 JUMP JUMPDEST SWAP4 PUSH1 0x0 SWAP6 JUMPDEST DUP9 DUP2 LT DUP1 PUSH3 0x2BE7 JUMPI JUMPDEST ISZERO PUSH3 0x2BDA JUMPI DUP8 PUSH3 0x2A56 DUP3 PUSH3 0x1FB9 JUMP JUMPDEST SWAP1 PUSH1 0x1 PUSH1 0x1 PUSH1 0xA0 SHL SUB DUP1 SWAP2 SLOAD PUSH1 0x3 SWAP4 DUP5 SHL SHR AND PUSH1 0x0 MSTORE PUSH1 0x7 PUSH1 0xFF PUSH1 0xB PUSH1 0x20 SWAP5 DUP4 DUP7 MSTORE PUSH3 0x2AD0 PUSH1 0x40 SWAP8 PUSH3 0x2AC3 DUP10 PUSH1 0x0 KECCAK256 SWAP4 DUP11 MLOAD SWAP11 PUSH3 0x2A96 DUP13 PUSH3 0x2074 JUMP JUMPDEST DUP10 DUP7 SLOAD AND DUP13 MSTORE DUP10 PUSH1 0x1 DUP8 ADD SLOAD AND SWAP11 DUP13 ADD SWAP11 DUP12 MSTORE PUSH3 0x2AB7 PUSH1 0x2 DUP8 ADD PUSH3 0x20B5 JUMP JUMPDEST SWAP1 DUP13 ADD MSTORE DUP5 ADD PUSH3 0x20B5 JUMP JUMPDEST PUSH1 0x60 DUP11 ADD MSTORE DUP3 ADD PUSH3 0x20B5 JUMP JUMPDEST PUSH1 0x80 DUP9 ADD MSTORE PUSH1 0x5 DUP2 ADD SLOAD PUSH1 0xA0 DUP9 ADD MSTORE DUP5 PUSH1 0x6 DUP3 ADD SLOAD AND SWAP4 DUP5 PUSH1 0xC0 DUP10 ADD MSTORE DUP2 ADD SLOAD PUSH1 0xE0 DUP9 ADD MSTORE PUSH1 0x8 DUP2 ADD SLOAD PUSH2 0x100 DUP9 ADD MSTORE PUSH1 0x9 DUP2 ADD SLOAD PUSH2 0x120 DUP9 ADD MSTORE PUSH1 0xA DUP2 ADD SLOAD PUSH2 0x140 DUP9 ADD MSTORE ADD SLOAD AND ISZERO ISZERO SWAP2 DUP3 PUSH2 0x160 DUP7 ADD MSTORE DUP1 DUP10 AND DUP1 ISZERO SWAP5 DUP6 ISZERO PUSH3 0x2BCC JUMPI JUMPDEST POP POP DUP4 PUSH3 0x2BA5 JUMPI JUMPDEST POP POP DUP2 PUSH3 0x2B88 JUMPI JUMPDEST POP PUSH3 0x2B5C JUMPI JUMPDEST POP PUSH3 0x2B56 SWAP1 PUSH3 0x227D JUMP JUMPDEST PUSH3 0x2A3A JUMP JUMPDEST DUP8 PUSH3 0x2B80 SWAP2 PUSH3 0x2B73 PUSH3 0x2B56 SWAP5 SWAP11 DUP11 PUSH3 0x264B JUMP JUMPDEST MSTORE PUSH3 0x283E DUP2 DUP10 PUSH3 0x264B JUMP JUMPDEST SWAP7 SWAP1 PUSH3 0x2B4A JUMP JUMPDEST DUP13 ISZERO SWAP2 POP DUP2 ISZERO PUSH3 0x2B9C JUMPI JUMPDEST POP CODESIZE PUSH3 0x2B43 JUMP JUMPDEST SWAP1 POP CODESIZE PUSH3 0x2B94 JUMP JUMPDEST SWAP1 SWAP2 SWAP3 POP DUP9 AND DUP1 ISZERO SWAP2 DUP3 ISZERO PUSH3 0x2BC1 JUMPI JUMPDEST POP POP SWAP1 CODESIZE DUP1 PUSH3 0x2B3A JUMP JUMPDEST EQ SWAP1 POP CODESIZE DUP1 PUSH3 0x2BB6 JUMP JUMPDEST MLOAD DUP3 AND EQ SWAP4 POP CODESIZE DUP1 PUSH3 0x2B31 JUMP JUMPDEST POP POP SWAP7 POP POP POP SWAP3 POP POP POP SWAP1 JUMP JUMPDEST POP DUP2 DUP8 LT PUSH3 0x2A44 JUMP JUMPDEST POP DUP9 DUP9 LT PUSH3 0x28A7 JUMP JUMPDEST POP POP POP POP POP SWAP2 POP POP PUSH3 0x2507 PUSH3 0x25CC JUMP INVALID PUSH1 0x80 PUSH1 0x40 SWAP1 DUP1 DUP3 MSTORE CALLVALUE PUSH3 0x4C6 JUMPI PUSH3 0x4C7B DUP1 CODESIZE SUB DUP1 SWAP2 PUSH3 0x22 DUP3 DUP6 PUSH3 0x89D JUMP JUMPDEST DUP4 CODECOPY DUP2 ADD SWAP1 PUSH2 0x120 DUP2 DUP4 SUB SLT PUSH3 0x4C6 JUMPI DUP1 MLOAD PUSH1 0x1 PUSH1 0x1 PUSH1 0x40 SHL SUB DUP2 GT PUSH3 0x4C6 JUMPI DUP3 PUSH3 0x52 SWAP2 DUP4 ADD PUSH3 0x8C1 JUMP JUMPDEST PUSH1 0x20 DUP3 ADD MLOAD PUSH1 0x1 PUSH1 0x1 PUSH1 0x40 SHL SUB DUP2 GT PUSH3 0x4C6 JUMPI DUP4 PUSH3 0x74 SWAP2 DUP5 ADD PUSH3 0x8C1 JUMP JUMPDEST DUP3 DUP6 ADD MLOAD SWAP1 SWAP4 PUSH1 0x1 PUSH1 0x1 PUSH1 0x40 SHL SUB DUP3 GT PUSH3 0x4C6 JUMPI PUSH3 0x96 SWAP2 DUP5 ADD PUSH3 0x8C1 JUMP JUMPDEST SWAP3 PUSH1 0x60 DUP4 ADD MLOAD PUSH3 0xAA PUSH1 0x80 DUP6 ADD PUSH3 0x938 JUMP JUMPDEST SWAP1 PUSH1 0xA0 DUP6 ADD MLOAD SWAP2 PUSH1 0xC0 DUP7 ADD MLOAD SWAP4 PUSH3 0xD4 PUSH2 0x100 PUSH3 0xCC PUSH1 0xE0 DUP11 ADD PUSH3 0x938 JUMP JUMPDEST SWAP9 ADD PUSH3 0x938 JUMP JUMPDEST DUP7 MLOAD SWAP1 SWAP7 SWAP1 PUSH1 0x1 PUSH1 0x1 PUSH1 0x40 SHL SUB DUP2 GT PUSH3 0x431 JUMPI PUSH1 0x0 SLOAD PUSH1 0x1 DUP2 DUP2 SHR SWAP2 AND DUP1 ISZERO PUSH3 0x892 JUMPI JUMPDEST PUSH1 0x20 DUP3 LT EQ PUSH3 0x410 JUMPI PUSH1 0x1F DUP2 GT PUSH3 0x83E JUMPI JUMPDEST POP DUP1 PUSH1 0x20 PUSH1 0x1F DUP3 GT PUSH1 0x1 EQ PUSH3 0x7C7 JUMPI PUSH1 0x0 SWAP2 PUSH3 0x7BB JUMPI JUMPDEST POP DUP2 PUSH1 0x1 SHL SWAP2 PUSH1 0x0 NOT SWAP1 PUSH1 0x3 SHL SHR NOT AND OR PUSH1 0x0 SSTORE JUMPDEST DUP2 MLOAD PUSH1 0x1 PUSH1 0x1 PUSH1 0x40 SHL SUB DUP2 GT PUSH3 0x431 JUMPI PUSH1 0x1 SLOAD PUSH1 0x1 DUP2 DUP2 SHR SWAP2 AND DUP1 ISZERO PUSH3 0x7B0 JUMPI JUMPDEST PUSH1 0x20 DUP3 LT EQ PUSH3 0x410 JUMPI PUSH1 0x1F DUP2 GT PUSH3 0x75B JUMPI JUMPDEST POP DUP1 PUSH1 0x20 PUSH1 0x1F DUP3 GT PUSH1 0x1 EQ PUSH3 0x6E2 JUMPI PUSH1 0x0 SWAP2 PUSH3 0x6D6 JUMPI JUMPDEST POP DUP2 PUSH1 0x1 SHL SWAP2 PUSH1 0x0 NOT SWAP1 PUSH1 0x3 SHL SHR NOT AND OR PUSH1 0x1 SSTORE JUMPDEST PUSH1 0x1 PUSH1 0x6 SSTORE PUSH1 0xFF NOT PUSH1 0x7 SLOAD AND PUSH1 0x7 SSTORE MLOAD ISZERO PUSH3 0x6A2 JUMPI MLOAD ISZERO PUSH3 0x66C JUMPI DUP7 MLOAD ISZERO PUSH3 0x634 JUMPI DUP2 ISZERO PUSH3 0x5F0 JUMPI PUSH1 0x1 PUSH1 0x1 PUSH1 0xA0 SHL SUB SWAP1 DUP2 AND SWAP6 DUP7 ISZERO PUSH3 0x5B7 JUMPI DUP4 ISZERO PUSH3 0x573 JUMPI PUSH2 0x3E8 DUP6 GT PUSH3 0x540 JUMPI DUP2 AND SWAP5 DUP6 ISZERO PUSH3 0x50A JUMPI AND SWAP6 DUP7 ISZERO PUSH3 0x4D4 JUMPI DUP8 MLOAD PUSH4 0x313CE567 PUSH1 0xE0 SHL DUP2 MSTORE PUSH1 0x20 DUP2 PUSH1 0x4 DUP2 DUP11 GAS STATICCALL PUSH1 0x0 SWAP2 DUP2 PUSH3 0x48A JUMPI JUMPDEST POP PUSH3 0x26D JUMPI DUP9 MLOAD PUSH3 0x461BCD PUSH1 0xE5 SHL DUP2 MSTORE PUSH1 0x20 PUSH1 0x4 DUP3 ADD MSTORE PUSH1 0x1B PUSH1 0x24 DUP3 ADD MSTORE PUSH32 0x496E76616C6964206D696E7420746F6B656E206D657461646174610000000000 PUSH1 0x44 DUP3 ADD MSTORE PUSH1 0x64 SWAP1 REVERT JUMPDEST PUSH1 0xFF PUSH1 0x12 SWAP2 AND SUB PUSH3 0x447 JUMPI DUP1 MLOAD SWAP1 PUSH1 0x1 PUSH1 0x1 PUSH1 0x40 SHL SUB DUP3 GT PUSH3 0x431 JUMPI PUSH1 0x8 SLOAD SWAP1 PUSH1 0x1 DUP3 DUP2 SHR SWAP3 AND DUP1 ISZERO PUSH3 0x426 JUMPI JUMPDEST PUSH1 0x20 DUP4 LT EQ PUSH3 0x410 JUMPI DUP2 PUSH1 0x1F DUP5 SWAP4 GT PUSH3 0x3AC JUMPI JUMPDEST POP PUSH1 0x20 SWAP1 PUSH1 0x1F DUP4 GT PUSH1 0x1 EQ PUSH3 0x332 JUMPI PUSH1 0x0 SWAP3 PUSH3 0x326 JUMPI JUMPDEST POP POP DUP2 PUSH1 0x1 SHL SWAP2 PUSH1 0x0 NOT SWAP1 PUSH1 0x3 SHL SHR NOT AND OR PUSH1 0x8 SSTORE JUMPDEST PUSH1 0x9 SSTORE PUSH1 0x1 DUP1 PUSH1 0xA0 SHL SUB NOT SWAP4 DUP5 PUSH1 0xA SLOAD AND OR PUSH1 0xA SSTORE PUSH1 0xB SSTORE PUSH1 0xC SSTORE DUP2 PUSH1 0x10 SLOAD AND OR PUSH1 0x10 SSTORE PUSH1 0x11 SLOAD AND OR PUSH1 0x11 SSTORE PUSH1 0x1 PUSH1 0x12 SLOAD ADD PUSH1 0x12 SSTORE MLOAD PUSH2 0x42CD SWAP1 DUP2 PUSH3 0x94E DUP3 CODECOPY RETURN JUMPDEST ADD MLOAD SWAP1 POP CODESIZE DUP1 PUSH3 0x2CD JUMP JUMPDEST PUSH1 0x8 PUSH1 0x0 SWAP1 DUP2 MSTORE PUSH1 0x0 DUP1 MLOAD PUSH1 0x20 PUSH3 0x4C3B DUP4 CODECOPY DUP2 MLOAD SWAP2 MSTORE SWAP4 POP PUSH1 0x1F NOT DUP6 AND SWAP1 JUMPDEST DUP2 DUP2 LT PUSH3 0x393 JUMPI POP SWAP1 DUP5 PUSH1 0x1 SWAP6 SWAP5 SWAP4 SWAP3 LT PUSH3 0x379 JUMPI JUMPDEST POP POP POP DUP2 SHL ADD PUSH1 0x8 SSTORE PUSH3 0x2E3 JUMP JUMPDEST ADD MLOAD PUSH1 0x0 NOT PUSH1 0xF8 DUP5 PUSH1 0x3 SHL AND SHR NOT AND SWAP1 SSTORE CODESIZE DUP1 DUP1 PUSH3 0x36A JUMP JUMPDEST SWAP3 SWAP4 PUSH1 0x20 PUSH1 0x1 DUP2 SWAP3 DUP8 DUP7 ADD MLOAD DUP2 SSTORE ADD SWAP6 ADD SWAP4 ADD PUSH3 0x352 JUMP JUMPDEST PUSH1 0x8 PUSH1 0x0 MSTORE SWAP1 SWAP2 POP PUSH1 0x0 DUP1 MLOAD PUSH1 0x20 PUSH3 0x4C3B DUP4 CODECOPY DUP2 MLOAD SWAP2 MSTORE PUSH1 0x1F DUP5 ADD PUSH1 0x5 SHR DUP2 ADD SWAP2 PUSH1 0x20 DUP6 LT PUSH3 0x405 JUMPI JUMPDEST SWAP1 PUSH1 0x1F DUP6 SWAP5 SWAP4 SWAP3 ADD PUSH1 0x5 SHR ADD SWAP1 JUMPDEST DUP2 DUP2 LT PUSH3 0x3F5 JUMPI POP PUSH3 0x2B4 JUMP JUMPDEST PUSH1 0x0 DUP2 SSTORE DUP5 SWAP4 POP PUSH1 0x1 ADD PUSH3 0x3E6 JUMP JUMPDEST SWAP1 SWAP2 POP DUP2 SWAP1 PUSH3 0x3D8 JUMP JUMPDEST PUSH4 0x4E487B71 PUSH1 0xE0 SHL PUSH1 0x0 MSTORE PUSH1 0x22 PUSH1 0x4 MSTORE PUSH1 0x24 PUSH1 0x0 REVERT JUMPDEST SWAP2 PUSH1 0x7F AND SWAP2 PUSH3 0x29E JUMP JUMPDEST PUSH4 0x4E487B71 PUSH1 0xE0 SHL PUSH1 0x0 MSTORE PUSH1 0x41 PUSH1 0x4 MSTORE PUSH1 0x24 PUSH1 0x0 REVERT JUMPDEST PUSH1 0x64 DUP9 MLOAD PUSH3 0x461BCD PUSH1 0xE5 SHL DUP2 MSTORE PUSH1 0x20 PUSH1 0x4 DUP3 ADD MSTORE PUSH1 0x20 PUSH1 0x24 DUP3 ADD MSTORE PUSH32 0x4D696E7420746F6B656E206D757374206861766520313820646563696D616C73 PUSH1 0x44 DUP3 ADD MSTORE REVERT JUMPDEST SWAP1 SWAP2 POP PUSH1 0x20 DUP2 RETURNDATASIZE PUSH1 0x20 GT PUSH3 0x4CB JUMPI JUMPDEST DUP2 PUSH3 0x4A9 PUSH1 0x20 SWAP4 DUP4 PUSH3 0x89D JUMP JUMPDEST DUP2 ADD SUB SLT PUSH3 0x4C6 JUMPI MLOAD PUSH1 0xFF DUP2 AND DUP2 SUB PUSH3 0x4C6 JUMPI SWAP1 CODESIZE PUSH3 0x223 JUMP JUMPDEST PUSH1 0x0 DUP1 REVERT JUMPDEST RETURNDATASIZE SWAP2 POP PUSH3 0x49A JUMP JUMPDEST DUP8 MLOAD PUSH3 0x461BCD PUSH1 0xE5 SHL DUP2 MSTORE PUSH1 0x20 PUSH1 0x4 DUP3 ADD MSTORE PUSH1 0xF PUSH1 0x24 DUP3 ADD MSTORE PUSH15 0x496E76616C696420666163746F7279 PUSH1 0x88 SHL PUSH1 0x44 DUP3 ADD MSTORE PUSH1 0x64 SWAP1 REVERT JUMPDEST DUP9 MLOAD PUSH3 0x461BCD PUSH1 0xE5 SHL DUP2 MSTORE PUSH1 0x20 PUSH1 0x4 DUP3 ADD MSTORE PUSH1 0xF PUSH1 0x24 DUP3 ADD MSTORE PUSH15 0x24B73B30B634B21031B932B0BA37B9 PUSH1 0x89 SHL PUSH1 0x44 DUP3 ADD MSTORE PUSH1 0x64 SWAP1 REVERT JUMPDEST DUP9 MLOAD PUSH3 0x461BCD PUSH1 0xE5 SHL DUP2 MSTORE PUSH1 0x20 PUSH1 0x4 DUP3 ADD MSTORE PUSH1 0xC PUSH1 0x24 DUP3 ADD MSTORE PUSH12 0x8CCACA40E8DEDE40D0D2CED PUSH1 0xA3 SHL PUSH1 0x44 DUP3 ADD MSTORE PUSH1 0x64 SWAP1 REVERT JUMPDEST DUP9 MLOAD PUSH3 0x461BCD PUSH1 0xE5 SHL DUP2 MSTORE PUSH1 0x20 PUSH1 0x4 DUP3 ADD MSTORE PUSH1 0x1B PUSH1 0x24 DUP3 ADD MSTORE PUSH32 0x4D696E74207072696365206D75737420626520706F7369746976650000000000 PUSH1 0x44 DUP3 ADD MSTORE PUSH1 0x64 SWAP1 REVERT JUMPDEST DUP9 MLOAD PUSH3 0x461BCD PUSH1 0xE5 SHL DUP2 MSTORE PUSH1 0x20 PUSH1 0x4 DUP3 ADD MSTORE PUSH1 0x12 PUSH1 0x24 DUP3 ADD MSTORE PUSH18 0x24B73B30B634B21036B4B73A103A37B5B2B7 PUSH1 0x71 SHL PUSH1 0x44 DUP3 ADD MSTORE PUSH1 0x64 SWAP1 REVERT JUMPDEST DUP8 MLOAD PUSH3 0x461BCD PUSH1 0xE5 SHL DUP2 MSTORE PUSH1 0x20 PUSH1 0x4 DUP3 ADD MSTORE PUSH1 0x1B PUSH1 0x24 DUP3 ADD MSTORE PUSH32 0x4D617820737570706C79206D75737420626520706F7369746976650000000000 PUSH1 0x44 DUP3 ADD MSTORE PUSH1 0x64 SWAP1 REVERT JUMPDEST DUP8 MLOAD PUSH3 0x461BCD PUSH1 0xE5 SHL DUP2 MSTORE PUSH1 0x20 PUSH1 0x4 DUP3 ADD MSTORE PUSH1 0x11 PUSH1 0x24 DUP3 ADD MSTORE PUSH17 0x10985CD948155492481C995C5D5A5C9959 PUSH1 0x7A SHL PUSH1 0x44 DUP3 ADD MSTORE PUSH1 0x64 SWAP1 REVERT JUMPDEST DUP8 MLOAD PUSH3 0x461BCD PUSH1 0xE5 SHL DUP2 MSTORE PUSH1 0x20 PUSH1 0x4 DUP3 ADD MSTORE PUSH1 0xF PUSH1 0x24 DUP3 ADD MSTORE PUSH15 0x14DE5B589BDB081C995C5D5A5C9959 PUSH1 0x8A SHL PUSH1 0x44 DUP3 ADD MSTORE PUSH1 0x64 SWAP1 REVERT JUMPDEST DUP9 MLOAD PUSH3 0x461BCD PUSH1 0xE5 SHL DUP2 MSTORE PUSH1 0x20 PUSH1 0x4 DUP3 ADD MSTORE PUSH1 0xD PUSH1 0x24 DUP3 ADD MSTORE PUSH13 0x13985B59481C995C5D5A5C9959 PUSH1 0x9A SHL PUSH1 0x44 DUP3 ADD MSTORE PUSH1 0x64 SWAP1 REVERT JUMPDEST SWAP1 POP DUP4 ADD MLOAD CODESIZE PUSH3 0x18C JUMP JUMPDEST PUSH1 0x1 PUSH1 0x0 SWAP1 DUP2 MSTORE SWAP3 POP PUSH1 0x0 DUP1 MLOAD PUSH1 0x20 PUSH3 0x4C5B DUP4 CODECOPY DUP2 MLOAD SWAP2 MSTORE SWAP1 JUMPDEST PUSH1 0x1F NOT DUP4 AND DUP5 LT PUSH3 0x742 JUMPI PUSH1 0x1 SWAP4 POP DUP3 PUSH1 0x1F NOT DUP2 AND LT PUSH3 0x728 JUMPI JUMPDEST POP POP DUP2 SHL ADD PUSH1 0x1 SSTORE PUSH3 0x1A1 JUMP JUMPDEST DUP6 ADD MLOAD PUSH1 0x0 NOT PUSH1 0xF8 DUP5 PUSH1 0x3 SHL AND SHR NOT AND SWAP1 SSTORE CODESIZE DUP1 PUSH3 0x71A JUMP JUMPDEST DUP6 DUP2 ADD MLOAD DUP3 SSTORE PUSH1 0x20 SWAP4 DUP5 ADD SWAP4 PUSH1 0x1 SWAP1 SWAP3 ADD SWAP2 ADD PUSH3 0x6FD JUMP JUMPDEST PUSH1 0x1 PUSH1 0x0 MSTORE PUSH1 0x0 DUP1 MLOAD PUSH1 0x20 PUSH3 0x4C5B DUP4 CODECOPY DUP2 MLOAD SWAP2 MSTORE PUSH1 0x1F DUP4 ADD PUSH1 0x5 SHR DUP2 ADD PUSH1 0x20 DUP5 LT PUSH3 0x7A8 JUMPI JUMPDEST PUSH1 0x1F DUP4 ADD PUSH1 0x5 SHR DUP3 ADD DUP2 LT PUSH3 0x79B JUMPI POP POP PUSH3 0x173 JUMP JUMPDEST PUSH1 0x0 DUP2 SSTORE PUSH1 0x1 ADD PUSH3 0x783 JUMP JUMPDEST POP DUP1 PUSH3 0x783 JUMP JUMPDEST SWAP1 PUSH1 0x7F AND SWAP1 PUSH3 0x15F JUMP JUMPDEST SWAP1 POP DUP3 ADD MLOAD CODESIZE PUSH3 0x127 JUMP JUMPDEST PUSH1 0x0 DUP1 DUP1 MSTORE SWAP3 POP PUSH1 0x0 DUP1 MLOAD PUSH1 0x20 PUSH3 0x4C1B DUP4 CODECOPY DUP2 MLOAD SWAP2 MSTORE SWAP1 JUMPDEST PUSH1 0x1F NOT DUP4 AND DUP5 LT PUSH3 0x825 JUMPI PUSH1 0x1 SWAP4 POP DUP3 PUSH1 0x1F NOT DUP2 AND LT PUSH3 0x80B JUMPI JUMPDEST POP POP DUP2 SHL ADD PUSH1 0x0 SSTORE PUSH3 0x13C JUMP JUMPDEST DUP5 ADD MLOAD PUSH1 0x0 NOT PUSH1 0xF8 DUP5 PUSH1 0x3 SHL AND SHR NOT AND SWAP1 SSTORE CODESIZE DUP1 PUSH3 0x7FD JUMP JUMPDEST DUP5 DUP2 ADD MLOAD DUP3 SSTORE PUSH1 0x20 SWAP4 DUP5 ADD SWAP4 PUSH1 0x1 SWAP1 SWAP3 ADD SWAP2 ADD PUSH3 0x7E0 JUMP JUMPDEST PUSH1 0x0 DUP1 MSTORE PUSH1 0x0 DUP1 MLOAD PUSH1 0x20 PUSH3 0x4C1B DUP4 CODECOPY DUP2 MLOAD SWAP2 MSTORE PUSH1 0x1F DUP4 ADD PUSH1 0x5 SHR DUP2 ADD PUSH1 0x20 DUP5 LT PUSH3 0x88A JUMPI JUMPDEST PUSH1 0x1F DUP4 ADD PUSH1 0x5 SHR DUP3 ADD DUP2 LT PUSH3 0x87D JUMPI POP POP PUSH3 0x10E JUMP JUMPDEST PUSH1 0x0 DUP2 SSTORE PUSH1 0x1 ADD PUSH3 0x865 JUMP JUMPDEST POP DUP1 PUSH3 0x865 JUMP JUMPDEST SWAP1 PUSH1 0x7F AND SWAP1 PUSH3 0xFA JUMP JUMPDEST PUSH1 0x1F SWAP1 SWAP2 ADD PUSH1 0x1F NOT AND DUP2 ADD SWAP1 PUSH1 0x1 PUSH1 0x1 PUSH1 0x40 SHL SUB DUP3 GT SWAP1 DUP3 LT OR PUSH3 0x431 JUMPI PUSH1 0x40 MSTORE JUMP JUMPDEST SWAP2 SWAP1 DUP1 PUSH1 0x1F DUP5 ADD SLT ISZERO PUSH3 0x4C6 JUMPI DUP3 MLOAD SWAP1 PUSH1 0x1 PUSH1 0x1 PUSH1 0x40 SHL SUB DUP3 GT PUSH3 0x431 JUMPI PUSH1 0x40 MLOAD SWAP2 PUSH1 0x20 SWAP2 PUSH3 0x8FD PUSH1 0x1F DUP4 ADD PUSH1 0x1F NOT AND DUP5 ADD DUP6 PUSH3 0x89D JUMP JUMPDEST DUP2 DUP5 MSTORE DUP3 DUP3 DUP8 ADD ADD GT PUSH3 0x4C6 JUMPI PUSH1 0x0 JUMPDEST DUP2 DUP2 LT PUSH3 0x924 JUMPI POP DUP3 PUSH1 0x0 SWAP4 SWAP5 SWAP6 POP ADD ADD MSTORE SWAP1 JUMP JUMPDEST DUP6 DUP2 ADD DUP4 ADD MLOAD DUP5 DUP3 ADD DUP5 ADD MSTORE DUP3 ADD PUSH3 0x90E JUMP JUMPDEST MLOAD SWAP1 PUSH1 0x1 PUSH1 0x1 PUSH1 0xA0 SHL SUB DUP3 AND DUP3 SUB PUSH3 0x4C6 JUMPI JUMP INVALID PUSH1 0x80 DUP1 PUSH1 0x40 MSTORE PUSH1 0x4 CALLDATASIZE LT ISZERO PUSH2 0x13 JUMPI PUSH1 0x0 DUP1 REVERT JUMPDEST PUSH1 0x0 SWAP1 DUP2 CALLDATALOAD PUSH1 0xE0 SHR SWAP1 DUP2 PUSH4 0x1FFC9A7 EQ PUSH2 0x2A0C JUMPI POP DUP1 PUSH4 0x2D05D3F EQ PUSH2 0x29E5 JUMPI DUP1 PUSH4 0x6FDDE03 EQ PUSH2 0x2916 JUMPI DUP1 PUSH4 0x81812FC EQ PUSH2 0x28F7 JUMPI DUP1 PUSH4 0x95EA7B3 EQ PUSH2 0x2768 JUMPI DUP1 PUSH4 0xE980602 EQ PUSH2 0x2281 JUMPI DUP1 PUSH4 0x1171BDA9 EQ PUSH2 0x20DB JUMPI DUP1 PUSH4 0x18160DDD EQ PUSH2 0x20AF JUMPI DUP1 PUSH4 0x2004FFD9 EQ PUSH2 0x2088 JUMPI DUP1 PUSH4 0x23B872DD EQ PUSH2 0x2063 JUMPI DUP1 PUSH4 0x2C3C7F3D EQ PUSH2 0x1F5B JUMPI DUP1 PUSH4 0x2D296BF1 EQ PUSH2 0x1C00 JUMPI DUP1 PUSH4 0x312E13DC EQ PUSH2 0x1BC8 JUMPI DUP1 PUSH4 0x38D73B0D EQ PUSH2 0x1BAA JUMPI DUP1 PUSH4 0x3F4BA83A EQ PUSH2 0x1B43 JUMPI DUP1 PUSH4 0x42842E0E EQ PUSH2 0x1B10 JUMPI DUP1 PUSH4 0x51335B50 EQ PUSH2 0x1773 JUMPI DUP1 PUSH4 0x5894BD51 EQ PUSH2 0x1700 JUMPI DUP1 PUSH4 0x5C975ABB EQ PUSH2 0x16DD JUMPI DUP1 PUSH4 0x61CF4863 EQ PUSH2 0x16A4 JUMPI DUP1 PUSH4 0x6352211E EQ PUSH2 0x1674 JUMPI DUP1 PUSH4 0x6817C76C EQ PUSH2 0x1656 JUMPI DUP1 PUSH4 0x6A627842 EQ PUSH2 0x13F8 JUMPI DUP1 PUSH4 0x70A08231 EQ PUSH2 0x13CC JUMPI DUP1 PUSH4 0x7284E416 EQ PUSH2 0x1326 JUMPI DUP1 PUSH4 0x78196662 EQ PUSH2 0xF74 JUMPI DUP1 PUSH4 0x7C6D908B EQ PUSH2 0xF18 JUMPI DUP1 PUSH4 0x82367B2D EQ PUSH2 0xE71 JUMPI DUP1 PUSH4 0x8424D70B EQ PUSH2 0xE39 JUMPI DUP1 PUSH4 0x8456CB59 EQ PUSH2 0xE12 JUMPI DUP1 PUSH4 0x8462151C EQ PUSH2 0xDE1 JUMPI DUP1 PUSH4 0x84B75F95 EQ PUSH2 0xDC3 JUMPI DUP1 PUSH4 0x8B63C267 EQ PUSH2 0xC95 JUMPI DUP1 PUSH4 0x8D096521 EQ PUSH2 0xC75 JUMPI DUP1 PUSH4 0x9407EA98 EQ PUSH2 0xBC3 JUMPI DUP1 PUSH4 0x95D89B41 EQ PUSH2 0xB20 JUMPI DUP1 PUSH4 0xA22CB465 EQ PUSH2 0xA46 JUMPI DUP1 PUSH4 0xAD3A358C EQ PUSH2 0x99B JUMPI DUP1 PUSH4 0xB2D1EB80 EQ PUSH2 0x8CD JUMPI DUP1 PUSH4 0xB88D4FDE EQ PUSH2 0x83F JUMPI DUP1 PUSH4 0xBF0CA395 EQ PUSH2 0x6FB JUMPI DUP1 PUSH4 0xBF2D9E0B EQ PUSH2 0x6DD JUMPI DUP1 PUSH4 0xC128B231 EQ PUSH2 0x645 JUMPI DUP1 PUSH4 0xC45A0155 EQ PUSH2 0x61E JUMPI DUP1 PUSH4 0xC87B56DD EQ PUSH2 0x5EA JUMPI DUP1 PUSH4 0xD5ABEB01 EQ PUSH2 0x5CC JUMPI DUP1 PUSH4 0xD8CBA251 EQ PUSH2 0x4C8 JUMPI DUP1 PUSH4 0xDE74E57B EQ PUSH2 0x454 JUMPI DUP1 PUSH4 0xE985E9C5 EQ PUSH2 0x3FF JUMPI DUP1 PUSH4 0xF4A0A528 EQ PUSH2 0x390 JUMPI DUP1 PUSH4 0xFA3FA196 EQ PUSH2 0x28E JUMPI PUSH4 0xFCCE4883 EQ PUSH2 0x25D JUMPI PUSH1 0x0 DUP1 REVERT JUMPDEST CALLVALUE PUSH2 0x28B JUMPI PUSH1 0x20 CALLDATASIZE PUSH1 0x3 NOT ADD SLT PUSH2 0x28B JUMPI PUSH1 0xFF PUSH1 0x40 PUSH1 0x20 SWAP3 PUSH1 0x4 CALLDATALOAD DUP2 MSTORE PUSH1 0x14 DUP5 MSTORE KECCAK256 SLOAD AND PUSH1 0x40 MLOAD SWAP1 ISZERO ISZERO DUP2 MSTORE RETURN JUMPDEST DUP1 REVERT JUMPDEST POP CALLVALUE PUSH2 0x28B JUMPI PUSH1 0x20 CALLDATASIZE PUSH1 0x3 NOT ADD SLT PUSH2 0x28B JUMPI PUSH2 0x2A8 PUSH2 0x2B25 JUMP JUMPDEST PUSH1 0x10 SLOAD SWAP1 PUSH1 0x1 PUSH1 0x1 PUSH1 0xA0 SHL SUB DUP1 DUP4 AND SWAP2 PUSH2 0x2C3 DUP4 CALLER EQ PUSH2 0x3494 JUMP JUMPDEST AND SWAP2 DUP3 ISZERO PUSH2 0x34C JUMPI DUP2 DUP4 EQ PUSH2 0x308 JUMPI PUSH1 0x1 PUSH1 0x1 PUSH1 0xA0 SHL SUB NOT AND DUP3 OR PUSH1 0x10 SSTORE PUSH32 0x7F11FE0C7098E1A76AFCC68F35ABAA07EF156FA7D6DD2D39664812FE37348D16 DUP4 DUP1 LOG3 DUP1 RETURN JUMPDEST PUSH1 0x64 PUSH1 0x40 MLOAD PUSH3 0x461BCD PUSH1 0xE5 SHL DUP2 MSTORE PUSH1 0x20 PUSH1 0x4 DUP3 ADD MSTORE PUSH1 0xF PUSH1 0x24 DUP3 ADD MSTORE PUSH32 0x416C72656164792063726561746F720000000000000000000000000000000000 PUSH1 0x44 DUP3 ADD MSTORE REVERT JUMPDEST PUSH1 0x64 PUSH1 0x40 MLOAD PUSH3 0x461BCD PUSH1 0xE5 SHL DUP2 MSTORE PUSH1 0x20 PUSH1 0x4 DUP3 ADD MSTORE PUSH1 0x13 PUSH1 0x24 DUP3 ADD MSTORE PUSH32 0x496E76616C6964206E65772063726561746F7200000000000000000000000000 PUSH1 0x44 DUP3 ADD MSTORE REVERT JUMPDEST POP CALLVALUE PUSH2 0x28B JUMPI PUSH1 0x20 CALLDATASIZE PUSH1 0x3 NOT ADD SLT PUSH2 0x28B JUMPI PUSH32 0x2E1C9E000C6E8DDA4D03536ADB13B7CB6034CCFF90D17F01DE381E4D5097B525 PUSH1 0x40 PUSH1 0x4 CALLDATALOAD PUSH2 0x3DE PUSH1 0x1 PUSH1 0x1 PUSH1 0xA0 SHL SUB PUSH1 0x10 SLOAD AND CALLER EQ PUSH2 0x3494 JUMP JUMPDEST PUSH2 0x3E9 DUP2 ISZERO ISZERO PUSH2 0x352F JUMP JUMPDEST PUSH1 0xB SLOAD SWAP1 DUP1 PUSH1 0xB SSTORE DUP3 MLOAD SWAP2 DUP3 MSTORE PUSH1 0x20 DUP3 ADD MSTORE LOG1 DUP1 RETURN JUMPDEST POP CALLVALUE PUSH2 0x28B JUMPI PUSH1 0x40 CALLDATASIZE PUSH1 0x3 NOT ADD SLT PUSH2 0x28B JUMPI PUSH2 0x419 PUSH2 0x2B25 JUMP JUMPDEST PUSH1 0x40 PUSH2 0x423 PUSH2 0x2B3B JUMP JUMPDEST SWAP3 PUSH1 0x1 PUSH1 0x1 PUSH1 0xA0 SHL SUB DUP1 SWAP4 AND DUP2 MSTORE PUSH1 0x5 PUSH1 0x20 MSTORE KECCAK256 SWAP2 AND PUSH1 0x0 MSTORE PUSH1 0x20 MSTORE PUSH1 0x20 PUSH1 0xFF PUSH1 0x40 PUSH1 0x0 KECCAK256 SLOAD AND PUSH1 0x40 MLOAD SWAP1 ISZERO ISZERO DUP2 MSTORE RETURN JUMPDEST POP CALLVALUE PUSH2 0x28B JUMPI PUSH1 0x20 CALLDATASIZE PUSH1 0x3 NOT ADD SLT PUSH2 0x28B JUMPI PUSH1 0x40 PUSH1 0xC0 SWAP2 PUSH1 0x4 CALLDATALOAD DUP2 MSTORE PUSH1 0x13 PUSH1 0x20 MSTORE KECCAK256 DUP1 SLOAD SWAP1 PUSH1 0x1 PUSH1 0x1 PUSH1 0xA0 SHL SUB SWAP1 DUP2 PUSH1 0x1 DUP3 ADD SLOAD AND SWAP2 PUSH1 0x2 DUP3 ADD SLOAD SWAP1 PUSH1 0x3 DUP4 ADD SLOAD AND SWAP1 PUSH1 0xFF PUSH1 0x5 PUSH1 0x4 DUP6 ADD SLOAD SWAP5 ADD SLOAD AND SWAP4 PUSH1 0x40 MLOAD SWAP6 DUP7 MSTORE PUSH1 0x20 DUP7 ADD MSTORE PUSH1 0x40 DUP6 ADD MSTORE PUSH1 0x60 DUP5 ADD MSTORE PUSH1 0x80 DUP4 ADD MSTORE ISZERO ISZERO PUSH1 0xA0 DUP3 ADD MSTORE RETURN JUMPDEST POP CALLVALUE PUSH2 0x28B JUMPI PUSH1 0x20 DUP1 PUSH1 0x3 NOT CALLDATASIZE ADD SLT PUSH2 0x5C8 JUMPI PUSH2 0x4E3 PUSH2 0x2B25 JUMP JUMPDEST DUP3 SWAP1 DUP4 SWAP3 PUSH1 0x15 SLOAD SWAP3 PUSH1 0x1 PUSH1 0x1 PUSH1 0xA0 SHL SUB DUP1 SWAP4 AND SWAP5 JUMPDEST DUP5 DUP2 LT PUSH2 0x57E JUMPI POP PUSH2 0x509 SWAP1 PUSH2 0x3D93 JUMP JUMPDEST SWAP4 DUP6 SWAP3 DUP7 JUMPDEST DUP6 DUP2 LT PUSH2 0x527 JUMPI PUSH1 0x40 MLOAD DUP1 PUSH2 0x523 DUP10 DUP3 PUSH2 0x2D7B JUMP JUMPDEST SUB SWAP1 RETURN JUMPDEST PUSH2 0x530 DUP2 PUSH2 0x2BB4 JUMP JUMPDEST SWAP1 SLOAD SWAP1 PUSH1 0x3 SHL SHR DUP1 DUP10 MSTORE PUSH1 0x13 DUP6 MSTORE DUP4 DUP4 PUSH1 0x1 PUSH1 0x40 DUP13 KECCAK256 ADD SLOAD AND EQ PUSH2 0x55E JUMPI JUMPDEST POP PUSH2 0x559 SWAP1 PUSH2 0x3C08 JUMP JUMPDEST PUSH2 0x50E JUMP JUMPDEST DUP6 PUSH2 0x577 SWAP2 PUSH2 0x571 PUSH2 0x559 SWAP5 SWAP9 DUP12 PUSH2 0x3C17 JUMP JUMPDEST MSTORE PUSH2 0x3C08 JUMP JUMPDEST SWAP5 SWAP1 PUSH2 0x54F JUMP JUMPDEST PUSH2 0x587 DUP2 PUSH2 0x2BB4 JUMP JUMPDEST SWAP1 SLOAD SWAP1 PUSH1 0x3 SHL SHR DUP8 MSTORE PUSH1 0x13 DUP4 MSTORE DUP6 DUP5 PUSH1 0x1 PUSH1 0x40 DUP11 KECCAK256 ADD SLOAD AND EQ PUSH2 0x5B3 JUMPI JUMPDEST PUSH2 0x5AE SWAP1 PUSH2 0x3C08 JUMP JUMPDEST PUSH2 0x4F8 JUMP JUMPDEST SWAP1 PUSH2 0x5C0 PUSH2 0x5AE SWAP2 PUSH2 0x3C08 JUMP JUMPDEST SWAP2 SWAP1 POP PUSH2 0x5A5 JUMP JUMPDEST POP DUP1 REVERT JUMPDEST POP CALLVALUE PUSH2 0x28B JUMPI DUP1 PUSH1 0x3 NOT CALLDATASIZE ADD SLT PUSH2 0x28B JUMPI PUSH1 0x20 PUSH1 0x9 SLOAD PUSH1 0x40 MLOAD SWAP1 DUP2 MSTORE RETURN JUMPDEST POP CALLVALUE PUSH2 0x28B JUMPI PUSH1 0x20 CALLDATASIZE PUSH1 0x3 NOT ADD SLT PUSH2 0x28B JUMPI PUSH2 0x523 PUSH2 0x60A PUSH1 0x4 CALLDATALOAD PUSH2 0x3E81 JUMP JUMPDEST PUSH1 0x40 MLOAD SWAP2 DUP3 SWAP2 PUSH1 0x20 DUP4 MSTORE PUSH1 0x20 DUP4 ADD SWAP1 PUSH2 0x2B00 JUMP JUMPDEST POP CALLVALUE PUSH2 0x28B JUMPI DUP1 PUSH1 0x3 NOT CALLDATASIZE ADD SLT PUSH2 0x28B JUMPI PUSH1 0x20 PUSH1 0x1 PUSH1 0x1 PUSH1 0xA0 SHL SUB PUSH1 0x11 SLOAD AND PUSH1 0x40 MLOAD SWAP1 DUP2 MSTORE RETURN JUMPDEST POP CALLVALUE PUSH2 0x28B JUMPI PUSH2 0x65D PUSH2 0x657 CALLDATASIZE PUSH2 0x2D65 JUMP JUMPDEST SWAP1 PUSH2 0x3C2B JUMP JUMPDEST PUSH1 0x40 MLOAD SWAP1 PUSH1 0x20 DUP1 DUP4 ADD SWAP1 DUP1 DUP5 MSTORE DUP3 MLOAD DUP1 SWAP3 MSTORE DUP1 PUSH1 0x40 DUP6 ADD SWAP4 ADD SWAP5 JUMPDEST DUP3 DUP2 LT PUSH2 0x685 JUMPI DUP5 DUP5 SUB DUP6 RETURN JUMPDEST DUP6 MLOAD DUP1 MLOAD DUP6 MSTORE DUP1 DUP4 ADD MLOAD PUSH1 0x1 PUSH1 0x1 PUSH1 0xA0 SHL SUB SWAP1 DUP2 AND DUP7 DUP6 ADD MSTORE PUSH1 0x40 DUP1 DUP4 ADD MLOAD SWAP1 DUP8 ADD MSTORE PUSH1 0x60 DUP1 DUP4 ADD MLOAD SWAP1 SWAP2 AND SWAP1 DUP7 ADD MSTORE PUSH1 0x80 DUP1 DUP3 ADD MLOAD SWAP1 DUP7 ADD MSTORE PUSH1 0xA0 SWAP1 DUP2 ADD MLOAD ISZERO ISZERO SWAP1 DUP6 ADD MSTORE SWAP5 DUP2 ADD SWAP5 PUSH1 0xC0 SWAP1 SWAP4 ADD SWAP3 PUSH1 0x1 ADD PUSH2 0x678 JUMP JUMPDEST POP CALLVALUE PUSH2 0x28B JUMPI DUP1 PUSH1 0x3 NOT CALLDATASIZE ADD SLT PUSH2 0x28B JUMPI PUSH1 0x20 PUSH1 0x17 SLOAD PUSH1 0x40 MLOAD SWAP1 DUP2 MSTORE RETURN JUMPDEST POP CALLVALUE PUSH2 0x28B JUMPI PUSH1 0x20 CALLDATASIZE PUSH1 0x3 NOT ADD SLT PUSH2 0x28B JUMPI PUSH1 0x4 CALLDATALOAD DUP1 ISZERO ISZERO DUP2 SUB PUSH2 0x83A JUMPI PUSH1 0x1 PUSH1 0x1 PUSH1 0xA0 SHL SUB PUSH1 0x11 SLOAD AND CALLER SUB PUSH2 0x7F6 JUMPI ISZERO PUSH2 0x7B4 JUMPI PUSH1 0x7 SLOAD PUSH1 0xFF DUP2 AND ISZERO PUSH2 0x770 JUMPI PUSH1 0xFF NOT AND PUSH1 0x7 SSTORE PUSH32 0x5DB9EE0A495BF2E6FF9C91A7834C1BA4FDD244A5E8AA4E537BD38AEAE4B073AA PUSH1 0x20 PUSH1 0x40 MLOAD CALLER DUP2 MSTORE LOG1 DUP1 RETURN JUMPDEST PUSH1 0x64 PUSH1 0x40 MLOAD PUSH3 0x461BCD PUSH1 0xE5 SHL DUP2 MSTORE PUSH1 0x20 PUSH1 0x4 DUP3 ADD MSTORE PUSH1 0x14 PUSH1 0x24 DUP3 ADD MSTORE PUSH32 0x5061757361626C653A206E6F7420706175736564000000000000000000000000 PUSH1 0x44 DUP3 ADD MSTORE REVERT JUMPDEST PUSH2 0x7BC PUSH2 0x34DF JUMP JUMPDEST PUSH1 0x1 PUSH1 0xFF NOT PUSH1 0x7 SLOAD AND OR PUSH1 0x7 SSTORE PUSH32 0x62E78CEA01BEE320CD4E420270B5EA74000D11B0C9F74754EBDBFC544B05A258 PUSH1 0x20 PUSH1 0x40 MLOAD CALLER DUP2 MSTORE LOG1 DUP1 RETURN JUMPDEST PUSH1 0x64 PUSH1 0x40 MLOAD PUSH3 0x461BCD PUSH1 0xE5 SHL DUP2 MSTORE PUSH1 0x20 PUSH1 0x4 DUP3 ADD MSTORE PUSH1 0xC PUSH1 0x24 DUP3 ADD MSTORE PUSH32 0x4F6E6C7920666163746F72790000000000000000000000000000000000000000 PUSH1 0x44 DUP3 ADD MSTORE REVERT JUMPDEST PUSH1 0x0 DUP1 REVERT JUMPDEST POP CALLVALUE PUSH2 0x28B JUMPI PUSH1 0x80 CALLDATASIZE PUSH1 0x3 NOT ADD SLT PUSH2 0x28B JUMPI PUSH2 0x859 PUSH2 0x2B25 JUMP JUMPDEST PUSH2 0x861 PUSH2 0x2B3B JUMP JUMPDEST SWAP1 PUSH1 0x64 CALLDATALOAD SWAP1 PUSH1 0x44 CALLDATALOAD PUSH8 0xFFFFFFFFFFFFFFFF DUP4 GT PUSH2 0x8C9 JUMPI CALLDATASIZE PUSH1 0x23 DUP5 ADD SLT ISZERO PUSH2 0x8C9 JUMPI PUSH2 0x8C6 SWAP4 PUSH2 0x89E PUSH2 0x8C1 SWAP5 CALLDATASIZE SWAP1 PUSH1 0x24 DUP2 PUSH1 0x4 ADD CALLDATALOAD SWAP2 ADD PUSH2 0x2DD2 JUMP JUMPDEST SWAP3 PUSH2 0x8B1 PUSH2 0x8AC DUP5 CALLER PUSH2 0x302C JUMP JUMPDEST PUSH2 0x2F45 JUMP JUMPDEST PUSH2 0x8BC DUP4 DUP4 DUP4 PUSH2 0x310B JUMP JUMPDEST PUSH2 0x3433 JUMP JUMPDEST PUSH2 0x2FB6 JUMP JUMPDEST DUP1 RETURN JUMPDEST DUP5 DUP1 REVERT JUMPDEST POP CALLVALUE PUSH2 0x28B JUMPI DUP1 PUSH1 0x3 NOT CALLDATASIZE ADD SLT PUSH2 0x28B JUMPI PUSH1 0x40 MLOAD PUSH1 0x0 PUSH1 0x1C SLOAD PUSH2 0x8EF DUP2 PUSH2 0x2C01 JUMP JUMPDEST DUP1 DUP5 MSTORE SWAP1 PUSH1 0x1 SWAP1 DUP2 DUP2 AND SWAP1 DUP2 ISZERO PUSH2 0x974 JUMPI POP PUSH1 0x1 EQ PUSH2 0x919 JUMPI JUMPDEST PUSH2 0x523 DUP5 PUSH2 0x60A DUP2 DUP7 SUB DUP3 PUSH2 0x2C9D JUMP JUMPDEST PUSH1 0x1C PUSH1 0x0 SWAP1 DUP2 MSTORE SWAP3 POP PUSH32 0xE4562A10381DEC21B205ED72637E6B1B523BDD0E4D4D50AF5CD23DD4500A211 JUMPDEST DUP3 DUP5 LT PUSH2 0x95C JUMPI POP POP POP DUP2 ADD PUSH1 0x20 ADD PUSH2 0x60A DUP3 PUSH2 0x909 JUMP JUMPDEST DUP1 SLOAD PUSH1 0x20 DUP6 DUP8 ADD DUP2 ADD SWAP2 SWAP1 SWAP2 MSTORE SWAP1 SWAP4 ADD SWAP3 DUP2 ADD PUSH2 0x944 JUMP JUMPDEST PUSH1 0xFF NOT AND PUSH1 0x20 DUP1 DUP8 ADD SWAP2 SWAP1 SWAP2 MSTORE SWAP3 ISZERO ISZERO PUSH1 0x5 SHL DUP6 ADD SWAP1 SWAP3 ADD SWAP3 POP PUSH2 0x60A SWAP2 POP DUP4 SWAP1 POP PUSH2 0x909 JUMP JUMPDEST POP CALLVALUE PUSH2 0x28B JUMPI PUSH1 0x20 CALLDATASIZE PUSH1 0x3 NOT ADD SLT PUSH2 0x28B JUMPI PUSH1 0x4 CALLDATALOAD PUSH2 0x9B8 PUSH2 0x34DF JUMP JUMPDEST PUSH2 0x9E0 PUSH2 0x9DB DUP3 PUSH1 0x0 MSTORE PUSH1 0x2 PUSH1 0x20 MSTORE PUSH1 0x1 PUSH1 0x1 PUSH1 0xA0 SHL SUB PUSH1 0x40 PUSH1 0x0 KECCAK256 SLOAD AND ISZERO ISZERO SWAP1 JUMP JUMPDEST PUSH2 0x3A13 JUMP JUMPDEST PUSH2 0x9FC PUSH2 0x9EC DUP3 PUSH2 0x2EDE JUMP JUMPDEST PUSH1 0x1 PUSH1 0x1 PUSH1 0xA0 SHL SUB AND CALLER EQ PUSH2 0x3A5E JUMP JUMPDEST DUP1 DUP3 MSTORE PUSH1 0x14 PUSH1 0x20 MSTORE PUSH2 0xA14 PUSH1 0xFF PUSH1 0x40 DUP5 KECCAK256 SLOAD AND PUSH2 0x3AA9 JUMP JUMPDEST PUSH2 0xA1D DUP2 PUSH2 0x41A4 JUMP JUMPDEST CALLER SWAP1 PUSH32 0xBE50BF6D5EBC58E29A68DDDCCDEF1C087A9E6DD728A5C3247051D7FDAD14219B DUP4 DUP1 LOG3 DUP1 RETURN JUMPDEST POP CALLVALUE PUSH2 0x28B JUMPI PUSH1 0x40 CALLDATASIZE PUSH1 0x3 NOT ADD SLT PUSH2 0x28B JUMPI PUSH2 0xA60 PUSH2 0x2B25 JUMP JUMPDEST PUSH1 0x24 CALLDATALOAD SWAP1 DUP2 ISZERO ISZERO SWAP1 DUP2 DUP4 SUB PUSH2 0x83A JUMPI PUSH1 0x1 PUSH1 0x1 PUSH1 0xA0 SHL SUB AND SWAP2 DUP3 CALLER EQ PUSH2 0xADC JUMPI PUSH2 0xAAD SWAP1 CALLER DUP6 MSTORE PUSH1 0x5 PUSH1 0x20 MSTORE PUSH1 0x40 DUP6 KECCAK256 DUP5 PUSH1 0x0 MSTORE PUSH1 0x20 MSTORE PUSH1 0x40 PUSH1 0x0 KECCAK256 SWAP1 PUSH1 0xFF DUP1 NOT DUP4 SLOAD AND SWAP2 ISZERO ISZERO AND OR SWAP1 SSTORE JUMP JUMPDEST PUSH1 0x40 MLOAD SWAP1 DUP2 MSTORE PUSH32 0x17307EAB39AB6107E8899845AD3D59BD9653F200F220920489CA2B5937696C31 PUSH1 0x20 CALLER SWAP3 LOG3 DUP1 RETURN JUMPDEST PUSH1 0x64 PUSH1 0x40 MLOAD PUSH3 0x461BCD PUSH1 0xE5 SHL DUP2 MSTORE PUSH1 0x20 PUSH1 0x4 DUP3 ADD MSTORE PUSH1 0x19 PUSH1 0x24 DUP3 ADD MSTORE PUSH32 0x4552433732313A20617070726F766520746F2063616C6C657200000000000000 PUSH1 0x44 DUP3 ADD MSTORE REVERT JUMPDEST POP CALLVALUE PUSH2 0x28B JUMPI DUP1 PUSH1 0x3 NOT CALLDATASIZE ADD SLT PUSH2 0x28B JUMPI PUSH1 0x40 MLOAD PUSH1 0x0 PUSH1 0x1 DUP1 SLOAD SWAP1 PUSH2 0xB44 DUP3 PUSH2 0x2C01 JUMP JUMPDEST DUP1 DUP6 MSTORE SWAP2 DUP2 DUP2 AND SWAP1 DUP2 ISZERO PUSH2 0x974 JUMPI POP PUSH1 0x1 EQ PUSH2 0xB6A JUMPI PUSH2 0x523 DUP5 PUSH2 0x60A DUP2 DUP7 SUB DUP3 PUSH2 0x2C9D JUMP JUMPDEST PUSH1 0x0 DUP2 DUP2 MSTORE SWAP3 POP PUSH32 0xB10E2D527612073B26EECDFD717E6A320CF44B4AFAC2B0732D9FCBE2B7FA0CF6 JUMPDEST DUP3 DUP5 LT PUSH2 0xBAB JUMPI POP POP POP DUP2 ADD PUSH1 0x20 ADD PUSH2 0x60A DUP3 PUSH2 0x909 JUMP JUMPDEST DUP1 SLOAD PUSH1 0x20 DUP6 DUP8 ADD DUP2 ADD SWAP2 SWAP1 SWAP2 MSTORE SWAP1 SWAP4 ADD SWAP3 DUP2 ADD PUSH2 0xB93 JUMP JUMPDEST POP CALLVALUE PUSH2 0x28B JUMPI PUSH1 0x20 CALLDATASIZE PUSH1 0x3 NOT ADD SLT PUSH2 0x28B JUMPI PUSH1 0x4 CALLDATALOAD PUSH2 0xBEE PUSH1 0x1 PUSH1 0x1 PUSH1 0xA0 SHL SUB PUSH1 0x10 SLOAD AND CALLER EQ PUSH2 0x3494 JUMP JUMPDEST PUSH2 0x3E8 DUP2 GT PUSH2 0xC31 JUMPI PUSH1 0x40 PUSH32 0x936008F1E981D6F48D4A529714C27D74D644750A1D215451212CE0F2476F2FBC SWAP2 PUSH1 0xC SLOAD SWAP1 DUP1 PUSH1 0xC SSTORE DUP3 MLOAD SWAP2 DUP3 MSTORE PUSH1 0x20 DUP3 ADD MSTORE LOG1 DUP1 RETURN JUMPDEST PUSH1 0x64 PUSH1 0x40 MLOAD PUSH3 0x461BCD PUSH1 0xE5 SHL DUP2 MSTORE PUSH1 0x20 PUSH1 0x4 DUP3 ADD MSTORE PUSH1 0xC PUSH1 0x24 DUP3 ADD MSTORE PUSH32 0x46656520746F6F20686967680000000000000000000000000000000000000000 PUSH1 0x44 DUP3 ADD MSTORE REVERT JUMPDEST POP CALLVALUE PUSH2 0x28B JUMPI PUSH1 0x20 CALLDATASIZE PUSH1 0x3 NOT ADD SLT PUSH2 0x28B JUMPI PUSH2 0x523 PUSH2 0x60A PUSH1 0x4 CALLDATALOAD PUSH2 0x4171 JUMP JUMPDEST POP CALLVALUE PUSH2 0x28B JUMPI PUSH1 0x40 CALLDATASIZE PUSH1 0x3 NOT ADD SLT PUSH2 0x28B JUMPI PUSH2 0xCAF PUSH2 0x2B25 JUMP JUMPDEST PUSH1 0x24 CALLDATALOAD SWAP1 PUSH1 0x1 PUSH1 0x1 PUSH1 0xA0 SHL SUB SWAP1 PUSH2 0xCCB DUP3 PUSH1 0x10 SLOAD AND CALLER EQ PUSH2 0x3494 JUMP JUMPDEST PUSH2 0xCD3 PUSH2 0x3640 JUMP JUMPDEST DUP2 DUP2 AND SWAP2 PUSH2 0xCE2 DUP4 ISZERO ISZERO PUSH2 0x3B5A JUMP JUMPDEST PUSH2 0xCED DUP5 ISZERO ISZERO PUSH2 0x3BA5 JUMP JUMPDEST DUP3 DUP6 MSTORE PUSH1 0x19 PUSH1 0x20 MSTORE DUP4 PUSH1 0x40 DUP7 KECCAK256 SLOAD LT PUSH2 0xD7F JUMPI PUSH2 0xD59 DUP5 DUP5 PUSH32 0x121B283ED79F0646A25775A9EB3C86AA23BEA96A49EF2FAD07D17686DFD2C60 SWAP6 DUP9 MSTORE PUSH1 0x19 PUSH1 0x20 MSTORE PUSH1 0x40 DUP9 KECCAK256 PUSH2 0xD3D DUP4 DUP3 SLOAD PUSH2 0x3610 JUMP JUMPDEST SWAP1 SSTORE PUSH2 0xD4B DUP3 PUSH1 0x17 SLOAD PUSH2 0x3610 JUMP JUMPDEST PUSH1 0x17 SSTORE DUP4 PUSH1 0x10 SLOAD AND SWAP1 PUSH2 0x3AF4 JUMP JUMPDEST PUSH1 0x10 SLOAD PUSH1 0x40 DUP1 MLOAD SWAP6 DUP7 MSTORE PUSH1 0x1 PUSH1 0x1 PUSH1 0xA0 SHL SUB SWAP4 SWAP1 SWAP4 AND PUSH1 0x20 DUP7 ADD MSTORE AND SWAP3 LOG2 PUSH1 0x1 PUSH1 0x6 SSTORE DUP1 RETURN JUMPDEST PUSH1 0x64 PUSH1 0x40 MLOAD PUSH3 0x461BCD PUSH1 0xE5 SHL DUP2 MSTORE PUSH1 0x20 PUSH1 0x4 DUP3 ADD MSTORE PUSH1 0x14 PUSH1 0x24 DUP3 ADD MSTORE PUSH32 0x496E73756666696369656E7420726576656E7565000000000000000000000000 PUSH1 0x44 DUP3 ADD MSTORE REVERT JUMPDEST POP CALLVALUE PUSH2 0x28B JUMPI DUP1 PUSH1 0x3 NOT CALLDATASIZE ADD SLT PUSH2 0x28B JUMPI PUSH1 0x20 PUSH1 0x18 SLOAD PUSH1 0x40 MLOAD SWAP1 DUP2 MSTORE RETURN JUMPDEST POP CALLVALUE PUSH2 0x28B JUMPI PUSH1 0x20 CALLDATASIZE PUSH1 0x3 NOT ADD SLT PUSH2 0x28B JUMPI PUSH2 0x523 PUSH2 0xE06 PUSH2 0xE01 PUSH2 0x2B25 JUMP JUMPDEST PUSH2 0x3DC5 JUMP JUMPDEST PUSH1 0x40 MLOAD SWAP2 DUP3 SWAP2 DUP3 PUSH2 0x2D7B JUMP JUMPDEST POP CALLVALUE PUSH2 0x28B JUMPI DUP1 PUSH1 0x3 NOT CALLDATASIZE ADD SLT PUSH2 0x28B JUMPI PUSH2 0x7B4 PUSH1 0x1 PUSH1 0x1 PUSH1 0xA0 SHL SUB PUSH1 0x10 SLOAD AND CALLER EQ PUSH2 0x3494 JUMP JUMPDEST POP CALLVALUE PUSH2 0x28B JUMPI PUSH1 0x20 CALLDATASIZE PUSH1 0x3 NOT ADD SLT PUSH2 0x28B JUMPI PUSH1 0x40 PUSH1 0x20 SWAP2 PUSH1 0x1 PUSH1 0x1 PUSH1 0xA0 SHL SUB PUSH2 0xE60 PUSH2 0x2B25 JUMP JUMPDEST AND DUP2 MSTORE PUSH1 0x1A DUP4 MSTORE KECCAK256 SLOAD PUSH1 0x40 MLOAD SWAP1 DUP2 MSTORE RETURN JUMPDEST POP CALLVALUE PUSH2 0x28B JUMPI PUSH1 0x40 PUSH32 0x15819DD2FD9F6418B142E798D08A18D0BF06EA368F4480B7B0D3F75BD966BC48 PUSH2 0xEA3 CALLDATASIZE PUSH2 0x2D65 JUMP JUMPDEST PUSH2 0xEC8 PUSH2 0x9DB DUP4 SWAP6 SWAP4 PUSH1 0x0 MSTORE PUSH1 0x2 PUSH1 0x20 MSTORE PUSH1 0x1 PUSH1 0x1 PUSH1 0xA0 SHL SUB PUSH1 0x40 PUSH1 0x0 KECCAK256 SLOAD AND ISZERO ISZERO SWAP1 JUMP JUMPDEST PUSH2 0xED4 PUSH2 0x9EC DUP6 PUSH2 0x2EDE JUMP JUMPDEST DUP4 DUP6 MSTORE PUSH1 0x14 PUSH1 0x20 MSTORE PUSH2 0xEEB PUSH1 0xFF DUP4 DUP8 KECCAK256 SLOAD AND PUSH2 0x3AA9 JUMP JUMPDEST PUSH2 0xEF6 DUP2 ISZERO ISZERO PUSH2 0x352F JUMP JUMPDEST DUP4 DUP6 MSTORE PUSH1 0x13 PUSH1 0x20 MSTORE PUSH1 0x2 DUP3 DUP7 KECCAK256 ADD SWAP1 DUP1 DUP3 SLOAD SWAP3 SSTORE DUP3 MLOAD SWAP2 DUP3 MSTORE PUSH1 0x20 DUP3 ADD MSTORE LOG2 DUP1 RETURN JUMPDEST POP CALLVALUE PUSH2 0x28B JUMPI PUSH1 0x20 CALLDATASIZE PUSH1 0x3 NOT ADD SLT PUSH2 0x28B JUMPI PUSH1 0x4 CALLDATALOAD PUSH8 0xFFFFFFFFFFFFFFFF DUP2 GT PUSH2 0x5C8 JUMPI PUSH1 0x40 PUSH1 0x20 SWAP3 PUSH2 0xF5B PUSH2 0xF54 PUSH1 0xFF SWAP5 CALLDATASIZE SWAP1 PUSH1 0x4 ADD PUSH2 0x2B51 JUMP JUMPDEST CALLDATASIZE SWAP2 PUSH2 0x2DD2 JUMP JUMPDEST DUP5 DUP2 MLOAD SWAP2 ADD KECCAK256 DUP2 MSTORE PUSH1 0xE DUP5 MSTORE KECCAK256 SLOAD AND PUSH1 0x40 MLOAD SWAP1 ISZERO ISZERO DUP2 MSTORE RETURN JUMPDEST POP CALLVALUE PUSH2 0x28B JUMPI PUSH1 0x60 CALLDATASIZE PUSH1 0x3 NOT ADD SLT PUSH2 0x28B JUMPI PUSH1 0x4 CALLDATALOAD PUSH1 0x24 SWAP2 DUP3 CALLDATALOAD PUSH1 0x44 CALLDATALOAD SWAP3 PUSH1 0x1 PUSH1 0x1 PUSH1 0xA0 SHL SUB SWAP4 DUP5 DUP2 AND SWAP5 DUP6 DUP3 SUB PUSH2 0x83A JUMPI PUSH2 0xFAE PUSH2 0x3640 JUMP JUMPDEST PUSH2 0xFB6 PUSH2 0x34DF JUMP JUMPDEST PUSH2 0xFD9 PUSH2 0x9DB DUP5 PUSH1 0x0 MSTORE PUSH1 0x2 PUSH1 0x20 MSTORE PUSH1 0x1 PUSH1 0x1 PUSH1 0xA0 SHL SUB PUSH1 0x40 PUSH1 0x0 KECCAK256 SLOAD AND ISZERO ISZERO SWAP1 JUMP JUMPDEST PUSH2 0xFEE PUSH2 0xFE5 DUP5 PUSH2 0x2EDE JUMP JUMPDEST DUP3 AND CALLER EQ PUSH2 0x3A5E JUMP JUMPDEST DUP3 DUP6 MSTORE PUSH1 0x20 SWAP6 PUSH1 0x14 DUP8 MSTORE PUSH1 0xFF PUSH1 0x40 DUP8 KECCAK256 SLOAD AND PUSH2 0x12E3 JUMPI PUSH2 0x100F DUP6 ISZERO ISZERO PUSH2 0x352F JUMP JUMPDEST DUP1 ISZERO PUSH2 0x12A0 JUMPI PUSH1 0x40 MLOAD PUSH32 0x313CE56700000000000000000000000000000000000000000000000000000000 DUP2 MSTORE DUP8 DUP2 PUSH1 0x4 DUP2 DUP6 GAS STATICCALL DUP8 SWAP2 DUP2 PUSH2 0x1263 JUMPI JUMPDEST POP PUSH2 0x1093 JUMPI PUSH1 0x64 DUP9 PUSH1 0x1E DUP12 PUSH1 0x40 MLOAD SWAP3 PUSH3 0x461BCD PUSH1 0xE5 SHL DUP5 MSTORE PUSH1 0x4 DUP5 ADD MSTORE DUP3 ADD MSTORE PUSH32 0x496E76616C6964207061796D656E7420746F6B656E206D657461646174610000 PUSH1 0x44 DUP3 ADD MSTORE REVERT JUMPDEST SWAP2 DUP9 SWAP2 PUSH1 0x12 PUSH1 0xFF DUP11 SWAP6 AND SUB PUSH2 0x11FA JUMPI SWAP1 PUSH1 0x5 DUP7 DUP10 PUSH2 0x1138 SWAP5 PUSH1 0x40 MLOAD SWAP5 PUSH2 0x10B8 DUP7 PUSH2 0x2C65 JUMP JUMPDEST DUP4 DUP7 MSTORE DUP9 DUP7 ADD SWAP1 CALLER DUP3 MSTORE PUSH1 0x40 DUP8 ADD DUP14 DUP2 MSTORE PUSH1 0x60 DUP9 ADD SWAP4 DUP5 MSTORE PUSH1 0x40 PUSH1 0x80 DUP10 ADD SWAP6 TIMESTAMP DUP8 MSTORE PUSH1 0xA0 DUP11 ADD SWAP8 PUSH1 0x1 DUP10 MSTORE DUP2 MSTORE PUSH1 0x13 DUP14 MSTORE KECCAK256 SWAP8 MLOAD DUP9 SSTORE DUP2 PUSH1 0x1 DUP10 ADD SWAP4 MLOAD AND SWAP3 PUSH1 0x1 PUSH1 0x1 PUSH1 0xA0 SHL SUB NOT SWAP4 DUP5 DUP3 SLOAD AND OR SWAP1 SSTORE MLOAD PUSH1 0x2 DUP9 ADD SSTORE PUSH1 0x3 DUP8 ADD SWAP3 MLOAD AND SWAP1 DUP3 SLOAD AND OR SWAP1 SSTORE MLOAD PUSH1 0x4 DUP5 ADD SSTORE MLOAD ISZERO ISZERO SWAP2 ADD SWAP1 PUSH1 0xFF DUP1 NOT DUP4 SLOAD AND SWAP2 ISZERO ISZERO AND OR SWAP1 SSTORE JUMP JUMPDEST PUSH1 0x14 DUP3 MSTORE PUSH1 0x40 DUP7 KECCAK256 PUSH1 0x1 PUSH1 0xFF NOT DUP3 SLOAD AND OR SWAP1 SSTORE PUSH1 0x16 PUSH1 0x15 SLOAD SWAP3 MSTORE DUP2 PUSH1 0x40 DUP8 KECCAK256 SSTORE PUSH9 0x10000000000000000 DUP3 LT ISZERO PUSH2 0x11E8 JUMPI POP PUSH32 0xAD9BD239ED4E99994741303AFBD6DD4C6E9E20FFD17A1241C5F2014145D3A558 SWAP2 PUSH2 0x11BC DUP5 PUSH2 0x11A3 DUP5 PUSH1 0x1 PUSH2 0x11DD SWAP7 ADD PUSH1 0x15 SSTORE PUSH2 0x2BB4 JUMP JUMPDEST SWAP1 SWAP2 SWAP1 DUP3 SLOAD SWAP1 PUSH1 0x3 SHL SWAP2 DUP3 SHL SWAP2 PUSH1 0x0 NOT SWAP1 SHL NOT AND OR SWAP1 SSTORE JUMP JUMPDEST PUSH1 0x40 DUP1 MLOAD SWAP6 DUP7 MSTORE PUSH1 0x1 PUSH1 0x1 PUSH1 0xA0 SHL SUB SWAP1 SWAP2 AND PUSH1 0x20 DUP7 ADD MSTORE CALLER SWAP5 SWAP2 DUP3 SWAP2 DUP3 ADD SWAP1 JUMP JUMPDEST SUB SWAP1 LOG3 PUSH1 0x1 PUSH1 0x6 SSTORE DUP1 RETURN JUMPDEST DUP6 PUSH4 0x4E487B71 PUSH1 0xE0 SHL DUP2 MSTORE PUSH1 0x41 PUSH1 0x4 MSTORE REVERT JUMPDEST PUSH1 0x84 DUP5 PUSH1 0x23 DUP6 PUSH1 0x40 MLOAD SWAP3 PUSH3 0x461BCD PUSH1 0xE5 SHL DUP5 MSTORE PUSH1 0x4 DUP5 ADD MSTORE DUP3 ADD MSTORE PUSH32 0x5061796D656E7420746F6B656E206D757374206861766520313820646563696D PUSH1 0x44 DUP3 ADD MSTORE PUSH32 0x616C730000000000000000000000000000000000000000000000000000000000 PUSH1 0x64 DUP3 ADD MSTORE REVERT JUMPDEST SWAP1 SWAP2 POP DUP9 DUP2 DUP2 RETURNDATASIZE DUP4 GT PUSH2 0x1299 JUMPI JUMPDEST PUSH2 0x127B DUP2 DUP4 PUSH2 0x2C9D JUMP JUMPDEST DUP2 ADD SUB SLT PUSH2 0x1295 JUMPI MLOAD PUSH1 0xFF DUP2 AND DUP2 SUB PUSH2 0x1295 JUMPI SWAP1 CODESIZE PUSH2 0x104B JUMP JUMPDEST DUP8 DUP1 REVERT JUMPDEST POP RETURNDATASIZE PUSH2 0x1271 JUMP JUMPDEST PUSH1 0x64 DUP8 PUSH1 0x15 DUP11 PUSH1 0x40 MLOAD SWAP3 PUSH3 0x461BCD PUSH1 0xE5 SHL DUP5 MSTORE PUSH1 0x4 DUP5 ADD MSTORE DUP3 ADD MSTORE PUSH32 0x496E76616C6964207061796D656E7420746F6B656E0000000000000000000000 PUSH1 0x44 DUP3 ADD MSTORE REVERT JUMPDEST PUSH1 0x64 DUP8 PUSH1 0xF DUP11 PUSH1 0x40 MLOAD SWAP3 PUSH3 0x461BCD PUSH1 0xE5 SHL DUP5 MSTORE PUSH1 0x4 DUP5 ADD MSTORE DUP3 ADD MSTORE PUSH32 0x546F6B656E206973206C69737465640000000000000000000000000000000000 PUSH1 0x44 DUP3 ADD MSTORE REVERT JUMPDEST POP CALLVALUE PUSH2 0x28B JUMPI DUP1 PUSH1 0x3 NOT CALLDATASIZE ADD SLT PUSH2 0x28B JUMPI PUSH1 0x40 MLOAD PUSH1 0x0 PUSH1 0x1B SLOAD PUSH2 0x1348 DUP2 PUSH2 0x2C01 JUMP JUMPDEST DUP1 DUP5 MSTORE SWAP1 PUSH1 0x1 SWAP1 DUP2 DUP2 AND SWAP1 DUP2 ISZERO PUSH2 0x974 JUMPI POP PUSH1 0x1 EQ PUSH2 0x1371 JUMPI PUSH2 0x523 DUP5 PUSH2 0x60A DUP2 DUP7 SUB DUP3 PUSH2 0x2C9D JUMP JUMPDEST PUSH1 0x1B PUSH1 0x0 SWAP1 DUP2 MSTORE SWAP3 POP PUSH32 0x3AD8AA4F87544323A9D1E5DD902F40C356527A7955687113DB5F9A85AD579DC1 JUMPDEST DUP3 DUP5 LT PUSH2 0x13B4 JUMPI POP POP POP DUP2 ADD PUSH1 0x20 ADD PUSH2 0x60A DUP3 PUSH2 0x909 JUMP JUMPDEST DUP1 SLOAD PUSH1 0x20 DUP6 DUP8 ADD DUP2 ADD SWAP2 SWAP1 SWAP2 MSTORE SWAP1 SWAP4 ADD SWAP3 DUP2 ADD PUSH2 0x139C JUMP JUMPDEST POP CALLVALUE PUSH2 0x28B JUMPI PUSH1 0x20 CALLDATASIZE PUSH1 0x3 NOT ADD SLT PUSH2 0x28B JUMPI PUSH1 0x20 PUSH2 0x13F0 PUSH2 0x13EB PUSH2 0x2B25 JUMP JUMPDEST PUSH2 0x2E09 JUMP JUMPDEST PUSH1 0x40 MLOAD SWAP1 DUP2 MSTORE RETURN JUMPDEST POP CALLVALUE PUSH2 0x28B JUMPI PUSH1 0x20 DUP1 PUSH1 0x3 NOT CALLDATASIZE ADD SLT PUSH2 0x5C8 JUMPI PUSH2 0x1413 PUSH2 0x2B25 JUMP JUMPDEST PUSH2 0x141B PUSH2 0x3640 JUMP JUMPDEST PUSH2 0x1423 PUSH2 0x34DF JUMP JUMPDEST PUSH1 0x1 PUSH1 0x1 PUSH1 0xA0 SHL SUB SWAP1 DUP2 DUP2 AND SWAP1 PUSH2 0x143B DUP3 ISZERO ISZERO PUSH2 0x357A JUMP JUMPDEST PUSH1 0x12 SLOAD SWAP3 PUSH2 0x144D PUSH1 0x9 SLOAD DUP6 GT ISZERO PUSH2 0x35C5 JUMP JUMPDEST DUP1 PUSH1 0xA SLOAD AND PUSH1 0x40 MLOAD PUSH4 0x70A08231 PUSH1 0xE0 SHL SWAP2 DUP3 DUP3 MSTORE ADDRESS PUSH1 0x4 DUP4 ADD MSTORE DUP8 DUP3 PUSH1 0x24 DUP2 DUP5 GAS STATICCALL SWAP2 DUP3 ISZERO PUSH2 0x164B JUMPI DUP10 SWAP3 PUSH2 0x161A JUMPI JUMPDEST POP PUSH1 0xB SLOAD PUSH2 0x148E SWAP2 ADDRESS SWAP1 CALLER SWAP1 PUSH2 0x3695 JUMP JUMPDEST DUP7 DUP4 PUSH1 0xA SLOAD AND SWAP3 PUSH1 0x24 PUSH1 0x40 MLOAD DUP1 SWAP6 DUP2 SWAP4 DUP3 MSTORE ADDRESS PUSH1 0x4 DUP4 ADD MSTORE GAS STATICCALL DUP1 ISZERO PUSH2 0x160F JUMPI DUP7 SWAP3 DUP10 SWAP2 PUSH2 0x15DA JUMPI JUMPDEST POP PUSH2 0x14CC SWAP3 SWAP2 PUSH2 0x14C6 SWAP2 PUSH2 0x3610 JUMP JUMPDEST SWAP4 PUSH2 0x381C JUMP JUMPDEST PUSH1 0x1 PUSH1 0x12 SLOAD ADD PUSH1 0x12 SSTORE PUSH2 0x14E1 DUP3 PUSH1 0x17 SLOAD PUSH2 0x3633 JUMP JUMPDEST PUSH1 0x17 SSTORE DUP1 PUSH1 0xA SLOAD AND DUP7 MSTORE PUSH1 0x19 DUP6 MSTORE PUSH1 0x40 DUP7 KECCAK256 PUSH2 0x14FE DUP4 DUP3 SLOAD PUSH2 0x3633 JUMP JUMPDEST SWAP1 SSTORE PUSH1 0x11 SLOAD PUSH1 0x12 SLOAD PUSH1 0x0 NOT DUP2 ADD SWAP2 DUP4 AND SWAP1 DUP3 GT PUSH2 0x15C6 JUMPI SWAP1 DUP2 DUP9 SWAP3 EXTCODESIZE ISZERO PUSH2 0x15C2 JUMPI PUSH1 0x24 DUP4 SWAP3 PUSH1 0x40 MLOAD SWAP11 DUP12 SWAP4 DUP5 SWAP3 PUSH4 0x2AFC7081 PUSH1 0xE2 SHL DUP5 MSTORE PUSH1 0x4 DUP5 ADD MSTORE GAS CALL SWAP7 DUP8 ISZERO PUSH2 0x15B5 JUMPI DUP6 SWAP7 SWAP8 PUSH2 0x1597 JUMPI JUMPDEST POP POP PUSH1 0xA SLOAD PUSH1 0x40 DUP1 MLOAD SWAP4 DUP5 MSTORE SWAP2 AND PUSH1 0x1 PUSH1 0x1 PUSH1 0xA0 SHL SUB AND PUSH1 0x20 DUP4 ADD MSTORE PUSH32 0x6A1A369EF3C3EEBE428C993F6EB79FB1438544741070BC7A4388C801FA08463D SWAP2 LOG3 PUSH1 0x1 PUSH1 0x6 SSTORE PUSH1 0x40 MLOAD SWAP1 DUP2 MSTORE RETURN JUMPDEST DUP2 SWAP3 SWAP4 SWAP5 SWAP6 POP PUSH2 0x15A6 SWAP1 PUSH2 0x2C3B JUMP JUMPDEST PUSH2 0x28B JUMPI SWAP1 DUP2 DUP6 SWAP5 SWAP4 SWAP3 PUSH2 0x154B JUMP JUMPDEST POP PUSH1 0x40 MLOAD SWAP1 RETURNDATASIZE SWAP1 DUP3 RETURNDATACOPY RETURNDATASIZE SWAP1 REVERT JUMPDEST DUP3 DUP1 REVERT JUMPDEST PUSH1 0x24 DUP9 PUSH4 0x4E487B71 PUSH1 0xE0 SHL DUP2 MSTORE PUSH1 0x11 PUSH1 0x4 MSTORE REVERT JUMPDEST DUP1 SWAP4 POP DUP9 DUP1 SWAP3 POP RETURNDATASIZE DUP4 GT PUSH2 0x1608 JUMPI JUMPDEST PUSH2 0x15F3 DUP2 DUP4 PUSH2 0x2C9D JUMP JUMPDEST DUP2 ADD SUB SLT PUSH2 0x83A JUMPI SWAP1 MLOAD DUP6 SWAP2 SWAP1 PUSH2 0x14CC PUSH2 0x14B7 JUMP JUMPDEST POP RETURNDATASIZE PUSH2 0x15E9 JUMP JUMPDEST PUSH1 0x40 MLOAD RETURNDATASIZE DUP11 DUP3 RETURNDATACOPY RETURNDATASIZE SWAP1 REVERT JUMPDEST SWAP1 SWAP2 POP DUP8 DUP2 DUP2 RETURNDATASIZE DUP4 GT PUSH2 0x1644 JUMPI JUMPDEST PUSH2 0x1632 DUP2 DUP4 PUSH2 0x2C9D JUMP JUMPDEST DUP2 ADD SUB SLT PUSH2 0x83A JUMPI MLOAD SWAP1 PUSH2 0x148E PUSH2 0x147D JUMP JUMPDEST POP RETURNDATASIZE PUSH2 0x1628 JUMP JUMPDEST PUSH1 0x40 MLOAD RETURNDATASIZE DUP12 DUP3 RETURNDATACOPY RETURNDATASIZE SWAP1 REVERT JUMPDEST POP CALLVALUE PUSH2 0x28B JUMPI DUP1 PUSH1 0x3 NOT CALLDATASIZE ADD SLT PUSH2 0x28B JUMPI PUSH1 0x20 PUSH1 0xB SLOAD PUSH1 0x40 MLOAD SWAP1 DUP2 MSTORE RETURN JUMPDEST POP CALLVALUE PUSH2 0x28B JUMPI PUSH1 0x20 CALLDATASIZE PUSH1 0x3 NOT ADD SLT PUSH2 0x28B JUMPI PUSH1 0x20 PUSH2 0x1693 PUSH1 0x4 CALLDATALOAD PUSH2 0x2EDE JUMP JUMPDEST PUSH1 0x1 PUSH1 0x1 PUSH1 0xA0 SHL SUB PUSH1 0x40 MLOAD SWAP2 AND DUP2 MSTORE RETURN JUMPDEST POP CALLVALUE PUSH2 0x28B JUMPI PUSH1 0x20 CALLDATASIZE PUSH1 0x3 NOT ADD SLT PUSH2 0x28B JUMPI PUSH1 0x4 CALLDATALOAD SWAP1 PUSH1 0x15 SLOAD DUP3 LT ISZERO PUSH2 0x28B JUMPI PUSH1 0x20 PUSH2 0x16CF DUP4 PUSH2 0x2BB4 JUMP JUMPDEST SWAP1 SLOAD PUSH1 0x40 MLOAD SWAP2 PUSH1 0x3 SHL SHR DUP2 MSTORE RETURN JUMPDEST POP CALLVALUE PUSH2 0x28B JUMPI DUP1 PUSH1 0x3 NOT CALLDATASIZE ADD SLT PUSH2 0x28B JUMPI PUSH1 0x20 PUSH1 0xFF PUSH1 0x7 SLOAD AND PUSH1 0x40 MLOAD SWAP1 ISZERO ISZERO DUP2 MSTORE RETURN JUMPDEST POP CALLVALUE PUSH2 0x28B JUMPI DUP1 PUSH1 0x3 NOT CALLDATASIZE ADD SLT PUSH2 0x28B JUMPI PUSH1 0x12 SLOAD PUSH1 0x0 NOT DUP2 ADD SWAP2 SWAP1 DUP3 GT PUSH2 0x175F JUMPI PUSH1 0xE0 DUP3 PUSH1 0x9 SLOAD PUSH1 0x17 SLOAD PUSH1 0x18 SLOAD PUSH1 0x15 SLOAD SWAP1 PUSH1 0xB SLOAD SWAP3 PUSH1 0xC SLOAD SWAP5 PUSH1 0x40 MLOAD SWAP7 DUP8 MSTORE PUSH1 0x20 DUP8 ADD MSTORE PUSH1 0x40 DUP7 ADD MSTORE PUSH1 0x60 DUP6 ADD MSTORE PUSH1 0x80 DUP5 ADD MSTORE PUSH1 0xA0 DUP4 ADD MSTORE PUSH1 0xC0 DUP3 ADD MSTORE RETURN JUMPDEST DUP1 PUSH4 0x4E487B71 PUSH1 0xE0 SHL PUSH1 0x24 SWAP3 MSTORE PUSH1 0x11 PUSH1 0x4 MSTORE REVERT JUMPDEST POP CALLVALUE PUSH2 0x28B JUMPI PUSH1 0x40 CALLDATASIZE PUSH1 0x3 NOT ADD SLT PUSH2 0x28B JUMPI PUSH8 0xFFFFFFFFFFFFFFFF SWAP1 PUSH1 0x4 CALLDATALOAD DUP3 DUP2 GT PUSH2 0x5C8 JUMPI PUSH2 0x17A7 SWAP1 CALLDATASIZE SWAP1 PUSH1 0x4 ADD PUSH2 0x2B51 JUMP JUMPDEST SWAP3 SWAP1 PUSH1 0x24 CALLDATALOAD DUP3 DUP2 GT PUSH2 0x1B0C JUMPI PUSH2 0x17C1 SWAP1 CALLDATASIZE SWAP1 PUSH1 0x4 ADD PUSH2 0x2B51 JUMP JUMPDEST SWAP3 SWAP1 SWAP5 PUSH2 0x17DA PUSH1 0x1 PUSH1 0x1 PUSH1 0xA0 SHL SUB PUSH1 0x10 SLOAD AND CALLER EQ PUSH2 0x3494 JUMP JUMPDEST PUSH2 0x3E8 DUP2 GT PUSH2 0x1AC8 JUMPI PUSH2 0x1F4 DUP5 GT PUSH2 0x1A84 JUMPI DUP2 DUP2 GT PUSH2 0x1A70 JUMPI DUP1 PUSH2 0x17FF PUSH1 0x1B SLOAD PUSH2 0x2C01 JUMP JUMPDEST SWAP4 PUSH1 0x1F SWAP5 DUP6 DUP2 GT PUSH2 0x1A03 JUMPI JUMPDEST POP DUP7 SWAP1 DUP6 DUP4 GT PUSH1 0x1 EQ PUSH2 0x197E JUMPI DUP8 SWAP3 PUSH2 0x1973 JUMPI JUMPDEST POP POP DUP2 PUSH1 0x1 SHL SWAP2 PUSH1 0x0 NOT SWAP1 PUSH1 0x3 SHL SHR NOT AND OR PUSH1 0x1B SSTORE JUMPDEST DUP3 GT PUSH2 0x195F JUMPI PUSH2 0x1846 PUSH1 0x1C SLOAD PUSH2 0x2C01 JUMP JUMPDEST DUP2 DUP2 GT PUSH2 0x1902 JUMPI JUMPDEST POP DUP3 SWAP1 DUP3 GT PUSH1 0x1 EQ PUSH2 0x1887 JUMPI DUP3 SWAP4 DUP3 SWAP4 SWAP3 PUSH2 0x187C JUMPI JUMPDEST POP POP DUP2 PUSH1 0x1 SHL SWAP2 PUSH1 0x0 NOT SWAP1 PUSH1 0x3 SHL SHR NOT AND OR PUSH1 0x1C SSTORE DUP1 RETURN JUMPDEST ADD CALLDATALOAD SWAP1 POP CODESIZE DUP1 PUSH2 0x1864 JUMP JUMPDEST PUSH1 0x1F NOT DUP3 AND SWAP4 PUSH32 0xE4562A10381DEC21B205ED72637E6B1B523BDD0E4D4D50AF5CD23DD4500A211 SWAP2 DUP5 JUMPDEST DUP7 DUP2 LT PUSH2 0x18EA JUMPI POP DUP4 PUSH1 0x1 SWAP6 SWAP7 LT PUSH2 0x18D0 JUMPI JUMPDEST POP POP POP DUP2 SHL ADD PUSH1 0x1C SSTORE DUP1 RETURN JUMPDEST ADD CALLDATALOAD PUSH1 0x0 NOT PUSH1 0x3 DUP5 SWAP1 SHL PUSH1 0xF8 AND SHR NOT AND SWAP1 SSTORE CODESIZE DUP1 DUP1 PUSH2 0x18C4 JUMP JUMPDEST SWAP1 SWAP3 PUSH1 0x20 PUSH1 0x1 DUP2 SWAP3 DUP7 DUP7 ADD CALLDATALOAD DUP2 SSTORE ADD SWAP5 ADD SWAP2 ADD PUSH2 0x18B1 JUMP JUMPDEST PUSH32 0xE4562A10381DEC21B205ED72637E6B1B523BDD0E4D4D50AF5CD23DD4500A211 DUP3 DUP1 DUP6 ADD PUSH1 0x5 SHR DUP3 ADD SWAP3 PUSH1 0x20 DUP7 LT PUSH2 0x1956 JUMPI JUMPDEST ADD PUSH1 0x5 SHR ADD SWAP1 JUMPDEST DUP2 DUP2 LT PUSH2 0x194A JUMPI POP PUSH2 0x184E JUMP JUMPDEST PUSH1 0x0 DUP2 SSTORE PUSH1 0x1 ADD PUSH2 0x193D JUMP JUMPDEST SWAP3 POP DUP2 SWAP3 PUSH2 0x1936 JUMP JUMPDEST PUSH1 0x24 DUP4 PUSH4 0x4E487B71 PUSH1 0xE0 SHL DUP2 MSTORE PUSH1 0x41 PUSH1 0x4 MSTORE REVERT JUMPDEST ADD CALLDATALOAD SWAP1 POP CODESIZE DUP1 PUSH2 0x181F JUMP JUMPDEST PUSH1 0x1B DUP9 MSTORE PUSH32 0x3AD8AA4F87544323A9D1E5DD902F40C356527A7955687113DB5F9A85AD579DC1 SWAP3 POP SWAP1 PUSH1 0x1F NOT DUP5 AND DUP9 JUMPDEST DUP2 DUP2 LT PUSH2 0x19EB JUMPI POP SWAP1 DUP5 PUSH1 0x1 SWAP6 SWAP5 SWAP4 SWAP3 LT PUSH2 0x19D1 JUMPI JUMPDEST POP POP POP DUP2 SHL ADD PUSH1 0x1B SSTORE PUSH2 0x1835 JUMP JUMPDEST ADD CALLDATALOAD PUSH1 0x0 NOT PUSH1 0x3 DUP5 SWAP1 SHL PUSH1 0xF8 AND SHR NOT AND SWAP1 SSTORE CODESIZE DUP1 DUP1 PUSH2 0x19C3 JUMP JUMPDEST SWAP2 SWAP4 PUSH1 0x20 PUSH1 0x1 DUP2 SWAP3 DUP8 DUP8 ADD CALLDATALOAD DUP2 SSTORE ADD SWAP6 ADD SWAP3 ADD PUSH2 0x19AD JUMP JUMPDEST SWAP1 SWAP2 POP PUSH1 0x1B DUP8 MSTORE PUSH32 0x3AD8AA4F87544323A9D1E5DD902F40C356527A7955687113DB5F9A85AD579DC1 DUP6 DUP1 DUP6 ADD PUSH1 0x5 SHR DUP3 ADD SWAP3 PUSH1 0x20 DUP7 LT PUSH2 0x1A67 JUMPI JUMPDEST SWAP1 DUP6 SWAP5 SWAP4 SWAP3 SWAP2 ADD PUSH1 0x5 SHR ADD SWAP1 JUMPDEST DUP2 DUP2 LT PUSH2 0x1A58 JUMPI POP PUSH2 0x180B JUMP JUMPDEST PUSH1 0x0 DUP2 SSTORE DUP5 SWAP4 POP PUSH1 0x1 ADD PUSH2 0x1A4B JUMP JUMPDEST SWAP3 POP DUP2 SWAP3 PUSH2 0x1A3E JUMP JUMPDEST PUSH1 0x24 DUP6 PUSH4 0x4E487B71 PUSH1 0xE0 SHL DUP2 MSTORE PUSH1 0x41 PUSH1 0x4 MSTORE REVERT JUMPDEST PUSH1 0x64 PUSH1 0x40 MLOAD PUSH3 0x461BCD PUSH1 0xE5 SHL DUP2 MSTORE PUSH1 0x20 PUSH1 0x4 DUP3 ADD MSTORE PUSH1 0x12 PUSH1 0x24 DUP3 ADD MSTORE PUSH32 0x496D6167652055524C20746F6F206C6F6E670000000000000000000000000000 PUSH1 0x44 DUP3 ADD MSTORE REVERT JUMPDEST PUSH1 0x64 PUSH1 0x40 MLOAD PUSH3 0x461BCD PUSH1 0xE5 SHL DUP2 MSTORE PUSH1 0x20 PUSH1 0x4 DUP3 ADD MSTORE PUSH1 0x14 PUSH1 0x24 DUP3 ADD MSTORE PUSH32 0x4465736372697074696F6E20746F6F206C6F6E67000000000000000000000000 PUSH1 0x44 DUP3 ADD MSTORE REVERT JUMPDEST DUP4 DUP1 REVERT JUMPDEST POP CALLVALUE PUSH2 0x28B JUMPI PUSH2 0x8C6 PUSH2 0x8C1 PUSH2 0x1B25 CALLDATASIZE PUSH2 0x2B7F JUMP JUMPDEST SWAP1 PUSH1 0x40 MLOAD SWAP3 PUSH2 0x1B33 DUP5 PUSH2 0x2C81 JUMP JUMPDEST DUP7 DUP5 MSTORE PUSH2 0x8B1 PUSH2 0x8AC DUP5 CALLER PUSH2 0x302C JUMP JUMPDEST POP CALLVALUE PUSH2 0x28B JUMPI DUP1 PUSH1 0x3 NOT CALLDATASIZE ADD SLT PUSH2 0x28B JUMPI PUSH2 0x1B6A PUSH1 0x1 PUSH1 0x1 PUSH1 0xA0 SHL SUB PUSH1 0x10 SLOAD AND CALLER EQ PUSH2 0x3494 JUMP JUMPDEST PUSH1 0x7 SLOAD PUSH1 0xFF DUP2 AND ISZERO PUSH2 0x770 JUMPI PUSH1 0xFF NOT AND PUSH1 0x7 SSTORE PUSH32 0x5DB9EE0A495BF2E6FF9C91A7834C1BA4FDD244A5E8AA4E537BD38AEAE4B073AA PUSH1 0x20 PUSH1 0x40 MLOAD CALLER DUP2 MSTORE LOG1 DUP1 RETURN JUMPDEST POP CALLVALUE PUSH2 0x28B JUMPI DUP1 PUSH1 0x3 NOT CALLDATASIZE ADD SLT PUSH2 0x28B JUMPI PUSH1 0x20 PUSH1 0xC SLOAD PUSH1 0x40 MLOAD SWAP1 DUP2 MSTORE RETURN JUMPDEST POP CALLVALUE PUSH2 0x28B JUMPI PUSH1 0x20 CALLDATASIZE PUSH1 0x3 NOT ADD SLT PUSH2 0x28B JUMPI PUSH1 0x40 PUSH1 0x20 SWAP2 PUSH1 0x1 PUSH1 0x1 PUSH1 0xA0 SHL SUB PUSH2 0x1BEF PUSH2 0x2B25 JUMP JUMPDEST AND DUP2 MSTORE PUSH1 0x19 DUP4 MSTORE KECCAK256 SLOAD PUSH1 0x40 MLOAD SWAP1 DUP2 MSTORE RETURN JUMPDEST POP CALLVALUE PUSH2 0x28B JUMPI PUSH1 0x20 DUP1 PUSH1 0x3 NOT CALLDATASIZE ADD SLT PUSH2 0x5C8 JUMPI PUSH1 0x4 CALLDATALOAD SWAP1 PUSH2 0x1C1F PUSH2 0x3640 JUMP JUMPDEST PUSH2 0x1C27 PUSH2 0x34DF JUMP JUMPDEST PUSH2 0x1C4A PUSH2 0x9DB DUP4 PUSH1 0x0 MSTORE PUSH1 0x2 PUSH1 0x20 MSTORE PUSH1 0x1 PUSH1 0x1 PUSH1 0xA0 SHL SUB PUSH1 0x40 PUSH1 0x0 KECCAK256 SLOAD AND ISZERO ISZERO SWAP1 JUMP JUMPDEST DUP2 DUP4 MSTORE PUSH1 0x14 DUP2 MSTORE PUSH2 0x1C61 PUSH1 0xFF PUSH1 0x40 DUP6 KECCAK256 SLOAD AND PUSH2 0x3AA9 JUMP JUMPDEST DUP2 DUP4 MSTORE PUSH1 0x13 DUP2 MSTORE PUSH1 0x40 DUP4 KECCAK256 SWAP2 PUSH1 0x40 MLOAD SWAP2 PUSH2 0x1C7A DUP4 PUSH2 0x2C65 JUMP JUMPDEST DUP4 SLOAD DUP4 MSTORE PUSH1 0x1 PUSH1 0x1 PUSH1 0xA0 SHL SUB DUP1 PUSH1 0x1 DUP7 ADD SLOAD AND DUP3 DUP6 ADD SWAP1 DUP2 MSTORE PUSH1 0x2 DUP7 ADD SLOAD SWAP5 PUSH1 0x40 DUP2 ADD SWAP6 DUP7 MSTORE PUSH1 0xFF PUSH1 0x5 DUP5 PUSH1 0x3 DUP11 ADD SLOAD AND SWAP9 PUSH1 0x60 DUP5 ADD SWAP10 DUP11 MSTORE PUSH1 0x4 DUP2 ADD SLOAD PUSH1 0x80 DUP6 ADD MSTORE ADD SLOAD AND ISZERO SWAP1 PUSH1 0xA0 DUP3 ISZERO SWAP2 ADD MSTORE PUSH2 0x1F17 JUMPI DUP2 DUP2 MLOAD AND CALLER EQ PUSH2 0x1ED3 JUMPI DUP2 SWAP1 MLOAD AND SWAP4 MLOAD SWAP5 MLOAD AND PUSH2 0x1CE9 DUP4 PUSH2 0x41A4 JUMP JUMPDEST PUSH1 0x40 MLOAD SWAP5 PUSH4 0x70A08231 PUSH1 0xE0 SHL SWAP1 DUP2 DUP8 MSTORE ADDRESS PUSH1 0x4 DUP9 ADD MSTORE DUP4 DUP8 PUSH1 0x24 DUP2 DUP7 GAS STATICCALL SWAP7 DUP8 ISZERO PUSH2 0x160F JUMPI DUP9 SWAP8 PUSH2 0x1EA2 JUMPI JUMPDEST POP PUSH2 0x1D22 SWAP1 ADDRESS CALLER DUP6 PUSH2 0x3695 JUMP JUMPDEST PUSH1 0x40 MLOAD DUP2 DUP2 MSTORE ADDRESS PUSH1 0x4 DUP3 ADD MSTORE DUP4 DUP2 PUSH1 0x24 DUP2 DUP7 GAS STATICCALL DUP1 ISZERO PUSH2 0x160F JUMPI DUP8 SWAP1 DUP10 SWAP1 PUSH2 0x1E71 JUMPI JUMPDEST PUSH2 0x1D4F SWAP3 POP PUSH2 0x3610 JUMP JUMPDEST SWAP6 PUSH1 0xC SLOAD DUP1 DUP9 MUL SWAP1 DUP9 DUP3 DIV EQ DUP9 ISZERO OR ISZERO PUSH2 0x1E5D JUMPI PUSH2 0x2710 PUSH2 0x1D71 SWAP2 DIV DUP9 PUSH2 0x3610 JUMP JUMPDEST DUP1 PUSH2 0x1E4C JUMPI JUMPDEST POP PUSH1 0x40 MLOAD SWAP2 DUP3 MSTORE ADDRESS PUSH1 0x4 DUP4 ADD MSTORE DUP4 DUP3 PUSH1 0x24 DUP2 DUP7 GAS STATICCALL DUP1 ISZERO PUSH2 0x160F JUMPI DUP9 SWAP1 PUSH2 0x1E1D JUMPI JUMPDEST PUSH2 0x1DA3 SWAP3 POP PUSH2 0x3610 JUMP JUMPDEST SWAP2 DUP3 PUSH2 0x1DF1 JUMPI JUMPDEST PUSH2 0x1DB5 DUP5 CALLER DUP8 PUSH2 0x310B JUMP JUMPDEST PUSH1 0x40 MLOAD SWAP6 DUP7 MSTORE DUP6 ADD MSTORE PUSH1 0x40 DUP5 ADD MSTORE PUSH32 0x695C2B5C229B2E096E844E7DFB1515D51431AAD217561E67062E3E0AE7582CE9 PUSH1 0x60 CALLER SWAP5 LOG4 PUSH1 0x1 PUSH1 0x6 SSTORE DUP1 RETURN JUMPDEST PUSH2 0x1DFD DUP4 PUSH1 0x18 SLOAD PUSH2 0x3633 JUMP JUMPDEST PUSH1 0x18 SSTORE DUP2 DUP8 MSTORE PUSH1 0x1A DUP2 MSTORE PUSH1 0x40 DUP8 KECCAK256 PUSH2 0x1E16 DUP5 DUP3 SLOAD PUSH2 0x3633 JUMP JUMPDEST SWAP1 SSTORE PUSH2 0x1DAA JUMP JUMPDEST POP DUP4 DUP3 DUP2 RETURNDATASIZE DUP4 GT PUSH2 0x1E45 JUMPI JUMPDEST PUSH2 0x1E33 DUP2 DUP4 PUSH2 0x2C9D JUMP JUMPDEST DUP2 ADD SUB SLT PUSH2 0x83A JUMPI PUSH2 0x1DA3 SWAP2 MLOAD PUSH2 0x1D99 JUMP JUMPDEST POP RETURNDATASIZE PUSH2 0x1E29 JUMP JUMPDEST PUSH2 0x1E57 SWAP1 DUP8 DUP6 PUSH2 0x3AF4 JUMP JUMPDEST CODESIZE PUSH2 0x1D77 JUMP JUMPDEST PUSH1 0x24 DUP10 PUSH4 0x4E487B71 PUSH1 0xE0 SHL DUP2 MSTORE PUSH1 0x11 PUSH1 0x4 MSTORE REVERT JUMPDEST POP POP DUP4 DUP2 DUP2 RETURNDATASIZE DUP4 GT PUSH2 0x1E9B JUMPI JUMPDEST PUSH2 0x1E88 DUP2 DUP4 PUSH2 0x2C9D JUMP JUMPDEST DUP2 ADD SUB SLT PUSH2 0x83A JUMPI DUP7 PUSH2 0x1D4F SWAP2 MLOAD PUSH2 0x1D45 JUMP JUMPDEST POP RETURNDATASIZE PUSH2 0x1E7E JUMP JUMPDEST SWAP1 SWAP7 POP DUP4 DUP2 DUP2 RETURNDATASIZE DUP4 GT PUSH2 0x1ECC JUMPI JUMPDEST PUSH2 0x1EBA DUP2 DUP4 PUSH2 0x2C9D JUMP JUMPDEST DUP2 ADD SUB SLT PUSH2 0x83A JUMPI MLOAD SWAP6 PUSH2 0x1D22 PUSH2 0x1D15 JUMP JUMPDEST POP RETURNDATASIZE PUSH2 0x1EB0 JUMP JUMPDEST PUSH1 0x64 DUP4 PUSH1 0x40 MLOAD SWAP1 PUSH3 0x461BCD PUSH1 0xE5 SHL DUP3 MSTORE PUSH1 0x4 DUP3 ADD MSTORE PUSH1 0x14 PUSH1 0x24 DUP3 ADD MSTORE PUSH32 0x43616E6E6F7420627579206F776E20746F6B656E000000000000000000000000 PUSH1 0x44 DUP3 ADD MSTORE REVERT JUMPDEST PUSH1 0x64 DUP4 PUSH1 0x40 MLOAD SWAP1 PUSH3 0x461BCD PUSH1 0xE5 SHL DUP3 MSTORE PUSH1 0x4 DUP3 ADD MSTORE PUSH1 0x12 PUSH1 0x24 DUP3 ADD MSTORE PUSH32 0x4C697374696E67206E6F74206163746976650000000000000000000000000000 PUSH1 0x44 DUP3 ADD MSTORE REVERT JUMPDEST POP CALLVALUE PUSH2 0x28B JUMPI PUSH1 0x40 CALLDATASIZE PUSH1 0x3 NOT ADD SLT PUSH2 0x28B JUMPI PUSH2 0x1F75 PUSH2 0x2B25 JUMP JUMPDEST PUSH1 0x24 CALLDATALOAD SWAP1 PUSH1 0x1 PUSH1 0x1 PUSH1 0xA0 SHL SUB SWAP1 PUSH2 0x1F91 DUP3 PUSH1 0x10 SLOAD AND CALLER EQ PUSH2 0x3494 JUMP JUMPDEST PUSH2 0x1F99 PUSH2 0x3640 JUMP JUMPDEST DUP2 DUP2 AND SWAP2 PUSH2 0x1FA8 DUP4 ISZERO ISZERO PUSH2 0x3B5A JUMP JUMPDEST PUSH2 0x1FB3 DUP5 ISZERO ISZERO PUSH2 0x3BA5 JUMP JUMPDEST DUP3 DUP6 MSTORE PUSH1 0x1A PUSH1 0x20 MSTORE DUP4 PUSH1 0x40 DUP7 KECCAK256 SLOAD LT PUSH2 0x201F JUMPI PUSH2 0xD59 DUP5 DUP5 PUSH32 0x9BB58B6694EF0E8A4F1486CE0CED951B4969751CE6137FFE5E5E8ED4896E9A32 SWAP6 DUP9 MSTORE PUSH1 0x1A PUSH1 0x20 MSTORE PUSH1 0x40 DUP9 KECCAK256 PUSH2 0x2003 DUP4 DUP3 SLOAD PUSH2 0x3610 JUMP JUMPDEST SWAP1 SSTORE PUSH2 0x2011 DUP3 PUSH1 0x18 SLOAD PUSH2 0x3610 JUMP JUMPDEST PUSH1 0x18 SSTORE DUP4 PUSH1 0x10 SLOAD AND SWAP1 PUSH2 0x3AF4 JUMP JUMPDEST PUSH1 0x64 PUSH1 0x40 MLOAD PUSH3 0x461BCD PUSH1 0xE5 SHL DUP2 MSTORE PUSH1 0x20 PUSH1 0x4 DUP3 ADD MSTORE PUSH1 0x11 PUSH1 0x24 DUP3 ADD MSTORE PUSH32 0x496E73756666696369656E742066656573000000000000000000000000000000 PUSH1 0x44 DUP3 ADD MSTORE REVERT JUMPDEST POP CALLVALUE PUSH2 0x28B JUMPI PUSH2 0x8C6 PUSH2 0x2075 CALLDATASIZE PUSH2 0x2B7F JUMP JUMPDEST SWAP2 PUSH2 0x2083 PUSH2 0x8AC DUP5 CALLER PUSH2 0x302C JUMP JUMPDEST PUSH2 0x310B JUMP JUMPDEST POP CALLVALUE PUSH2 0x28B JUMPI DUP1 PUSH1 0x3 NOT CALLDATASIZE ADD SLT PUSH2 0x28B JUMPI PUSH1 0x20 PUSH1 0x1 PUSH1 0x1 PUSH1 0xA0 SHL SUB PUSH1 0xA SLOAD AND PUSH1 0x40 MLOAD SWAP1 DUP2 MSTORE RETURN JUMPDEST POP CALLVALUE PUSH2 0x28B JUMPI DUP1 PUSH1 0x3 NOT CALLDATASIZE ADD SLT PUSH2 0x28B JUMPI PUSH1 0x12 SLOAD PUSH1 0x0 NOT DUP2 ADD SWAP2 SWAP1 DUP3 GT PUSH2 0x175F JUMPI PUSH1 0x20 DUP3 PUSH1 0x40 MLOAD SWAP1 DUP2 MSTORE RETURN JUMPDEST POP CALLVALUE PUSH2 0x28B JUMPI PUSH2 0x20EA CALLDATASIZE PUSH2 0x2B7F JUMP JUMPDEST SWAP2 SWAP1 PUSH1 0x1 PUSH1 0x1 PUSH1 0xA0 SHL SUB DUP1 SWAP3 PUSH2 0x2105 DUP3 PUSH1 0x10 SLOAD AND CALLER EQ PUSH2 0x3494 JUMP JUMPDEST PUSH2 0x210D PUSH2 0x3640 JUMP JUMPDEST AND SWAP2 PUSH2 0x211A DUP4 ISZERO ISZERO PUSH2 0x3B5A JUMP JUMPDEST DUP2 AND SWAP3 DUP4 ISZERO PUSH2 0x223D JUMPI PUSH2 0x212E DUP2 ISZERO ISZERO PUSH2 0x3BA5 JUMP JUMPDEST DUP3 DUP6 MSTORE PUSH1 0x20 SWAP2 PUSH1 0x19 DUP4 MSTORE PUSH2 0x214F PUSH1 0x40 DUP8 KECCAK256 SLOAD PUSH1 0x1A DUP6 MSTORE PUSH1 0x40 DUP9 KECCAK256 SLOAD SWAP1 PUSH2 0x3633 JUMP JUMPDEST PUSH1 0x40 MLOAD PUSH4 0x70A08231 PUSH1 0xE0 SHL DUP2 MSTORE ADDRESS PUSH1 0x4 DUP3 ADD MSTORE DUP5 DUP2 PUSH1 0x24 DUP2 DUP10 GAS STATICCALL SWAP1 DUP2 ISZERO PUSH2 0x160F JUMPI DUP5 SWAP1 DUP10 SWAP3 PUSH2 0x220B JUMPI JUMPDEST POP PUSH2 0x2185 SWAP2 SWAP3 PUSH2 0x3633 JUMP JUMPDEST GT PUSH2 0x21C7 JUMPI SWAP1 PUSH2 0x21B8 DUP2 PUSH32 0xACA8FB252CDE442184E5F10E0F2E6E4029E8CD7717CAE63559079610702436AA SWAP5 SWAP4 DUP7 PUSH2 0x3AF4 JUMP JUMPDEST PUSH1 0x40 MLOAD SWAP1 DUP2 MSTORE LOG3 PUSH1 0x1 PUSH1 0x6 SSTORE DUP1 RETURN JUMPDEST PUSH1 0x64 DUP4 PUSH1 0x40 MLOAD SWAP1 PUSH3 0x461BCD PUSH1 0xE5 SHL DUP3 MSTORE PUSH1 0x4 DUP3 ADD MSTORE PUSH1 0x1E PUSH1 0x24 DUP3 ADD MSTORE PUSH32 0x43616E6E6F74207265636F7665722070726F7465637465642066756E64730000 PUSH1 0x44 DUP3 ADD MSTORE REVERT JUMPDEST DUP1 SWAP3 POP DUP7 DUP1 SWAP3 POP RETURNDATASIZE DUP4 GT PUSH2 0x2236 JUMPI JUMPDEST PUSH2 0x2224 DUP2 DUP4 PUSH2 0x2C9D JUMP JUMPDEST DUP2 ADD SUB SLT PUSH2 0x83A JUMPI MLOAD DUP4 PUSH2 0x2185 PUSH2 0x217A JUMP JUMPDEST POP RETURNDATASIZE PUSH2 0x221A JUMP JUMPDEST PUSH1 0x64 PUSH1 0x40 MLOAD PUSH3 0x461BCD PUSH1 0xE5 SHL DUP2 MSTORE PUSH1 0x20 PUSH1 0x4 DUP3 ADD MSTORE PUSH1 0x19 PUSH1 0x24 DUP3 ADD MSTORE PUSH32 0x496E76616C696420726563697069656E74206164647265737300000000000000 PUSH1 0x44 DUP3 ADD MSTORE REVERT JUMPDEST POP CALLVALUE PUSH2 0x28B JUMPI PUSH1 0x40 CALLDATASIZE PUSH1 0x3 NOT ADD SLT PUSH2 0x28B JUMPI PUSH2 0x229B PUSH2 0x2B25 JUMP JUMPDEST SWAP1 PUSH1 0x24 CALLDATALOAD PUSH8 0xFFFFFFFFFFFFFFFF DUP2 GT PUSH2 0x5C8 JUMPI PUSH2 0x22BC SWAP1 CALLDATASIZE SWAP1 PUSH1 0x4 ADD PUSH2 0x2B51 JUMP JUMPDEST SWAP3 PUSH2 0x22C5 PUSH2 0x3640 JUMP JUMPDEST PUSH2 0x22CD PUSH2 0x34DF JUMP JUMPDEST PUSH2 0x22E1 PUSH1 0x1 PUSH1 0x1 PUSH1 0xA0 SHL SUB DUP3 AND ISZERO ISZERO PUSH2 0x357A JUMP JUMPDEST PUSH1 0x12 SLOAD SWAP3 PUSH2 0x22F3 PUSH1 0x9 SLOAD DUP6 GT ISZERO PUSH2 0x35C5 JUMP JUMPDEST DUP5 ISZERO PUSH2 0x2724 JUMPI PUSH2 0x1F4 DUP6 GT PUSH2 0x26E0 JUMPI PUSH2 0x230D CALLDATASIZE DUP7 DUP6 PUSH2 0x2DD2 JUMP JUMPDEST PUSH1 0x20 DUP2 MLOAD SWAP2 ADD KECCAK256 SWAP1 DUP2 DUP2 MSTORE PUSH1 0xE PUSH1 0x20 MSTORE PUSH1 0xFF PUSH1 0x40 DUP3 KECCAK256 SLOAD AND PUSH2 0x269C JUMPI PUSH1 0x1 PUSH1 0x1 PUSH1 0xA0 SHL SUB PUSH1 0xA SLOAD AND PUSH1 0x40 MLOAD PUSH4 0x70A08231 PUSH1 0xE0 SHL DUP2 MSTORE ADDRESS PUSH1 0x4 DUP3 ADD MSTORE PUSH1 0x20 DUP2 PUSH1 0x24 DUP2 DUP6 GAS STATICCALL SWAP1 DUP2 ISZERO PUSH2 0x265D JUMPI DUP4 SWAP2 PUSH2 0x2668 JUMPI JUMPDEST POP PUSH2 0x2373 PUSH1 0x24 SWAP3 PUSH1 0xB SLOAD SWAP1 ADDRESS SWAP1 CALLER SWAP1 PUSH2 0x3695 JUMP JUMPDEST PUSH1 0x20 PUSH1 0x1 PUSH1 0x1 PUSH1 0xA0 SHL SUB PUSH1 0xA SLOAD AND PUSH1 0x40 MLOAD SWAP4 DUP5 DUP1 SWAP3 PUSH4 0x70A08231 PUSH1 0xE0 SHL DUP3 MSTORE ADDRESS PUSH1 0x4 DUP4 ADD MSTORE GAS STATICCALL DUP1 ISZERO PUSH2 0x265D JUMPI DUP4 SWAP1 PUSH2 0x2627 JUMPI JUMPDEST PUSH2 0x23B1 SWAP3 POP PUSH2 0x3610 JUMP JUMPDEST SWAP2 PUSH2 0x23BC DUP7 DUP6 PUSH2 0x381C JUMP JUMPDEST PUSH1 0x1 PUSH1 0x12 SLOAD ADD PUSH1 0x12 SSTORE DUP6 DUP3 MSTORE PUSH1 0xD PUSH1 0x20 MSTORE PUSH1 0x40 DUP3 KECCAK256 PUSH8 0xFFFFFFFFFFFFFFFF DUP9 GT PUSH2 0x195F JUMPI PUSH2 0x23EA DUP2 SLOAD PUSH2 0x2C01 JUMP JUMPDEST PUSH1 0x1F DUP2 GT PUSH2 0x25E2 JUMPI JUMPDEST POP DUP8 DUP4 PUSH1 0x1F DUP3 GT PUSH1 0x1 EQ PUSH2 0x257F JUMPI DUP5 SWAP2 PUSH2 0x2574 JUMPI JUMPDEST POP DUP9 PUSH1 0x1 SHL SWAP1 PUSH1 0x0 NOT DUP11 PUSH1 0x3 SHL SHR NOT AND OR SWAP1 SSTORE JUMPDEST DUP6 DUP3 MSTORE PUSH1 0xF PUSH1 0x20 MSTORE PUSH1 0x40 DUP3 KECCAK256 SWAP1 PUSH1 0xFF NOT SWAP2 PUSH1 0x1 DUP4 DUP3 SLOAD AND OR SWAP1 SSTORE DUP3 MSTORE PUSH1 0xE PUSH1 0x20 MSTORE PUSH1 0x1 PUSH1 0x40 DUP4 KECCAK256 SWAP2 DUP3 SLOAD AND OR SWAP1 SSTORE PUSH2 0x2456 DUP3 PUSH1 0x17 SLOAD PUSH2 0x3633 JUMP JUMPDEST PUSH1 0x17 SSTORE PUSH1 0x1 PUSH1 0x1 PUSH1 0xA0 SHL SUB PUSH1 0xA SLOAD AND DUP2 MSTORE PUSH1 0x19 PUSH1 0x20 MSTORE PUSH1 0x40 DUP2 KECCAK256 PUSH2 0x247B DUP4 DUP3 SLOAD PUSH2 0x3633 JUMP JUMPDEST SWAP1 SSTORE PUSH1 0x1 PUSH1 0x1 PUSH1 0xA0 SHL SUB PUSH1 0x11 SLOAD AND PUSH1 0x12 SLOAD PUSH1 0x0 NOT DUP2 ADD SWAP1 DUP2 GT PUSH2 0x2560 JUMPI DUP2 EXTCODESIZE ISZERO PUSH2 0x15C2 JUMPI DUP3 SWAP2 PUSH1 0x24 DUP4 SWAP3 PUSH1 0x40 MLOAD SWAP5 DUP6 SWAP4 DUP5 SWAP3 PUSH4 0x2AFC7081 PUSH1 0xE2 SHL DUP5 MSTORE PUSH1 0x4 DUP5 ADD MSTORE GAS CALL DUP1 ISZERO PUSH2 0x2555 JUMPI SWAP5 PUSH1 0x1 PUSH1 0x1 PUSH1 0xA0 SHL SUB DUP9 SWAP6 PUSH32 0x5974D77C5DA341F66BB6FB040D92B0C537C5ABF5A19D1F8CA12A591F61B9F72F SWAP6 PUSH1 0x20 SWAP11 SWAP6 PUSH1 0x80 SWAP6 DUP12 SWAP11 PUSH2 0x2546 JUMPI JUMPDEST POP SWAP1 DUP4 PUSH1 0xA SLOAD AND SWAP2 PUSH1 0x40 MLOAD SWAP8 DUP9 SWAP7 PUSH1 0x60 DUP9 MSTORE DUP2 PUSH1 0x60 DUP10 ADD MSTORE DUP9 DUP9 ADD CALLDATACOPY DUP6 DUP11 ADD DUP8 ADD MSTORE DUP12 DUP6 ADD MSTORE PUSH1 0x40 DUP5 ADD MSTORE AND SWAP5 PUSH1 0x1F ADD PUSH1 0x1F NOT AND DUP2 ADD SUB ADD SWAP1 LOG3 PUSH1 0x1 PUSH1 0x6 SSTORE PUSH1 0x40 MLOAD SWAP1 DUP2 MSTORE RETURN JUMPDEST PUSH2 0x254F SWAP1 PUSH2 0x2C3B JUMP JUMPDEST CODESIZE PUSH2 0x24FF JUMP JUMPDEST PUSH1 0x40 MLOAD RETURNDATASIZE DUP5 DUP3 RETURNDATACOPY RETURNDATASIZE SWAP1 REVERT JUMPDEST PUSH1 0x24 DUP4 PUSH4 0x4E487B71 PUSH1 0xE0 SHL DUP2 MSTORE PUSH1 0x11 PUSH1 0x4 MSTORE REVERT JUMPDEST SWAP1 POP DUP7 ADD CALLDATALOAD CODESIZE PUSH2 0x2408 JUMP JUMPDEST DUP3 DUP6 MSTORE PUSH1 0x20 DUP6 KECCAK256 SWAP2 POP DUP10 PUSH1 0x1F NOT DUP2 AND DUP7 JUMPDEST DUP2 DUP2 LT PUSH2 0x25C7 JUMPI POP LT PUSH2 0x25AD JUMPI JUMPDEST POP POP PUSH1 0x1 DUP9 DUP2 SHL ADD SWAP1 SSTORE PUSH2 0x241C JUMP JUMPDEST DUP8 ADD CALLDATALOAD PUSH1 0x0 NOT PUSH1 0x3 DUP12 SWAP1 SHL PUSH1 0xF8 AND SHR NOT AND SWAP1 SSTORE CODESIZE DUP1 PUSH2 0x259E JUMP JUMPDEST DUP11 DUP5 ADD CALLDATALOAD DUP6 SSTORE PUSH1 0x1 SWAP1 SWAP5 ADD SWAP4 PUSH1 0x20 SWAP4 DUP5 ADD SWAP4 DUP14 SWAP4 POP ADD PUSH2 0x2590 JUMP JUMPDEST DUP2 DUP5 MSTORE PUSH1 0x20 DUP5 KECCAK256 PUSH1 0x1F DUP11 ADD PUSH1 0x5 SHR DUP2 ADD SWAP2 PUSH1 0x20 DUP12 LT PUSH2 0x261D JUMPI JUMPDEST PUSH1 0x1F ADD PUSH1 0x5 SHR ADD SWAP1 JUMPDEST DUP2 DUP2 LT PUSH2 0x2612 JUMPI POP PUSH2 0x23F3 JUMP JUMPDEST DUP5 DUP2 SSTORE PUSH1 0x1 ADD PUSH2 0x2605 JUMP JUMPDEST SWAP1 SWAP2 POP DUP2 SWAP1 PUSH2 0x25FC JUMP JUMPDEST POP SWAP1 PUSH1 0x20 DUP2 RETURNDATASIZE PUSH1 0x20 GT PUSH2 0x2655 JUMPI JUMPDEST DUP2 PUSH2 0x2642 PUSH1 0x20 SWAP4 DUP4 PUSH2 0x2C9D JUMP JUMPDEST DUP2 ADD SUB SLT PUSH2 0x15C2 JUMPI SWAP1 PUSH2 0x23B1 SWAP2 MLOAD PUSH2 0x23A7 JUMP JUMPDEST RETURNDATASIZE SWAP2 POP PUSH2 0x2635 JUMP JUMPDEST PUSH1 0x40 MLOAD RETURNDATASIZE DUP6 DUP3 RETURNDATACOPY RETURNDATASIZE SWAP1 REVERT JUMPDEST SWAP1 POP PUSH1 0x20 DUP2 RETURNDATASIZE PUSH1 0x20 GT PUSH2 0x2694 JUMPI JUMPDEST DUP2 PUSH2 0x2683 PUSH1 0x20 SWAP4 DUP4 PUSH2 0x2C9D JUMP JUMPDEST DUP2 ADD SUB SLT PUSH2 0x15C2 JUMPI MLOAD PUSH2 0x2373 PUSH2 0x235F JUMP JUMPDEST RETURNDATASIZE SWAP2 POP PUSH2 0x2676 JUMP JUMPDEST PUSH1 0x64 PUSH1 0x40 MLOAD PUSH3 0x461BCD PUSH1 0xE5 SHL DUP2 MSTORE PUSH1 0x20 PUSH1 0x4 DUP3 ADD MSTORE PUSH1 0x10 PUSH1 0x24 DUP3 ADD MSTORE PUSH32 0x55524920616C7265616479207573656400000000000000000000000000000000 PUSH1 0x44 DUP3 ADD MSTORE REVERT JUMPDEST PUSH1 0x64 PUSH1 0x40 MLOAD PUSH3 0x461BCD PUSH1 0xE5 SHL DUP2 MSTORE PUSH1 0x20 PUSH1 0x4 DUP3 ADD MSTORE PUSH1 0xC PUSH1 0x24 DUP3 ADD MSTORE PUSH32 0x55524920746F6F206C6F6E670000000000000000000000000000000000000000 PUSH1 0x44 DUP3 ADD MSTORE REVERT JUMPDEST PUSH1 0x64 PUSH1 0x40 MLOAD PUSH3 0x461BCD PUSH1 0xE5 SHL DUP2 MSTORE PUSH1 0x20 PUSH1 0x4 DUP3 ADD MSTORE PUSH1 0x13 PUSH1 0x24 DUP3 ADD MSTORE PUSH32 0x5552492063616E6E6F7420626520656D70747900000000000000000000000000 PUSH1 0x44 DUP3 ADD MSTORE REVERT JUMPDEST POP CALLVALUE PUSH2 0x28B JUMPI PUSH1 0x40 CALLDATASIZE PUSH1 0x3 NOT ADD SLT PUSH2 0x28B JUMPI PUSH2 0x2782 PUSH2 0x2B25 JUMP JUMPDEST PUSH1 0x24 CALLDATALOAD SWAP1 PUSH1 0x1 PUSH1 0x1 PUSH1 0xA0 SHL SUB DUP1 DUP1 PUSH2 0x2799 DUP6 PUSH2 0x2EDE JUMP JUMPDEST AND SWAP3 AND SWAP2 DUP1 DUP4 EQ PUSH2 0x288D JUMPI DUP1 CALLER EQ SWAP1 DUP2 ISZERO PUSH2 0x286C JUMPI JUMPDEST POP ISZERO PUSH2 0x2802 JUMPI DUP3 DUP5 MSTORE PUSH1 0x4 PUSH1 0x20 MSTORE PUSH1 0x40 DUP5 KECCAK256 DUP3 PUSH1 0x1 PUSH1 0x1 PUSH1 0xA0 SHL SUB NOT DUP3 SLOAD AND OR SWAP1 SSTORE PUSH2 0x27DA DUP4 PUSH2 0x2EDE JUMP JUMPDEST AND PUSH32 0x8C5BE1E5EBEC7D5BD14F71427D1E84F3DD0314C0F7B2291E5B200AC8C7C3B925 DUP5 DUP1 LOG4 DUP1 RETURN JUMPDEST PUSH1 0x84 PUSH1 0x40 MLOAD PUSH3 0x461BCD PUSH1 0xE5 SHL DUP2 MSTORE PUSH1 0x20 PUSH1 0x4 DUP3 ADD MSTORE PUSH1 0x3D PUSH1 0x24 DUP3 ADD MSTORE PUSH32 0x4552433732313A20617070726F76652063616C6C6572206973206E6F7420746F PUSH1 0x44 DUP3 ADD MSTORE PUSH32 0x6B656E206F776E6572206F7220617070726F76656420666F7220616C6C000000 PUSH1 0x64 DUP3 ADD MSTORE REVERT JUMPDEST SWAP1 POP DUP5 MSTORE PUSH1 0x5 PUSH1 0x20 MSTORE PUSH1 0x40 DUP5 KECCAK256 CALLER DUP6 MSTORE PUSH1 0x20 MSTORE PUSH1 0xFF PUSH1 0x40 DUP6 KECCAK256 SLOAD AND CODESIZE PUSH2 0x27AF JUMP JUMPDEST PUSH1 0x84 PUSH1 0x40 MLOAD PUSH3 0x461BCD PUSH1 0xE5 SHL DUP2 MSTORE PUSH1 0x20 PUSH1 0x4 DUP3 ADD MSTORE PUSH1 0x21 PUSH1 0x24 DUP3 ADD MSTORE PUSH32 0x4552433732313A20617070726F76616C20746F2063757272656E74206F776E65 PUSH1 0x44 DUP3 ADD MSTORE PUSH32 0x7200000000000000000000000000000000000000000000000000000000000000 PUSH1 0x64 DUP3 ADD MSTORE REVERT JUMPDEST POP CALLVALUE PUSH2 0x28B JUMPI PUSH1 0x20 CALLDATASIZE PUSH1 0x3 NOT ADD SLT PUSH2 0x28B JUMPI PUSH1 0x20 PUSH2 0x1693 PUSH1 0x4 CALLDATALOAD PUSH2 0x2F03 JUMP JUMPDEST POP CALLVALUE PUSH2 0x28B JUMPI DUP1 PUSH1 0x3 NOT CALLDATASIZE ADD SLT PUSH2 0x28B JUMPI PUSH1 0x40 MLOAD SWAP1 DUP1 DUP1 SLOAD PUSH2 0x2937 DUP2 PUSH2 0x2C01 JUMP JUMPDEST DUP1 DUP6 MSTORE SWAP2 PUSH1 0x1 SWAP2 DUP1 DUP4 AND SWAP1 DUP2 ISZERO PUSH2 0x29BB JUMPI POP PUSH1 0x1 EQ PUSH2 0x2961 JUMPI JUMPDEST PUSH2 0x523 DUP6 PUSH2 0x60A DUP2 DUP8 SUB DUP3 PUSH2 0x2C9D JUMP JUMPDEST DUP1 DUP1 SWAP5 POP MSTORE PUSH32 0x290DECD9548B62A8D60345A988386FC84BA6BC95484008F6362F93160EF3E563 JUMPDEST DUP3 DUP5 LT PUSH2 0x29A3 JUMPI POP POP POP DUP2 ADD PUSH1 0x20 ADD PUSH2 0x60A DUP3 PUSH2 0x523 PUSH2 0x2951 JUMP JUMPDEST DUP1 SLOAD PUSH1 0x20 DUP6 DUP8 ADD DUP2 ADD SWAP2 SWAP1 SWAP2 MSTORE SWAP1 SWAP4 ADD SWAP3 DUP2 ADD PUSH2 0x2988 JUMP JUMPDEST DUP7 SWAP6 POP PUSH2 0x523 SWAP7 SWAP4 POP PUSH1 0x20 SWAP3 POP PUSH2 0x60A SWAP5 SWAP2 POP PUSH1 0xFF NOT AND DUP3 DUP5 ADD MSTORE ISZERO ISZERO PUSH1 0x5 SHL DUP3 ADD ADD SWAP3 SWAP4 PUSH2 0x2951 JUMP JUMPDEST POP CALLVALUE PUSH2 0x28B JUMPI DUP1 PUSH1 0x3 NOT CALLDATASIZE ADD SLT PUSH2 0x28B JUMPI PUSH1 0x20 PUSH1 0x1 PUSH1 0x1 PUSH1 0xA0 SHL SUB PUSH1 0x10 SLOAD AND PUSH1 0x40 MLOAD SWAP1 DUP2 MSTORE RETURN JUMPDEST SWAP1 POP CALLVALUE PUSH2 0x5C8 JUMPI PUSH1 0x20 CALLDATASIZE PUSH1 0x3 NOT ADD SLT PUSH2 0x5C8 JUMPI PUSH1 0x4 CALLDATALOAD PUSH32 0xFFFFFFFF00000000000000000000000000000000000000000000000000000000 DUP2 AND DUP1 SWAP2 SUB PUSH2 0x15C2 JUMPI PUSH1 0x20 SWAP3 POP PUSH32 0x80AC58CD00000000000000000000000000000000000000000000000000000000 DUP2 EQ SWAP1 DUP2 ISZERO PUSH2 0x2AB3 JUMPI JUMPDEST DUP2 ISZERO PUSH2 0x2A89 JUMPI JUMPDEST POP ISZERO ISZERO DUP2 MSTORE RETURN JUMPDEST PUSH32 0x1FFC9A700000000000000000000000000000000000000000000000000000000 SWAP2 POP EQ CODESIZE PUSH2 0x2A82 JUMP JUMPDEST PUSH32 0x5B5E139F00000000000000000000000000000000000000000000000000000000 DUP2 EQ SWAP2 POP PUSH2 0x2A7B JUMP JUMPDEST PUSH1 0x0 JUMPDEST DUP4 DUP2 LT PUSH2 0x2AF0 JUMPI POP POP PUSH1 0x0 SWAP2 ADD MSTORE JUMP JUMPDEST DUP2 DUP2 ADD MLOAD DUP4 DUP3 ADD MSTORE PUSH1 0x20 ADD PUSH2 0x2AE0 JUMP JUMPDEST SWAP1 PUSH1 0x20 SWAP2 PUSH2 0x2B19 DUP2 MLOAD DUP1 SWAP3 DUP2 DUP6 MSTORE DUP6 DUP1 DUP7 ADD SWAP2 ADD PUSH2 0x2ADD JUMP JUMPDEST PUSH1 0x1F ADD PUSH1 0x1F NOT AND ADD ADD SWAP1 JUMP JUMPDEST PUSH1 0x4 CALLDATALOAD SWAP1 PUSH1 0x1 PUSH1 0x1 PUSH1 0xA0 SHL SUB DUP3 AND DUP3 SUB PUSH2 0x83A JUMPI JUMP JUMPDEST PUSH1 0x24 CALLDATALOAD SWAP1 PUSH1 0x1 PUSH1 0x1 PUSH1 0xA0 SHL SUB DUP3 AND DUP3 SUB PUSH2 0x83A JUMPI JUMP JUMPDEST SWAP2 DUP2 PUSH1 0x1F DUP5 ADD SLT ISZERO PUSH2 0x83A JUMPI DUP3 CALLDATALOAD SWAP2 PUSH8 0xFFFFFFFFFFFFFFFF DUP4 GT PUSH2 0x83A JUMPI PUSH1 0x20 DUP4 DUP2 DUP7 ADD SWAP6 ADD ADD GT PUSH2 0x83A JUMPI JUMP JUMPDEST PUSH1 0x60 SWAP1 PUSH1 0x3 NOT ADD SLT PUSH2 0x83A JUMPI PUSH1 0x1 PUSH1 0x1 PUSH1 0xA0 SHL SUB SWAP1 PUSH1 0x4 CALLDATALOAD DUP3 DUP2 AND DUP2 SUB PUSH2 0x83A JUMPI SWAP2 PUSH1 0x24 CALLDATALOAD SWAP1 DUP2 AND DUP2 SUB PUSH2 0x83A JUMPI SWAP1 PUSH1 0x44 CALLDATALOAD SWAP1 JUMP JUMPDEST PUSH1 0x15 SLOAD DUP2 LT ISZERO PUSH2 0x2BEB JUMPI PUSH1 0x15 PUSH1 0x0 MSTORE PUSH32 0x55F448FDEA98C4D29EB340757EF0A66CD03DBB9538908A6A81D96026B71EC475 ADD SWAP1 PUSH1 0x0 SWAP1 JUMP JUMPDEST PUSH4 0x4E487B71 PUSH1 0xE0 SHL PUSH1 0x0 MSTORE PUSH1 0x32 PUSH1 0x4 MSTORE PUSH1 0x24 PUSH1 0x0 REVERT JUMPDEST SWAP1 PUSH1 0x1 DUP3 DUP2 SHR SWAP3 AND DUP1 ISZERO PUSH2 0x2C31 JUMPI JUMPDEST PUSH1 0x20 DUP4 LT EQ PUSH2 0x2C1B JUMPI JUMP JUMPDEST PUSH4 0x4E487B71 PUSH1 0xE0 SHL PUSH1 0x0 MSTORE PUSH1 0x22 PUSH1 0x4 MSTORE PUSH1 0x24 PUSH1 0x0 REVERT JUMPDEST SWAP2 PUSH1 0x7F AND SWAP2 PUSH2 0x2C10 JUMP JUMPDEST PUSH8 0xFFFFFFFFFFFFFFFF DUP2 GT PUSH2 0x2C4F JUMPI PUSH1 0x40 MSTORE JUMP JUMPDEST PUSH4 0x4E487B71 PUSH1 0xE0 SHL PUSH1 0x0 MSTORE PUSH1 0x41 PUSH1 0x4 MSTORE PUSH1 0x24 PUSH1 0x0 REVERT JUMPDEST PUSH1 0xC0 DUP2 ADD SWAP1 DUP2 LT PUSH8 0xFFFFFFFFFFFFFFFF DUP3 GT OR PUSH2 0x2C4F JUMPI PUSH1 0x40 MSTORE JUMP JUMPDEST PUSH1 0x20 DUP2 ADD SWAP1 DUP2 LT PUSH8 0xFFFFFFFFFFFFFFFF DUP3 GT OR PUSH2 0x2C4F JUMPI PUSH1 0x40 MSTORE JUMP JUMPDEST SWAP1 PUSH1 0x1F DUP1 NOT SWAP2 ADD AND DUP2 ADD SWAP1 DUP2 LT PUSH8 0xFFFFFFFFFFFFFFFF DUP3 GT OR PUSH2 0x2C4F JUMPI PUSH1 0x40 MSTORE JUMP JUMPDEST SWAP1 PUSH1 0x40 MLOAD SWAP2 DUP3 PUSH1 0x0 DUP3 SLOAD SWAP3 PUSH2 0x2CD3 DUP5 PUSH2 0x2C01 JUMP JUMPDEST SWAP1 DUP2 DUP5 MSTORE PUSH1 0x1 SWAP5 DUP6 DUP2 AND SWAP1 DUP2 PUSH1 0x0 EQ PUSH2 0x2D42 JUMPI POP PUSH1 0x1 EQ PUSH2 0x2CFF JUMPI JUMPDEST POP POP PUSH2 0x2CFD SWAP3 POP SUB DUP4 PUSH2 0x2C9D JUMP JUMPDEST JUMP JUMPDEST SWAP1 SWAP4 SWAP2 POP PUSH1 0x0 MSTORE PUSH1 0x20 SWAP1 DUP2 PUSH1 0x0 KECCAK256 SWAP4 PUSH1 0x0 SWAP2 JUMPDEST DUP2 DUP4 LT PUSH2 0x2D2A JUMPI POP POP PUSH2 0x2CFD SWAP4 POP DUP3 ADD ADD CODESIZE DUP1 PUSH2 0x2CEF JUMP JUMPDEST DUP6 SLOAD DUP9 DUP5 ADD DUP6 ADD MSTORE SWAP5 DUP6 ADD SWAP5 DUP8 SWAP5 POP SWAP2 DUP4 ADD SWAP2 PUSH2 0x2D12 JUMP JUMPDEST SWAP2 POP POP PUSH2 0x2CFD SWAP5 POP PUSH1 0x20 SWAP3 POP PUSH1 0xFF NOT AND DUP3 DUP5 ADD MSTORE ISZERO ISZERO PUSH1 0x5 SHL DUP3 ADD ADD CODESIZE DUP1 PUSH2 0x2CEF JUMP JUMPDEST PUSH1 0x40 SWAP1 PUSH1 0x3 NOT ADD SLT PUSH2 0x83A JUMPI PUSH1 0x4 CALLDATALOAD SWAP1 PUSH1 0x24 CALLDATALOAD SWAP1 JUMP JUMPDEST PUSH1 0x20 SWAP1 DUP2 PUSH1 0x40 DUP2 DUP4 ADD SWAP3 DUP3 DUP2 MSTORE DUP6 MLOAD DUP1 SWAP5 MSTORE ADD SWAP4 ADD SWAP2 PUSH1 0x0 JUMPDEST DUP3 DUP2 LT PUSH2 0x2DA2 JUMPI POP POP POP POP SWAP1 JUMP JUMPDEST DUP4 MLOAD DUP6 MSTORE SWAP4 DUP2 ADD SWAP4 SWAP3 DUP2 ADD SWAP3 PUSH1 0x1 ADD PUSH2 0x2D94 JUMP JUMPDEST PUSH8 0xFFFFFFFFFFFFFFFF DUP2 GT PUSH2 0x2C4F JUMPI PUSH1 0x1F ADD PUSH1 0x1F NOT AND PUSH1 0x20 ADD SWAP1 JUMP JUMPDEST SWAP3 SWAP2 SWAP3 PUSH2 0x2DDE DUP3 PUSH2 0x2DB6 JUMP JUMPDEST SWAP2 PUSH2 0x2DEC PUSH1 0x40 MLOAD SWAP4 DUP5 PUSH2 0x2C9D JUMP JUMPDEST DUP3 SWAP5 DUP2 DUP5 MSTORE DUP2 DUP4 ADD GT PUSH2 0x83A JUMPI DUP3 DUP2 PUSH1 0x20 SWAP4 DUP5 PUSH1 0x0 SWAP7 ADD CALLDATACOPY ADD ADD MSTORE JUMP JUMPDEST PUSH1 0x1 PUSH1 0x1 PUSH1 0xA0 SHL SUB AND DUP1 ISZERO PUSH2 0x2E29 JUMPI PUSH1 0x0 MSTORE PUSH1 0x3 PUSH1 0x20 MSTORE PUSH1 0x40 PUSH1 0x0 KECCAK256 SLOAD SWAP1 JUMP JUMPDEST PUSH1 0x84 PUSH1 0x40 MLOAD PUSH3 0x461BCD PUSH1 0xE5 SHL DUP2 MSTORE PUSH1 0x20 PUSH1 0x4 DUP3 ADD MSTORE PUSH1 0x29 PUSH1 0x24 DUP3 ADD MSTORE PUSH32 0x4552433732313A2061646472657373207A65726F206973206E6F742061207661 PUSH1 0x44 DUP3 ADD MSTORE PUSH32 0x6C6964206F776E65720000000000000000000000000000000000000000000000 PUSH1 0x64 DUP3 ADD MSTORE REVERT JUMPDEST ISZERO PUSH2 0x2E9A JUMPI JUMP JUMPDEST PUSH1 0x64 PUSH1 0x40 MLOAD PUSH3 0x461BCD PUSH1 0xE5 SHL DUP2 MSTORE PUSH1 0x20 PUSH1 0x4 DUP3 ADD MSTORE PUSH1 0x18 PUSH1 0x24 DUP3 ADD MSTORE PUSH32 0x4552433732313A20696E76616C696420746F6B656E2049440000000000000000 PUSH1 0x44 DUP3 ADD MSTORE REVERT JUMPDEST PUSH1 0x0 MSTORE PUSH1 0x2 PUSH1 0x20 MSTORE PUSH1 0x1 PUSH1 0x1 PUSH1 0xA0 SHL SUB PUSH1 0x40 PUSH1 0x0 KECCAK256 SLOAD AND PUSH2 0x2F00 DUP2 ISZERO ISZERO PUSH2 0x2E93 JUMP JUMPDEST SWAP1 JUMP JUMPDEST PUSH2 0x2F2B PUSH2 0x2F26 DUP3 PUSH1 0x0 MSTORE PUSH1 0x2 PUSH1 0x20 MSTORE PUSH1 0x1 PUSH1 0x1 PUSH1 0xA0 SHL SUB PUSH1 0x40 PUSH1 0x0 KECCAK256 SLOAD AND ISZERO ISZERO SWAP1 JUMP JUMPDEST PUSH2 0x2E93 JUMP JUMPDEST PUSH1 0x0 MSTORE PUSH1 0x4 PUSH1 0x20 MSTORE PUSH1 0x1 PUSH1 0x1 PUSH1 0xA0 SHL SUB PUSH1 0x40 PUSH1 0x0 KECCAK256 SLOAD AND SWAP1 JUMP JUMPDEST ISZERO PUSH2 0x2F4C JUMPI JUMP JUMPDEST PUSH1 0x84 PUSH1 0x40 MLOAD PUSH3 0x461BCD PUSH1 0xE5 SHL DUP2 MSTORE PUSH1 0x20 PUSH1 0x4 DUP3 ADD MSTORE PUSH1 0x2D PUSH1 0x24 DUP3 ADD MSTORE PUSH32 0x4552433732313A2063616C6C6572206973206E6F7420746F6B656E206F776E65 PUSH1 0x44 DUP3 ADD MSTORE PUSH32 0x72206F7220617070726F76656400000000000000000000000000000000000000 PUSH1 0x64 DUP3 ADD MSTORE REVERT JUMPDEST ISZERO PUSH2 0x2FBD JUMPI JUMP JUMPDEST PUSH1 0x40 MLOAD PUSH3 0x461BCD PUSH1 0xE5 SHL DUP2 MSTORE PUSH1 0x20 PUSH1 0x4 DUP3 ADD MSTORE PUSH1 0x32 PUSH1 0x24 DUP3 ADD MSTORE PUSH32 0x4552433732313A207472616E7366657220746F206E6F6E204552433732315265 PUSH1 0x44 DUP3 ADD MSTORE PUSH32 0x63656976657220696D706C656D656E7465720000000000000000000000000000 PUSH1 0x64 DUP3 ADD MSTORE PUSH1 0x84 SWAP1 REVERT JUMPDEST SUB SWAP1 REVERT JUMPDEST SWAP1 PUSH1 0x1 PUSH1 0x1 PUSH1 0xA0 SHL SUB DUP1 DUP1 PUSH2 0x3040 DUP5 PUSH2 0x2EDE JUMP JUMPDEST AND SWAP4 AND SWAP2 DUP4 DUP4 EQ SWAP4 DUP5 ISZERO PUSH2 0x3073 JUMPI JUMPDEST POP DUP4 ISZERO PUSH2 0x305D JUMPI JUMPDEST POP POP POP SWAP1 JUMP JUMPDEST PUSH2 0x3069 SWAP2 SWAP3 SWAP4 POP PUSH2 0x2F03 JUMP JUMPDEST AND EQ CODESIZE DUP1 DUP1 PUSH2 0x3057 JUMP JUMPDEST SWAP1 SWAP4 POP PUSH1 0x0 MSTORE PUSH1 0x5 PUSH1 0x20 MSTORE PUSH1 0x40 PUSH1 0x0 KECCAK256 DUP3 PUSH1 0x0 MSTORE PUSH1 0x20 MSTORE PUSH1 0xFF PUSH1 0x40 PUSH1 0x0 KECCAK256 SLOAD AND SWAP3 CODESIZE PUSH2 0x304F JUMP JUMPDEST ISZERO PUSH2 0x30A1 JUMPI JUMP JUMPDEST PUSH1 0x84 PUSH1 0x40 MLOAD PUSH3 0x461BCD PUSH1 0xE5 SHL DUP2 MSTORE PUSH1 0x20 PUSH1 0x4 DUP3 ADD MSTORE PUSH1 0x25 PUSH1 0x24 DUP3 ADD MSTORE PUSH32 0x4552433732313A207472616E736665722066726F6D20696E636F727265637420 PUSH1 0x44 DUP3 ADD MSTORE PUSH32 0x6F776E6572000000000000000000000000000000000000000000000000000000 PUSH1 0x64 DUP3 ADD MSTORE REVERT JUMPDEST SWAP1 PUSH2 0x3133 SWAP2 PUSH2 0x3119 DUP5 PUSH2 0x2EDE JUMP JUMPDEST SWAP2 PUSH1 0x1 PUSH1 0x1 PUSH1 0xA0 SHL SUB SWAP4 DUP5 SWAP4 DUP5 DUP1 SWAP5 AND SWAP5 DUP6 SWAP2 AND EQ PUSH2 0x309A JUMP JUMPDEST AND SWAP2 DUP3 ISZERO PUSH2 0x3224 JUMPI DUP2 PUSH2 0x315E SWAP2 DUP2 ISZERO ISZERO DUP1 PUSH2 0x320C JUMPI JUMPDEST PUSH2 0x31D7 JUMPI JUMPDEST PUSH2 0x3157 DUP7 PUSH2 0x2EDE JUMP JUMPDEST AND EQ PUSH2 0x309A JUMP JUMPDEST PUSH32 0xDDF252AD1BE2C89B69C2B068FC378DAA952BA7F163C4A11628F55A4DF523B3EF PUSH1 0x0 DUP5 DUP2 MSTORE PUSH1 0x4 PUSH1 0x20 MSTORE PUSH1 0x40 DUP2 KECCAK256 PUSH1 0x1 PUSH1 0x1 PUSH1 0xA0 SHL SUB NOT SWAP1 DUP2 DUP2 SLOAD AND SWAP1 SSTORE DUP4 DUP3 MSTORE PUSH1 0x3 PUSH1 0x20 MSTORE PUSH1 0x40 DUP3 KECCAK256 PUSH1 0x0 NOT DUP2 SLOAD ADD SWAP1 SSTORE DUP5 DUP3 MSTORE PUSH1 0x40 DUP3 KECCAK256 PUSH1 0x1 DUP2 SLOAD ADD SWAP1 SSTORE DUP6 DUP3 MSTORE PUSH1 0x2 PUSH1 0x20 MSTORE DUP5 PUSH1 0x40 DUP4 KECCAK256 SWAP2 DUP3 SLOAD AND OR SWAP1 SSTORE DUP1 LOG4 JUMP JUMPDEST PUSH2 0x31E0 DUP7 PUSH2 0x41A4 JUMP JUMPDEST DUP2 DUP7 PUSH32 0xBE50BF6D5EBC58E29A68DDDCCDEF1C087A9E6DD728A5C3247051D7FDAD14219B PUSH1 0x0 DUP1 LOG3 PUSH2 0x314E JUMP JUMPDEST POP DUP6 PUSH1 0x0 MSTORE PUSH1 0x14 PUSH1 0x20 MSTORE PUSH1 0xFF PUSH1 0x40 PUSH1 0x0 KECCAK256 SLOAD AND PUSH2 0x3149 JUMP JUMPDEST PUSH1 0x84 PUSH1 0x40 MLOAD PUSH3 0x461BCD PUSH1 0xE5 SHL DUP2 MSTORE PUSH1 0x20 PUSH1 0x4 DUP3 ADD MSTORE PUSH1 0x24 DUP1 DUP3 ADD MSTORE PUSH32 0x4552433732313A207472616E7366657220746F20746865207A65726F20616464 PUSH1 0x44 DUP3 ADD MSTORE PUSH32 0x7265737300000000000000000000000000000000000000000000000000000000 PUSH1 0x64 DUP3 ADD MSTORE REVERT JUMPDEST RETURNDATASIZE ISZERO PUSH2 0x32B8 JUMPI RETURNDATASIZE SWAP1 PUSH2 0x329E DUP3 PUSH2 0x2DB6 JUMP JUMPDEST SWAP2 PUSH2 0x32AC PUSH1 0x40 MLOAD SWAP4 DUP5 PUSH2 0x2C9D JUMP JUMPDEST DUP3 MSTORE RETURNDATASIZE PUSH1 0x0 PUSH1 0x20 DUP5 ADD RETURNDATACOPY JUMP JUMPDEST PUSH1 0x60 SWAP1 JUMP JUMPDEST SWAP1 SWAP2 PUSH1 0x0 SWAP2 DUP1 EXTCODESIZE ISZERO PUSH2 0x342A JUMPI PUSH2 0x3310 PUSH1 0x20 SWAP2 PUSH1 0x1 PUSH1 0x1 PUSH1 0xA0 SHL SUB SWAP4 DUP6 PUSH1 0x40 MLOAD SWAP6 DUP7 DUP1 SWAP6 DUP2 SWAP5 PUSH4 0xA85BD01 PUSH1 0xE1 SHL SWAP12 DUP13 DUP5 MSTORE CALLER PUSH1 0x4 DUP6 ADD MSTORE DUP6 PUSH1 0x24 DUP6 ADD MSTORE PUSH1 0x44 DUP5 ADD MSTORE PUSH1 0x80 PUSH1 0x64 DUP5 ADD MSTORE PUSH1 0x84 DUP4 ADD SWAP1 PUSH2 0x2B00 JUMP JUMPDEST SUB SWAP4 AND GAS CALL SWAP1 DUP3 SWAP1 DUP3 PUSH2 0x33CA JUMPI JUMPDEST POP POP PUSH2 0x33A4 JUMPI PUSH2 0x332C PUSH2 0x328D JUMP JUMPDEST DUP1 MLOAD SWAP1 DUP2 PUSH2 0x339F JUMPI PUSH1 0x40 MLOAD PUSH3 0x461BCD PUSH1 0xE5 SHL DUP2 MSTORE PUSH1 0x20 PUSH1 0x4 DUP3 ADD MSTORE PUSH1 0x32 PUSH1 0x24 DUP3 ADD MSTORE PUSH32 0x4552433732313A207472616E7366657220746F206E6F6E204552433732315265 PUSH1 0x44 DUP3 ADD MSTORE PUSH32 0x63656976657220696D706C656D656E7465720000000000000000000000000000 PUSH1 0x64 DUP3 ADD MSTORE PUSH1 0x84 SWAP1 REVERT JUMPDEST PUSH1 0x20 ADD REVERT JUMPDEST PUSH32 0xFFFFFFFF00000000000000000000000000000000000000000000000000000000 AND EQ SWAP1 JUMP JUMPDEST SWAP1 SWAP2 SWAP3 POP PUSH1 0x20 DUP2 RETURNDATASIZE DUP3 GT PUSH2 0x3422 JUMPI JUMPDEST DUP2 PUSH2 0x33E6 PUSH1 0x20 SWAP4 DUP4 PUSH2 0x2C9D JUMP JUMPDEST DUP2 ADD SUB SLT PUSH2 0x5C8 JUMPI MLOAD SWAP1 PUSH32 0xFFFFFFFF00000000000000000000000000000000000000000000000000000000 DUP3 AND DUP3 SUB PUSH2 0x28B JUMPI POP SWAP1 CODESIZE DUP1 PUSH2 0x331E JUMP JUMPDEST RETURNDATASIZE SWAP2 POP PUSH2 0x33D9 JUMP JUMPDEST POP POP POP POP PUSH1 0x1 SWAP1 JUMP JUMPDEST SWAP2 SWAP3 PUSH1 0x0 SWAP3 SWAP2 SWAP1 DUP2 EXTCODESIZE ISZERO PUSH2 0x348A JUMPI PUSH1 0x20 SWAP2 PUSH2 0x3310 SWAP2 DUP6 PUSH1 0x40 MLOAD SWAP6 DUP7 DUP1 SWAP6 DUP2 SWAP5 PUSH4 0xA85BD01 PUSH1 0xE1 SHL SWAP12 DUP13 DUP5 MSTORE CALLER PUSH1 0x4 DUP6 ADD MSTORE PUSH1 0x1 PUSH1 0x1 PUSH1 0xA0 SHL SUB DUP1 SWAP6 AND PUSH1 0x24 DUP6 ADD MSTORE PUSH1 0x44 DUP5 ADD MSTORE PUSH1 0x80 PUSH1 0x64 DUP5 ADD MSTORE PUSH1 0x84 DUP4 ADD SWAP1 PUSH2 0x2B00 JUMP JUMPDEST POP POP POP POP POP PUSH1 0x1 SWAP1 JUMP JUMPDEST ISZERO PUSH2 0x349B JUMPI JUMP JUMPDEST PUSH1 0x64 PUSH1 0x40 MLOAD PUSH3 0x461BCD PUSH1 0xE5 SHL DUP2 MSTORE PUSH1 0x20 PUSH1 0x4 DUP3 ADD MSTORE PUSH1 0xC PUSH1 0x24 DUP3 ADD MSTORE PUSH32 0x4F6E6C792063726561746F720000000000000000000000000000000000000000 PUSH1 0x44 DUP3 ADD MSTORE REVERT JUMPDEST PUSH1 0xFF PUSH1 0x7 SLOAD AND PUSH2 0x34EB JUMPI JUMP JUMPDEST PUSH1 0x64 PUSH1 0x40 MLOAD PUSH3 0x461BCD PUSH1 0xE5 SHL DUP2 MSTORE PUSH1 0x20 PUSH1 0x4 DUP3 ADD MSTORE PUSH1 0x10 PUSH1 0x24 DUP3 ADD MSTORE PUSH32 0x5061757361626C653A2070617573656400000000000000000000000000000000 PUSH1 0x44 DUP3 ADD MSTORE REVERT JUMPDEST ISZERO PUSH2 0x3536 JUMPI JUMP JUMPDEST PUSH1 0x64 PUSH1 0x40 MLOAD PUSH3 0x461BCD PUSH1 0xE5 SHL DUP2 MSTORE PUSH1 0x20 PUSH1 0x4 DUP3 ADD MSTORE PUSH1 0x16 PUSH1 0x24 DUP3 ADD MSTORE PUSH32 0x5072696365206D75737420626520706F73697469766500000000000000000000 PUSH1 0x44 DUP3 ADD MSTORE REVERT JUMPDEST ISZERO PUSH2 0x3581 JUMPI JUMP JUMPDEST PUSH1 0x64 PUSH1 0x40 MLOAD PUSH3 0x461BCD PUSH1 0xE5 SHL DUP2 MSTORE PUSH1 0x20 PUSH1 0x4 DUP3 ADD MSTORE PUSH1 0x11 PUSH1 0x24 DUP3 ADD MSTORE PUSH32 0x496E76616C696420726563697069656E74000000000000000000000000000000 PUSH1 0x44 DUP3 ADD MSTORE REVERT JUMPDEST ISZERO PUSH2 0x35CC JUMPI JUMP JUMPDEST PUSH1 0x64 PUSH1 0x40 MLOAD PUSH3 0x461BCD PUSH1 0xE5 SHL DUP2 MSTORE PUSH1 0x20 PUSH1 0x4 DUP3 ADD MSTORE PUSH1 0x12 PUSH1 0x24 DUP3 ADD MSTORE PUSH32 0x4D617820737570706C7920726561636865640000000000000000000000000000 PUSH1 0x44 DUP3 ADD MSTORE REVERT JUMPDEST SWAP2 SWAP1 DUP3 SUB SWAP2 DUP3 GT PUSH2 0x361D JUMPI JUMP JUMPDEST PUSH4 0x4E487B71 PUSH1 0xE0 SHL PUSH1 0x0 MSTORE PUSH1 0x11 PUSH1 0x4 MSTORE PUSH1 0x24 PUSH1 0x0 REVERT JUMPDEST SWAP2 SWAP1 DUP3 ADD DUP1 SWAP3 GT PUSH2 0x361D JUMPI JUMP JUMPDEST PUSH1 0x2 PUSH1 0x6 SLOAD EQ PUSH2 0x3651 JUMPI PUSH1 0x2 PUSH1 0x6 SSTORE JUMP JUMPDEST PUSH1 0x64 PUSH1 0x40 MLOAD PUSH3 0x461BCD PUSH1 0xE5 SHL DUP2 MSTORE PUSH1 0x20 PUSH1 0x4 DUP3 ADD MSTORE PUSH1 0x1F PUSH1 0x24 DUP3 ADD MSTORE PUSH32 0x5265656E7472616E637947756172643A207265656E7472616E742063616C6C00 PUSH1 0x44 DUP3 ADD MSTORE REVERT JUMPDEST SWAP3 SWAP1 PUSH1 0x40 MLOAD SWAP3 PUSH32 0x23B872DD00000000000000000000000000000000000000000000000000000000 PUSH1 0x20 DUP6 ADD MSTORE PUSH1 0x1 PUSH1 0x1 PUSH1 0xA0 SHL SUB DUP1 SWAP3 AND PUSH1 0x24 DUP6 ADD MSTORE AND PUSH1 0x44 DUP4 ADD MSTORE PUSH1 0x64 DUP3 ADD MSTORE PUSH1 0x64 DUP2 MSTORE PUSH1 0xA0 DUP2 ADD SWAP2 DUP2 DUP4 LT PUSH8 0xFFFFFFFFFFFFFFFF DUP5 GT OR PUSH2 0x2C4F JUMPI PUSH2 0x2CFD SWAP3 PUSH1 0x40 MSTORE JUMPDEST PUSH1 0x1 PUSH1 0x1 PUSH1 0xA0 SHL SUB AND SWAP1 PUSH1 0x40 MLOAD PUSH1 0x40 DUP2 ADD SWAP1 DUP1 DUP3 LT PUSH8 0xFFFFFFFFFFFFFFFF DUP4 GT OR PUSH2 0x2C4F JUMPI PUSH2 0x3773 SWAP2 PUSH1 0x40 MSTORE PUSH1 0x20 SWAP4 DUP5 DUP3 MSTORE PUSH32 0x5361666545524332303A206C6F772D6C6576656C2063616C6C206661696C6564 DUP6 DUP4 ADD MSTORE PUSH1 0x0 DUP1 DUP6 DUP8 DUP3 SWAP8 MLOAD SWAP2 ADD DUP3 DUP6 GAS CALL PUSH2 0x376D PUSH2 0x328D JUMP JUMPDEST SWAP2 PUSH2 0x397B JUMP JUMPDEST DUP1 MLOAD SWAP2 DUP3 ISZERO SWAP2 DUP5 DUP4 ISZERO PUSH2 0x37F8 JUMPI JUMPDEST POP POP POP SWAP1 POP ISZERO PUSH2 0x378E JUMPI POP JUMP JUMPDEST PUSH1 0x84 SWAP1 PUSH1 0x40 MLOAD SWAP1 PUSH3 0x461BCD PUSH1 0xE5 SHL DUP3 MSTORE PUSH1 0x4 DUP3 ADD MSTORE PUSH1 0x2A PUSH1 0x24 DUP3 ADD MSTORE PUSH32 0x5361666545524332303A204552433230206F7065726174696F6E20646964206E PUSH1 0x44 DUP3 ADD MSTORE PUSH32 0x6F74207375636365656400000000000000000000000000000000000000000000 PUSH1 0x64 DUP3 ADD MSTORE REVERT JUMPDEST SWAP2 SWAP4 DUP2 DUP1 SWAP5 POP ADD SUB SLT PUSH2 0x5C8 JUMPI DUP3 ADD MLOAD SWAP1 DUP2 ISZERO ISZERO DUP3 SUB PUSH2 0x28B JUMPI POP DUP1 CODESIZE DUP1 DUP5 PUSH2 0x3781 JUMP JUMPDEST PUSH1 0x40 MLOAD PUSH2 0x3828 DUP2 PUSH2 0x2C81 JUMP JUMPDEST PUSH1 0x0 SWAP3 DUP4 DUP3 MSTORE PUSH1 0x1 PUSH1 0x1 PUSH1 0xA0 SHL SUB DUP4 AND SWAP3 DUP4 ISZERO PUSH2 0x38EC JUMPI DUP2 PUSH2 0x8C1 SWAP5 PUSH2 0x2CFD SWAP7 PUSH2 0x3871 PUSH2 0x386B DUP5 PUSH1 0x0 MSTORE PUSH1 0x2 PUSH1 0x20 MSTORE PUSH1 0x1 PUSH1 0x1 PUSH1 0xA0 SHL SUB PUSH1 0x40 PUSH1 0x0 KECCAK256 SLOAD AND ISZERO ISZERO SWAP1 JUMP JUMPDEST ISZERO PUSH2 0x3930 JUMP JUMPDEST PUSH2 0x3894 PUSH2 0x386B DUP5 PUSH1 0x0 MSTORE PUSH1 0x2 PUSH1 0x20 MSTORE PUSH1 0x1 PUSH1 0x1 PUSH1 0xA0 SHL SUB PUSH1 0x40 PUSH1 0x0 KECCAK256 SLOAD AND ISZERO ISZERO SWAP1 JUMP JUMPDEST DUP2 DUP2 MSTORE PUSH1 0x3 PUSH1 0x20 MSTORE PUSH1 0x40 DUP2 KECCAK256 PUSH1 0x1 DUP2 SLOAD ADD SWAP1 SSTORE DUP3 DUP2 MSTORE PUSH1 0x2 PUSH1 0x20 MSTORE PUSH1 0x40 DUP2 KECCAK256 DUP3 PUSH1 0x1 PUSH1 0x1 PUSH1 0xA0 SHL SUB NOT DUP3 SLOAD AND OR SWAP1 SSTORE PUSH32 0xDDF252AD1BE2C89B69C2B068FC378DAA952BA7F163C4A11628F55A4DF523B3EF DUP2 DUP1 LOG4 PUSH2 0x32BD JUMP JUMPDEST PUSH1 0x64 PUSH1 0x40 MLOAD PUSH3 0x461BCD PUSH1 0xE5 SHL DUP2 MSTORE PUSH1 0x20 PUSH1 0x4 DUP3 ADD MSTORE PUSH1 0x20 PUSH1 0x24 DUP3 ADD MSTORE PUSH32 0x4552433732313A206D696E7420746F20746865207A65726F2061646472657373 PUSH1 0x44 DUP3 ADD MSTORE REVERT JUMPDEST ISZERO PUSH2 0x3937 JUMPI JUMP JUMPDEST PUSH1 0x64 PUSH1 0x40 MLOAD PUSH3 0x461BCD PUSH1 0xE5 SHL DUP2 MSTORE PUSH1 0x20 PUSH1 0x4 DUP3 ADD MSTORE PUSH1 0x1C PUSH1 0x24 DUP3 ADD MSTORE PUSH32 0x4552433732313A20746F6B656E20616C7265616479206D696E74656400000000 PUSH1 0x44 DUP3 ADD MSTORE REVERT JUMPDEST SWAP2 SWAP3 SWAP1 ISZERO PUSH2 0x39DC JUMPI POP DUP2 MLOAD ISZERO PUSH2 0x398F JUMPI POP SWAP1 JUMP JUMPDEST EXTCODESIZE ISZERO PUSH2 0x3998 JUMPI SWAP1 JUMP JUMPDEST PUSH1 0x64 PUSH1 0x40 MLOAD PUSH3 0x461BCD PUSH1 0xE5 SHL DUP2 MSTORE PUSH1 0x20 PUSH1 0x4 DUP3 ADD MSTORE PUSH1 0x1D PUSH1 0x24 DUP3 ADD MSTORE PUSH32 0x416464726573733A2063616C6C20746F206E6F6E2D636F6E7472616374000000 PUSH1 0x44 DUP3 ADD MSTORE REVERT JUMPDEST DUP3 MLOAD SWAP1 SWAP2 POP ISZERO PUSH2 0x39EF JUMPI POP DUP1 MLOAD SWAP1 PUSH1 0x20 ADD REVERT JUMPDEST PUSH2 0x3028 SWAP1 PUSH1 0x40 MLOAD SWAP2 DUP3 SWAP2 PUSH3 0x461BCD PUSH1 0xE5 SHL DUP4 MSTORE PUSH1 0x20 PUSH1 0x4 DUP5 ADD MSTORE PUSH1 0x24 DUP4 ADD SWAP1 PUSH2 0x2B00 JUMP JUMPDEST ISZERO PUSH2 0x3A1A JUMPI JUMP JUMPDEST PUSH1 0x64 PUSH1 0x40 MLOAD PUSH3 0x461BCD PUSH1 0xE5 SHL DUP2 MSTORE PUSH1 0x20 PUSH1 0x4 DUP3 ADD MSTORE PUSH1 0x14 PUSH1 0x24 DUP3 ADD MSTORE PUSH32 0x546F6B656E20646F6573206E6F74206578697374000000000000000000000000 PUSH1 0x44 DUP3 ADD MSTORE REVERT JUMPDEST ISZERO PUSH2 0x3A65 JUMPI JUMP JUMPDEST PUSH1 0x64 PUSH1 0x40 MLOAD PUSH3 0x461BCD PUSH1 0xE5 SHL DUP2 MSTORE PUSH1 0x20 PUSH1 0x4 DUP3 ADD MSTORE PUSH1 0xF PUSH1 0x24 DUP3 ADD MSTORE PUSH32 0x4E6F7420746F6B656E206F776E65720000000000000000000000000000000000 PUSH1 0x44 DUP3 ADD MSTORE REVERT JUMPDEST ISZERO PUSH2 0x3AB0 JUMPI JUMP JUMPDEST PUSH1 0x64 PUSH1 0x40 MLOAD PUSH3 0x461BCD PUSH1 0xE5 SHL DUP2 MSTORE PUSH1 0x20 PUSH1 0x4 DUP3 ADD MSTORE PUSH1 0x10 PUSH1 0x24 DUP3 ADD MSTORE PUSH32 0x546F6B656E206E6F74206C697374656400000000000000000000000000000000 PUSH1 0x44 DUP3 ADD MSTORE REVERT JUMPDEST SWAP2 PUSH1 0x1 PUSH1 0x1 PUSH1 0xA0 SHL SUB PUSH1 0x40 MLOAD SWAP3 PUSH32 0xA9059CBB00000000000000000000000000000000000000000000000000000000 PUSH1 0x20 DUP6 ADD MSTORE AND PUSH1 0x24 DUP4 ADD MSTORE PUSH1 0x44 DUP3 ADD MSTORE PUSH1 0x44 DUP2 MSTORE PUSH1 0x80 DUP2 ADD SWAP2 DUP2 DUP4 LT PUSH8 0xFFFFFFFFFFFFFFFF DUP5 GT OR PUSH2 0x2C4F JUMPI PUSH2 0x2CFD SWAP3 PUSH1 0x40 MSTORE PUSH2 0x3700 JUMP JUMPDEST ISZERO PUSH2 0x3B61 JUMPI JUMP JUMPDEST PUSH1 0x64 PUSH1 0x40 MLOAD PUSH3 0x461BCD PUSH1 0xE5 SHL DUP2 MSTORE PUSH1 0x20 PUSH1 0x4 DUP3 ADD MSTORE PUSH1 0x15 PUSH1 0x24 DUP3 ADD MSTORE PUSH32 0x496E76616C696420746F6B656E20616464726573730000000000000000000000 PUSH1 0x44 DUP3 ADD MSTORE REVERT JUMPDEST ISZERO PUSH2 0x3BAC JUMPI JUMP JUMPDEST PUSH1 0x64 PUSH1 0x40 MLOAD PUSH3 0x461BCD PUSH1 0xE5 SHL DUP2 MSTORE PUSH1 0x20 PUSH1 0x4 DUP3 ADD MSTORE PUSH1 0x17 PUSH1 0x24 DUP3 ADD MSTORE PUSH32 0x416D6F756E74206D75737420626520706F736974697665000000000000000000 PUSH1 0x44 DUP3 ADD MSTORE REVERT JUMPDEST PUSH8 0xFFFFFFFFFFFFFFFF DUP2 GT PUSH2 0x2C4F JUMPI PUSH1 0x5 SHL PUSH1 0x20 ADD SWAP1 JUMP JUMPDEST PUSH1 0x0 NOT DUP2 EQ PUSH2 0x361D JUMPI PUSH1 0x1 ADD SWAP1 JUMP JUMPDEST DUP1 MLOAD DUP3 LT ISZERO PUSH2 0x2BEB JUMPI PUSH1 0x20 SWAP2 PUSH1 0x5 SHL ADD ADD SWAP1 JUMP JUMPDEST SWAP1 PUSH1 0x15 SLOAD SWAP1 DUP2 DUP4 LT ISZERO PUSH2 0x3D7D JUMPI PUSH2 0x3C56 SWAP2 PUSH2 0x3C47 DUP5 SWAP3 DUP4 PUSH2 0x3633 JUMP JUMPDEST SWAP1 DUP1 DUP3 GT PUSH2 0x3D75 JUMPI JUMPDEST POP PUSH2 0x3610 JUMP JUMPDEST PUSH2 0x3C5F DUP2 PUSH2 0x3BF0 JUMP JUMPDEST SWAP2 PUSH1 0x40 SWAP1 PUSH2 0x3C6F DUP3 MLOAD SWAP5 DUP6 PUSH2 0x2C9D JUMP JUMPDEST DUP3 DUP5 MSTORE PUSH1 0x1F NOT PUSH2 0x3C7E DUP5 PUSH2 0x3BF0 JUMP JUMPDEST ADD PUSH1 0x0 JUMPDEST DUP2 DUP2 LT PUSH2 0x3D36 JUMPI POP POP PUSH1 0x0 JUMPDEST DUP4 DUP2 LT PUSH2 0x3C9C JUMPI POP POP POP POP SWAP1 JUMP JUMPDEST DUP1 PUSH2 0x3CB2 PUSH2 0x3CAD PUSH2 0x3D31 SWAP4 DUP6 PUSH2 0x3633 JUMP JUMPDEST PUSH2 0x2BB4 JUMP JUMPDEST SWAP1 SLOAD PUSH1 0x3 SWAP2 DUP3 SHL SHR PUSH1 0x0 MSTORE PUSH1 0xFF PUSH1 0x5 PUSH1 0x20 PUSH1 0x13 DUP2 MSTORE DUP8 PUSH1 0x0 KECCAK256 SWAP1 DUP9 MLOAD SWAP5 PUSH2 0x3CD8 DUP7 PUSH2 0x2C65 JUMP JUMPDEST DUP3 SLOAD DUP7 MSTORE PUSH1 0x1 PUSH1 0x1 PUSH1 0xA0 SHL SUB SWAP2 DUP3 PUSH1 0x1 DUP6 ADD SLOAD AND SWAP1 DUP8 ADD MSTORE PUSH1 0x2 DUP4 ADD SLOAD DUP11 DUP8 ADD MSTORE DUP3 ADD SLOAD AND PUSH1 0x60 DUP6 ADD MSTORE PUSH1 0x4 DUP2 ADD SLOAD PUSH1 0x80 DUP6 ADD MSTORE ADD SLOAD AND ISZERO ISZERO PUSH1 0xA0 DUP3 ADD MSTORE PUSH2 0x3D20 DUP3 DUP9 PUSH2 0x3C17 JUMP JUMPDEST MSTORE PUSH2 0x3D2B DUP2 DUP8 PUSH2 0x3C17 JUMP JUMPDEST POP PUSH2 0x3C08 JUMP JUMPDEST PUSH2 0x3C8E JUMP JUMPDEST PUSH1 0x20 SWAP1 DUP5 MLOAD PUSH2 0x3D44 DUP2 PUSH2 0x2C65 JUMP JUMPDEST PUSH1 0x0 DUP2 MSTORE DUP3 PUSH1 0x0 DUP2 DUP4 ADD MSTORE PUSH1 0x0 DUP8 DUP4 ADD MSTORE PUSH1 0x0 PUSH1 0x60 DUP4 ADD MSTORE PUSH1 0x0 PUSH1 0x80 DUP4 ADD MSTORE PUSH1 0x0 PUSH1 0xA0 DUP4 ADD MSTORE DUP3 DUP10 ADD ADD MSTORE ADD PUSH2 0x3C82 JUMP JUMPDEST SWAP1 POP CODESIZE PUSH2 0x3C50 JUMP JUMPDEST POP POP POP PUSH1 0x40 MLOAD PUSH2 0x3D8C DUP2 PUSH2 0x2C81 JUMP JUMPDEST PUSH1 0x0 DUP2 MSTORE SWAP1 JUMP JUMPDEST SWAP1 PUSH2 0x3D9D DUP3 PUSH2 0x3BF0 JUMP JUMPDEST PUSH2 0x3DAA PUSH1 0x40 MLOAD SWAP2 DUP3 PUSH2 0x2C9D JUMP JUMPDEST DUP3 DUP2 MSTORE DUP1 SWAP3 PUSH2 0x3DBB PUSH1 0x1F NOT SWAP2 PUSH2 0x3BF0 JUMP JUMPDEST ADD SWAP1 PUSH1 0x20 CALLDATASIZE SWAP2 ADD CALLDATACOPY JUMP JUMPDEST PUSH2 0x3DCE DUP2 PUSH2 0x2E09 JUMP JUMPDEST DUP1 ISZERO PUSH2 0x3E67 JUMPI PUSH2 0x3DDD SWAP1 PUSH2 0x3D93 JUMP JUMPDEST SWAP1 PUSH1 0x0 PUSH1 0x1 SWAP2 PUSH1 0x12 SLOAD SWAP3 JUMPDEST DUP4 DUP2 LT PUSH2 0x3DF6 JUMPI POP POP POP POP SWAP1 JUMP JUMPDEST PUSH2 0x3E16 DUP2 PUSH1 0x0 MSTORE PUSH1 0x2 PUSH1 0x20 MSTORE PUSH1 0x1 PUSH1 0x1 PUSH1 0xA0 SHL SUB PUSH1 0x40 PUSH1 0x0 KECCAK256 SLOAD AND ISZERO ISZERO SWAP1 JUMP JUMPDEST DUP1 PUSH2 0x3E4A JUMPI JUMPDEST PUSH2 0x3E2F JUMPI JUMPDEST PUSH2 0x3E2A SWAP1 PUSH2 0x3C08 JUMP JUMPDEST PUSH2 0x3DE8 JUMP JUMPDEST SWAP2 PUSH2 0x3E42 DUP2 DUP5 PUSH2 0x571 PUSH2 0x3E2A SWAP5 DUP10 PUSH2 0x3C17 JUMP JUMPDEST SWAP3 SWAP1 POP PUSH2 0x3E21 JUMP JUMPDEST POP PUSH2 0x3E54 DUP2 PUSH2 0x2EDE JUMP JUMPDEST PUSH1 0x1 PUSH1 0x1 PUSH1 0xA0 SHL SUB DUP1 DUP5 AND SWAP2 AND EQ PUSH2 0x3E1C JUMP JUMPDEST POP POP PUSH1 0x40 MLOAD PUSH2 0x3E75 DUP2 PUSH2 0x2C81 JUMP JUMPDEST PUSH1 0x0 DUP2 MSTORE PUSH1 0x0 CALLDATASIZE DUP2 CALLDATACOPY SWAP1 JUMP JUMPDEST PUSH2 0x3EA4 PUSH2 0x9DB DUP3 PUSH1 0x0 MSTORE PUSH1 0x2 PUSH1 0x20 MSTORE PUSH1 0x1 PUSH1 0x1 PUSH1 0xA0 SHL SUB PUSH1 0x40 PUSH1 0x0 KECCAK256 SLOAD AND ISZERO ISZERO SWAP1 JUMP JUMPDEST PUSH1 0x0 SWAP1 DUP1 DUP3 MSTORE PUSH1 0x20 SWAP1 PUSH1 0xF DUP3 MSTORE PUSH1 0x40 SWAP3 PUSH1 0xFF DUP5 DUP3 KECCAK256 SLOAD AND PUSH2 0x4161 JUMPI PUSH2 0x3EE2 PUSH2 0x2F26 DUP4 PUSH1 0x0 MSTORE PUSH1 0x2 PUSH1 0x20 MSTORE PUSH1 0x1 PUSH1 0x1 PUSH1 0xA0 SHL SUB PUSH1 0x40 PUSH1 0x0 KECCAK256 SLOAD AND ISZERO ISZERO SWAP1 JUMP JUMPDEST DUP4 MLOAD SWAP2 DUP2 PUSH1 0x8 SLOAD PUSH2 0x3EF2 DUP2 PUSH2 0x2C01 JUMP JUMPDEST DUP1 DUP7 MSTORE DUP6 DUP8 DUP2 ADD SWAP4 PUSH1 0x1 SWAP4 DUP10 DUP6 DUP3 AND SWAP2 DUP3 PUSH1 0x0 EQ PUSH2 0x4146 JUMPI POP POP PUSH1 0x1 EQ PUSH2 0x40EB JUMPI JUMPDEST PUSH2 0x3F20 SWAP3 POP SUB DUP7 PUSH2 0x2C9D JUMP JUMPDEST DUP5 MLOAD ISZERO PUSH2 0x40D4 JUMPI DUP3 DUP4 SWAP2 DUP6 SWAP5 PUSH27 0x184F03E93FF9F4DAA797ED6E38ED64BF6A1F010000000000000000 SWAP1 DUP2 DUP2 LT ISZERO PUSH2 0x40C7 JUMPI JUMPDEST POP POP DUP8 PUSH14 0x4EE2D6D415B85ACEF8100000000 DUP1 DUP6 LT ISZERO PUSH2 0x40B9 JUMPI JUMPDEST POP POP PUSH7 0x2386F26FC10000 DUP1 DUP5 LT ISZERO PUSH2 0x40AA JUMPI JUMPDEST POP PUSH4 0x5F5E100 DUP1 DUP5 LT ISZERO PUSH2 0x409B JUMPI JUMPDEST POP PUSH2 0x2710 DUP1 DUP5 LT ISZERO PUSH2 0x408C JUMPI JUMPDEST POP PUSH1 0x64 DUP4 LT ISZERO PUSH2 0x407C JUMPI JUMPDEST PUSH1 0xA DUP1 SWAP4 LT ISZERO PUSH2 0x4073 JUMPI JUMPDEST SWAP1 DUP2 PUSH1 0x21 DUP7 PUSH2 0x3FDB DUP4 DUP14 SWAP10 ADD PUSH2 0x3FD3 PUSH2 0x3FCA DUP3 PUSH2 0x2DB6 JUMP JUMPDEST SWAP11 MLOAD SWAP11 DUP12 PUSH2 0x2C9D JUMP JUMPDEST DUP1 DUP11 MSTORE PUSH2 0x2DB6 JUMP JUMPDEST DUP9 DUP13 ADD SWAP10 SWAP1 PUSH1 0x1F NOT ADD CALLDATASIZE DUP12 CALLDATACOPY POP DUP8 ADD ADD SWAP1 JUMPDEST PUSH2 0x4030 JUMPI JUMPDEST POP POP POP POP SWAP1 PUSH2 0x4024 PUSH2 0x2F00 SWAP6 SWAP5 SWAP4 SWAP3 PUSH2 0x4015 SWAP8 MLOAD SWAP8 DUP9 SWAP6 MLOAD DUP1 SWAP3 DUP9 DUP9 ADD SWAP1 PUSH2 0x2ADD JUMP JUMPDEST DUP5 ADD SWAP2 MLOAD DUP1 SWAP4 DUP7 DUP5 ADD SWAP1 PUSH2 0x2ADD JUMP JUMPDEST ADD SUB DUP1 DUP5 MSTORE ADD DUP3 PUSH2 0x2C9D JUMP JUMPDEST PUSH1 0x0 NOT ADD SWAP1 DUP4 SWAP1 PUSH32 0x3031323334353637383961626364656600000000000000000000000000000000 DUP3 DUP3 MOD BYTE DUP4 MSTORE8 DIV SWAP2 DUP3 ISZERO PUSH2 0x406E JUMPI SWAP2 SWAP1 DUP3 PUSH2 0x3FED JUMP JUMPDEST PUSH2 0x3FF2 JUMP JUMPDEST DUP1 SWAP5 ADD SWAP4 PUSH2 0x3FB2 JUMP JUMPDEST SWAP4 SWAP2 PUSH1 0x64 PUSH1 0x2 SWAP2 DIV SWAP3 ADD SWAP4 PUSH2 0x3FA7 JUMP JUMPDEST PUSH1 0x4 SWAP2 SWAP6 SWAP4 DIV SWAP3 ADD SWAP4 CODESIZE PUSH2 0x3F9C JUMP JUMPDEST PUSH1 0x8 SWAP2 SWAP6 SWAP4 DIV SWAP3 ADD SWAP4 CODESIZE PUSH2 0x3F8F JUMP JUMPDEST PUSH1 0x10 SWAP2 SWAP6 SWAP4 DIV SWAP3 ADD SWAP4 CODESIZE PUSH2 0x3F80 JUMP JUMPDEST SWAP6 ADD SWAP5 SWAP1 SWAP3 DIV SWAP2 DUP8 CODESIZE PUSH2 0x3F6D JUMP JUMPDEST DUP11 SWAP7 POP DIV SWAP3 POP CODESIZE DUP1 PUSH2 0x3F52 JUMP JUMPDEST POP POP POP SWAP3 SWAP2 POP POP MLOAD SWAP1 PUSH2 0x40E6 DUP3 PUSH2 0x2C81 JUMP JUMPDEST DUP2 MSTORE SWAP1 JUMP JUMPDEST POP POP PUSH1 0x8 DUP6 MSTORE DUP6 DUP8 DUP7 DUP5 PUSH32 0xF3F7A9FE364FAAB93B216DA50A3214154F22A0A2B415B23A84C8169E8B636EE3 JUMPDEST DUP6 DUP4 LT PUSH2 0x412D JUMPI POP POP PUSH2 0x3F20 SWAP4 POP DUP3 ADD ADD PUSH2 0x3F14 JUMP JUMPDEST DUP1 SWAP2 SWAP3 SWAP5 POP SLOAD DUP4 DUP6 DUP13 ADD ADD MSTORE ADD SWAP2 ADD DUP9 SWAP1 DUP5 DUP10 SWAP4 PUSH2 0x4117 JUMP JUMPDEST PUSH1 0xFF NOT AND DUP8 MSTORE PUSH2 0x3F20 SWAP5 ISZERO ISZERO PUSH1 0x5 SHL DUP5 ADD ADD SWAP2 POP PUSH2 0x3F14 SWAP1 POP JUMP JUMPDEST SWAP1 POP PUSH1 0xD PUSH2 0x2F00 SWAP4 SWAP3 MSTORE KECCAK256 PUSH2 0x2CBF JUMP JUMPDEST PUSH1 0x0 MSTORE PUSH1 0xF PUSH1 0x20 MSTORE PUSH1 0xFF PUSH1 0x40 PUSH1 0x0 KECCAK256 SLOAD AND PUSH2 0x4192 JUMPI PUSH1 0x40 MLOAD PUSH2 0x3D8C DUP2 PUSH2 0x2C81 JUMP JUMPDEST PUSH1 0xD PUSH1 0x20 MSTORE PUSH2 0x2F00 PUSH1 0x40 PUSH1 0x0 KECCAK256 PUSH2 0x2CBF JUMP JUMPDEST PUSH1 0x0 SWAP1 DUP1 DUP3 MSTORE PUSH1 0x20 PUSH1 0x14 DUP2 MSTORE PUSH1 0x40 SWAP2 PUSH2 0x41C2 PUSH1 0xFF DUP5 DUP7 KECCAK256 SLOAD AND PUSH2 0x3AA9 JUMP JUMPDEST DUP1 DUP5 MSTORE PUSH1 0x16 DUP3 MSTORE DUP3 DUP5 KECCAK256 SLOAD PUSH1 0x15 SLOAD PUSH1 0x0 NOT SWAP2 SWAP1 DUP3 DUP2 ADD SWAP1 DUP2 GT PUSH2 0x4283 JUMPI PUSH2 0x41E8 SWAP1 PUSH2 0x2BB4 JUMP JUMPDEST SWAP1 SLOAD SWAP1 PUSH1 0x3 SHL SHR PUSH2 0x41FC DUP2 PUSH2 0x11A3 DUP5 PUSH2 0x2BB4 JUMP JUMPDEST DUP7 MSTORE PUSH1 0x16 DUP5 MSTORE DUP5 DUP7 KECCAK256 SSTORE PUSH1 0x15 SLOAD DUP1 ISZERO PUSH2 0x426F JUMPI SWAP1 DUP1 PUSH1 0x16 SWAP5 SWAP4 SWAP3 ADD SWAP1 PUSH2 0x4221 DUP3 PUSH2 0x2BB4 JUMP JUMPDEST SWAP1 SWAP2 DUP3 SLOAD SWAP2 PUSH1 0x3 SHL SHL NOT AND SWAP1 SSTORE PUSH1 0x15 SSTORE DUP5 MSTORE PUSH1 0x13 DUP2 MSTORE DUP4 PUSH1 0x5 DUP5 DUP3 KECCAK256 DUP3 DUP2 SSTORE DUP3 PUSH1 0x1 DUP3 ADD SSTORE DUP3 PUSH1 0x2 DUP3 ADD SSTORE DUP3 PUSH1 0x3 DUP3 ADD SSTORE DUP3 PUSH1 0x4 DUP3 ADD SSTORE ADD SSTORE PUSH1 0x14 DUP2 MSTORE DUP3 DUP5 KECCAK256 PUSH1 0xFF NOT DUP2 SLOAD AND SWAP1 SSTORE MSTORE DUP2 KECCAK256 SSTORE JUMP JUMPDEST PUSH1 0x24 DUP7 PUSH4 0x4E487B71 PUSH1 0xE0 SHL DUP2 MSTORE PUSH1 0x31 PUSH1 0x4 MSTORE REVERT JUMPDEST PUSH1 0x24 DUP8 PUSH4 0x4E487B71 PUSH1 0xE0 SHL DUP2 MSTORE PUSH1 0x11 PUSH1 0x4 MSTORE REVERT INVALID LOG2 PUSH5 0x6970667358 0x22 SLT KECCAK256 PUSH14 0x44880C769D1D4F461F525D988699 BALANCE GT SWAP13 0x22 0x1F SELFBALANCE 0xC8 0xF7 DUP12 0xD7 PUSH16 0x2EA40F96549564736F6C634300081300 CALLER 0x29 0xD 0xEC 0xD9 SLOAD DUP12 PUSH3 0xA8D603 GASLIMIT 0xA9 DUP9 CODESIZE PUSH16 0xC84BA6BC95484008F6362F93160EF3E5 PUSH4 0xF3F7A9FE CALLDATASIZE 0x4F 0xAA 0xB9 EXTCODESIZE 0x21 PUSH14 0xA50A3214154F22A0A2B415B23A84 0xC8 AND SWAP15 DUP12 PUSH4 0x6EE3B10E 0x2D MSTORE PUSH23 0x12073B26EECDFD717E6A320CF44B4AFAC2B0732D9FCBE2 0xB7 STATICCALL 0xC 0xF6 LOG2 PUSH5 0x6970667358 0x22 SLT KECCAK256 LOG3 0xEE 0xA7 DUP2 0x22 PUSH15 0xB5AE24E12B0B88E1B31443CBECB256 0xD0 EXTCODECOPY PUSH2 0xB2C8 0xBD SDIV 0xB9 0xA7 0xD1 NUMBER PUSH5 0x736F6C6343 STOP ADDMOD SGT STOP CALLER "},"methodIdentifiers":{"DEAD_ADDRESS()":"4e6fd6c4","ORDER_TOKEN()":"7f086ed0","admin()":"f851a440","allCollections(uint256)":"167ef495","allCollectionsLength()":"3d759a92","burnAmount()":"486a7e6b","collectionCount()":"d57f966b","collectionInfo(address)":"1f0c602d","collectionsByCreator(address,uint256)":"7c3dc672","createNFTCollection((string,string,string,uint256,address,uint256,uint256,string,string))":"b97d016f","getAllNFTMarketplaces(uint256,uint256,bool)":"0a9fe8d0","getCollectionInfo(address)":"9056a04b","getCollectionsByCreator(address)":"f56b8369","getFilteredCollections(uint256,uint256,address,address,bool)":"a6b90e02","isUrlUsed(string)":"56fb82be","pause()":"8456cb59","paused()":"5c975abb","setBurnAmount(uint256)":"cc43f3d3","setCollectionStatus(address,bool)":"449f5d0a","syncPauseToCollections(uint256,uint256)":"cb7c1390","transferAdmin(address)":"75829def","unpause()":"3f4ba83a","updateMintedCount(uint256)":"abf1c204","usedCollectionUrls(string)":"b7bf7c5c"}}}}}