{
  "_format": "hh-sol-artifact-1",
  "contractName": "EcosystemStaking",
  "sourceName": "contracts/EcosystemStaking.sol",
  "abi": [
    {
      "inputs": [
        {
          "internalType": "address",
          "name": "_stakingToken",
          "type": "address"
        },
        {
          "internalType": "address",
          "name": "_rewardToken",
          "type": "address"
        },
        {
          "internalType": "uint256",
          "name": "_rewardPerBlock",
          "type": "uint256"
        },
        {
          "internalType": "uint256",
          "name": "_startBlock",
          "type": "uint256"
        },
        {
          "internalType": "uint256",
          "name": "_endBlock",
          "type": "uint256"
        },
        {
          "internalType": "address",
          "name": "_creator",
          "type": "address"
        }
      ],
      "stateMutability": "nonpayable",
      "type": "constructor"
    },
    {
      "anonymous": false,
      "inputs": [
        {
          "indexed": true,
          "internalType": "address",
          "name": "user",
          "type": "address"
        },
        {
          "indexed": false,
          "internalType": "uint256",
          "name": "amount",
          "type": "uint256"
        }
      ],
      "name": "EmergencyWithdraw",
      "type": "event"
    },
    {
      "anonymous": false,
      "inputs": [
        {
          "indexed": false,
          "internalType": "uint256",
          "name": "lastRewardBlock",
          "type": "uint256"
        },
        {
          "indexed": false,
          "internalType": "uint256",
          "name": "accRewardPerShare",
          "type": "uint256"
        }
      ],
      "name": "PoolUpdated",
      "type": "event"
    },
    {
      "anonymous": false,
      "inputs": [
        {
          "indexed": true,
          "internalType": "address",
          "name": "user",
          "type": "address"
        },
        {
          "indexed": false,
          "internalType": "uint256",
          "name": "amount",
          "type": "uint256"
        }
      ],
      "name": "RewardClaimed",
      "type": "event"
    },
    {
      "anonymous": false,
      "inputs": [
        {
          "indexed": true,
          "internalType": "address",
          "name": "user",
          "type": "address"
        },
        {
          "indexed": false,
          "internalType": "uint256",
          "name": "amount",
          "type": "uint256"
        }
      ],
      "name": "Staked",
      "type": "event"
    },
    {
      "anonymous": false,
      "inputs": [
        {
          "indexed": true,
          "internalType": "address",
          "name": "user",
          "type": "address"
        },
        {
          "indexed": false,
          "internalType": "uint256",
          "name": "amount",
          "type": "uint256"
        }
      ],
      "name": "Unstaked",
      "type": "event"
    },
    {
      "inputs": [],
      "name": "accRewardPerShare",
      "outputs": [
        {
          "internalType": "uint256",
          "name": "",
          "type": "uint256"
        }
      ],
      "stateMutability": "view",
      "type": "function"
    },
    {
      "inputs": [],
      "name": "claimReward",
      "outputs": [],
      "stateMutability": "nonpayable",
      "type": "function"
    },
    {
      "inputs": [],
      "name": "creator",
      "outputs": [
        {
          "internalType": "address",
          "name": "",
          "type": "address"
        }
      ],
      "stateMutability": "view",
      "type": "function"
    },
    {
      "inputs": [],
      "name": "emergencyWithdraw",
      "outputs": [],
      "stateMutability": "nonpayable",
      "type": "function"
    },
    {
      "inputs": [],
      "name": "endBlock",
      "outputs": [
        {
          "internalType": "uint256",
          "name": "",
          "type": "uint256"
        }
      ],
      "stateMutability": "view",
      "type": "function"
    },
    {
      "inputs": [],
      "name": "factory",
      "outputs": [
        {
          "internalType": "address",
          "name": "",
          "type": "address"
        }
      ],
      "stateMutability": "view",
      "type": "function"
    },
    {
      "inputs": [
        {
          "internalType": "uint256",
          "name": "_from",
          "type": "uint256"
        },
        {
          "internalType": "uint256",
          "name": "_to",
          "type": "uint256"
        }
      ],
      "name": "getMultiplier",
      "outputs": [
        {
          "internalType": "uint256",
          "name": "",
          "type": "uint256"
        }
      ],
      "stateMutability": "view",
      "type": "function"
    },
    {
      "inputs": [],
      "name": "getPoolInfo",
      "outputs": [
        {
          "internalType": "address",
          "name": "_stakingToken",
          "type": "address"
        },
        {
          "internalType": "address",
          "name": "_rewardToken",
          "type": "address"
        },
        {
          "internalType": "uint256",
          "name": "_rewardPerBlock",
          "type": "uint256"
        },
        {
          "internalType": "uint256",
          "name": "_startBlock",
          "type": "uint256"
        },
        {
          "internalType": "uint256",
          "name": "_endBlock",
          "type": "uint256"
        },
        {
          "internalType": "uint256",
          "name": "_totalStaked",
          "type": "uint256"
        },
        {
          "internalType": "uint256",
          "name": "_lastRewardBlock",
          "type": "uint256"
        },
        {
          "internalType": "address",
          "name": "_creator",
          "type": "address"
        }
      ],
      "stateMutability": "view",
      "type": "function"
    },
    {
      "inputs": [],
      "name": "getPoolMetadata",
      "outputs": [
        {
          "internalType": "string",
          "name": "poolName",
          "type": "string"
        },
        {
          "internalType": "string",
          "name": "poolDescription",
          "type": "string"
        },
        {
          "internalType": "string",
          "name": "stakingSymbol",
          "type": "string"
        },
        {
          "internalType": "string",
          "name": "rewardSymbol",
          "type": "string"
        },
        {
          "internalType": "string",
          "name": "stakingLogo",
          "type": "string"
        },
        {
          "internalType": "string",
          "name": "rewardLogo",
          "type": "string"
        }
      ],
      "stateMutability": "view",
      "type": "function"
    },
    {
      "inputs": [],
      "name": "lastRewardBlock",
      "outputs": [
        {
          "internalType": "uint256",
          "name": "",
          "type": "uint256"
        }
      ],
      "stateMutability": "view",
      "type": "function"
    },
    {
      "inputs": [
        {
          "internalType": "address",
          "name": "_user",
          "type": "address"
        }
      ],
      "name": "pendingReward",
      "outputs": [
        {
          "internalType": "uint256",
          "name": "",
          "type": "uint256"
        }
      ],
      "stateMutability": "view",
      "type": "function"
    },
    {
      "inputs": [],
      "name": "rewardPerBlock",
      "outputs": [
        {
          "internalType": "uint256",
          "name": "",
          "type": "uint256"
        }
      ],
      "stateMutability": "view",
      "type": "function"
    },
    {
      "inputs": [],
      "name": "rewardToken",
      "outputs": [
        {
          "internalType": "contract IERC20",
          "name": "",
          "type": "address"
        }
      ],
      "stateMutability": "view",
      "type": "function"
    },
    {
      "inputs": [
        {
          "internalType": "string",
          "name": "_poolName",
          "type": "string"
        },
        {
          "internalType": "string",
          "name": "_poolDescription",
          "type": "string"
        },
        {
          "internalType": "string",
          "name": "_stakingSymbol",
          "type": "string"
        },
        {
          "internalType": "string",
          "name": "_rewardSymbol",
          "type": "string"
        },
        {
          "internalType": "string",
          "name": "_stakingLogo",
          "type": "string"
        },
        {
          "internalType": "string",
          "name": "_rewardLogo",
          "type": "string"
        }
      ],
      "name": "setMetadata",
      "outputs": [],
      "stateMutability": "nonpayable",
      "type": "function"
    },
    {
      "inputs": [
        {
          "internalType": "uint256",
          "name": "_amount",
          "type": "uint256"
        }
      ],
      "name": "stake",
      "outputs": [],
      "stateMutability": "nonpayable",
      "type": "function"
    },
    {
      "inputs": [],
      "name": "stakingToken",
      "outputs": [
        {
          "internalType": "contract IERC20",
          "name": "",
          "type": "address"
        }
      ],
      "stateMutability": "view",
      "type": "function"
    },
    {
      "inputs": [],
      "name": "startBlock",
      "outputs": [
        {
          "internalType": "uint256",
          "name": "",
          "type": "uint256"
        }
      ],
      "stateMutability": "view",
      "type": "function"
    },
    {
      "inputs": [],
      "name": "totalRewardDebt",
      "outputs": [
        {
          "internalType": "uint256",
          "name": "",
          "type": "uint256"
        }
      ],
      "stateMutability": "view",
      "type": "function"
    },
    {
      "inputs": [],
      "name": "totalStaked",
      "outputs": [
        {
          "internalType": "uint256",
          "name": "",
          "type": "uint256"
        }
      ],
      "stateMutability": "view",
      "type": "function"
    },
    {
      "inputs": [
        {
          "internalType": "uint256",
          "name": "_amount",
          "type": "uint256"
        }
      ],
      "name": "unstake",
      "outputs": [],
      "stateMutability": "nonpayable",
      "type": "function"
    },
    {
      "inputs": [],
      "name": "updatePool",
      "outputs": [],
      "stateMutability": "nonpayable",
      "type": "function"
    },
    {
      "inputs": [
        {
          "internalType": "address",
          "name": "",
          "type": "address"
        }
      ],
      "name": "userInfo",
      "outputs": [
        {
          "internalType": "uint256",
          "name": "amount",
          "type": "uint256"
        },
        {
          "internalType": "uint256",
          "name": "rewardDebt",
          "type": "uint256"
        },
        {
          "internalType": "uint256",
          "name": "pendingRewards",
          "type": "uint256"
        }
      ],
      "stateMutability": "view",
      "type": "function"
    }
  ],
  "bytecode": "0x6080604090808252346200045b5760c08162001ef3803803809162000025828562000460565b8339810103126200045b576200003b816200049a565b60206200004a8184016200049a565b92848101516060820151926200006860a0608085015194016200049a565b906000956001875560018060a01b0380911697881562000417578116928315620003d357858710156200038f5784156200034b5716958615620003155743861115620002d157858503858111620002bd576064116200027957885163313ce56760e01b80825283826004818d5afa9182156200026f5783926200024b575b508a519081528381600481885afa92831562000240579262000204575b5060ff6012911603620001b45760ff601291160362000166575060018060a01b0319958660015416176001558560025416176002556005558160035560045560065581600b541617600b553390600c541617600c5551611a289081620004cb8239f35b60849088519062461bcd60e51b82526004820152602260248201527f52657761726420746f6b656e206d757374206861766520313820646563696d616044820152616c7360f01b6064820152fd5b885162461bcd60e51b815260048101839052602360248201527f5374616b696e6720746f6b656e206d757374206861766520313820646563696d604482015262616c7360e81b6064820152608490fd5b60129192506200022f60ff91853d871162000238575b62000226818362000460565b810190620004af565b92915062000103565b503d6200021a565b8b51903d90823e3d90fd5b62000267919250843d8611620002385762000226818362000460565b9038620000e6565b8b513d85823e3d90fd5b885162461bcd60e51b815260048101839052601760248201527f506f6f6c206475726174696f6e20746f6f2073686f72740000000000000000006044820152606490fd5b634e487b7160e01b82526011600452602482fd5b885162461bcd60e51b815260048101839052601d60248201527f537461727420626c6f636b206d75737420626520696e206675747572650000006044820152606490fd5b885162461bcd60e51b815260048101839052600f60248201526e24b73b30b634b21031b932b0ba37b960891b6044820152606490fd5b895162461bcd60e51b815260048101849052601360248201527f496e76616c6964207265776172642072617465000000000000000000000000006044820152606490fd5b895162461bcd60e51b815260048101849052601360248201527f496e76616c696420626c6f636b2072616e6765000000000000000000000000006044820152606490fd5b895162461bcd60e51b815260048101849052601460248201527f496e76616c69642072657761726420746f6b656e0000000000000000000000006044820152606490fd5b895162461bcd60e51b815260048101849052601560248201527f496e76616c6964207374616b696e6720746f6b656e00000000000000000000006044820152606490fd5b600080fd5b601f909101601f19168101906001600160401b038211908210176200048457604052565b634e487b7160e01b600052604160045260246000fd5b51906001600160a01b03821682036200045b57565b908160209103126200045b575160ff811681036200045b579056fe608080604052600436101561001357600080fd5b60003560e01c90816302d05d3f1461169e57508063083c6323146116805780631959a0021461162c5780632e17de781461148257806348cd4cb11461146457806360246c88146113fa57806372f702f3146113d3578063817b1cd2146113b557806383bb3877146113975780638ae39cac146113795780638b840f36146111f25780638dbb1e3a146111d1578063939d6237146111b3578063a03fe6d71461087d578063a694fc3a1461065e578063a9f8d18114610640578063b88a802f14610422578063c45a0155146103fb578063db2e21bc146102ac578063e3161ddd14610291578063f40f0f521461013d5763f7c618c11461011157600080fd5b346101385760003660031901126101385760206001600160a01b0360025416604051908152f35b600080fd5b34610138576020366003190112610138576004356001600160a01b03811680910361013857600052600a60205260406000206040516060810181811067ffffffffffffffff82111761027b5760405281548152600260018301549260208301938452015490604081019182526007549060065480431180610270575b6101f2575b60206101ea856101e28864e8d4a510006101d989895161176a565b04905190611837565b90519061179d565b604051908152f35b61020361020c91949394439061191e565b6005549061176a565b9364e8d4a510009485810295818704149015171561025a5764e8d4a510006101d96101e29361024d6101ea9761024760209a6008549061177d565b9061179d565b95965093505050936101be565b634e487b7160e01b600052601160045260246000fd5b5060085415156101b9565b634e487b7160e01b600052604160045260246000fd5b34610138576000366003190112610138576102aa6117aa565b005b34610138576000366003190112610138576102c56118c9565b336000526020600a815260406000209081549182156103b757600281600080935582600182015501556102fa82600854611837565b60085560015460405163a9059cbb60e01b81523360048201526024810184905291908190839060449082906000906001600160a01b03165af19182156103ab577f5fafa99d0643513820be26656b45130b01e1c03062e1266bf36f88cbd3bd96959261036e9160009161037e575b5061187e565b6040519283523392a26001600055005b61039e9150833d85116103a4575b6103968183611844565b810190611866565b85610368565b503d61038c565b6040513d6000823e3d90fd5b6064826040519062461bcd60e51b82526004820152600860248201527f4e6f207374616b650000000000000000000000000000000000000000000000006044820152fd5b346101385760003660031901126101385760206001600160a01b03600c5416604051908152f35b346101385760003660031901126101385761043b6118c9565b336000526020600a81526040600020906104536117aa565b81549164e8d4a51000806104696007548661176a565b049061048a60026104806001860194855490611837565b940193845461179d565b9485156105fc576001600160a01b03938460025416604051907f70a082310000000000000000000000000000000000000000000000000000000082523060048301528782602481845afa80156103ab5789926000916105cb575b5080918860015416146105b7575b501061057357600090556007546105089161176a565b04905560025460405163a9059cbb60e01b8152336004820152602481018590529291829184916044918391600091165af19182156103ab577f106f923f993c2149d49b4255ff723acafa1f2d94393f561d3eda32ae348f72419261036e9160009161037e575061187e565b6064866040519062461bcd60e51b82526004820152601d60248201527f506f6f6c2068617320696e73756666696369656e7420726577617264730000006044820152fd5b6105c5915060085490611837565b896104f2565b809350898092503d83116105f5575b6105e48183611844565b81010312610138578891518a6104e4565b503d6105da565b6064856040519062461bcd60e51b82526004820152600a60248201527f4e6f2072657761726473000000000000000000000000000000000000000000006044820152fd5b34610138576000366003190112610138576020600654604051908152f35b3461013857602080600319360112610138576004359061067c6118c9565b81156108395760035443106107f5576004544310156107b157600090338252600a8152604082206106ab6117aa565b6106bb8482548061076d5761179d565b81556106c98460085461179d565b600855600164e8d4a510006106e283546007549061176a565b04910155806001600160a01b03600154166064604051809581937f23b872dd0000000000000000000000000000000000000000000000000000000083523360048401523060248401528860448401525af19182156103ab577f9e71bc8eea02a63969f509818f2dafb9254532904319f9dbda79b67bd34a5f3d9261036e9160009161037e575061187e565b61078e64e8d4a510006107826007548461176a565b04600186015490611837565b8061079a575b5061179d565b6107a96002860191825461179d565b905587610794565b6064906040519062461bcd60e51b82526004820152600d60248201527f5374616b696e6720656e646564000000000000000000000000000000000000006044820152fd5b6064906040519062461bcd60e51b82526004820152601360248201527f5374616b696e67206e6f742073746172746564000000000000000000000000006044820152fd5b6064906040519062461bcd60e51b82526004820152600e60248201527f43616e6e6f74207374616b6520300000000000000000000000000000000000006044820152fd5b346101385760c03660031901126101385760043567ffffffffffffffff8111610138576108ae903690600401611702565b9060243567ffffffffffffffff8111610138576108cf903690600401611702565b9060443567ffffffffffffffff8111610138576108f0903690600401611702565b9060643567ffffffffffffffff811161013857610911903690600401611702565b91909260843567ffffffffffffffff811161013857610934903690600401611702565b95909660a43567ffffffffffffffff811161013857610957903690600401611702565b99909a6001600160a01b0380600b541633149081156111a5575b50156111615760008052600d6020527f81955a0a11e65eac625c29e8882660bae4e165a75d72780094acae8ece9a29ee546109ab90611730565b61111d5760008052600d6020527f81955a0a11e65eac625c29e8882660bae4e165a75d72780094acae8ece9a29ee9167ffffffffffffffff821161027b5781906109f58454611730565b601f81116110cd575b50600090601f83116001146110655760009261105a575b50508160011b916000199060031b1c19161790555b6001600052600d6020527ffd54ff1ed53f34a900b24c5ba64f85761163b5d82d98a47b9bd80e45466993c59167ffffffffffffffff821161027b578190610a718454611730565b601f811161100a575b50600090601f8311600114610fa257600092610f97575b50508160011b916000199060031b1c19161790555b6002600052600d6020527f10a81eed9d63d16face5e76357905348e6253d3394086026bb2bf2145d7cc2499167ffffffffffffffff821161027b578190610aed8454611730565b601f8111610f47575b50600090601f8311600114610edf57600092610ed4575b50508160011b916000199060031b1c19161790555b6003600052600d6020527f26b4a10d0f0b04925c23bd4480ee147c916e5e87a7d68206a533dad160ac81e29167ffffffffffffffff821161027b578190610b698454611730565b601f8111610e84575b50600090601f8311600114610e1c57600092610e11575b50508160011b916000199060031b1c19161790555b6004600052600d6020527fafafe8948a4ed9d478b1e9a5780b119b5edd00ea7d07bc35bef7c814824eb94b9167ffffffffffffffff821161027b578190610be58454611730565b601f8111610dc1575b50600090601f8311600114610d5957600092610d4e575b50508160011b916000199060031b1c19161790555b6005600052600d6020527fa5049387d9cb649c59f4bda666105ba636c2a103d8e2b232ba4d125737cd21499067ffffffffffffffff811161027b57610c5f8254611730565b601f8111610d06575b506000601f8211600114610ca457819293600092610c99575b5050600019600383901b1c191660019190911b179055005b013590508380610c81565b601f198216938360005260206000209160005b868110610cee5750836001959610610cd4575b505050811b019055005b0135600019600384901b60f8161c19169055838080610cca565b90926020600181928686013581550194019101610cb7565b826000526020600020601f830160051c81019160208410610d44575b601f0160051c01905b818110610d385750610c68565b60008155600101610d2b565b9091508190610d22565b013590508580610c05565b600085815260208120909450915b601f1984168510610da9576001945083601f19811610610d8f575b505050811b019055610c1a565b0135600019600384901b60f8161c19169055858080610d82565b81810135835560209485019460019093019201610d67565b909150836000526020600020601f840160051c810160208510610e0a575b90849392915b601f830160051c82018110610dfb575050610bee565b60008155859450600101610de5565b5080610ddf565b013590508780610b89565b600085815260208120909450915b601f1984168510610e6c576001945083601f19811610610e52575b505050811b019055610b9e565b0135600019600384901b60f8161c19169055878080610e45565b81810135835560209485019460019093019201610e2a565b909150836000526020600020601f840160051c810160208510610ecd575b90849392915b601f830160051c82018110610ebe575050610b72565b60008155859450600101610ea8565b5080610ea2565b013590508980610b0d565b600085815260208120909450915b601f1984168510610f2f576001945083601f19811610610f15575b505050811b019055610b22565b0135600019600384901b60f8161c19169055898080610f08565b81810135835560209485019460019093019201610eed565b909150836000526020600020601f840160051c810160208510610f90575b90849392915b601f830160051c82018110610f81575050610af6565b60008155859450600101610f6b565b5080610f65565b013590508b80610a91565b600085815260208120909450915b601f1984168510610ff2576001945083601f19811610610fd8575b505050811b019055610aa6565b0135600019600384901b60f8161c191690558b8080610fcb565b81810135835560209485019460019093019201610fb0565b909150836000526020600020601f840160051c810160208510611053575b90849392915b601f830160051c82018110611044575050610a7a565b6000815585945060010161102e565b5080611028565b013590508d80610a15565b600085815260208120909450915b601f19841685106110b5576001945083601f1981161061109b575b505050811b019055610a2a565b0135600019600384901b60f8161c191690558d808061108e565b81810135835560209485019460019093019201611073565b909150836000526020600020601f840160051c810160208510611116575b90849392915b601f830160051c820181106111075750506109fe565b600081558594506001016110f1565b50806110eb565b606460405162461bcd60e51b815260206004820152601460248201527f4d6574616461746120616c7265616479207365740000000000000000000000006044820152fd5b606460405162461bcd60e51b815260206004820152601760248201527f4f6e6c792063726561746f72206f7220666163746f72790000000000000000006044820152fd5b9050600c541633148d610971565b34610138576000366003190112610138576020600754604051908152f35b346101385760403660031901126101385760206101ea60243560043561191e565b3461013857600036600319011261013857600d602052600560005261132f7ffd54ff1ed53f34a900b24c5ba64f85761163b5d82d98a47b9bd80e45466993c56113757f10a81eed9d63d16face5e76357905348e6253d3394086026bb2bf2145d7cc2496113677fa5049387d9cb649c59f4bda666105ba636c2a103d8e2b232ba4d125737cd21496113597fafafe8948a4ed9d478b1e9a5780b119b5edd00ea7d07bc35bef7c814824eb94b61134b7f26b4a10d0f0b04925c23bd4480ee147c916e5e87a7d68206a533dad160ac81e261133d61131a61131461130e6113086113026112fc7f81955a0a11e65eac625c29e8882660bae4e165a75d72780094acae8ece9a29ee61194e565b9e61194e565b9b61194e565b9461194e565b9561194e565b9661194e565b976040519b8c9b60c08d5260c08d01906116c2565b908b820360208d01526116c2565b9089820360408b01526116c2565b9087820360608901526116c2565b9085820360808701526116c2565b9083820360a08501526116c2565b0390f35b34610138576000366003190112610138576020600554604051908152f35b34610138576000366003190112610138576020600954604051908152f35b34610138576000366003190112610138576020600854604051908152f35b346101385760003660031901126101385760206001600160a01b0360015416604051908152f35b34610138576000366003190112610138576101006001600160a01b03806001541690806002541690600554600354600454906008549260065494600b541695604051978852602088015260408701526060860152608085015260a084015260c083015260e0820152f35b34610138576000366003190112610138576020600354604051908152f35b346101385760208060031936011261013857600435906114a06118c9565b33600052600a81526040600020828154106115e85782156115a4576114c36117aa565b80549061151a64e8d4a51000916114ff86846114e16007548861176a565b04956114f36001850197885490611837565b8061158d575b50611837565b815561150d86600854611837565b600855546007549061176a565b04905560015460405163a9059cbb60e01b81523360048201526024810184905291908190839060449082906000906001600160a01b03165af19182156103ab577f0f5bb82176feb1b5e747e28471aa92156a04d9f3ab9f45f28e2d704232b93f759261036e9160009161037e575061187e565b61159c6002860191825461179d565b9055896114f9565b6064826040519062461bcd60e51b82526004820152601060248201527f43616e6e6f7420756e7374616b652030000000000000000000000000000000006044820152fd5b6064826040519062461bcd60e51b82526004820152601460248201527f496e73756666696369656e742062616c616e63650000000000000000000000006044820152fd5b34610138576020366003190112610138576004356001600160a01b03811680910361013857600052600a60205260606040600020805490600260018201549101549060405192835260208301526040820152f35b34610138576000366003190112610138576020600454604051908152f35b34610138576000366003190112610138576020906001600160a01b03600b54168152f35b919082519283825260005b8481106116ee575050826000602080949584010152601f8019910116010190565b6020818301810151848301820152016116cd565b9181601f840112156101385782359167ffffffffffffffff8311610138576020838186019501011161013857565b90600182811c92168015611760575b602083101461174a57565b634e487b7160e01b600052602260045260246000fd5b91607f169161173f565b8181029291811591840414171561025a57565b8115611787570490565b634e487b7160e01b600052601260045260246000fd5b9190820180921161025a57565b60065443111561183557600854801561182e576117cc6102034360065461191e565b6007549164e8d4a510009182810292818404149015171561025a577f7fa9647ec1cc14e3822b46d05a2b9d4e019bde8875c0088c46b6503d71bf1722926102476118189260409461177d565b80600755436006558151904382526020820152a1565b5043600655565b565b9190820391821161025a57565b90601f8019910116810190811067ffffffffffffffff82111761027b57604052565b90816020910312610138575180151581036101385790565b1561188557565b606460405162461bcd60e51b815260206004820152600f60248201527f5472616e73666572206661696c656400000000000000000000000000000000006044820152fd5b6002600054146118da576002600055565b606460405162461bcd60e51b815260206004820152601f60248201527f5265656e7472616e637947756172643a207265656e7472616e742063616c6c006044820152fd5b60045491828111611936576119339250611837565b90565b50818110611945575050600090565b61193391611837565b906040519182600082549261196284611730565b9081845260019485811690816000146119cf575060011461198c575b505061183592500383611844565b9093915060005260209081600020936000915b8183106119b75750506118359350820101388061197e565b8554888401850152948501948794509183019161199f565b91505061183594506020925060ff191682840152151560051b820101388061197e56fea26469706673582212206ad0d64d39e47cb30c54f3a2b64b5b8534dab772f5af1e19ab1c4123ebcf26ff64736f6c63430008130033",
  "linkReferences": {},
  "deployedLinkReferences": {}
}