{
  "_format": "hh-sol-artifact-1",
  "contractName": "OrderNFTCollection",
  "sourceName": "contracts/OrderNFTCollection.sol",
  "abi": [
    {
      "inputs": [
        {
          "internalType": "string",
          "name": "_name",
          "type": "string"
        },
        {
          "internalType": "string",
          "name": "_symbol",
          "type": "string"
        },
        {
          "internalType": "string",
          "name": "_baseTokenURI",
          "type": "string"
        },
        {
          "internalType": "uint256",
          "name": "_maxSupply",
          "type": "uint256"
        },
        {
          "internalType": "address",
          "name": "_mintToken",
          "type": "address"
        },
        {
          "internalType": "uint256",
          "name": "_mintPrice",
          "type": "uint256"
        },
        {
          "internalType": "uint256",
          "name": "_marketplaceFeePercent",
          "type": "uint256"
        },
        {
          "internalType": "address",
          "name": "_creator",
          "type": "address"
        },
        {
          "internalType": "address",
          "name": "_factory",
          "type": "address"
        }
      ],
      "stateMutability": "nonpayable",
      "type": "constructor"
    },
    {
      "anonymous": false,
      "inputs": [
        {
          "indexed": true,
          "internalType": "address",
          "name": "owner",
          "type": "address"
        },
        {
          "indexed": true,
          "internalType": "address",
          "name": "approved",
          "type": "address"
        },
        {
          "indexed": true,
          "internalType": "uint256",
          "name": "tokenId",
          "type": "uint256"
        }
      ],
      "name": "Approval",
      "type": "event"
    },
    {
      "anonymous": false,
      "inputs": [
        {
          "indexed": true,
          "internalType": "address",
          "name": "owner",
          "type": "address"
        },
        {
          "indexed": true,
          "internalType": "address",
          "name": "operator",
          "type": "address"
        },
        {
          "indexed": false,
          "internalType": "bool",
          "name": "approved",
          "type": "bool"
        }
      ],
      "name": "ApprovalForAll",
      "type": "event"
    },
    {
      "anonymous": false,
      "inputs": [
        {
          "indexed": true,
          "internalType": "address",
          "name": "previousCreator",
          "type": "address"
        },
        {
          "indexed": true,
          "internalType": "address",
          "name": "newCreator",
          "type": "address"
        }
      ],
      "name": "CreatorTransferred",
      "type": "event"
    },
    {
      "anonymous": false,
      "inputs": [
        {
          "indexed": true,
          "internalType": "address",
          "name": "token",
          "type": "address"
        },
        {
          "indexed": true,
          "internalType": "address",
          "name": "to",
          "type": "address"
        },
        {
          "indexed": false,
          "internalType": "uint256",
          "name": "amount",
          "type": "uint256"
        }
      ],
      "name": "ERC20Recovered",
      "type": "event"
    },
    {
      "anonymous": false,
      "inputs": [
        {
          "indexed": false,
          "internalType": "uint256",
          "name": "oldFee",
          "type": "uint256"
        },
        {
          "indexed": false,
          "internalType": "uint256",
          "name": "newFee",
          "type": "uint256"
        }
      ],
      "name": "MarketplaceFeeUpdated",
      "type": "event"
    },
    {
      "anonymous": false,
      "inputs": [
        {
          "indexed": true,
          "internalType": "address",
          "name": "creator",
          "type": "address"
        },
        {
          "indexed": false,
          "internalType": "uint256",
          "name": "amount",
          "type": "uint256"
        },
        {
          "indexed": false,
          "internalType": "address",
          "name": "token",
          "type": "address"
        }
      ],
      "name": "MarketplaceFeeWithdrawn",
      "type": "event"
    },
    {
      "anonymous": false,
      "inputs": [
        {
          "indexed": false,
          "internalType": "uint256",
          "name": "oldPrice",
          "type": "uint256"
        },
        {
          "indexed": false,
          "internalType": "uint256",
          "name": "newPrice",
          "type": "uint256"
        }
      ],
      "name": "MintPriceUpdated",
      "type": "event"
    },
    {
      "anonymous": false,
      "inputs": [
        {
          "indexed": false,
          "internalType": "address",
          "name": "account",
          "type": "address"
        }
      ],
      "name": "Paused",
      "type": "event"
    },
    {
      "anonymous": false,
      "inputs": [
        {
          "indexed": true,
          "internalType": "uint256",
          "name": "tokenId",
          "type": "uint256"
        },
        {
          "indexed": false,
          "internalType": "uint256",
          "name": "oldPrice",
          "type": "uint256"
        },
        {
          "indexed": false,
          "internalType": "uint256",
          "name": "newPrice",
          "type": "uint256"
        }
      ],
      "name": "PriceUpdated",
      "type": "event"
    },
    {
      "anonymous": false,
      "inputs": [
        {
          "indexed": true,
          "internalType": "address",
          "name": "creator",
          "type": "address"
        },
        {
          "indexed": false,
          "internalType": "uint256",
          "name": "amount",
          "type": "uint256"
        },
        {
          "indexed": false,
          "internalType": "address",
          "name": "token",
          "type": "address"
        }
      ],
      "name": "RevenueWithdrawn",
      "type": "event"
    },
    {
      "anonymous": false,
      "inputs": [
        {
          "indexed": true,
          "internalType": "uint256",
          "name": "tokenId",
          "type": "uint256"
        },
        {
          "indexed": true,
          "internalType": "address",
          "name": "seller",
          "type": "address"
        },
        {
          "indexed": false,
          "internalType": "uint256",
          "name": "price",
          "type": "uint256"
        },
        {
          "indexed": false,
          "internalType": "address",
          "name": "paymentToken",
          "type": "address"
        }
      ],
      "name": "TokenListed",
      "type": "event"
    },
    {
      "anonymous": false,
      "inputs": [
        {
          "indexed": true,
          "internalType": "address",
          "name": "to",
          "type": "address"
        },
        {
          "indexed": true,
          "internalType": "uint256",
          "name": "tokenId",
          "type": "uint256"
        },
        {
          "indexed": false,
          "internalType": "uint256",
          "name": "price",
          "type": "uint256"
        },
        {
          "indexed": false,
          "internalType": "address",
          "name": "paymentToken",
          "type": "address"
        }
      ],
      "name": "TokenMinted",
      "type": "event"
    },
    {
      "anonymous": false,
      "inputs": [
        {
          "indexed": true,
          "internalType": "address",
          "name": "to",
          "type": "address"
        },
        {
          "indexed": true,
          "internalType": "uint256",
          "name": "tokenId",
          "type": "uint256"
        },
        {
          "indexed": false,
          "internalType": "string",
          "name": "customURI",
          "type": "string"
        },
        {
          "indexed": false,
          "internalType": "uint256",
          "name": "price",
          "type": "uint256"
        },
        {
          "indexed": false,
          "internalType": "address",
          "name": "paymentToken",
          "type": "address"
        }
      ],
      "name": "TokenMintedWithURI",
      "type": "event"
    },
    {
      "anonymous": false,
      "inputs": [
        {
          "indexed": true,
          "internalType": "uint256",
          "name": "tokenId",
          "type": "uint256"
        },
        {
          "indexed": true,
          "internalType": "address",
          "name": "seller",
          "type": "address"
        },
        {
          "indexed": true,
          "internalType": "address",
          "name": "buyer",
          "type": "address"
        },
        {
          "indexed": false,
          "internalType": "uint256",
          "name": "price",
          "type": "uint256"
        },
        {
          "indexed": false,
          "internalType": "address",
          "name": "paymentToken",
          "type": "address"
        },
        {
          "indexed": false,
          "internalType": "uint256",
          "name": "marketplaceFee",
          "type": "uint256"
        }
      ],
      "name": "TokenSold",
      "type": "event"
    },
    {
      "anonymous": false,
      "inputs": [
        {
          "indexed": true,
          "internalType": "uint256",
          "name": "tokenId",
          "type": "uint256"
        },
        {
          "indexed": true,
          "internalType": "address",
          "name": "seller",
          "type": "address"
        }
      ],
      "name": "TokenUnlisted",
      "type": "event"
    },
    {
      "anonymous": false,
      "inputs": [
        {
          "indexed": true,
          "internalType": "address",
          "name": "from",
          "type": "address"
        },
        {
          "indexed": true,
          "internalType": "address",
          "name": "to",
          "type": "address"
        },
        {
          "indexed": true,
          "internalType": "uint256",
          "name": "tokenId",
          "type": "uint256"
        }
      ],
      "name": "Transfer",
      "type": "event"
    },
    {
      "anonymous": false,
      "inputs": [
        {
          "indexed": false,
          "internalType": "address",
          "name": "account",
          "type": "address"
        }
      ],
      "name": "Unpaused",
      "type": "event"
    },
    {
      "inputs": [
        {
          "internalType": "uint256",
          "name": "",
          "type": "uint256"
        }
      ],
      "name": "activeListings",
      "outputs": [
        {
          "internalType": "uint256",
          "name": "",
          "type": "uint256"
        }
      ],
      "stateMutability": "view",
      "type": "function"
    },
    {
      "inputs": [
        {
          "internalType": "address",
          "name": "to",
          "type": "address"
        },
        {
          "internalType": "uint256",
          "name": "tokenId",
          "type": "uint256"
        }
      ],
      "name": "approve",
      "outputs": [],
      "stateMutability": "nonpayable",
      "type": "function"
    },
    {
      "inputs": [
        {
          "internalType": "address",
          "name": "owner",
          "type": "address"
        }
      ],
      "name": "balanceOf",
      "outputs": [
        {
          "internalType": "uint256",
          "name": "",
          "type": "uint256"
        }
      ],
      "stateMutability": "view",
      "type": "function"
    },
    {
      "inputs": [
        {
          "internalType": "uint256",
          "name": "_tokenId",
          "type": "uint256"
        }
      ],
      "name": "buyToken",
      "outputs": [],
      "stateMutability": "nonpayable",
      "type": "function"
    },
    {
      "inputs": [],
      "name": "collectionImageUrl",
      "outputs": [
        {
          "internalType": "string",
          "name": "",
          "type": "string"
        }
      ],
      "stateMutability": "view",
      "type": "function"
    },
    {
      "inputs": [],
      "name": "creator",
      "outputs": [
        {
          "internalType": "address",
          "name": "",
          "type": "address"
        }
      ],
      "stateMutability": "view",
      "type": "function"
    },
    {
      "inputs": [],
      "name": "description",
      "outputs": [
        {
          "internalType": "string",
          "name": "",
          "type": "string"
        }
      ],
      "stateMutability": "view",
      "type": "function"
    },
    {
      "inputs": [],
      "name": "factory",
      "outputs": [
        {
          "internalType": "address",
          "name": "",
          "type": "address"
        }
      ],
      "stateMutability": "view",
      "type": "function"
    },
    {
      "inputs": [
        {
          "internalType": "uint256",
          "name": "_offset",
          "type": "uint256"
        },
        {
          "internalType": "uint256",
          "name": "_limit",
          "type": "uint256"
        }
      ],
      "name": "getActiveListings",
      "outputs": [
        {
          "components": [
            {
              "internalType": "uint256",
              "name": "tokenId",
              "type": "uint256"
            },
            {
              "internalType": "address",
              "name": "seller",
              "type": "address"
            },
            {
              "internalType": "uint256",
              "name": "price",
              "type": "uint256"
            },
            {
              "internalType": "address",
              "name": "paymentToken",
              "type": "address"
            },
            {
              "internalType": "uint256",
              "name": "listedAt",
              "type": "uint256"
            },
            {
              "internalType": "bool",
              "name": "active",
              "type": "bool"
            }
          ],
          "internalType": "struct OrderNFTCollection.Listing[]",
          "name": "",
          "type": "tuple[]"
        }
      ],
      "stateMutability": "view",
      "type": "function"
    },
    {
      "inputs": [
        {
          "internalType": "uint256",
          "name": "tokenId",
          "type": "uint256"
        }
      ],
      "name": "getApproved",
      "outputs": [
        {
          "internalType": "address",
          "name": "",
          "type": "address"
        }
      ],
      "stateMutability": "view",
      "type": "function"
    },
    {
      "inputs": [],
      "name": "getCollectionStats",
      "outputs": [
        {
          "internalType": "uint256",
          "name": "_totalSupply",
          "type": "uint256"
        },
        {
          "internalType": "uint256",
          "name": "_maxSupply",
          "type": "uint256"
        },
        {
          "internalType": "uint256",
          "name": "_totalRevenue",
          "type": "uint256"
        },
        {
          "internalType": "uint256",
          "name": "_totalMarketplaceFees",
          "type": "uint256"
        },
        {
          "internalType": "uint256",
          "name": "_activeListingsCount",
          "type": "uint256"
        },
        {
          "internalType": "uint256",
          "name": "_mintPrice",
          "type": "uint256"
        },
        {
          "internalType": "uint256",
          "name": "_marketplaceFeePercent",
          "type": "uint256"
        }
      ],
      "stateMutability": "view",
      "type": "function"
    },
    {
      "inputs": [
        {
          "internalType": "uint256",
          "name": "tokenId",
          "type": "uint256"
        }
      ],
      "name": "getCustomURI",
      "outputs": [
        {
          "internalType": "string",
          "name": "",
          "type": "string"
        }
      ],
      "stateMutability": "view",
      "type": "function"
    },
    {
      "inputs": [
        {
          "internalType": "address",
          "name": "_seller",
          "type": "address"
        }
      ],
      "name": "getListingsBySeller",
      "outputs": [
        {
          "internalType": "uint256[]",
          "name": "",
          "type": "uint256[]"
        }
      ],
      "stateMutability": "view",
      "type": "function"
    },
    {
      "inputs": [
        {
          "internalType": "address",
          "name": "owner",
          "type": "address"
        },
        {
          "internalType": "address",
          "name": "operator",
          "type": "address"
        }
      ],
      "name": "isApprovedForAll",
      "outputs": [
        {
          "internalType": "bool",
          "name": "",
          "type": "bool"
        }
      ],
      "stateMutability": "view",
      "type": "function"
    },
    {
      "inputs": [
        {
          "internalType": "uint256",
          "name": "",
          "type": "uint256"
        }
      ],
      "name": "isListed",
      "outputs": [
        {
          "internalType": "bool",
          "name": "",
          "type": "bool"
        }
      ],
      "stateMutability": "view",
      "type": "function"
    },
    {
      "inputs": [
        {
          "internalType": "string",
          "name": "_uri",
          "type": "string"
        }
      ],
      "name": "isURIUsed",
      "outputs": [
        {
          "internalType": "bool",
          "name": "",
          "type": "bool"
        }
      ],
      "stateMutability": "view",
      "type": "function"
    },
    {
      "inputs": [
        {
          "internalType": "uint256",
          "name": "_tokenId",
          "type": "uint256"
        },
        {
          "internalType": "uint256",
          "name": "_price",
          "type": "uint256"
        },
        {
          "internalType": "address",
          "name": "_paymentToken",
          "type": "address"
        }
      ],
      "name": "listToken",
      "outputs": [],
      "stateMutability": "nonpayable",
      "type": "function"
    },
    {
      "inputs": [
        {
          "internalType": "uint256",
          "name": "",
          "type": "uint256"
        }
      ],
      "name": "listings",
      "outputs": [
        {
          "internalType": "uint256",
          "name": "tokenId",
          "type": "uint256"
        },
        {
          "internalType": "address",
          "name": "seller",
          "type": "address"
        },
        {
          "internalType": "uint256",
          "name": "price",
          "type": "uint256"
        },
        {
          "internalType": "address",
          "name": "paymentToken",
          "type": "address"
        },
        {
          "internalType": "uint256",
          "name": "listedAt",
          "type": "uint256"
        },
        {
          "internalType": "bool",
          "name": "active",
          "type": "bool"
        }
      ],
      "stateMutability": "view",
      "type": "function"
    },
    {
      "inputs": [],
      "name": "marketplaceFeePercent",
      "outputs": [
        {
          "internalType": "uint256",
          "name": "",
          "type": "uint256"
        }
      ],
      "stateMutability": "view",
      "type": "function"
    },
    {
      "inputs": [
        {
          "internalType": "address",
          "name": "",
          "type": "address"
        }
      ],
      "name": "marketplaceFeesByToken",
      "outputs": [
        {
          "internalType": "uint256",
          "name": "",
          "type": "uint256"
        }
      ],
      "stateMutability": "view",
      "type": "function"
    },
    {
      "inputs": [],
      "name": "maxSupply",
      "outputs": [
        {
          "internalType": "uint256",
          "name": "",
          "type": "uint256"
        }
      ],
      "stateMutability": "view",
      "type": "function"
    },
    {
      "inputs": [
        {
          "internalType": "address",
          "name": "_to",
          "type": "address"
        }
      ],
      "name": "mint",
      "outputs": [
        {
          "internalType": "uint256",
          "name": "",
          "type": "uint256"
        }
      ],
      "stateMutability": "nonpayable",
      "type": "function"
    },
    {
      "inputs": [],
      "name": "mintPrice",
      "outputs": [
        {
          "internalType": "uint256",
          "name": "",
          "type": "uint256"
        }
      ],
      "stateMutability": "view",
      "type": "function"
    },
    {
      "inputs": [],
      "name": "mintToken",
      "outputs": [
        {
          "internalType": "address",
          "name": "",
          "type": "address"
        }
      ],
      "stateMutability": "view",
      "type": "function"
    },
    {
      "inputs": [
        {
          "internalType": "address",
          "name": "_to",
          "type": "address"
        },
        {
          "internalType": "string",
          "name": "_customURI",
          "type": "string"
        }
      ],
      "name": "mintWithURI",
      "outputs": [
        {
          "internalType": "uint256",
          "name": "",
          "type": "uint256"
        }
      ],
      "stateMutability": "nonpayable",
      "type": "function"
    },
    {
      "inputs": [],
      "name": "name",
      "outputs": [
        {
          "internalType": "string",
          "name": "",
          "type": "string"
        }
      ],
      "stateMutability": "view",
      "type": "function"
    },
    {
      "inputs": [
        {
          "internalType": "uint256",
          "name": "tokenId",
          "type": "uint256"
        }
      ],
      "name": "ownerOf",
      "outputs": [
        {
          "internalType": "address",
          "name": "",
          "type": "address"
        }
      ],
      "stateMutability": "view",
      "type": "function"
    },
    {
      "inputs": [],
      "name": "pause",
      "outputs": [],
      "stateMutability": "nonpayable",
      "type": "function"
    },
    {
      "inputs": [],
      "name": "paused",
      "outputs": [
        {
          "internalType": "bool",
          "name": "",
          "type": "bool"
        }
      ],
      "stateMutability": "view",
      "type": "function"
    },
    {
      "inputs": [
        {
          "internalType": "address",
          "name": "_token",
          "type": "address"
        },
        {
          "internalType": "address",
          "name": "_to",
          "type": "address"
        },
        {
          "internalType": "uint256",
          "name": "_amount",
          "type": "uint256"
        }
      ],
      "name": "recoverERC20",
      "outputs": [],
      "stateMutability": "nonpayable",
      "type": "function"
    },
    {
      "inputs": [
        {
          "internalType": "address",
          "name": "",
          "type": "address"
        }
      ],
      "name": "revenueByToken",
      "outputs": [
        {
          "internalType": "uint256",
          "name": "",
          "type": "uint256"
        }
      ],
      "stateMutability": "view",
      "type": "function"
    },
    {
      "inputs": [
        {
          "internalType": "address",
          "name": "from",
          "type": "address"
        },
        {
          "internalType": "address",
          "name": "to",
          "type": "address"
        },
        {
          "internalType": "uint256",
          "name": "tokenId",
          "type": "uint256"
        }
      ],
      "name": "safeTransferFrom",
      "outputs": [],
      "stateMutability": "nonpayable",
      "type": "function"
    },
    {
      "inputs": [
        {
          "internalType": "address",
          "name": "from",
          "type": "address"
        },
        {
          "internalType": "address",
          "name": "to",
          "type": "address"
        },
        {
          "internalType": "uint256",
          "name": "tokenId",
          "type": "uint256"
        },
        {
          "internalType": "bytes",
          "name": "data",
          "type": "bytes"
        }
      ],
      "name": "safeTransferFrom",
      "outputs": [],
      "stateMutability": "nonpayable",
      "type": "function"
    },
    {
      "inputs": [
        {
          "internalType": "bool",
          "name": "_active",
          "type": "bool"
        }
      ],
      "name": "setActiveFromFactory",
      "outputs": [],
      "stateMutability": "nonpayable",
      "type": "function"
    },
    {
      "inputs": [
        {
          "internalType": "address",
          "name": "operator",
          "type": "address"
        },
        {
          "internalType": "bool",
          "name": "approved",
          "type": "bool"
        }
      ],
      "name": "setApprovalForAll",
      "outputs": [],
      "stateMutability": "nonpayable",
      "type": "function"
    },
    {
      "inputs": [
        {
          "internalType": "uint256",
          "name": "_newFeePercent",
          "type": "uint256"
        }
      ],
      "name": "setMarketplaceFee",
      "outputs": [],
      "stateMutability": "nonpayable",
      "type": "function"
    },
    {
      "inputs": [
        {
          "internalType": "string",
          "name": "_description",
          "type": "string"
        },
        {
          "internalType": "string",
          "name": "_collectionImageUrl",
          "type": "string"
        }
      ],
      "name": "setMetadata",
      "outputs": [],
      "stateMutability": "nonpayable",
      "type": "function"
    },
    {
      "inputs": [
        {
          "internalType": "uint256",
          "name": "_newPrice",
          "type": "uint256"
        }
      ],
      "name": "setMintPrice",
      "outputs": [],
      "stateMutability": "nonpayable",
      "type": "function"
    },
    {
      "inputs": [
        {
          "internalType": "bytes4",
          "name": "interfaceId",
          "type": "bytes4"
        }
      ],
      "name": "supportsInterface",
      "outputs": [
        {
          "internalType": "bool",
          "name": "",
          "type": "bool"
        }
      ],
      "stateMutability": "view",
      "type": "function"
    },
    {
      "inputs": [],
      "name": "symbol",
      "outputs": [
        {
          "internalType": "string",
          "name": "",
          "type": "string"
        }
      ],
      "stateMutability": "view",
      "type": "function"
    },
    {
      "inputs": [
        {
          "internalType": "uint256",
          "name": "tokenId",
          "type": "uint256"
        }
      ],
      "name": "tokenURI",
      "outputs": [
        {
          "internalType": "string",
          "name": "",
          "type": "string"
        }
      ],
      "stateMutability": "view",
      "type": "function"
    },
    {
      "inputs": [
        {
          "internalType": "address",
          "name": "_owner",
          "type": "address"
        }
      ],
      "name": "tokensOfOwner",
      "outputs": [
        {
          "internalType": "uint256[]",
          "name": "",
          "type": "uint256[]"
        }
      ],
      "stateMutability": "view",
      "type": "function"
    },
    {
      "inputs": [],
      "name": "totalMarketplaceFees",
      "outputs": [
        {
          "internalType": "uint256",
          "name": "",
          "type": "uint256"
        }
      ],
      "stateMutability": "view",
      "type": "function"
    },
    {
      "inputs": [],
      "name": "totalRevenue",
      "outputs": [
        {
          "internalType": "uint256",
          "name": "",
          "type": "uint256"
        }
      ],
      "stateMutability": "view",
      "type": "function"
    },
    {
      "inputs": [],
      "name": "totalSupply",
      "outputs": [
        {
          "internalType": "uint256",
          "name": "",
          "type": "uint256"
        }
      ],
      "stateMutability": "view",
      "type": "function"
    },
    {
      "inputs": [
        {
          "internalType": "address",
          "name": "_newCreator",
          "type": "address"
        }
      ],
      "name": "transferCreator",
      "outputs": [],
      "stateMutability": "nonpayable",
      "type": "function"
    },
    {
      "inputs": [
        {
          "internalType": "address",
          "name": "from",
          "type": "address"
        },
        {
          "internalType": "address",
          "name": "to",
          "type": "address"
        },
        {
          "internalType": "uint256",
          "name": "tokenId",
          "type": "uint256"
        }
      ],
      "name": "transferFrom",
      "outputs": [],
      "stateMutability": "nonpayable",
      "type": "function"
    },
    {
      "inputs": [
        {
          "internalType": "uint256",
          "name": "_tokenId",
          "type": "uint256"
        }
      ],
      "name": "unlistToken",
      "outputs": [],
      "stateMutability": "nonpayable",
      "type": "function"
    },
    {
      "inputs": [],
      "name": "unpause",
      "outputs": [],
      "stateMutability": "nonpayable",
      "type": "function"
    },
    {
      "inputs": [
        {
          "internalType": "uint256",
          "name": "_tokenId",
          "type": "uint256"
        },
        {
          "internalType": "uint256",
          "name": "_newPrice",
          "type": "uint256"
        }
      ],
      "name": "updatePrice",
      "outputs": [],
      "stateMutability": "nonpayable",
      "type": "function"
    },
    {
      "inputs": [
        {
          "internalType": "address",
          "name": "_token",
          "type": "address"
        },
        {
          "internalType": "uint256",
          "name": "_amount",
          "type": "uint256"
        }
      ],
      "name": "withdrawMarketplaceFees",
      "outputs": [],
      "stateMutability": "nonpayable",
      "type": "function"
    },
    {
      "inputs": [
        {
          "internalType": "address",
          "name": "_token",
          "type": "address"
        },
        {
          "internalType": "uint256",
          "name": "_amount",
          "type": "uint256"
        }
      ],
      "name": "withdrawRevenue",
      "outputs": [],
      "stateMutability": "nonpayable",
      "type": "function"
    }
  ],
  "bytecode": "0x608060409080825234620004c65762004c7b80380380916200002282856200089d565b833981019061012081830312620004c65780516001600160401b038111620004c6578262000052918301620008c1565b60208201516001600160401b038111620004c6578362000074918401620008c1565b8285015190936001600160401b038211620004c65762000096918401620008c1565b926060830151620000aa6080850162000938565b9060a08501519160c086015193620000d4610100620000cc60e08a0162000938565b980162000938565b86519096906001600160401b0381116200043157600054600181811c9116801562000892575b60208210146200041057601f81116200083e575b50806020601f8211600114620007c757600091620007bb575b508160011b916000199060031b1c1916176000555b81516001600160401b0381116200043157600154600181811c91168015620007b0575b60208210146200041057601f81116200075b575b50806020601f8211600114620006e257600091620006d6575b508160011b916000199060031b1c1916176001555b600160065560ff19600754166007555115620006a25751156200066c5786511562000634578115620005f0576001600160a01b03908116958615620005b757831562000573576103e88511620005405781169485156200050a5716958615620004d457875163313ce56760e01b81526020816004818a5afa600091816200048a575b506200026d57885162461bcd60e51b815260206004820152601b60248201527f496e76616c6964206d696e7420746f6b656e206d6574616461746100000000006044820152606490fd5b60ff601291160362000447578051906001600160401b038211620004315760085490600182811c9216801562000426575b6020831014620004105781601f849311620003ac575b50602090601f8311600114620003325760009262000326575b50508160011b916000199060031b1c1916176008555b60095560018060a01b03199384600a541617600a55600b55600c558160105416176010556011541617601155600160125401601255516142cd90816200094e8239f35b015190503880620002cd565b6008600090815260008051602062004c3b8339815191529350601f198516905b81811062000393575090846001959493921062000379575b505050811b01600855620002e3565b015160001960f88460031b161c191690553880806200036a565b9293602060018192878601518155019501930162000352565b600860005290915060008051602062004c3b833981519152601f840160051c8101916020851062000405575b90601f859493920160051c01905b818110620003f55750620002b4565b60008155849350600101620003e6565b9091508190620003d8565b634e487b7160e01b600052602260045260246000fd5b91607f16916200029e565b634e487b7160e01b600052604160045260246000fd5b6064885162461bcd60e51b815260206004820152602060248201527f4d696e7420746f6b656e206d757374206861766520313820646563696d616c736044820152fd5b9091506020813d602011620004cb575b81620004a9602093836200089d565b81010312620004c6575160ff81168103620004c657903862000223565b600080fd5b3d91506200049a565b875162461bcd60e51b815260206004820152600f60248201526e496e76616c696420666163746f727960881b6044820152606490fd5b885162461bcd60e51b815260206004820152600f60248201526e24b73b30b634b21031b932b0ba37b960891b6044820152606490fd5b885162461bcd60e51b815260206004820152600c60248201526b08ccaca40e8dede40d0d2ced60a31b6044820152606490fd5b885162461bcd60e51b815260206004820152601b60248201527f4d696e74207072696365206d75737420626520706f73697469766500000000006044820152606490fd5b885162461bcd60e51b815260206004820152601260248201527124b73b30b634b21036b4b73a103a37b5b2b760711b6044820152606490fd5b875162461bcd60e51b815260206004820152601b60248201527f4d617820737570706c79206d75737420626520706f73697469766500000000006044820152606490fd5b875162461bcd60e51b815260206004820152601160248201527010985cd948155492481c995c5d5a5c9959607a1b6044820152606490fd5b875162461bcd60e51b815260206004820152600f60248201526e14de5b589bdb081c995c5d5a5c9959608a1b6044820152606490fd5b885162461bcd60e51b815260206004820152600d60248201526c13985b59481c995c5d5a5c9959609a1b6044820152606490fd5b9050830151386200018c565b60016000908152925060008051602062004c5b833981519152905b601f198316841062000742576001935082601f1981161062000728575b5050811b01600155620001a1565b85015160001960f88460031b161c1916905538806200071a565b85810151825560209384019360019092019101620006fd565b600160005260008051602062004c5b833981519152601f830160051c810160208410620007a8575b601f830160051c820181106200079b57505062000173565b6000815560010162000783565b508062000783565b90607f16906200015f565b90508201513862000127565b6000808052925060008051602062004c1b833981519152905b601f198316841062000825576001935082601f198116106200080b575b5050811b016000556200013c565b84015160001960f88460031b161c191690553880620007fd565b84810151825560209384019360019092019101620007e0565b6000805260008051602062004c1b833981519152601f830160051c8101602084106200088a575b601f830160051c820181106200087d5750506200010e565b6000815560010162000865565b508062000865565b90607f1690620000fa565b601f909101601f19168101906001600160401b038211908210176200043157604052565b919080601f84011215620004c6578251906001600160401b038211620004315760405191602091620008fd601f8301601f19168401856200089d565b818452828287010111620004c65760005b8181106200092457508260009394955001015290565b85810183015184820184015282016200090e565b51906001600160a01b0382168203620004c65756fe608080604052600436101561001357600080fd5b600090813560e01c90816301ffc9a714612a0c5750806302d05d3f146129e557806306fdde0314612916578063081812fc146128f7578063095ea7b3146127685780630e980602146122815780631171bda9146120db57806318160ddd146120af5780632004ffd91461208857806323b872dd146120635780632c3c7f3d14611f5b5780632d296bf114611c00578063312e13dc14611bc857806338d73b0d14611baa5780633f4ba83a14611b4357806342842e0e14611b1057806351335b50146117735780635894bd51146117005780635c975abb146116dd57806361cf4863146116a45780636352211e146116745780636817c76c146116565780636a627842146113f857806370a08231146113cc5780637284e416146113265780637819666214610f745780637c6d908b14610f1857806382367b2d14610e715780638424d70b14610e395780638456cb5914610e125780638462151c14610de157806384b75f9514610dc35780638b63c26714610c955780638d09652114610c755780639407ea9814610bc357806395d89b4114610b20578063a22cb46514610a46578063ad3a358c1461099b578063b2d1eb80146108cd578063b88d4fde1461083f578063bf0ca395146106fb578063bf2d9e0b146106dd578063c128b23114610645578063c45a01551461061e578063c87b56dd146105ea578063d5abeb01146105cc578063d8cba251146104c8578063de74e57b14610454578063e985e9c5146103ff578063f4a0a52814610390578063fa3fa1961461028e5763fcce48831461025d57600080fd5b3461028b57602036600319011261028b5760ff60406020926004358152601484522054166040519015158152f35b80fd5b503461028b57602036600319011261028b576102a8612b25565b601054906001600160a01b03808316916102c3833314613494565b1691821561034c57818314610308576001600160a01b03191682176010557f7f11fe0c7098e1a76afcc68f35abaa07ef156fa7d6dd2d39664812fe37348d168380a380f35b606460405162461bcd60e51b815260206004820152600f60248201527f416c72656164792063726561746f7200000000000000000000000000000000006044820152fd5b606460405162461bcd60e51b815260206004820152601360248201527f496e76616c6964206e65772063726561746f72000000000000000000000000006044820152fd5b503461028b57602036600319011261028b577f2e1c9e000c6e8dda4d03536adb13b7cb6034ccff90d17f01de381e4d5097b52560406004356103de6001600160a01b03601054163314613494565b6103e981151561352f565b600b549080600b5582519182526020820152a180f35b503461028b57604036600319011261028b57610419612b25565b6040610423612b3b565b926001600160a01b0380931681526005602052209116600052602052602060ff604060002054166040519015158152f35b503461028b57602036600319011261028b57604060c09160043581526013602052208054906001600160a01b039081600182015416916002820154906003830154169060ff6005600485015494015416936040519586526020860152604085015260608401526080830152151560a0820152f35b503461028b576020806003193601126105c8576104e3612b25565b82908392601554926001600160a01b03809316945b84811061057e575061050990613d93565b938592865b85811061052757604051806105238982612d7b565b0390f35b61053081612bb4565b90549060031b1c808952601385528383600160408c200154161461055e575b5061055990613c08565b61050e565b856105779161057161055994988b613c17565b52613c08565b949061054f565b61058781612bb4565b90549060031b1c8752601383528584600160408a20015416146105b3575b6105ae90613c08565b6104f8565b906105c06105ae91613c08565b9190506105a5565b5080fd5b503461028b578060031936011261028b576020600954604051908152f35b503461028b57602036600319011261028b5761052361060a600435613e81565b604051918291602083526020830190612b00565b503461028b578060031936011261028b5760206001600160a01b0360115416604051908152f35b503461028b5761065d61065736612d65565b90613c2b565b60405190602080830190808452825180925280604085019301945b8281106106855784840385f35b855180518552808301516001600160a01b039081168685015260408083015190870152606080830151909116908601526080808201519086015260a0908101511515908501529481019460c090930192600101610678565b503461028b578060031936011261028b576020601754604051908152f35b503461028b57602036600319011261028b57600435801515810361083a576001600160a01b036011541633036107f657156107b45760075460ff8116156107705760ff19166007557f5db9ee0a495bf2e6ff9c91a7834c1ba4fdd244a5e8aa4e537bd38aeae4b073aa6020604051338152a180f35b606460405162461bcd60e51b815260206004820152601460248201527f5061757361626c653a206e6f74207061757365640000000000000000000000006044820152fd5b6107bc6134df565b600160ff1960075416176007557f62e78cea01bee320cd4e420270b5ea74000d11b0c9f74754ebdbfc544b05a2586020604051338152a180f35b606460405162461bcd60e51b815260206004820152600c60248201527f4f6e6c7920666163746f727900000000000000000000000000000000000000006044820152fd5b600080fd5b503461028b57608036600319011261028b57610859612b25565b610861612b3b565b906064359060443567ffffffffffffffff83116108c957366023840112156108c9576108c69361089e6108c1943690602481600401359101612dd2565b926108b16108ac843361302c565b612f45565b6108bc83838361310b565b613433565b612fb6565b80f35b8480fd5b503461028b578060031936011261028b576040516000601c546108ef81612c01565b808452906001908181169081156109745750600114610919575b6105238461060a81860382612c9d565b601c600090815292507f0e4562a10381dec21b205ed72637e6b1b523bdd0e4d4d50af5cd23dd4500a2115b82841061095c57505050810160200161060a82610909565b80546020858701810191909152909301928101610944565b60ff191660208087019190915292151560051b8501909201925061060a9150839050610909565b503461028b57602036600319011261028b576004356109b86134df565b6109e06109db8260005260026020526001600160a01b0360406000205416151590565b613a13565b6109fc6109ec82612ede565b6001600160a01b03163314613a5e565b8082526014602052610a1460ff604084205416613aa9565b610a1d816141a4565b33907fbe50bf6d5ebc58e29a68dddccdef1c087a9e6dd728a5c3247051d7fdad14219b8380a380f35b503461028b57604036600319011261028b57610a60612b25565b602435908115159081830361083a576001600160a01b031691823314610adc57610aad903385526005602052604085208460005260205260406000209060ff801983541691151516179055565b6040519081527f17307eab39ab6107e8899845ad3d59bd9653f200f220920489ca2b5937696c3160203392a380f35b606460405162461bcd60e51b815260206004820152601960248201527f4552433732313a20617070726f766520746f2063616c6c6572000000000000006044820152fd5b503461028b578060031936011261028b5760405160006001805490610b4482612c01565b808552918181169081156109745750600114610b6a576105238461060a81860382612c9d565b600081815292507fb10e2d527612073b26eecdfd717e6a320cf44b4afac2b0732d9fcbe2b7fa0cf65b828410610bab57505050810160200161060a82610909565b80546020858701810191909152909301928101610b93565b503461028b57602036600319011261028b57600435610bee6001600160a01b03601054163314613494565b6103e88111610c315760407f936008f1e981d6f48d4a529714c27d74d644750a1d215451212ce0f2476f2fbc91600c549080600c5582519182526020820152a180f35b606460405162461bcd60e51b815260206004820152600c60248201527f46656520746f6f206869676800000000000000000000000000000000000000006044820152fd5b503461028b57602036600319011261028b5761052361060a600435614171565b503461028b57604036600319011261028b57610caf612b25565b602435906001600160a01b0390610ccb82601054163314613494565b610cd3613640565b81811691610ce2831515613b5a565b610ced841515613ba5565b828552601960205283604086205410610d7f57610d5984847f0121b283ed79f0646a25775a9eb3c86aa23bea96a49ef2fad07d17686dfd2c60958852601960205260408820610d3d838254613610565b9055610d4b82601754613610565b601755836010541690613af4565b601054604080519586526001600160a01b039390931660208601521692a2600160065580f35b606460405162461bcd60e51b815260206004820152601460248201527f496e73756666696369656e7420726576656e75650000000000000000000000006044820152fd5b503461028b578060031936011261028b576020601854604051908152f35b503461028b57602036600319011261028b57610523610e06610e01612b25565b613dc5565b60405191829182612d7b565b503461028b578060031936011261028b576107b46001600160a01b03601054163314613494565b503461028b57602036600319011261028b5760406020916001600160a01b03610e60612b25565b168152601a83522054604051908152f35b503461028b5760407f15819dd2fd9f6418b142e798d08a18d0bf06ea368f4480b7b0d3f75bd966bc48610ea336612d65565b610ec86109db83959360005260026020526001600160a01b0360406000205416151590565b610ed46109ec85612ede565b8385526014602052610eeb60ff8387205416613aa9565b610ef681151561352f565b838552601360205260028286200190808254925582519182526020820152a280f35b503461028b57602036600319011261028b5760043567ffffffffffffffff81116105c8576040602092610f5b610f5460ff943690600401612b51565b3691612dd2565b8481519101208152600e84522054166040519015158152f35b503461028b57606036600319011261028b576004356024918235604435926001600160a01b03938481169485820361083a57610fae613640565b610fb66134df565b610fd96109db8460005260026020526001600160a01b0360406000205416151590565b610fee610fe584612ede565b82163314613a5e565b8285526020956014875260ff6040872054166112e35761100f85151561352f565b80156112a0576040517f313ce5670000000000000000000000000000000000000000000000000000000081528781600481855afa879181611263575b5061109357606488601e8b6040519262461bcd60e51b845260048401528201527f496e76616c6964207061796d656e7420746f6b656e206d6574616461746100006044820152fd5b918891601260ff8a9516036111fa57906005868961113894604051946110b886612c65565b83865288860190338252604087018d8152606088019384526040608089019542875260a08a019760018952815260138d5220975188558160018901935116926001600160a01b03199384825416179055516002880155600387019251169082541617905551600484015551151591019060ff801983541691151516179055565b6014825260408620600160ff1982541617905560166015549252816040872055680100000000000000008210156111e857507fad9bd239ed4e99994741303afbd6dd4c6e9e20ffd17a1241c5f2014145d3a558916111bc846111a38460016111dd9601601555612bb4565b90919082549060031b91821b91600019901b1916179055565b604080519586526001600160a01b0390911660208601523394918291820190565b0390a3600160065580f35b85634e487b7160e01b81526041600452fd5b6084846023856040519262461bcd60e51b845260048401528201527f5061796d656e7420746f6b656e206d757374206861766520313820646563696d60448201527f616c7300000000000000000000000000000000000000000000000000000000006064820152fd5b9091508881813d8311611299575b61127b8183612c9d565b81010312611295575160ff8116810361129557903861104b565b8780fd5b503d611271565b60648760158a6040519262461bcd60e51b845260048401528201527f496e76616c6964207061796d656e7420746f6b656e00000000000000000000006044820152fd5b606487600f8a6040519262461bcd60e51b845260048401528201527f546f6b656e206973206c697374656400000000000000000000000000000000006044820152fd5b503461028b578060031936011261028b576040516000601b5461134881612c01565b808452906001908181169081156109745750600114611371576105238461060a81860382612c9d565b601b600090815292507f3ad8aa4f87544323a9d1e5dd902f40c356527a7955687113db5f9a85ad579dc15b8284106113b457505050810160200161060a82610909565b8054602085870181019190915290930192810161139c565b503461028b57602036600319011261028b5760206113f06113eb612b25565b612e09565b604051908152f35b503461028b576020806003193601126105c857611413612b25565b61141b613640565b6114236134df565b6001600160a01b03908181169061143b82151561357a565b6012549261144d6009548511156135c5565b80600a54166040516370a0823160e01b918282523060048301528782602481845afa91821561164b57899261161a575b50600b5461148e9130903390613695565b8683600a54169260246040518095819382523060048301525afa801561160f57869289916115da575b506114cc92916114c691613610565b9361381c565b6001601254016012556114e182601754613633565b60175580600a5416865260198552604086206114fe838254613633565b905560115460125460001981019183169082116115c657908188923b156115c257602483926040519a8b938492632afc708160e21b845260048401525af19687156115b557859697611597575b5050600a546040805193845291166001600160a01b031660208301527f6a1a369ef3c3eebe428c993f6eb79fb1438544741070bc7a4388c801fa08463d91a36001600655604051908152f35b8192939495506115a690612c3b565b61028b5790818594939261154b565b50604051903d90823e3d90fd5b8280fd5b602488634e487b7160e01b81526011600452fd5b809350888092503d8311611608575b6115f38183612c9d565b8101031261083a5790518591906114cc6114b7565b503d6115e9565b6040513d8a823e3d90fd5b9091508781813d8311611644575b6116328183612c9d565b8101031261083a57519061148e61147d565b503d611628565b6040513d8b823e3d90fd5b503461028b578060031936011261028b576020600b54604051908152f35b503461028b57602036600319011261028b576020611693600435612ede565b6001600160a01b0360405191168152f35b503461028b57602036600319011261028b576004359060155482101561028b5760206116cf83612bb4565b90546040519160031b1c8152f35b503461028b578060031936011261028b57602060ff600754166040519015158152f35b503461028b578060031936011261028b5760125460001981019190821161175f5760e08260095460175460185460155490600b5492600c5494604051968752602087015260408601526060850152608084015260a083015260c0820152f35b80634e487b7160e01b602492526011600452fd5b503461028b57604036600319011261028b5767ffffffffffffffff906004358281116105c8576117a7903690600401612b51565b9290602435828111611b0c576117c1903690600401612b51565b9290946117da6001600160a01b03601054163314613494565b6103e88111611ac8576101f48411611a8457818111611a7057806117ff601b54612c01565b93601f94858111611a03575b50869085831160011461197e578792611973575b50508160011b916000199060031b1c191617601b555b821161195f57611846601c54612c01565b818111611902575b508290821160011461188757829382939261187c575b50508160011b916000199060031b1c191617601c5580f35b013590503880611864565b601f198216937f0e4562a10381dec21b205ed72637e6b1b523bdd0e4d4d50af5cd23dd4500a21191845b8681106118ea57508360019596106118d0575b505050811b01601c5580f35b0135600019600384901b60f8161c191690553880806118c4565b909260206001819286860135815501940191016118b1565b7f0e4562a10381dec21b205ed72637e6b1b523bdd0e4d4d50af5cd23dd4500a2118280850160051c82019260208610611956575b0160051c01905b81811061194a575061184e565b6000815560010161193d565b92508192611936565b602483634e487b7160e01b81526041600452fd5b01359050388061181f565b601b88527f3ad8aa4f87544323a9d1e5dd902f40c356527a7955687113db5f9a85ad579dc1925090601f198416885b8181106119eb57509084600195949392106119d1575b505050811b01601b55611835565b0135600019600384901b60f8161c191690553880806119c3565b919360206001819287870135815501950192016119ad565b909150601b87527f3ad8aa4f87544323a9d1e5dd902f40c356527a7955687113db5f9a85ad579dc18580850160051c82019260208610611a67575b9085949392910160051c01905b818110611a58575061180b565b60008155849350600101611a4b565b92508192611a3e565b602485634e487b7160e01b81526041600452fd5b606460405162461bcd60e51b815260206004820152601260248201527f496d6167652055524c20746f6f206c6f6e6700000000000000000000000000006044820152fd5b606460405162461bcd60e51b815260206004820152601460248201527f4465736372697074696f6e20746f6f206c6f6e670000000000000000000000006044820152fd5b8380fd5b503461028b576108c66108c1611b2536612b7f565b9060405192611b3384612c81565b8684526108b16108ac843361302c565b503461028b578060031936011261028b57611b6a6001600160a01b03601054163314613494565b60075460ff8116156107705760ff19166007557f5db9ee0a495bf2e6ff9c91a7834c1ba4fdd244a5e8aa4e537bd38aeae4b073aa6020604051338152a180f35b503461028b578060031936011261028b576020600c54604051908152f35b503461028b57602036600319011261028b5760406020916001600160a01b03611bef612b25565b168152601983522054604051908152f35b503461028b576020806003193601126105c85760043590611c1f613640565b611c276134df565b611c4a6109db8360005260026020526001600160a01b0360406000205416151590565b81835260148152611c6160ff604085205416613aa9565b81835260138152604083209160405191611c7a83612c65565b835483526001600160a01b03806001860154168285019081526002860154946040810195865260ff60058460038a0154169860608401998a5260048101546080850152015416159060a08215910152611f1757818151163314611ed357819051169351945116611ce9836141a4565b604051946370a0823160e01b908187523060048801528387602481865afa96871561160f578897611ea2575b50611d2290303385613695565b6040518181523060048201528381602481865afa801561160f5787908990611e71575b611d4f9250613610565b95600c54808802908882041488151715611e5d57612710611d71910488613610565b80611e4c575b506040519182523060048301528382602481865afa801561160f578890611e1d575b611da39250613610565b9182611df1575b611db584338761310b565b60405195865285015260408401527f695c2b5c229b2e096e844e7dfb1515d51431aad217561e67062e3e0ae7582ce960603394a4600160065580f35b611dfd83601854613633565b601855818752601a815260408720611e16848254613633565b9055611daa565b508382813d8311611e45575b611e338183612c9d565b8101031261083a57611da39151611d99565b503d611e29565b611e57908785613af4565b38611d77565b602489634e487b7160e01b81526011600452fd5b50508381813d8311611e9b575b611e888183612c9d565b8101031261083a5786611d4f9151611d45565b503d611e7e565b9096508381813d8311611ecc575b611eba8183612c9d565b8101031261083a575195611d22611d15565b503d611eb0565b6064836040519062461bcd60e51b82526004820152601460248201527f43616e6e6f7420627579206f776e20746f6b656e0000000000000000000000006044820152fd5b6064836040519062461bcd60e51b82526004820152601260248201527f4c697374696e67206e6f742061637469766500000000000000000000000000006044820152fd5b503461028b57604036600319011261028b57611f75612b25565b602435906001600160a01b0390611f9182601054163314613494565b611f99613640565b81811691611fa8831515613b5a565b611fb3841515613ba5565b828552601a6020528360408620541061201f57610d5984847f9bb58b6694ef0e8a4f1486ce0ced951b4969751ce6137ffe5e5e8ed4896e9a32958852601a60205260408820612003838254613610565b905561201182601854613610565b601855836010541690613af4565b606460405162461bcd60e51b815260206004820152601160248201527f496e73756666696369656e7420666565730000000000000000000000000000006044820152fd5b503461028b576108c661207536612b7f565b916120836108ac843361302c565b61310b565b503461028b578060031936011261028b5760206001600160a01b03600a5416604051908152f35b503461028b578060031936011261028b5760125460001981019190821161175f57602082604051908152f35b503461028b576120ea36612b7f565b91906001600160a01b03809261210582601054163314613494565b61210d613640565b169161211a831515613b5a565b811692831561223d5761212e811515613ba5565b8285526020916019835261214f6040872054601a8552604088205490613633565b6040516370a0823160e01b81523060048201528481602481895afa90811561160f578490899261220b575b506121859192613633565b116121c757906121b8817faca8fb252cde442184e5f10e0f2e6e4029e8cd7717cae63559079610702436aa949386613af4565b604051908152a3600160065580f35b6064836040519062461bcd60e51b82526004820152601e60248201527f43616e6e6f74207265636f7665722070726f7465637465642066756e647300006044820152fd5b809250868092503d8311612236575b6122248183612c9d565b8101031261083a57518361218561217a565b503d61221a565b606460405162461bcd60e51b815260206004820152601960248201527f496e76616c696420726563697069656e742061646472657373000000000000006044820152fd5b503461028b57604036600319011261028b5761229b612b25565b9060243567ffffffffffffffff81116105c8576122bc903690600401612b51565b926122c5613640565b6122cd6134df565b6122e16001600160a01b038216151561357a565b601254926122f36009548511156135c5565b8415612724576101f485116126e05761230d368685612dd2565b6020815191012090818152600e60205260ff60408220541661269c576001600160a01b03600a54166040516370a0823160e01b8152306004820152602081602481855afa90811561265d578391612668575b50612373602492600b549030903390613695565b60206001600160a01b03600a5416604051938480926370a0823160e01b82523060048301525afa801561265d578390612627575b6123b19250613610565b916123bc868561381c565b600160125401601255858252600d6020526040822067ffffffffffffffff881161195f576123ea8154612c01565b601f81116125e2575b508783601f821160011461257f578491612574575b508860011b906000198a60031b1c19161790555b858252600f602052604082209060ff19916001838254161790558252600e6020526001604083209182541617905561245682601754613633565b6017556001600160a01b03600a5416815260196020526040812061247b838254613633565b90556001600160a01b0360115416601254600019810190811161256057813b156115c2578291602483926040519485938492632afc708160e21b845260048401525af1801561255557946001600160a01b0388957f5974d77c5da341f66bb6fb040d92b0c537c5abf5a19d1f8ca12a591f61b9f72f9560209a956080958b9a612546575b509083600a5416916040519788966060885281606089015288880137858a018701528b85015260408401521694601f01601f19168101030190a36001600655604051908152f35b61254f90612c3b565b386124ff565b6040513d84823e3d90fd5b602483634e487b7160e01b81526011600452fd5b905086013538612408565b82855260208520915089601f198116865b8181106125c75750106125ad575b5050600188811b01905561241c565b87013560001960038b901b60f8161c19169055388061259e565b8a84013585556001909401936020938401938d935001612590565b81845260208420601f8a0160051c81019160208b1061261d575b601f0160051c01905b81811061261257506123f3565b848155600101612605565b90915081906125fc565b50906020813d602011612655575b8161264260209383612c9d565b810103126115c257906123b191516123a7565b3d9150612635565b6040513d85823e3d90fd5b90506020813d602011612694575b8161268360209383612c9d565b810103126115c2575161237361235f565b3d9150612676565b606460405162461bcd60e51b815260206004820152601060248201527f55524920616c72656164792075736564000000000000000000000000000000006044820152fd5b606460405162461bcd60e51b815260206004820152600c60248201527f55524920746f6f206c6f6e6700000000000000000000000000000000000000006044820152fd5b606460405162461bcd60e51b815260206004820152601360248201527f5552492063616e6e6f7420626520656d707479000000000000000000000000006044820152fd5b503461028b57604036600319011261028b57612782612b25565b602435906001600160a01b03808061279985612ede565b1692169180831461288d5780331490811561286c575b501561280257828452600460205260408420826001600160a01b03198254161790556127da83612ede565b167f8c5be1e5ebec7d5bd14f71427d1e84f3dd0314c0f7b2291e5b200ac8c7c3b9258480a480f35b608460405162461bcd60e51b815260206004820152603d60248201527f4552433732313a20617070726f76652063616c6c6572206973206e6f7420746f60448201527f6b656e206f776e6572206f7220617070726f76656420666f7220616c6c0000006064820152fd5b9050845260056020526040842033855260205260ff604085205416386127af565b608460405162461bcd60e51b815260206004820152602160248201527f4552433732313a20617070726f76616c20746f2063757272656e74206f776e6560448201527f72000000000000000000000000000000000000000000000000000000000000006064820152fd5b503461028b57602036600319011261028b576020611693600435612f03565b503461028b578060031936011261028b576040519080805461293781612c01565b808552916001918083169081156129bb5750600114612961575b6105238561060a81870382612c9d565b80809450527f290decd9548b62a8d60345a988386fc84ba6bc95484008f6362f93160ef3e5635b8284106129a357505050810160200161060a82610523612951565b80546020858701810191909152909301928101612988565b8695506105239693506020925061060a94915060ff191682840152151560051b8201019293612951565b503461028b578060031936011261028b5760206001600160a01b0360105416604051908152f35b9050346105c85760203660031901126105c8576004357fffffffff0000000000000000000000000000000000000000000000000000000081168091036115c257602092507f80ac58cd000000000000000000000000000000000000000000000000000000008114908115612ab3575b8115612a89575b5015158152f35b7f01ffc9a70000000000000000000000000000000000000000000000000000000091501438612a82565b7f5b5e139f0000000000000000000000000000000000000000000000000000000081149150612a7b565b60005b838110612af05750506000910152565b8181015183820152602001612ae0565b90602091612b1981518092818552858086019101612add565b601f01601f1916010190565b600435906001600160a01b038216820361083a57565b602435906001600160a01b038216820361083a57565b9181601f8401121561083a5782359167ffffffffffffffff831161083a576020838186019501011161083a57565b606090600319011261083a576001600160a01b0390600435828116810361083a5791602435908116810361083a579060443590565b601554811015612beb5760156000527f55f448fdea98c4d29eb340757ef0a66cd03dbb9538908a6a81d96026b71ec4750190600090565b634e487b7160e01b600052603260045260246000fd5b90600182811c92168015612c31575b6020831014612c1b57565b634e487b7160e01b600052602260045260246000fd5b91607f1691612c10565b67ffffffffffffffff8111612c4f57604052565b634e487b7160e01b600052604160045260246000fd5b60c0810190811067ffffffffffffffff821117612c4f57604052565b6020810190811067ffffffffffffffff821117612c4f57604052565b90601f8019910116810190811067ffffffffffffffff821117612c4f57604052565b9060405191826000825492612cd384612c01565b908184526001948581169081600014612d425750600114612cff575b5050612cfd92500383612c9d565b565b9093915060005260209081600020936000915b818310612d2a575050612cfd93508201013880612cef565b85548884018501529485019487945091830191612d12565b915050612cfd94506020925060ff191682840152151560051b8201013880612cef565b604090600319011261083a576004359060243590565b6020908160408183019282815285518094520193019160005b828110612da2575050505090565b835185529381019392810192600101612d94565b67ffffffffffffffff8111612c4f57601f01601f191660200190565b929192612dde82612db6565b91612dec6040519384612c9d565b82948184528183011161083a578281602093846000960137010152565b6001600160a01b03168015612e2957600052600360205260406000205490565b608460405162461bcd60e51b815260206004820152602960248201527f4552433732313a2061646472657373207a65726f206973206e6f74206120766160448201527f6c6964206f776e657200000000000000000000000000000000000000000000006064820152fd5b15612e9a57565b606460405162461bcd60e51b815260206004820152601860248201527f4552433732313a20696e76616c696420746f6b656e20494400000000000000006044820152fd5b60005260026020526001600160a01b0360406000205416612f00811515612e93565b90565b612f2b612f268260005260026020526001600160a01b0360406000205416151590565b612e93565b60005260046020526001600160a01b036040600020541690565b15612f4c57565b608460405162461bcd60e51b815260206004820152602d60248201527f4552433732313a2063616c6c6572206973206e6f7420746f6b656e206f776e6560448201527f72206f7220617070726f766564000000000000000000000000000000000000006064820152fd5b15612fbd57565b60405162461bcd60e51b815260206004820152603260248201527f4552433732313a207472616e7366657220746f206e6f6e20455243373231526560448201527f63656976657220696d706c656d656e74657200000000000000000000000000006064820152608490fd5b0390fd5b906001600160a01b03808061304084612ede565b16931691838314938415613073575b50831561305d575b50505090565b61306991929350612f03565b1614388080613057565b909350600052600560205260406000208260005260205260ff60406000205416923861304f565b156130a157565b608460405162461bcd60e51b815260206004820152602560248201527f4552433732313a207472616e736665722066726f6d20696e636f72726563742060448201527f6f776e65720000000000000000000000000000000000000000000000000000006064820152fd5b906131339161311984612ede565b916001600160a01b0393849384809416948591161461309a565b16918215613224578161315e918115158061320c575b6131d7575b61315786612ede565b161461309a565b7fddf252ad1be2c89b69c2b068fc378daa952ba7f163c4a11628f55a4df523b3ef60008481526004602052604081206001600160a01b03199081815416905583825260036020526040822060001981540190558482526040822060018154019055858252600260205284604083209182541617905580a4565b6131e0866141a4565b81867fbe50bf6d5ebc58e29a68dddccdef1c087a9e6dd728a5c3247051d7fdad14219b600080a361314e565b5085600052601460205260ff60406000205416613149565b608460405162461bcd60e51b8152602060048201526024808201527f4552433732313a207472616e7366657220746f20746865207a65726f2061646460448201527f72657373000000000000000000000000000000000000000000000000000000006064820152fd5b3d156132b8573d9061329e82612db6565b916132ac6040519384612c9d565b82523d6000602084013e565b606090565b9091600091803b1561342a576133106020916001600160a01b039385604051958680958194630a85bd0160e11b9b8c84523360048501528560248501526044840152608060648401526084830190612b00565b0393165af1908290826133ca575b50506133a45761332c61328d565b8051908161339f5760405162461bcd60e51b815260206004820152603260248201527f4552433732313a207472616e7366657220746f206e6f6e20455243373231526560448201527f63656976657220696d706c656d656e74657200000000000000000000000000006064820152608490fd5b602001fd5b7fffffffff00000000000000000000000000000000000000000000000000000000161490565b909192506020813d8211613422575b816133e660209383612c9d565b810103126105c85751907fffffffff000000000000000000000000000000000000000000000000000000008216820361028b575090388061331e565b3d91506133d9565b50505050600190565b91926000929190813b1561348a576020916133109185604051958680958194630a85bd0160e11b9b8c84523360048501526001600160a01b0380951660248501526044840152608060648401526084830190612b00565b5050505050600190565b1561349b57565b606460405162461bcd60e51b815260206004820152600c60248201527f4f6e6c792063726561746f7200000000000000000000000000000000000000006044820152fd5b60ff600754166134eb57565b606460405162461bcd60e51b815260206004820152601060248201527f5061757361626c653a20706175736564000000000000000000000000000000006044820152fd5b1561353657565b606460405162461bcd60e51b815260206004820152601660248201527f5072696365206d75737420626520706f736974697665000000000000000000006044820152fd5b1561358157565b606460405162461bcd60e51b815260206004820152601160248201527f496e76616c696420726563697069656e740000000000000000000000000000006044820152fd5b156135cc57565b606460405162461bcd60e51b815260206004820152601260248201527f4d617820737570706c79207265616368656400000000000000000000000000006044820152fd5b9190820391821161361d57565b634e487b7160e01b600052601160045260246000fd5b9190820180921161361d57565b600260065414613651576002600655565b606460405162461bcd60e51b815260206004820152601f60248201527f5265656e7472616e637947756172643a207265656e7472616e742063616c6c006044820152fd5b9290604051927f23b872dd0000000000000000000000000000000000000000000000000000000060208501526001600160a01b03809216602485015216604483015260648201526064815260a081019181831067ffffffffffffffff841117612c4f57612cfd926040525b6001600160a01b031690604051604081019080821067ffffffffffffffff831117612c4f57613773916040526020938482527f5361666545524332303a206c6f772d6c6576656c2063616c6c206661696c6564858301526000808587829751910182855af161376d61328d565b9161397b565b8051918215918483156137f8575b50505090501561378e5750565b6084906040519062461bcd60e51b82526004820152602a60248201527f5361666545524332303a204552433230206f7065726174696f6e20646964206e60448201527f6f742073756363656564000000000000000000000000000000000000000000006064820152fd5b9193818094500103126105c85782015190811515820361028b575080388084613781565b60405161382881612c81565b6000928382526001600160a01b0383169283156138ec57816108c194612cfd9661387161386b8460005260026020526001600160a01b0360406000205416151590565b15613930565b61389461386b8460005260026020526001600160a01b0360406000205416151590565b81815260036020526040812060018154019055828152600260205260408120826001600160a01b03198254161790557fddf252ad1be2c89b69c2b068fc378daa952ba7f163c4a11628f55a4df523b3ef8180a46132bd565b606460405162461bcd60e51b815260206004820152602060248201527f4552433732313a206d696e7420746f20746865207a65726f20616464726573736044820152fd5b1561393757565b606460405162461bcd60e51b815260206004820152601c60248201527f4552433732313a20746f6b656e20616c7265616479206d696e746564000000006044820152fd5b919290156139dc575081511561398f575090565b3b156139985790565b606460405162461bcd60e51b815260206004820152601d60248201527f416464726573733a2063616c6c20746f206e6f6e2d636f6e74726163740000006044820152fd5b8251909150156139ef5750805190602001fd5b6130289060405191829162461bcd60e51b8352602060048401526024830190612b00565b15613a1a57565b606460405162461bcd60e51b815260206004820152601460248201527f546f6b656e20646f6573206e6f742065786973740000000000000000000000006044820152fd5b15613a6557565b606460405162461bcd60e51b815260206004820152600f60248201527f4e6f7420746f6b656e206f776e657200000000000000000000000000000000006044820152fd5b15613ab057565b606460405162461bcd60e51b815260206004820152601060248201527f546f6b656e206e6f74206c6973746564000000000000000000000000000000006044820152fd5b916001600160a01b03604051927fa9059cbb000000000000000000000000000000000000000000000000000000006020850152166024830152604482015260448152608081019181831067ffffffffffffffff841117612c4f57612cfd92604052613700565b15613b6157565b606460405162461bcd60e51b815260206004820152601560248201527f496e76616c696420746f6b656e206164647265737300000000000000000000006044820152fd5b15613bac57565b606460405162461bcd60e51b815260206004820152601760248201527f416d6f756e74206d75737420626520706f7369746976650000000000000000006044820152fd5b67ffffffffffffffff8111612c4f5760051b60200190565b600019811461361d5760010190565b8051821015612beb5760209160051b010190565b906015549081831015613d7d57613c5691613c47849283613633565b90808211613d75575b50613610565b613c5f81613bf0565b91604090613c6f82519485612c9d565b828452601f19613c7e84613bf0565b0160005b818110613d3657505060005b838110613c9c575050505090565b80613cb2613cad613d319385613633565b612bb4565b9054600391821b1c60005260ff60056020601381528760002090885194613cd886612c65565b825486526001600160a01b0391826001850154169087015260028301548a87015282015416606085015260048101546080850152015416151560a0820152613d208288613c17565b52613d2b8187613c17565b50613c08565b613c8e565b6020908451613d4481612c65565b60008152826000818301526000878301526000606083015260006080830152600060a0830152828901015201613c82565b905038613c50565b505050604051613d8c81612c81565b6000815290565b90613d9d82613bf0565b613daa6040519182612c9d565b8281528092613dbb601f1991613bf0565b0190602036910137565b613dce81612e09565b8015613e6757613ddd90613d93565b906000600191601254925b838110613df6575050505090565b613e168160005260026020526001600160a01b0360406000205416151590565b80613e4a575b613e2f575b613e2a90613c08565b613de8565b91613e428184610571613e2a9489613c17565b929050613e21565b50613e5481612ede565b6001600160a01b03808416911614613e1c565b5050604051613e7581612c81565b60008152600036813790565b613ea46109db8260005260026020526001600160a01b0360406000205416151590565b600090808252602090600f825260409260ff848220541661416157613ee2612f268360005260026020526001600160a01b0360406000205416151590565b83519181600854613ef281612c01565b80865285878101936001938985821691826000146141465750506001146140eb575b613f2092500386612c9d565b8451156140d45782839185947a184f03e93ff9f4daa797ed6e38ed64bf6a1f01000000000000000090818110156140c7575b5050876d04ee2d6d415b85acef8100000000808510156140b9575b5050662386f26fc10000808410156140aa575b506305f5e1008084101561409b575b506127108084101561408c575b50606483101561407c575b600a80931015614073575b9081602186613fdb838d9901613fd3613fca82612db6565b9a519a8b612c9d565b808a52612db6565b888c019990601f1901368b3750870101905b614030575b5050505090614024612f0095949392614015975197889551809288880190612add565b84019151809386840190612add565b01038084520182612c9d565b600019019083907f30313233343536373839616263646566000000000000000000000000000000008282061a83530491821561406e57919082613fed565b613ff2565b80940193613fb2565b9391606460029104920193613fa7565b60049195930492019338613f9c565b60089195930492019338613f8f565b60109195930492019338613f80565b950194909204918738613f6d565b8a96500492503880613f52565b5050509291505051906140e682612c81565b815290565b505060088552858786847ff3f7a9fe364faab93b216da50a3214154f22a0a2b415b23a84c8169e8b636ee35b85831061412d575050613f209350820101613f14565b80919294505483858c0101520191018890848993614117565b60ff19168752613f2094151560051b8401019150613f149050565b9050600d612f0093925220612cbf565b600052600f60205260ff6040600020541661419257604051613d8c81612c81565b600d602052612f006040600020612cbf565b6000908082526020601481526040916141c260ff8486205416613aa9565b80845260168252828420546015546000199190828101908111614283576141e890612bb4565b90549060031b1c6141fc816111a384612bb4565b86526016845284862055601554801561426f5790806016949392019061422182612bb4565b909182549160031b1b1916905560155584526013815283600584822082815582600182015582600282015582600382015582600482015501556014815282842060ff19815416905552812055565b602486634e487b7160e01b81526031600452fd5b602487634e487b7160e01b81526011600452fdfea26469706673582212206d44880c769d1d4f461f525d98869931119c221f47c8f78bd76f2ea40f96549564736f6c63430008130033290decd9548b62a8d60345a988386fc84ba6bc95484008f6362f93160ef3e563f3f7a9fe364faab93b216da50a3214154f22a0a2b415b23a84c8169e8b636ee3b10e2d527612073b26eecdfd717e6a320cf44b4afac2b0732d9fcbe2b7fa0cf6",
  "linkReferences": {},
  "deployedLinkReferences": {}
}